{
	"data": {
		"bytecode": {
			"linkReferences": {},
			"object": "6101006040526175306006556175306007556706f05b59d3b20000600a556001600b5f6101000a81548160ff0219169083151502179055506007600c55620a8c00600d55614650600e55620f4240600f55617526601055614e20601155600a6012556201ec3060135567016345785d8a00006014556729a2241af62c0000601555671bc16d674ec800006016556203d090601b55670de0b6b3a7640000602755674563918244f400006028556101f4602955614e20602b556001602c5f6101000a81548160ff02191690831515021790555062030cdc602d556064602e55611c20602f553480156100ee575f5ffd5b5060405161d2f938038061d2f983398181016040528101906101109190611a83565b81858581600390816101229190611d84565b5080600490816101329190611d84565b5050505f73ffffffffffffffffffffffffffffffffffffffff168173ffffffffffffffffffffffffffffffffffffffff16036101a5575f6040517f1e4fbdf700000000000000000000000000000000000000000000000000000000815260040161019c9190611e62565b60405180910390fd5b6101b48161065160201b60201c565b505f73ffffffffffffffffffffffffffffffffffffffff168873ffffffffffffffffffffffffffffffffffffffff16148061021a57505f73ffffffffffffffffffffffffffffffffffffffff168773ffffffffffffffffffffffffffffffffffffffff16145b8061025057505f73ffffffffffffffffffffffffffffffffffffffff168673ffffffffffffffffffffffffffffffffffffffff16145b8061028657505f73ffffffffffffffffffffffffffffffffffffffff168173ffffffffffffffffffffffffffffffffffffffff16145b156102bd576040517fd92e233d00000000000000000000000000000000000000000000000000000000815260040160405180910390fd5b8773ffffffffffffffffffffffffffffffffffffffff1660a08173ffffffffffffffffffffffffffffffffffffffff16815250508660215f6101000a81548173ffffffffffffffffffffffffffffffffffffffff021916908373ffffffffffffffffffffffffffffffffffffffff1602179055508060225f6101000a81548173ffffffffffffffffffffffffffffffffffffffff021916908373ffffffffffffffffffffffffffffffffffffffff1602179055508773ffffffffffffffffffffffffffffffffffffffff1663ad5c46486040518163ffffffff1660e01b8152600401602060405180830381865afa1580156103ba573d5f5f3e3d5ffd5b505050506040513d601f19601f820116820180604052508101906103de9190611e7b565b73ffffffffffffffffffffffffffffffffffffffff1660c08173ffffffffffffffffffffffffffffffffffffffff16815250506104208861071460201b60201c565b73ffffffffffffffffffffffffffffffffffffffff1660808173ffffffffffffffffffffffffffffffffffffffff16815250506104878661046561092e60201b60201c565b600a610471919061200e565b8561047c9190612058565b61093660201b60201c565b6040516104939061189c565b604051809103905ff0801580156104ac573d5f5f3e3d5ffd5b5073ffffffffffffffffffffffffffffffffffffffff1660e08173ffffffffffffffffffffffffffffffffffffffff16815250506001601c5f60e05173ffffffffffffffffffffffffffffffffffffffff1673ffffffffffffffffffffffffffffffffffffffff1681526020019081526020015f205f6101000a81548160ff0219169083151502179055506001601c5f3073ffffffffffffffffffffffffffffffffffffffff1673ffffffffffffffffffffffffffffffffffffffff1681526020019081526020015f205f6101000a81548160ff0219169083151502179055506001601c5f8873ffffffffffffffffffffffffffffffffffffffff1673ffffffffffffffffffffffffffffffffffffffff1681526020019081526020015f205f6101000a81548160ff0219169083151502179055506001601c5f8973ffffffffffffffffffffffffffffffffffffffff1673ffffffffffffffffffffffffffffffffffffffff1681526020019081526020015f205f6101000a81548160ff0219169083151502179055506106446109bb60201b60201c565b50505050505050506121e0565b5f60055f9054906101000a900473ffffffffffffffffffffffffffffffffffffffff1690508160055f6101000a81548173ffffffffffffffffffffffffffffffffffffffff021916908373ffffffffffffffffffffffffffffffffffffffff1602179055508173ffffffffffffffffffffffffffffffffffffffff168173ffffffffffffffffffffffffffffffffffffffff167f8be0079c531659141344cd1fd0a4f28419497f9722a3daafe3b4186f6b6457e060405160405180910390a35050565b5f5f8273ffffffffffffffffffffffffffffffffffffffff1663c45a01556040518163ffffffff1660e01b8152600401602060405180830381865afa15801561075f573d5f5f3e3d5ffd5b505050506040513d601f19601f820116820180604052508101906107839190611e7b565b90505f8373ffffffffffffffffffffffffffffffffffffffff1663ad5c46486040518163ffffffff1660e01b8152600401602060405180830381865afa1580156107cf573d5f5f3e3d5ffd5b505050506040513d601f19601f820116820180604052508101906107f39190611e7b565b90505f8273ffffffffffffffffffffffffffffffffffffffff1663e6a4390530846040518363ffffffff1660e01b8152600401610831929190612099565b602060405180830381865afa15801561084c573d5f5f3e3d5ffd5b505050506040513d601f19601f820116820180604052508101906108709190611e7b565b90505f73ffffffffffffffffffffffffffffffffffffffff168173ffffffffffffffffffffffffffffffffffffffff1603610923578273ffffffffffffffffffffffffffffffffffffffff1663c9c6539630846040518363ffffffff1660e01b81526004016108e0929190612099565b6020604051808303815f875af11580156108fc573d5f5f3e3d5ffd5b505050506040513d601f19601f820116820180604052508101906109209190611e7b565b90505b809350505050919050565b5f6012905090565b5f73ffffffffffffffffffffffffffffffffffffffff168273ffffffffffffffffffffffffffffffffffffffff16036109a6575f6040517fec442f0500000000000000000000000000000000000000000000000000000000815260040161099d9190611e62565b60405180910390fd5b6109b75f8383610b3360201b60201c565b5050565b6040518060400160405280678ac7230489e8000081526020016201117081525060195f600160ff1681526020019081526020015f205f820151815f01556020820151816001015590505060405180604001604052806802b5e3af16b188000081526020016201fbd081525060195f600260ff1681526020019081526020015f205f820151815f0155602082015181600101559050506040518060400160405280680ad78ebc5ac620000081526020016202710081525060195f600360ff1681526020019081526020015f205f820151815f0155602082015181600101559050506040518060400160405280681b1ae4d6e2ef50000081526020016202bf2081525060195f600460ff1681526020019081526020015f205f820151815f015560208201518160010155905050604051806040016040528068410d586a20a4c0000081526020016203d09081525060195f600560ff1681526020019081526020015f205f820151815f015560208201518160010155905050565b5f73ffffffffffffffffffffffffffffffffffffffff168373ffffffffffffffffffffffffffffffffffffffff1614158015610bb55750601d5f8473ffffffffffffffffffffffffffffffffffffffff1673ffffffffffffffffffffffffffffffffffffffff1681526020019081526020015f205f9054906101000a900460ff165b15610bec576040517f09550c7700000000000000000000000000000000000000000000000000000000815260040160405180910390fd5b5f73ffffffffffffffffffffffffffffffffffffffff168273ffffffffffffffffffffffffffffffffffffffff1614158015610c6e5750601d5f8373ffffffffffffffffffffffffffffffffffffffff1673ffffffffffffffffffffffffffffffffffffffff1681526020019081526020015f205f9054906101000a900460ff165b15610ca5576040517f09550c7700000000000000000000000000000000000000000000000000000000815260040160405180910390fd5b600b5f9054906101000a900460ff168015610cec57505f73ffffffffffffffffffffffffffffffffffffffff168373ffffffffffffffffffffffffffffffffffffffff1614155b8015610d2457505f73ffffffffffffffffffffffffffffffffffffffff168273ffffffffffffffffffffffffffffffffffffffff1614155b8015610d5b57503273ffffffffffffffffffffffffffffffffffffffff168373ffffffffffffffffffffffffffffffffffffffff16145b8015610dee57505f73ffffffffffffffffffffffffffffffffffffffff1660085f8473ffffffffffffffffffffffffffffffffffffffff1673ffffffffffffffffffffffffffffffffffffffff1681526020019081526020015f205f9054906101000a900473ffffffffffffffffffffffffffffffffffffffff1673ffffffffffffffffffffffffffffffffffffffff16145b8015610dfc5750600a548110155b8015610e145750610e12836113bf60201b60201c565b155b8015610e2c5750610e2a826113bf60201b60201c565b155b15610e4257610e41828461143060201b60201c565b5b5f5f60805173ffffffffffffffffffffffffffffffffffffffff168573ffffffffffffffffffffffffffffffffffffffff161480610ead575060a05173ffffffffffffffffffffffffffffffffffffffff168573ffffffffffffffffffffffffffffffffffffffff16145b90505f60805173ffffffffffffffffffffffffffffffffffffffff168573ffffffffffffffffffffffffffffffffffffffff161480610f19575060a05173ffffffffffffffffffffffffffffffffffffffff168573ffffffffffffffffffffffffffffffffffffffff16145b90508180610f245750805b8015610f3d5750600560149054906101000a900460ff16155b156110ff575f601c5f8873ffffffffffffffffffffffffffffffffffffffff1673ffffffffffffffffffffffffffffffffffffffff1681526020019081526020015f205f9054906101000a900460ff1680610fc5575060805173ffffffffffffffffffffffffffffffffffffffff168773ffffffffffffffffffffffffffffffffffffffff16145b80610ffd575060a05173ffffffffffffffffffffffffffffffffffffffff168773ffffffffffffffffffffffffffffffffffffffff16145b90505f601c5f8873ffffffffffffffffffffffffffffffffffffffff1673ffffffffffffffffffffffffffffffffffffffff1681526020019081526020015f205f9054906101000a900460ff1680611082575060805173ffffffffffffffffffffffffffffffffffffffff168773ffffffffffffffffffffffffffffffffffffffff16145b806110ba575060a05173ffffffffffffffffffffffffffffffffffffffff168773ffffffffffffffffffffffffffffffffffffffff16145b90508180156110c65750805b6110fc576040517fbcb8b8fb00000000000000000000000000000000000000000000000000000000815260040160405180910390fd5b50505b601c5f8773ffffffffffffffffffffffffffffffffffffffff1673ffffffffffffffffffffffffffffffffffffffff1681526020019081526020015f205f9054906101000a900460ff168061119a5750601c5f8673ffffffffffffffffffffffffffffffffffffffff1673ffffffffffffffffffffffffffffffffffffffff1681526020019081526020015f205f9054906101000a900460ff165b611208578180156111ac57505f600654115b156111d457620f4240600654856111c39190612058565b6111cd91906120ed565b9250611207565b8080156111e257505f600754115b1561120657620f4240600754856111f99190612058565b61120391906120ed565b92505b5b5b5f83111561127b5761122186308561168360201b60201c565b8015611244578260205f828254611238919061211d565b9250508190555061127a565b82601f5f620151804261125791906120ed565b81526020019081526020015f205f828254611272919061211d565b925050819055505b5b5f83856112889190612150565b90508180156112a25750601a5f9054906101000a900460ff165b80156112da57505f73ffffffffffffffffffffffffffffffffffffffff168773ffffffffffffffffffffffffffffffffffffffff1614155b801561132d5750601c5f8873ffffffffffffffffffffffffffffffffffffffff1673ffffffffffffffffffffffffffffffffffffffff1681526020019081526020015f205f9054906101000a900460ff16155b1561139c575f620f4240601b54836113459190612058565b61134f91906120ed565b90505f81111561139a5780826113659190612150565b91506113998860215f9054906101000a900473ffffffffffffffffffffffffffffffffffffffff168361168360201b60201c565b5b505b5f8111156113b6576113b587878361168360201b60201c565b5b50505050505050565b5f60805173ffffffffffffffffffffffffffffffffffffffff168273ffffffffffffffffffffffffffffffffffffffff161480611429575060a05173ffffffffffffffffffffffffffffffffffffffff168273ffffffffffffffffffffffffffffffffffffffff16145b9050919050565b5f73ffffffffffffffffffffffffffffffffffffffff1660085f8473ffffffffffffffffffffffffffffffffffffffff1673ffffffffffffffffffffffffffffffffffffffff1681526020019081526020015f205f9054906101000a900473ffffffffffffffffffffffffffffffffffffffff1673ffffffffffffffffffffffffffffffffffffffff161480156114f357505f73ffffffffffffffffffffffffffffffffffffffff168173ffffffffffffffffffffffffffffffffffffffff1614155b801561152b57505f73ffffffffffffffffffffffffffffffffffffffff168273ffffffffffffffffffffffffffffffffffffffff1614155b801561156357508173ffffffffffffffffffffffffffffffffffffffff168173ffffffffffffffffffffffffffffffffffffffff1614155b1561167f578060085f8473ffffffffffffffffffffffffffffffffffffffff1673ffffffffffffffffffffffffffffffffffffffff1681526020019081526020015f205f6101000a81548173ffffffffffffffffffffffffffffffffffffffff021916908373ffffffffffffffffffffffffffffffffffffffff16021790555060095f8273ffffffffffffffffffffffffffffffffffffffff1673ffffffffffffffffffffffffffffffffffffffff1681526020019081526020015f2082908060018154018082558091505060019003905f5260205f20015f9091909190916101000a81548173ffffffffffffffffffffffffffffffffffffffff021916908373ffffffffffffffffffffffffffffffffffffffff1602179055505b5050565b5f73ffffffffffffffffffffffffffffffffffffffff168373ffffffffffffffffffffffffffffffffffffffff16036116d3578060025f8282546116c7919061211d565b925050819055506117a1565b5f5f5f8573ffffffffffffffffffffffffffffffffffffffff1673ffffffffffffffffffffffffffffffffffffffff1681526020019081526020015f205490508181101561175c578381836040517fe450d38c00000000000000000000000000000000000000000000000000000000815260040161175393929190612192565b60405180910390fd5b8181035f5f8673ffffffffffffffffffffffffffffffffffffffff1673ffffffffffffffffffffffffffffffffffffffff1681526020019081526020015f2081905550505b5f73ffffffffffffffffffffffffffffffffffffffff168273ffffffffffffffffffffffffffffffffffffffff16036117e8578060025f8282540392505081905550611832565b805f5f8473ffffffffffffffffffffffffffffffffffffffff1673ffffffffffffffffffffffffffffffffffffffff1681526020019081526020015f205f82825401925050819055505b8173ffffffffffffffffffffffffffffffffffffffff168373ffffffffffffffffffffffffffffffffffffffff167fddf252ad1be2c89b69c2b068fc378daa952ba7f163c4a11628f55a4df523b3ef8360405161188f91906121c7565b60405180910390a3505050565b6101518061d1a883390190565b5f604051905090565b5f5ffd5b5f5ffd5b5f73ffffffffffffffffffffffffffffffffffffffff82169050919050565b5f6118e3826118ba565b9050919050565b6118f3816118d9565b81146118fd575f5ffd5b50565b5f8151905061190e816118ea565b92915050565b5f5ffd5b5f5ffd5b5f601f19601f8301169050919050565b7f4e487b71000000000000000000000000000000000000000000000000000000005f52604160045260245ffd5b6119628261191c565b810181811067ffffffffffffffff821117156119815761198061192c565b5b80604052505050565b5f6119936118a9565b905061199f8282611959565b919050565b5f67ffffffffffffffff8211156119be576119bd61192c565b5b6119c78261191c565b9050602081019050919050565b8281835e5f83830152505050565b5f6119f46119ef846119a4565b61198a565b905082815260208101848484011115611a1057611a0f611918565b5b611a1b8482856119d4565b509392505050565b5f82601f830112611a3757611a36611914565b5b8151611a478482602086016119e2565b91505092915050565b5f819050919050565b611a6281611a50565b8114611a6c575f5ffd5b50565b5f81519050611a7d81611a59565b92915050565b5f5f5f5f5f5f5f5f610100898b031215611aa057611a9f6118b2565b5b5f611aad8b828c01611900565b9850506020611abe8b828c01611900565b9750506040611acf8b828c01611900565b965050606089015167ffffffffffffffff811115611af057611aef6118b6565b5b611afc8b828c01611a23565b955050608089015167ffffffffffffffff811115611b1d57611b1c6118b6565b5b611b298b828c01611a23565b94505060a0611b3a8b828c01611a6f565b93505060c0611b4b8b828c01611900565b92505060e0611b5c8b828c01611900565b9150509295985092959890939650565b5f81519050919050565b7f4e487b71000000000000000000000000000000000000000000000000000000005f52602260045260245ffd5b5f6002820490506001821680611bba57607f821691505b602082108103611bcd57611bcc611b76565b5b50919050565b5f819050815f5260205f209050919050565b5f6020601f8301049050919050565b5f82821b905092915050565b5f60088302611c2f7fffffffffffffffffffffffffffffffffffffffffffffffffffffffffffffffff82611bf4565b611c398683611bf4565b95508019841693508086168417925050509392505050565b5f819050919050565b5f611c74611c6f611c6a84611a50565b611c51565b611a50565b9050919050565b5f819050919050565b611c8d83611c5a565b611ca1611c9982611c7b565b848454611c00565b825550505050565b5f5f905090565b611cb8611ca9565b611cc3818484611c84565b505050565b5f5b82811015611ce957611cde5f828401611cb0565b600181019050611cca565b505050565b601f821115611d3c5782821115611d3b57611d0881611bd3565b611d1183611be5565b611d1a85611be5565b6020861015611d27575f90505b808301611d3682840382611cc8565b505050505b5b505050565b5f82821c905092915050565b5f611d5c5f1984600802611d41565b1980831691505092915050565b5f611d748383611d4d565b9150826002028217905092915050565b611d8d82611b6c565b67ffffffffffffffff811115611da657611da561192c565b5b611db08254611ba3565b611dbb828285611cee565b5f60209050601f831160018114611dec575f8415611dda578287015190505b611de48582611d69565b865550611e4b565b601f198416611dfa86611bd3565b5f5b82811015611e2157848901518255600182019150602085019450602081019050611dfc565b86831015611e3e5784890151611e3a601f891682611d4d565b8355505b6001600288020188555050505b505050505050565b611e5c816118d9565b82525050565b5f602082019050611e755f830184611e53565b92915050565b5f60208284031215611e9057611e8f6118b2565b5b5f611e9d84828501611900565b91505092915050565b7f4e487b71000000000000000000000000000000000000000000000000000000005f52601160045260245ffd5b5f8160011c9050919050565b5f5f8291508390505b6001851115611f2857808604811115611f0457611f03611ea6565b5b6001851615611f135780820291505b8081029050611f2185611ed3565b9450611ee8565b94509492505050565b5f82611f405760019050611ffb565b81611f4d575f9050611ffb565b8160018114611f635760028114611f6d57611f9c565b6001915050611ffb565b60ff841115611f7f57611f7e611ea6565b5b8360020a915084821115611f9657611f95611ea6565b5b50611ffb565b5060208310610133831016604e8410600b8410161715611fd15782820a905083811115611fcc57611fcb611ea6565b5b611ffb565b611fde8484846001611edf565b92509050818404811115611ff557611ff4611ea6565b5b81810290505b9392505050565b5f60ff82169050919050565b5f61201882611a50565b915061202383612002565b92506120507fffffffffffffffffffffffffffffffffffffffffffffffffffffffffffffffff8484611f31565b905092915050565b5f61206282611a50565b915061206d83611a50565b925082820261207b81611a50565b9150828204841483151761209257612091611ea6565b5b5092915050565b5f6040820190506120ac5f830185611e53565b6120b96020830184611e53565b9392505050565b7f4e487b71000000000000000000000000000000000000000000000000000000005f52601260045260245ffd5b5f6120f782611a50565b915061210283611a50565b925082612112576121116120c0565b5b828204905092915050565b5f61212782611a50565b915061213283611a50565b925082820190508082111561214a57612149611ea6565b5b92915050565b5f61215a82611a50565b915061216583611a50565b925082820390508181111561217d5761217c611ea6565b5b92915050565b61218c81611a50565b82525050565b5f6060820190506121a55f830186611e53565b6121b26020830185612183565b6121bf6040830184612183565b949350505050565b5f6020820190506121da5f830184612183565b92915050565b60805160a05160c05160e05161ae536123555f395f81816129a1015281816172f10152818161736501528181617415015281816175960152818161880a0152818161887e0152818161892e01526189dc01525f818161060501528181613949015281816172300152818161745a015281816174d70152818161810c01528181618749015261988401525f818161065a0152818161589e0152818161732601528181618191015281816181b8015281816183c1015281816184410152818161883f0152818161908801528181619130015281816192500152818161934901526199df01525f81816106b00152818161462f01528181616317015281816163c8015281816164800152818161653e0152818161656901528181616f7b01528181617513015281816175b7015281816175de015281816182a60152818161838501528181619033015281816190db015281816191fa015281816192f30152818161968e015281816197db015261998a015261ae535ff3fe6080604052600436106105fe575f3560e01c8063827d6f741161030d578063c466a3b61161019a578063e82bef29116100e6578063f2fde38b1161009f578063f8c6fc3b11610079578063f8c6fc3b14611855578063fda5ecb11461187f578063fe575a87146118a7578063ff41b308146118e3576107e2565b8063f2fde38b146117fb578063f69e204614611823578063f78717061461182d576107e2565b8063e82bef29146116ed578063ea1b28e014611717578063ee8f0b7a14611741578063eeba07fb1461177d578063ef98f953146117a7578063f1887684146117d1576107e2565b8063d32ec35111610153578063dfbf9def1161012d578063dfbf9def14611631578063e1ccd36a1461166f578063e306744914611699578063e55a68b3146116c3576107e2565b8063d32ec351146115a1578063d88e1e23146115cb578063dd62ed3e146115f5576107e2565b8063c466a3b6146114ab578063c51ecc9f146114d5578063c74cab49146114fd578063c770ddd714611525578063cd6a3d5e1461154f578063d01dd6d214611579576107e2565b80639d5bd1ae11610259578063b3ab15fb11610212578063ba76720d116101ec578063ba76720d14611409578063c2a7dea314611431578063c2e5ec0414611459578063c31c9c0714611481576107e2565b8063b3ab15fb1461138d578063b5d475a8146113b5578063b78ac009146113df576107e2565b80639d5bd1ae14611283578063a9059cbb146112ad578063b0e6bc00146112e9578063b29c181f14611313578063b2fde7951461133b578063b307dc9514611363576107e2565b80638e885396116102c65780639343278f116102a05780639343278f146111df57806394f7693a1461120957806395d89b41146112315780639a654cb31461125b576107e2565b80638e885396146111635780639281aa0b1461118d57806392fd039e146111b5576107e2565b8063827d6f741461106f57806382eefca51461109757806385af30c5146110bf57806385dc3004146110e95780638bf60537146111115780638da5cb5b14611139576107e2565b8063392075b21161048b578063603e43d5116103d757806370a08231116103905780637efcc3a21161036a5780637efcc3a214610fb35780637f1795a014610fdd57806380aefd561461101b57806381d5bbe514611045576107e2565b806370a0823114610f39578063715018a614610f7557806375e27e8d14610f8b576107e2565b8063603e43d514610e2f5780636359e6ae14610e5957806365b3a29414610e83578063682674a714610ebf5780636a5ba77814610ee75780636d65d57414610f0f576107e2565b80634699771b116104445780634d7547151161041e5780634d75471514610d875780635666fb6714610db1578063570ca73514610ddb5780635c975abb14610e05576107e2565b80634699771b14610d295780634706240214610d335780634ada218b14610d5d576107e2565b8063392075b214610c1f5780633af32abf14610c475780633fc8cef314610c835780634017b7a114610cad578063441b1d3014610cd7578063441f002714610cff576107e2565b80631955164a1161054a5780632ad2adac116105035780632bd7c8ed116104dd5780632bd7c8ed14610b8f578063313ce56714610ba557806333f3d62814610bcf578063358f2f4c14610bf7576107e2565b80632ad2adac14610b135780632b14ca5614610b3b5780632b31067114610b65576107e2565b80631955164a14610a105780631a8573c214610a385780631b967ad414610a4257806323b872dd14610a7e5780632647620414610aba5780632935a0cc14610ad6576107e2565b80630fc6a11c116105b757806313b28d251161059157806313b28d2514610958578063168ab5841461098257806316c38b3c146109be57806318160ddd146109e6576107e2565b80630fc6a11c146108dc5780630fc8fa41146109065780631213c7fe14610930576107e2565b806306fdde03146107e6578063095ea7b3146108105780630d04c3bc1461084c5780630e010c9e146108745780630faf8baf1461089e5780630fc0482a146108c6576107e2565b366107e2577f000000000000000000000000000000000000000000000000000000000000000073ffffffffffffffffffffffffffffffffffffffff163373ffffffffffffffffffffffffffffffffffffffff1614806106a857507f000000000000000000000000000000000000000000000000000000000000000073ffffffffffffffffffffffffffffffffffffffff163373ffffffffffffffffffffffffffffffffffffffff16145b806106fe57507f000000000000000000000000000000000000000000000000000000000000000073ffffffffffffffffffffffffffffffffffffffff163373ffffffffffffffffffffffffffffffffffffffff16145b6107e05761070a6118f9565b610712611942565b61071a611987565b5f60175f3373ffffffffffffffffffffffffffffffffffffffff1673ffffffffffffffffffffffffffffffffffffffff1681526020019081526020015f2090505f5f8260020154118015610772575081600201544211155b90505f3414801561078e5750601e5f9054906101000a900460ff165b80156107975750805b156107b4576107a5336119ec565b6107ad611d23565b50506107e0565b80156107ca576107c533345f611d2c565b6107d5565b6107d43334612251565b5b6107dd611d23565b50505b005b5f5ffd5b3480156107f1575f5ffd5b506107fa612691565b6040516108079190619cf7565b60405180910390f35b34801561081b575f5ffd5b5061083660048036038101906108319190619dac565b612721565b6040516108439190619e04565b60405180910390f35b348015610857575f5ffd5b50610872600480360381019061086d9190619e1d565b612743565b005b34801561087f575f5ffd5b50610888612885565b6040516108959190619e7c565b60405180910390f35b3480156108a9575f5ffd5b506108c460048036038101906108bf9190619e95565b6128aa565b005b3480156108d1575f5ffd5b506108da61297b565b005b3480156108e7575f5ffd5b506108f061299f565b6040516108fd9190619e7c565b60405180910390f35b348015610911575f5ffd5b5061091a6129c3565b6040516109279190619e04565b60405180910390f35b34801561093b575f5ffd5b5061095660048036038101906109519190619fcb565b6129d5565b005b348015610963575f5ffd5b5061096c612b6a565b604051610979919061a08a565b60405180910390f35b34801561098d575f5ffd5b506109a860048036038101906109a39190619dac565b612b70565b6040516109b59190619e7c565b60405180910390f35b3480156109c9575f5ffd5b506109e460048036038101906109df919061a0cd565b612bb8565b005b3480156109f1575f5ffd5b506109fa612c9c565b604051610a07919061a08a565b60405180910390f35b348015610a1b575f5ffd5b50610a366004803603810190610a31919061a0f8565b612ca5565b005b610a40612dda565b005b348015610a4d575f5ffd5b50610a686004803603810190610a63919061a136565b612ef4565b604051610a75919061a08a565b60405180910390f35b348015610a89575f5ffd5b50610aa46004803603810190610a9f919061a161565b612f3d565b604051610ab19190619e04565b60405180910390f35b610ad46004803603810190610acf919061a136565b612f6b565b005b348015610ae1575f5ffd5b50610afc6004803603810190610af7919061a1e7565b6131eb565b604051610b0a92919061a212565b60405180910390f35b348015610b1e575f5ffd5b50610b396004803603810190610b349190619e95565b61320b565b005b348015610b46575f5ffd5b50610b4f613319565b604051610b5c919061a08a565b60405180910390f35b348015610b70575f5ffd5b50610b7961331f565b604051610b86919061a08a565b60405180910390f35b348015610b9a575f5ffd5b50610ba3613325565b005b348015610bb0575f5ffd5b50610bb96133f6565b604051610bc6919061a248565b60405180910390f35b348015610bda575f5ffd5b50610bf56004803603810190610bf09190619dac565b6133fe565b005b348015610c02575f5ffd5b50610c1d6004803603810190610c18919061a261565b613634565b005b348015610c2a575f5ffd5b50610c456004803603810190610c40919061a2b1565b6137c9565b005b348015610c52575f5ffd5b50610c6d6004803603810190610c68919061a136565b61392a565b604051610c7a9190619e04565b60405180910390f35b348015610c8e575f5ffd5b50610c97613947565b604051610ca49190619e7c565b60405180910390f35b348015610cb8575f5ffd5b50610cc161396b565b604051610cce919061a08a565b60405180910390f35b348015610ce2575f5ffd5b50610cfd6004803603810190610cf89190619e95565b613970565b005b348015610d0a575f5ffd5b50610d13613b20565b604051610d209190619e04565b60405180910390f35b610d31613b32565b005b348015610d3e575f5ffd5b50610d47613c34565b604051610d54919061a08a565b60405180910390f35b348015610d68575f5ffd5b50610d71613c3a565b604051610d7e9190619e04565b60405180910390f35b348015610d92575f5ffd5b50610d9b613c4d565b604051610da89190619e04565b60405180910390f35b348015610dbc575f5ffd5b50610dc5613c5f565b604051610dd29190619e04565b60405180910390f35b348015610de6575f5ffd5b50610def613c71565b604051610dfc9190619e7c565b60405180910390f35b348015610e10575f5ffd5b50610e19613c96565b604051610e269190619e04565b60405180910390f35b348015610e3a575f5ffd5b50610e43613ca9565b604051610e50919061a08a565b60405180910390f35b348015610e64575f5ffd5b50610e6d613cb0565b604051610e7a919061a08a565b60405180910390f35b348015610e8e575f5ffd5b50610ea96004803603810190610ea49190619e95565b613cb7565b604051610eb6919061a08a565b60405180910390f35b348015610eca575f5ffd5b50610ee56004803603810190610ee09190619e1d565b613ccc565b005b348015610ef2575f5ffd5b50610f0d6004803603810190610f08919061a0cd565b613dea565b005b348015610f1a575f5ffd5b50610f23613ecd565b604051610f30919061a08a565b60405180910390f35b348015610f44575f5ffd5b50610f5f6004803603810190610f5a919061a136565b613ed3565b604051610f6c919061a08a565b60405180910390f35b348015610f80575f5ffd5b50610f89613f18565b005b348015610f96575f5ffd5b50610fb16004803603810190610fac919061a2ef565b613f2b565b005b348015610fbe575f5ffd5b50610fc76140f8565b604051610fd4919061a08a565b60405180910390f35b348015610fe8575f5ffd5b506110036004803603810190610ffe919061a136565b6140fe565b6040516110129392919061a366565b60405180910390f35b348015611026575f5ffd5b5061102f614130565b60405161103c919061a08a565b60405180910390f35b348015611050575f5ffd5b50611059614135565b604051611066919061a08a565b60405180910390f35b34801561107a575f5ffd5b506110956004803603810190611090919061a39b565b61413c565b005b3480156110a2575f5ffd5b506110bd60048036038101906110b8919061a419565b6144b9565b005b3480156110ca575f5ffd5b506110d361462d565b6040516110e09190619e7c565b60405180910390f35b3480156110f4575f5ffd5b5061110f600480360381019061110a919061a136565b614651565b005b34801561111c575f5ffd5b506111376004803603810190611132919061a136565b6147c0565b005b348015611144575f5ffd5b5061114d61492f565b60405161115a9190619e7c565b60405180910390f35b34801561116e575f5ffd5b50611177614957565b604051611184919061a08a565b60405180910390f35b348015611198575f5ffd5b506111b360048036038101906111ae919061a4c9565b61495e565b005b3480156111c0575f5ffd5b506111c9614a7d565b6040516111d6919061a08a565b60405180910390f35b3480156111ea575f5ffd5b506111f3614a83565b604051611200919061a08a565b60405180910390f35b348015611214575f5ffd5b5061122f600480360381019061122a9190619dac565b614a8c565b005b34801561123c575f5ffd5b50611245614ba7565b6040516112529190619cf7565b60405180910390f35b348015611266575f5ffd5b50611281600480360381019061127c919061a0f8565b614c37565b005b34801561128e575f5ffd5b50611297614d4a565b6040516112a4919061a08a565b60405180910390f35b3480156112b8575f5ffd5b506112d360048036038101906112ce9190619dac565b614d50565b6040516112e09190619e04565b60405180910390f35b3480156112f4575f5ffd5b506112fd614d72565b60405161130a919061a08a565b60405180910390f35b34801561131e575f5ffd5b5061133960048036038101906113349190619dac565b614d78565b005b348015611346575f5ffd5b50611361600480360381019061135c919061a136565b61528e565b005b34801561136e575f5ffd5b506113776153fd565b604051611384919061a08a565b60405180910390f35b348015611398575f5ffd5b506113b360048036038101906113ae919061a136565b615403565b005b3480156113c0575f5ffd5b506113c9615572565b6040516113d69190619e04565b60405180910390f35b3480156113ea575f5ffd5b506113f3615584565b604051611400919061a08a565b60405180910390f35b348015611414575f5ffd5b5061142f600480360381019061142a9190619e95565b61558a565b005b34801561143c575f5ffd5b5061145760048036038101906114529190619e95565b615698565b005b348015611464575f5ffd5b5061147f600480360381019061147a919061a0cd565b6157b8565b005b34801561148c575f5ffd5b5061149561589c565b6040516114a29190619e7c565b60405180910390f35b3480156114b6575f5ffd5b506114bf6158c0565b6040516114cc9190619e7c565b60405180910390f35b3480156114e0575f5ffd5b506114fb60048036038101906114f6919061a507565b6158e5565b005b348015611508575f5ffd5b50611523600480360381019061151e9190619e95565b615a0d565b005b348015611530575f5ffd5b50611539615b56565b604051611546919061a08a565b60405180910390f35b34801561155a575f5ffd5b50611563615b5c565b604051611570919061a08a565b60405180910390f35b348015611584575f5ffd5b5061159f600480360381019061159a919061a4c9565b615b62565b005b3480156115ac575f5ffd5b506115b5615c81565b6040516115c2919061a08a565b60405180910390f35b3480156115d6575f5ffd5b506115df615c86565b6040516115ec919061a08a565b60405180910390f35b348015611600575f5ffd5b5061161b6004803603810190611616919061a545565b615c8c565b604051611628919061a08a565b60405180910390f35b34801561163c575f5ffd5b506116576004803603810190611652919061a136565b615d0e565b6040516116669392919061a583565b60405180910390f35b34801561167a575f5ffd5b50611683615d34565b604051611690919061a08a565b60405180910390f35b3480156116a4575f5ffd5b506116ad615d3a565b6040516116ba919061a08a565b60405180910390f35b3480156116ce575f5ffd5b506116d7615d40565b6040516116e4919061a08a565b60405180910390f35b3480156116f8575f5ffd5b50611701615d46565b60405161170e9190619e7c565b60405180910390f35b348015611722575f5ffd5b5061172b615d6b565b604051611738919061a08a565b60405180910390f35b34801561174c575f5ffd5b506117676004803603810190611762919061a136565b615d71565b6040516117749190619e7c565b60405180910390f35b348015611788575f5ffd5b50611791615da1565b60405161179e919061a08a565b60405180910390f35b3480156117b2575f5ffd5b506117bb615da7565b6040516117c8919061a08a565b60405180910390f35b3480156117dc575f5ffd5b506117e5615dad565b6040516117f2919061a08a565b60405180910390f35b348015611806575f5ffd5b50611821600480360381019061181c919061a136565b615db3565b005b61182b615e37565b005b348015611838575f5ffd5b50611853600480360381019061184e919061a5b8565b615ea0565b005b348015611860575f5ffd5b50611869615f9e565b604051611876919061a08a565b60405180910390f35b34801561188a575f5ffd5b506118a560048036038101906118a0919061a0f8565b615fa4565b005b3480156118b2575f5ffd5b506118cd60048036038101906118c8919061a136565b6160c7565b6040516118da9190619e04565b60405180910390f35b3480156118ee575f5ffd5b506118f76160e4565b005b603060019054906101000a900460ff1615611940576040517fd93c066500000000000000000000000000000000000000000000000000000000815260040160405180910390fd5b565b5f6031541461197d576040517fa97af87000000000000000000000000000000000000000000000000000000000815260040160405180910390fd5b6001603181905550565b61198f616215565b602c5f9054906101000a900460ff1680156119b95750602f54602a546119b5919061a663565b4210155b156119c7576119c6616311565b5b6119ea600162015180426119db919061a6c3565b6119e5919061a6f3565b616628565b565b601d5f8273ffffffffffffffffffffffffffffffffffffffff1673ffffffffffffffffffffffffffffffffffffffff1681526020019081526020015f205f9054906101000a900460ff1615611a6d576040517f09550c7700000000000000000000000000000000000000000000000000000000815260040160405180910390fd5b5f60175f8373ffffffffffffffffffffffffffffffffffffffff1673ffffffffffffffffffffffffffffffffffffffff1681526020019081526020015f2090505f81600201541480611ac157505f815f0154145b15611af8576040517f2c5211c600000000000000000000000000000000000000000000000000000000815260040160405180910390fd5b8060020154421115611b36576040517f70f65caa00000000000000000000000000000000000000000000000000000000815260040160405180910390fd5b5f62015180600c54611b48919061a726565b600d54611b55919061a6f3565b9050808260020154118015611b785750808260020154611b75919061a6f3565b42105b15611baf576040517fd0404f8500000000000000000000000000000000000000000000000000000000815260040160405180910390fd5b5f825f015490505f620f4240600c54600e5484611bcc919061a726565b611bd6919061a726565b611be0919061a6c3565b90505f620f4240600f5484611bf5919061a726565b611bff919061a6c3565b90505f611c0c8783616763565b905081811015611c48576040517f90b8ec1800000000000000000000000000000000000000000000000000000000815260040160405180910390fd5b611c6e87620f4240620b71b086611c5f919061a726565b611c69919061a6c3565b616878565b5050611c7a8784616928565b611c82616d2c565b15611d0957611c8f616d83565b73ffffffffffffffffffffffffffffffffffffffff1663b6dfe6ad886040518263ffffffff1660e01b8152600401611cc79190619e7c565b6020604051808303815f875af1158015611ce3573d5f5f3e3d5ffd5b505050506040513d601f19601f82011682018060405250810190611d07919061a77b565b505b611d1287616dab565b611d1a616f6c565b50505050505050565b5f603181905550565b601d5f8473ffffffffffffffffffffffffffffffffffffffff1673ffffffffffffffffffffffffffffffffffffffff1681526020019081526020015f205f9054906101000a900460ff1615611dad576040517f09550c7700000000000000000000000000000000000000000000000000000000815260040160405180910390fd5b5f60175f8573ffffffffffffffffffffffffffffffffffffffff1673ffffffffffffffffffffffffffffffffffffffff1681526020019081526020015f20905081611f25575f816002015403611e2f576040517f2c5211c600000000000000000000000000000000000000000000000000000000815260040160405180910390fd5b8060020154421115611e6d576040517f70f65caa00000000000000000000000000000000000000000000000000000000815260040160405180910390fd5b805f0154831015611eaa576040517f2c5211c600000000000000000000000000000000000000000000000000000000815260040160405180910390fd5b5f62015180600c54611ebc919061a726565b600d54611ec9919061a6f3565b9050808260020154118015611eec5750808260020154611ee9919061a6f3565b42105b15611f23576040517fd0404f8500000000000000000000000000000000000000000000000000000000815260040160405180910390fd5b505b5f815f015490505f620f4240600c54600e5484611f42919061a726565b611f4c919061a726565b611f56919061a6c3565b9050611f6185617050565b5f620f4240600f5484611f74919061a726565b611f7e919061a6c3565b90505f611f8b8883616763565b905081811015611fc7576040517f90b8ec1800000000000000000000000000000000000000000000000000000000815260040160405180910390fd5b611fed88620f4240620b71b086611fde919061a726565b611fe8919061a6c3565b616878565b5050611ff98884616928565b838711156120b8575f601254601154601054620f4240612019919061a6f3565b612023919061a6f3565b61202d919061a6f3565b90505f620f424082878b612041919061a6f3565b61204b919061a726565b612055919061a6c3565b90505f8260135483612067919061a726565b612071919061a6c3565b90508060265f828254612084919061a663565b9250508190555061209f818361209a919061a6f3565b6171ba565b6120b48b888c6120af919061a6f3565b617682565b5050505b86855f0181905550600d54426120ce919061a663565b85600201819055506120de616d2c565b156121eb576120eb616d83565b73ffffffffffffffffffffffffffffffffffffffff1663b6dfe6ad896040518263ffffffff1660e01b81526004016121239190619e7c565b6020604051808303815f875af115801561213f573d5f5f3e3d5ffd5b505050506040513d601f19601f82011682018060405250810190612163919061a77b565b5060165487106121785761217788886177a5565b5b612180616d83565b73ffffffffffffffffffffffffffffffffffffffff1663ff117898898960016040518463ffffffff1660e01b81526004016121bd9392919061a7a6565b5f604051808303815f87803b1580156121d4575f5ffd5b505af11580156121e6573d5f5f3e3d5ffd5b505050505b6121f3616f6c565b8773ffffffffffffffffffffffffffffffffffffffff167f820cea42e8517cf1ec6d4e9db93909255f07c45f7eb0a7c7b5a0f8bdcfc2e5bf88876002015460405161223f92919061a212565b60405180910390a25050505050505050565b601d5f8373ffffffffffffffffffffffffffffffffffffffff1673ffffffffffffffffffffffffffffffffffffffff1681526020019081526020015f205f9054906101000a900460ff16156122d2576040517f09550c7700000000000000000000000000000000000000000000000000000000815260040160405180910390fd5b6014548110806122e3575060155481115b1561231a576040517f2c5211c600000000000000000000000000000000000000000000000000000000815260040160405180910390fd5b5f73ffffffffffffffffffffffffffffffffffffffff1660085f8473ffffffffffffffffffffffffffffffffffffffff1673ffffffffffffffffffffffffffffffffffffffff1681526020019081526020015f205f9054906101000a900473ffffffffffffffffffffffffffffffffffffffff1673ffffffffffffffffffffffffffffffffffffffff16036123db576040517fd92e233d00000000000000000000000000000000000000000000000000000000815260040160405180910390fd5b5f60175f8473ffffffffffffffffffffffffffffffffffffffff1673ffffffffffffffffffffffffffffffffffffffff1681526020019081526020015f2090505f816002015411156124c85780600201544211612464576040517fd0404f8500000000000000000000000000000000000000000000000000000000815260040160405180910390fd5b5f815f015411156124be57805f01548210156124ac576040517f2c5211c600000000000000000000000000000000000000000000000000000000815260040160405180910390fd5b6124b883836001611d2c565b5061268d565b6124c783616dab565b5b6124d182617050565b5f601254601154601054620f42406124e9919061a6f3565b6124f3919061a6f3565b6124fd919061a6f3565b90505f620f424060135485612512919061a726565b61251c919061a6c3565b90508060265f82825461252f919061a663565b92505081905550612565620f42406013548461254b919061a6f3565b86612556919061a726565b612560919061a6c3565b6171ba565b83835f0181905550600d544261257b919061a663565b836002018190555061258d8585617682565b612595616d2c565b15612689576016548410612616576125ab616d83565b73ffffffffffffffffffffffffffffffffffffffff1663b631c4ca866001876040518463ffffffff1660e01b81526004016125e89392919061a7db565b5f604051808303815f87803b1580156125ff575f5ffd5b505af1158015612611573d5f5f3e3d5ffd5b505050505b61261e616d83565b73ffffffffffffffffffffffffffffffffffffffff1663ff117898868660016040518463ffffffff1660e01b815260040161265b9392919061a7a6565b5f604051808303815f87803b158015612672575f5ffd5b505af1158015612684573d5f5f3e3d5ffd5b505050505b5050505b5050565b6060600380546126a09061a83d565b80601f01602080910402602001604051908101604052809291908181526020018280546126cc9061a83d565b80156127175780601f106126ee57610100808354040283529160200191612717565b820191905f5260205f20905b8154815290600101906020018083116126fa57829003601f168201915b5050505050905090565b5f5f61272b617922565b9050612738818585617929565b600191505092915050565b60225f9054906101000a900473ffffffffffffffffffffffffffffffffffffffff1673ffffffffffffffffffffffffffffffffffffffff163373ffffffffffffffffffffffffffffffffffffffff16141580156127d357506127a361492f565b73ffffffffffffffffffffffffffffffffffffffff163373ffffffffffffffffffffffffffffffffffffffff1614155b1561280a576040517f82b4290000000000000000000000000000000000000000000000000000000000815260040160405180910390fd5b620f424081838561281b919061a663565b612825919061a663565b111561285d576040517f58d620b300000000000000000000000000000000000000000000000000000000815260040160405180910390fd5b61286b83838360135461793b565b826010819055508160118190555080601281905550505050565b60235f9054906101000a900473ffffffffffffffffffffffffffffffffffffffff1681565b60225f9054906101000a900473ffffffffffffffffffffffffffffffffffffffff1673ffffffffffffffffffffffffffffffffffffffff163373ffffffffffffffffffffffffffffffffffffffff161415801561293a575061290a61492f565b73ffffffffffffffffffffffffffffffffffffffff163373ffffffffffffffffffffffffffffffffffffffff1614155b15612971576040517f82b4290000000000000000000000000000000000000000000000000000000000815260040160405180910390fd5b8060168190555050565b6129836179ae565b600160305f6101000a81548160ff021916908315150217905550565b7f000000000000000000000000000000000000000000000000000000000000000081565b600b5f9054906101000a900460ff1681565b6129dd6179ae565b60305f9054906101000a900460ff1615612a23576040517f9bb3a4a300000000000000000000000000000000000000000000000000000000815260040160405180910390fd5b8383905086869050141580612a3e5750818190508686905014155b15612a75576040517f2c5211c600000000000000000000000000000000000000000000000000000000815260040160405180910390fd5b5f8686905090505f5f90505b81811015612b60575f60185f8a8a85818110612aa057612a9f61a86d565b5b9050602002016020810190612ab5919061a136565b73ffffffffffffffffffffffffffffffffffffffff1673ffffffffffffffffffffffffffffffffffffffff1681526020019081526020015f209050868683818110612b0357612b0261a86d565b5b90506020020135815f0181905550848483818110612b2457612b2361a86d565b5b9050602002016020810190612b39919061a1e7565b816001015f6101000a81548160ff021916908360ff16021790555081600101915050612a81565b5050505050505050565b60205481565b6009602052815f5260405f208181548110612b89575f80fd5b905f5260205f20015f915091509054906101000a900473ffffffffffffffffffffffffffffffffffffffff1681565b60225f9054906101000a900473ffffffffffffffffffffffffffffffffffffffff1673ffffffffffffffffffffffffffffffffffffffff163373ffffffffffffffffffffffffffffffffffffffff1614158015612c485750612c1861492f565b73ffffffffffffffffffffffffffffffffffffffff163373ffffffffffffffffffffffffffffffffffffffff1614155b15612c7f576040517f82b4290000000000000000000000000000000000000000000000000000000000815260040160405180910390fd5b80603060016101000a81548160ff02191690831515021790555050565b5f600254905090565b60225f9054906101000a900473ffffffffffffffffffffffffffffffffffffffff1673ffffffffffffffffffffffffffffffffffffffff163373ffffffffffffffffffffffffffffffffffffffff1614158015612d355750612d0561492f565b73ffffffffffffffffffffffffffffffffffffffff163373ffffffffffffffffffffffffffffffffffffffff1614155b15612d6c576040517f82b4290000000000000000000000000000000000000000000000000000000000815260040160405180910390fd5b5f821480612d7957505f81145b80612d9157506201518082612d8e919061a726565b81105b15612dc8576040517f2c5211c600000000000000000000000000000000000000000000000000000000815260040160405180910390fd5b81600c8190555080600d819055505050565b60225f9054906101000a900473ffffffffffffffffffffffffffffffffffffffff1673ffffffffffffffffffffffffffffffffffffffff163373ffffffffffffffffffffffffffffffffffffffff1614158015612e6a5750612e3a61492f565b73ffffffffffffffffffffffffffffffffffffffff163373ffffffffffffffffffffffffffffffffffffffff1614155b15612ea1576040517f82b4290000000000000000000000000000000000000000000000000000000000815260040160405180910390fd5b5f3403612eda576040517f2c5211c600000000000000000000000000000000000000000000000000000000815260040160405180910390fd5b3460265f828254612eeb919061a663565b92505081905550565b5f60095f8373ffffffffffffffffffffffffffffffffffffffff1673ffffffffffffffffffffffffffffffffffffffff1681526020019081526020015f20805490509050919050565b5f5f612f47617922565b9050612f54858285617a35565b612f5f858585617ac8565b60019150509392505050565b612f73611942565b612f7b6118f9565b601454341015612fb7576040517f2c5211c600000000000000000000000000000000000000000000000000000000815260040160405180910390fd5b612fbf611987565b5f73ffffffffffffffffffffffffffffffffffffffff168173ffffffffffffffffffffffffffffffffffffffff161415801561308257505f73ffffffffffffffffffffffffffffffffffffffff1660085f3373ffffffffffffffffffffffffffffffffffffffff1673ffffffffffffffffffffffffffffffffffffffff1681526020019081526020015f205f9054906101000a900473ffffffffffffffffffffffffffffffffffffffff1673ffffffffffffffffffffffffffffffffffffffff16145b80156130ba57503373ffffffffffffffffffffffffffffffffffffffff168173ffffffffffffffffffffffffffffffffffffffff1614155b156131d6578060085f3373ffffffffffffffffffffffffffffffffffffffff1673ffffffffffffffffffffffffffffffffffffffff1681526020019081526020015f205f6101000a81548173ffffffffffffffffffffffffffffffffffffffff021916908373ffffffffffffffffffffffffffffffffffffffff16021790555060095f8273ffffffffffffffffffffffffffffffffffffffff1673ffffffffffffffffffffffffffffffffffffffff1681526020019081526020015f2033908060018154018082558091505060019003905f5260205f20015f9091909190916101000a81548173ffffffffffffffffffffffffffffffffffffffff021916908373ffffffffffffffffffffffffffffffffffffffff1602179055505b6131e03334612251565b6131e8611d23565b50565b6019602052805f5260405f205f91509050805f0154908060010154905082565b60225f9054906101000a900473ffffffffffffffffffffffffffffffffffffffff1673ffffffffffffffffffffffffffffffffffffffff163373ffffffffffffffffffffffffffffffffffffffff161415801561329b575061326b61492f565b73ffffffffffffffffffffffffffffffffffffffff163373ffffffffffffffffffffffffffffffffffffffff1614155b156132d2576040517f82b4290000000000000000000000000000000000000000000000000000000000815260040160405180910390fd5b620f424081111561330f576040517f6a43f8d100000000000000000000000000000000000000000000000000000000815260040160405180910390fd5b80600e8190555050565b60075481565b600e5481565b60225f9054906101000a900473ffffffffffffffffffffffffffffffffffffffff1673ffffffffffffffffffffffffffffffffffffffff163373ffffffffffffffffffffffffffffffffffffffff16141580156133b5575061338561492f565b73ffffffffffffffffffffffffffffffffffffffff163373ffffffffffffffffffffffffffffffffffffffff1614155b156133ec576040517f82b4290000000000000000000000000000000000000000000000000000000000815260040160405180910390fd5b6133f4611987565b565b5f6012905090565b60225f9054906101000a900473ffffffffffffffffffffffffffffffffffffffff1673ffffffffffffffffffffffffffffffffffffffff163373ffffffffffffffffffffffffffffffffffffffff161415801561348e575061345e61492f565b73ffffffffffffffffffffffffffffffffffffffff163373ffffffffffffffffffffffffffffffffffffffff1614155b156134c5576040517f82b4290000000000000000000000000000000000000000000000000000000000815260040160405180910390fd5b5f73ffffffffffffffffffffffffffffffffffffffff168273ffffffffffffffffffffffffffffffffffffffff160361352a576040517fd92e233d00000000000000000000000000000000000000000000000000000000815260040160405180910390fd5b5f613533617bb8565b90503073ffffffffffffffffffffffffffffffffffffffff168373ffffffffffffffffffffffffffffffffffffffff160361357857613573308284617c1e565b61362f565b5f8373ffffffffffffffffffffffffffffffffffffffff1663a9059cbb83856040518363ffffffff1660e01b81526004016135b492919061a89a565b6020604051808303815f875af11580156135d0573d5f5f3e3d5ffd5b505050506040513d601f19601f820116820180604052508101906135f4919061a8d5565b90508061362d576040517f90b8ec1800000000000000000000000000000000000000000000000000000000815260040160405180910390fd5b505b505050565b60225f9054906101000a900473ffffffffffffffffffffffffffffffffffffffff1673ffffffffffffffffffffffffffffffffffffffff163373ffffffffffffffffffffffffffffffffffffffff16141580156136c4575061369461492f565b73ffffffffffffffffffffffffffffffffffffffff163373ffffffffffffffffffffffffffffffffffffffff1614155b156136fb576040517f82b4290000000000000000000000000000000000000000000000000000000000815260040160405180910390fd5b5f8360ff16148061370f575060058360ff16115b15613746576040517f2c5211c600000000000000000000000000000000000000000000000000000000815260040160405180910390fd5b620f4240811115613783576040517f6a43f8d100000000000000000000000000000000000000000000000000000000815260040160405180910390fd5b60405180604001604052808381526020018281525060195f8560ff1660ff1681526020019081526020015f205f820151815f015560208201518160010155905050505050565b60225f9054906101000a900473ffffffffffffffffffffffffffffffffffffffff1673ffffffffffffffffffffffffffffffffffffffff163373ffffffffffffffffffffffffffffffffffffffff1614158015613859575061382961492f565b73ffffffffffffffffffffffffffffffffffffffff163373ffffffffffffffffffffffffffffffffffffffff1614155b15613890576040517f82b4290000000000000000000000000000000000000000000000000000000000815260040160405180910390fd5b60058160ff1611156138ce576040517f2c5211c600000000000000000000000000000000000000000000000000000000815260040160405180910390fd5b8060185f8473ffffffffffffffffffffffffffffffffffffffff1673ffffffffffffffffffffffffffffffffffffffff1681526020019081526020015f206001015f6101000a81548160ff021916908360ff1602179055505050565b601c602052805f5260405f205f915054906101000a900460ff1681565b7f000000000000000000000000000000000000000000000000000000000000000081565b600581565b60225f9054906101000a900473ffffffffffffffffffffffffffffffffffffffff1673ffffffffffffffffffffffffffffffffffffffff163373ffffffffffffffffffffffffffffffffffffffff1614158015613a0057506139d061492f565b73ffffffffffffffffffffffffffffffffffffffff163373ffffffffffffffffffffffffffffffffffffffff1614155b15613a37576040517f82b4290000000000000000000000000000000000000000000000000000000000815260040160405180910390fd5b47811115613a71576040517ff4d678b800000000000000000000000000000000000000000000000000000000815260040160405180910390fd5b5f613a7a617bb8565b90505f8173ffffffffffffffffffffffffffffffffffffffff1683604051613aa19061a92d565b5f6040518083038185875af1925050503d805f8114613adb576040519150601f19603f3d011682016040523d82523d5f602084013e613ae0565b606091505b5050905080613b1b576040517f90b8ec1800000000000000000000000000000000000000000000000000000000815260040160405180910390fd5b505050565b60305f9054906101000a900460ff1681565b60225f9054906101000a900473ffffffffffffffffffffffffffffffffffffffff1673ffffffffffffffffffffffffffffffffffffffff163373ffffffffffffffffffffffffffffffffffffffff1614158015613bc25750613b9261492f565b73ffffffffffffffffffffffffffffffffffffffff163373ffffffffffffffffffffffffffffffffffffffff1614155b15613bf9576040517f82b4290000000000000000000000000000000000000000000000000000000000815260040160405180910390fd5b5f3403613c32576040517f2c5211c600000000000000000000000000000000000000000000000000000000815260040160405180910390fd5b565b60065481565b600560149054906101000a900460ff1681565b602c5f9054906101000a900460ff1681565b601a5f9054906101000a900460ff1681565b60225f9054906101000a900473ffffffffffffffffffffffffffffffffffffffff1681565b603060019054906101000a900460ff1681565b620b71b081565b620f424081565b601f602052805f5260405f205f915090505481565b60225f9054906101000a900473ffffffffffffffffffffffffffffffffffffffff1673ffffffffffffffffffffffffffffffffffffffff163373ffffffffffffffffffffffffffffffffffffffff1614158015613d5c5750613d2c61492f565b73ffffffffffffffffffffffffffffffffffffffff163373ffffffffffffffffffffffffffffffffffffffff1614155b15613d93576040517f82b4290000000000000000000000000000000000000000000000000000000000815260040160405180910390fd5b8260278190555081602881905550620f4240811115613dde576040517f6a43f8d100000000000000000000000000000000000000000000000000000000815260040160405180910390fd5b80602981905550505050565b60225f9054906101000a900473ffffffffffffffffffffffffffffffffffffffff1673ffffffffffffffffffffffffffffffffffffffff163373ffffffffffffffffffffffffffffffffffffffff1614158015613e7a5750613e4a61492f565b73ffffffffffffffffffffffffffffffffffffffff163373ffffffffffffffffffffffffffffffffffffffff1614155b15613eb1576040517f82b4290000000000000000000000000000000000000000000000000000000000815260040160405180910390fd5b80601e5f6101000a81548160ff02191690831515021790555050565b600a5481565b5f5f5f8373ffffffffffffffffffffffffffffffffffffffff1673ffffffffffffffffffffffffffffffffffffffff1681526020019081526020015f20549050919050565b613f206179ae565b613f295f617e37565b565b60225f9054906101000a900473ffffffffffffffffffffffffffffffffffffffff1673ffffffffffffffffffffffffffffffffffffffff163373ffffffffffffffffffffffffffffffffffffffff1614158015613fbb5750613f8b61492f565b73ffffffffffffffffffffffffffffffffffffffff163373ffffffffffffffffffffffffffffffffffffffff1614155b15613ff2576040517f82b4290000000000000000000000000000000000000000000000000000000000815260040160405180910390fd5b620f424085111561402f576040517f6a43f8d100000000000000000000000000000000000000000000000000000000815260040160405180910390fd5b5f828461403c919061a663565b03614073576040517f6a43f8d100000000000000000000000000000000000000000000000000000000815260040160405180910390fd5b610e10811080614085575062093a8081115b156140bc576040517f2c5211c600000000000000000000000000000000000000000000000000000000815260040160405180910390fd5b84602b8190555083602c5f6101000a81548160ff02191690831515021790555082602d8190555081602e8190555080602f819055505050505050565b600d5481565b6018602052805f5260405f205f91509050805f015490806001015f9054906101000a900460ff16908060020154905083565b600881565b62030d4081565b6141446179ae565b60305f9054906101000a900460ff161561418a576040517f9bb3a4a300000000000000000000000000000000000000000000000000000000815260040160405180910390fd5b8181905084849050146141c9576040517f2c5211c600000000000000000000000000000000000000000000000000000000815260040160405180910390fd5b5f8484905090505f5f90505b818110156144b1575f73ffffffffffffffffffffffffffffffffffffffff1660085f88888581811061420a5761420961a86d565b5b905060200201602081019061421f919061a136565b73ffffffffffffffffffffffffffffffffffffffff1673ffffffffffffffffffffffffffffffffffffffff1681526020019081526020015f205f9054906101000a900473ffffffffffffffffffffffffffffffffffffffff1673ffffffffffffffffffffffffffffffffffffffff161480156142ee57505f73ffffffffffffffffffffffffffffffffffffffff168484838181106142c0576142bf61a86d565b5b90506020020160208101906142d5919061a136565b73ffffffffffffffffffffffffffffffffffffffff1614155b156144a6578383828181106143065761430561a86d565b5b905060200201602081019061431b919061a136565b60085f8888858181106143315761433061a86d565b5b9050602002016020810190614346919061a136565b73ffffffffffffffffffffffffffffffffffffffff1673ffffffffffffffffffffffffffffffffffffffff1681526020019081526020015f205f6101000a81548173ffffffffffffffffffffffffffffffffffffffff021916908373ffffffffffffffffffffffffffffffffffffffff16021790555060095f8585848181106143d2576143d161a86d565b5b90506020020160208101906143e7919061a136565b73ffffffffffffffffffffffffffffffffffffffff1673ffffffffffffffffffffffffffffffffffffffff1681526020019081526020015f208686838181106144335761443261a86d565b5b9050602002016020810190614448919061a136565b908060018154018082558091505060019003905f5260205f20015f9091909190916101000a81548173ffffffffffffffffffffffffffffffffffffffff021916908373ffffffffffffffffffffffffffffffffffffffff1602179055505b8060010190506141d5565b505050505050565b6144c16179ae565b60305f9054906101000a900460ff1615614507576040517f9bb3a4a300000000000000000000000000000000000000000000000000000000815260040160405180910390fd5b83839050868690501415806145225750818190508686905014155b15614559576040517f2c5211c600000000000000000000000000000000000000000000000000000000815260040160405180910390fd5b5f8686905090505f5f90505b81811015614623575f60175f8a8a858181106145845761458361a86d565b5b9050602002016020810190614599919061a136565b73ffffffffffffffffffffffffffffffffffffffff1673ffffffffffffffffffffffffffffffffffffffff1681526020019081526020015f2090508686838181106145e7576145e661a86d565b5b90506020020135815f01819055508484838181106146085761460761a86d565b5b90506020020135816002018190555081600101915050614565565b5050505050505050565b7f000000000000000000000000000000000000000000000000000000000000000081565b60225f9054906101000a900473ffffffffffffffffffffffffffffffffffffffff1673ffffffffffffffffffffffffffffffffffffffff163373ffffffffffffffffffffffffffffffffffffffff16141580156146e157506146b161492f565b73ffffffffffffffffffffffffffffffffffffffff163373ffffffffffffffffffffffffffffffffffffffff1614155b15614718576040517f82b4290000000000000000000000000000000000000000000000000000000000815260040160405180910390fd5b5f73ffffffffffffffffffffffffffffffffffffffff168173ffffffffffffffffffffffffffffffffffffffff160361477d576040517fd92e233d00000000000000000000000000000000000000000000000000000000815260040160405180910390fd5b8060215f6101000a81548173ffffffffffffffffffffffffffffffffffffffff021916908373ffffffffffffffffffffffffffffffffffffffff16021790555050565b60225f9054906101000a900473ffffffffffffffffffffffffffffffffffffffff1673ffffffffffffffffffffffffffffffffffffffff163373ffffffffffffffffffffffffffffffffffffffff1614158015614850575061482061492f565b73ffffffffffffffffffffffffffffffffffffffff163373ffffffffffffffffffffffffffffffffffffffff1614155b15614887576040517f82b4290000000000000000000000000000000000000000000000000000000000815260040160405180910390fd5b5f73ffffffffffffffffffffffffffffffffffffffff168173ffffffffffffffffffffffffffffffffffffffff16036148ec576040517fd92e233d00000000000000000000000000000000000000000000000000000000815260040160405180910390fd5b8060235f6101000a81548173ffffffffffffffffffffffffffffffffffffffff021916908373ffffffffffffffffffffffffffffffffffffffff16021790555050565b5f60055f9054906101000a900473ffffffffffffffffffffffffffffffffffffffff16905090565b6203d09081565b60225f9054906101000a900473ffffffffffffffffffffffffffffffffffffffff1673ffffffffffffffffffffffffffffffffffffffff163373ffffffffffffffffffffffffffffffffffffffff16141580156149ee57506149be61492f565b73ffffffffffffffffffffffffffffffffffffffff163373ffffffffffffffffffffffffffffffffffffffff1614155b15614a25576040517f82b4290000000000000000000000000000000000000000000000000000000000815260040160405180910390fd5b80601c5f8473ffffffffffffffffffffffffffffffffffffffff1673ffffffffffffffffffffffffffffffffffffffff1681526020019081526020015f205f6101000a81548160ff0219169083151502179055505050565b60135481565b5f602654905090565b614a94611942565b60245f9054906101000a900473ffffffffffffffffffffffffffffffffffffffff1673ffffffffffffffffffffffffffffffffffffffff163373ffffffffffffffffffffffffffffffffffffffff16141580614af55750614af3616d2c565b155b15614b2c576040517f82b4290000000000000000000000000000000000000000000000000000000000815260040160405180910390fd5b614b34616d83565b73ffffffffffffffffffffffffffffffffffffffff166394f7693a83836040518363ffffffff1660e01b8152600401614b6e92919061a89a565b5f604051808303815f87803b158015614b85575f5ffd5b505af1158015614b97573d5f5f3e3d5ffd5b50505050614ba3611d23565b5050565b606060048054614bb69061a83d565b80601f0160208091040260200160405190810160405280929190818152602001828054614be29061a83d565b8015614c2d5780601f10614c0457610100808354040283529160200191614c2d565b820191905f5260205f20905b815481529060010190602001808311614c1057829003601f168201915b5050505050905090565b60225f9054906101000a900473ffffffffffffffffffffffffffffffffffffffff1673ffffffffffffffffffffffffffffffffffffffff163373ffffffffffffffffffffffffffffffffffffffff1614158015614cc75750614c9761492f565b73ffffffffffffffffffffffffffffffffffffffff163373ffffffffffffffffffffffffffffffffffffffff1614155b15614cfe576040517f82b4290000000000000000000000000000000000000000000000000000000000815260040160405180910390fd5b80821115614d38576040517f2c5211c600000000000000000000000000000000000000000000000000000000815260040160405180910390fd5b81601481905550806015819055505050565b60115481565b5f5f614d5a617922565b9050614d67818585617ac8565b600191505092915050565b60165481565b60225f9054906101000a900473ffffffffffffffffffffffffffffffffffffffff1673ffffffffffffffffffffffffffffffffffffffff163373ffffffffffffffffffffffffffffffffffffffff1614158015614e085750614dd861492f565b73ffffffffffffffffffffffffffffffffffffffff163373ffffffffffffffffffffffffffffffffffffffff1614155b15614e3f576040517f82b4290000000000000000000000000000000000000000000000000000000000815260040160405180910390fd5b614e47611942565b5f73ffffffffffffffffffffffffffffffffffffffff168273ffffffffffffffffffffffffffffffffffffffff1603614eac576040517fd92e233d00000000000000000000000000000000000000000000000000000000815260040160405180910390fd5b5f8103614ee5576040517f2c5211c600000000000000000000000000000000000000000000000000000000815260040160405180910390fd5b5f73ffffffffffffffffffffffffffffffffffffffff1660085f8473ffffffffffffffffffffffffffffffffffffffff1673ffffffffffffffffffffffffffffffffffffffff1681526020019081526020015f205f9054906101000a900473ffffffffffffffffffffffffffffffffffffffff1673ffffffffffffffffffffffffffffffffffffffff1603614fa6576040517fd92e233d00000000000000000000000000000000000000000000000000000000815260040160405180910390fd5b614fae616215565b5f60175f8473ffffffffffffffffffffffffffffffffffffffff1673ffffffffffffffffffffffffffffffffffffffff1681526020019081526020015f2090505f8160020154148061500257505f815f0154145b156151305781815f0181905550600d544261501d919061a663565b816002018190555061502f8383617682565b615037616d2c565b1561512b5760165482106150b85761504d616d83565b73ffffffffffffffffffffffffffffffffffffffff1663b631c4ca846001856040518463ffffffff1660e01b815260040161508a9392919061a7db565b5f604051808303815f87803b1580156150a1575f5ffd5b505af11580156150b3573d5f5f3e3d5ffd5b505050505b6150c0616d83565b73ffffffffffffffffffffffffffffffffffffffff1663ff117898848460016040518463ffffffff1660e01b81526004016150fd9392919061a7a6565b5f604051808303815f87803b158015615114575f5ffd5b505af1158015615126573d5f5f3e3d5ffd5b505050505b615281565b5f82825f0154615140919061a663565b905080825f0181905550600d5442615158919061a663565b826002018190555061516a8484617682565b615172616d2c565b1561527f5761517f616d83565b73ffffffffffffffffffffffffffffffffffffffff1663b6dfe6ad856040518263ffffffff1660e01b81526004016151b79190619e7c565b6020604051808303815f875af11580156151d3573d5f5f3e3d5ffd5b505050506040513d601f19601f820116820180604052508101906151f7919061a77b565b50601654811061520c5761520b84826177a5565b5b615214616d83565b73ffffffffffffffffffffffffffffffffffffffff1663ff117898858360016040518463ffffffff1660e01b81526004016152519392919061a7a6565b5f604051808303815f87803b158015615268575f5ffd5b505af115801561527a573d5f5f3e3d5ffd5b505050505b505b5061528a611d23565b5050565b60225f9054906101000a900473ffffffffffffffffffffffffffffffffffffffff1673ffffffffffffffffffffffffffffffffffffffff163373ffffffffffffffffffffffffffffffffffffffff161415801561531e57506152ee61492f565b73ffffffffffffffffffffffffffffffffffffffff163373ffffffffffffffffffffffffffffffffffffffff1614155b15615355576040517f82b4290000000000000000000000000000000000000000000000000000000000815260040160405180910390fd5b5f73ffffffffffffffffffffffffffffffffffffffff168173ffffffffffffffffffffffffffffffffffffffff16036153ba576040517fd92e233d00000000000000000000000000000000000000000000000000000000815260040160405180910390fd5b8060245f6101000a81548173ffffffffffffffffffffffffffffffffffffffff021916908373ffffffffffffffffffffffffffffffffffffffff16021790555050565b60105481565b60225f9054906101000a900473ffffffffffffffffffffffffffffffffffffffff1673ffffffffffffffffffffffffffffffffffffffff163373ffffffffffffffffffffffffffffffffffffffff1614158015615493575061546361492f565b73ffffffffffffffffffffffffffffffffffffffff163373ffffffffffffffffffffffffffffffffffffffff1614155b156154ca576040517f82b4290000000000000000000000000000000000000000000000000000000000815260040160405180910390fd5b5f73ffffffffffffffffffffffffffffffffffffffff168173ffffffffffffffffffffffffffffffffffffffff160361552f576040517fd92e233d00000000000000000000000000000000000000000000000000000000815260040160405180910390fd5b8060225f6101000a81548173ffffffffffffffffffffffffffffffffffffffff021916908373ffffffffffffffffffffffffffffffffffffffff16021790555050565b601e5f9054906101000a900460ff1681565b602b5481565b60225f9054906101000a900473ffffffffffffffffffffffffffffffffffffffff1673ffffffffffffffffffffffffffffffffffffffff163373ffffffffffffffffffffffffffffffffffffffff161415801561561a57506155ea61492f565b73ffffffffffffffffffffffffffffffffffffffff163373ffffffffffffffffffffffffffffffffffffffff1614155b15615651576040517f82b4290000000000000000000000000000000000000000000000000000000000815260040160405180910390fd5b620f424081111561568e576040517f6a43f8d100000000000000000000000000000000000000000000000000000000815260040160405180910390fd5b80600f8190555050565b60225f9054906101000a900473ffffffffffffffffffffffffffffffffffffffff1673ffffffffffffffffffffffffffffffffffffffff163373ffffffffffffffffffffffffffffffffffffffff161415801561572857506156f861492f565b73ffffffffffffffffffffffffffffffffffffffff163373ffffffffffffffffffffffffffffffffffffffff1614155b1561575f576040517f82b4290000000000000000000000000000000000000000000000000000000000815260040160405180910390fd5b620f424081111561579c576040517f6a43f8d100000000000000000000000000000000000000000000000000000000815260040160405180910390fd5b6157ae6010546011546012548461793b565b8060138190555050565b60225f9054906101000a900473ffffffffffffffffffffffffffffffffffffffff1673ffffffffffffffffffffffffffffffffffffffff163373ffffffffffffffffffffffffffffffffffffffff1614158015615848575061581861492f565b73ffffffffffffffffffffffffffffffffffffffff163373ffffffffffffffffffffffffffffffffffffffff1614155b1561587f576040517f82b4290000000000000000000000000000000000000000000000000000000000815260040160405180910390fd5b80600560146101000a81548160ff02191690831515021790555050565b7f000000000000000000000000000000000000000000000000000000000000000081565b60245f9054906101000a900473ffffffffffffffffffffffffffffffffffffffff1681565b60225f9054906101000a900473ffffffffffffffffffffffffffffffffffffffff1673ffffffffffffffffffffffffffffffffffffffff163373ffffffffffffffffffffffffffffffffffffffff1614158015615975575061594561492f565b73ffffffffffffffffffffffffffffffffffffffff163373ffffffffffffffffffffffffffffffffffffffff1614155b156159ac576040517f82b4290000000000000000000000000000000000000000000000000000000000815260040160405180910390fd5b620f42408111156159e9576040517f6a43f8d100000000000000000000000000000000000000000000000000000000815260040160405180910390fd5b81601a5f6101000a81548160ff02191690831515021790555080601b819055505050565b60225f9054906101000a900473ffffffffffffffffffffffffffffffffffffffff1673ffffffffffffffffffffffffffffffffffffffff163373ffffffffffffffffffffffffffffffffffffffff1614158015615a9d5750615a6d61492f565b73ffffffffffffffffffffffffffffffffffffffff163373ffffffffffffffffffffffffffffffffffffffff1614155b15615ad4576040517f82b4290000000000000000000000000000000000000000000000000000000000815260040160405180910390fd5b602654811115615b10576040517ff4d678b800000000000000000000000000000000000000000000000000000000815260040160405180910390fd5b8060265f828254615b21919061a6f3565b92505081905550615b5360215f9054906101000a900473ffffffffffffffffffffffffffffffffffffffff1682617efa565b50565b602d5481565b600c5481565b60225f9054906101000a900473ffffffffffffffffffffffffffffffffffffffff1673ffffffffffffffffffffffffffffffffffffffff163373ffffffffffffffffffffffffffffffffffffffff1614158015615bf25750615bc261492f565b73ffffffffffffffffffffffffffffffffffffffff163373ffffffffffffffffffffffffffffffffffffffff1614155b15615c29576040517f82b4290000000000000000000000000000000000000000000000000000000000815260040160405180910390fd5b80601d5f8473ffffffffffffffffffffffffffffffffffffffff1673ffffffffffffffffffffffffffffffffffffffff1681526020019081526020015f205f6101000a81548160ff0219169083151502179055505050565b602d81565b600f5481565b5f60015f8473ffffffffffffffffffffffffffffffffffffffff1673ffffffffffffffffffffffffffffffffffffffff1681526020019081526020015f205f8373ffffffffffffffffffffffffffffffffffffffff1673ffffffffffffffffffffffffffffffffffffffff1681526020019081526020015f2054905092915050565b6017602052805f5260405f205f91509050805f0154908060010154908060020154905083565b60125481565b602a5481565b602f5481565b60215f9054906101000a900473ffffffffffffffffffffffffffffffffffffffff1681565b60155481565b6008602052805f5260405f205f915054906101000a900473ffffffffffffffffffffffffffffffffffffffff1681565b601b5481565b61c35081565b60145481565b615dbb6179ae565b5f73ffffffffffffffffffffffffffffffffffffffff168173ffffffffffffffffffffffffffffffffffffffff1603615e2b575f6040517f1e4fbdf7000000000000000000000000000000000000000000000000000000008152600401615e229190619e7c565b60405180910390fd5b615e3481617e37565b50565b615e3f611942565b615e476118f9565b601454341015615e83576040517f2c5211c600000000000000000000000000000000000000000000000000000000815260040160405180910390fd5b615e8b611987565b615e9633345f611d2c565b615e9e611d23565b565b615ea86179ae565b60305f9054906101000a900460ff1615615eee576040517f9bb3a4a300000000000000000000000000000000000000000000000000000000815260040160405180910390fd5b818190508484905014615f2d576040517f2c5211c600000000000000000000000000000000000000000000000000000000815260040160405180910390fd5b5f8484905090505f5f90505b81811015615f9657615f8b868683818110615f5757615f5661a86d565b5b9050602002016020810190615f6c919061a136565b858584818110615f7f57615f7e61a86d565b5b90506020020135617fdc565b806001019050615f39565b505050505050565b602e5481565b60225f9054906101000a900473ffffffffffffffffffffffffffffffffffffffff1673ffffffffffffffffffffffffffffffffffffffff163373ffffffffffffffffffffffffffffffffffffffff1614158015616034575061600461492f565b73ffffffffffffffffffffffffffffffffffffffff163373ffffffffffffffffffffffffffffffffffffffff1614155b1561606b576040517f82b4290000000000000000000000000000000000000000000000000000000000815260040160405180910390fd5b620f424082118061607e5750620f424081115b156160b5576040517f58d620b300000000000000000000000000000000000000000000000000000000815260040160405180910390fd5b81600681905550806007819055505050565b601d602052805f5260405f205f915054906101000a900460ff1681565b6160ec611942565b5f60205490505f810361612b576040517f2c5211c600000000000000000000000000000000000000000000000000000000815260040160405180910390fd5b616133616215565b5f5f61613e8361805b565b9150915080616179576040517f90b8ec1800000000000000000000000000000000000000000000000000000000815260040160405180910390fd5b5f6020819055505f821180156161935750616192616d2c565b5b15616208576161a0616d83565b73ffffffffffffffffffffffffffffffffffffffff16635c153adc83846040518363ffffffff1660e01b81526004016161d9919061a08a565b5f604051808303818588803b1580156161f0575f5ffd5b505af1158015616202573d5f5f3e3d5ffd5b50505050505b505050616213611d23565b565b61621d616d2c565b1561630f5761622a616d83565b73ffffffffffffffffffffffffffffffffffffffff166397fed0386040518163ffffffff1660e01b81526004016020604051808303815f875af1158015616273573d5f5f3e3d5ffd5b505050506040513d601f19601f82011682018060405250810190616297919061a77b565b506162a0616d83565b73ffffffffffffffffffffffffffffffffffffffff1663e9949e266040518163ffffffff1660e01b81526004016020604051808303815f875af11580156162e9573d5f5f3e3d5ffd5b505050506040513d601f19601f8201168201806040525081019061630d919061a77b565b505b565b5f61633b7f0000000000000000000000000000000000000000000000000000000000000000613ed3565b90505f81036163515742602a8190555050616626565b5f620f4240602b5483616364919061a726565b61636e919061a6c3565b90505f81036163855742602a819055505050616626565b5f602e54602d54616396919061a663565b90505f81602d54846163a8919061a726565b6163b2919061a6c3565b90505f81846163c1919061a6f3565b90506163f07f000000000000000000000000000000000000000000000000000000000000000061dead84617c1e565b6163f8616d2c565b801561647657505f616408616d83565b73ffffffffffffffffffffffffffffffffffffffff1663821799046040518163ffffffff1660e01b8152600401602060405180830381865afa158015616450573d5f5f3e3d5ffd5b505050506040513d601f19601f82011682018060405250810190616474919061a77b565b115b15616539576164c77f000000000000000000000000000000000000000000000000000000000000000060235f9054906101000a900473ffffffffffffffffffffffffffffffffffffffff1683617c1e565b6164cf616d83565b73ffffffffffffffffffffffffffffffffffffffff16636f45b423826040518263ffffffff1660e01b8152600401616507919061a08a565b5f604051808303815f87803b15801561651e575f5ffd5b505af1158015616530573d5f5f3e3d5ffd5b50505050616567565b6165667f000000000000000000000000000000000000000000000000000000000000000061dead83617c1e565b5b7f000000000000000000000000000000000000000000000000000000000000000073ffffffffffffffffffffffffffffffffffffffff1663fff6cae96040518163ffffffff1660e01b81526004015f604051808303815f87803b1580156165cc575f5ffd5b505af19250505080156165dd575060015b507f783e94f010bc7ce1bb1c87194a287f631a57ac415c2b3a09607225bc773c02888483836040516166119392919061a583565b60405180910390a142602a8190555050505050505b565b5f601f5f8381526020019081526020015f205490505f810361664a5750616760565b5f5f6166558361805b565b91509150806166be575f620151804261666e919061a6c3565b90508085146166b55783601f5f8381526020019081526020015f205f828254616697919061a663565b925050819055505f601f5f8781526020019081526020015f20819055505b50505050616760565b5f601f5f8681526020019081526020015f20819055505f821180156166e757506166e6616d2c565b5b1561675c576166f4616d83565b73ffffffffffffffffffffffffffffffffffffffff16635c153adc83846040518363ffffffff1660e01b815260040161672d919061a08a565b5f604051808303818588803b158015616744575f5ffd5b505af1158015616756573d5f5f3e3d5ffd5b50505050505b5050505b50565b5f5f82148061679d57505f73ffffffffffffffffffffffffffffffffffffffff168373ffffffffffffffffffffffffffffffffffffffff16145b156167aa575f9050616872565b5f6167b3618279565b9050828110156167dd576167d181846167cc919061a6f3565b6182a2565b506167da618279565b90505b828110156167eb57806167ed565b825b91505f821115616870575f8473ffffffffffffffffffffffffffffffffffffffff168360405161681c9061a92d565b5f6040518083038185875af1925050503d805f8114616856576040519150601f19603f3d011682016040523d82523d5f602084013e61685b565b606091505b505090508061686e575f92505050616872565b505b505b92915050565b5f5f5f830361688c575f5f91509150616921565b82602654106168c2578260265f8282546168a6919061a6f3565b925050819055506168b78484617efa565b825f91509150616921565b5f6168d9602654856168d4919061a6f3565b6182a2565b90505f816026546168ea919061a663565b90505f6026819055508481116169005780616902565b845b93505f841115616917576169168685617efa565b5b8360019350935050505b9250929050565b5f8290505f5f90505f5f90505f4290505f5f90505b602d811015616d23575f60085f8773ffffffffffffffffffffffffffffffffffffffff1673ffffffffffffffffffffffffffffffffffffffff1681526020019081526020015f205f9054906101000a900473ffffffffffffffffffffffffffffffffffffffff1690505f73ffffffffffffffffffffffffffffffffffffffff168173ffffffffffffffffffffffffffffffffffffffff16036169df5750616d23565b60175f8273ffffffffffffffffffffffffffffffffffffffff1673ffffffffffffffffffffffffffffffffffffffff1681526020019081526020015f2060020154831115616a365780955081600101915050616d1e565b5f60185f8373ffffffffffffffffffffffffffffffffffffffff1673ffffffffffffffffffffffffffffffffffffffff1681526020019081526020015f206001015f9054906101000a900460ff1690505f5f84148015616a9857505f8260ff16145b15616ac457620f424061c3508a616aaf919061a726565b616ab9919061a6c3565b905060019550616b61565b8660ff168260ff161115616b60575f60195f8460ff1660ff1681526020019081526020015f206001015490505f5f8960ff1614616b1b5760195f8a60ff1660ff1681526020019081526020015f2060010154616b2b565b87616b26575f616b2a565b61c3505b5b905080821115616b5d57620f42408183616b45919061a6f3565b8c616b50919061a726565b616b5a919061a6c3565b92505b50505b5b5f811115616d11575f5f60085f8673ffffffffffffffffffffffffffffffffffffffff1673ffffffffffffffffffffffffffffffffffffffff1681526020019081526020015f205f9054906101000a900473ffffffffffffffffffffffffffffffffffffffff1690505f73ffffffffffffffffffffffffffffffffffffffff168173ffffffffffffffffffffffffffffffffffffffff1614158015616c46575060175f8273ffffffffffffffffffffffffffffffffffffffff1673ffffffffffffffffffffffffffffffffffffffff1681526020019081526020015f20600201548711155b8015616c5457505f8460ff16115b15616ce1578360ff1660185f8373ffffffffffffffffffffffffffffffffffffffff1673ffffffffffffffffffffffffffffffffffffffff1681526020019081526020015f206001015f9054906101000a900460ff1660ff1603616ce057620f424062030d4084616cc5919061a726565b616ccf919061a6c3565b91508183616cdd919061a6f3565b92505b5b8398505f821115616cf957616cf68183616878565b50505b5f831115616d0e57616d0b8584616878565b50505b50505b8297508360010193505050505b61693d565b50505050505050565b5f5f73ffffffffffffffffffffffffffffffffffffffff1660235f9054906101000a900473ffffffffffffffffffffffffffffffffffffffff1673ffffffffffffffffffffffffffffffffffffffff161415905090565b5f60235f9054906101000a900473ffffffffffffffffffffffffffffffffffffffff16905090565b5f60175f8373ffffffffffffffffffffffffffffffffffffffff1673ffffffffffffffffffffffffffffffffffffffff1681526020019081526020015f2090505f815f01549050616dfa616d2c565b15616ede57616e07616d83565b73ffffffffffffffffffffffffffffffffffffffff166328678102846040518263ffffffff1660e01b8152600401616e3f9190619e7c565b5f604051808303815f87803b158015616e56575f5ffd5b505af1158015616e68573d5f5f3e3d5ffd5b50505050616e74616d83565b73ffffffffffffffffffffffffffffffffffffffff1663ff117898845f5f6040518463ffffffff1660e01b8152600401616eb09392919061a983565b5f604051808303815f87803b158015616ec7575f5ffd5b505af1158015616ed9573d5f5f3e3d5ffd5b505050505b5f825f01819055505f82600201819055505f60185f8573ffffffffffffffffffffffffffffffffffffffff1673ffffffffffffffffffffffffffffffffffffffff1681526020019081526020015f2090505f815f01819055505f816001015f6101000a81548160ff021916908360ff1602179055505f821115616f6657616f6584836185b7565b5b50505050565b602754602654101561704e575f7f000000000000000000000000000000000000000000000000000000000000000073ffffffffffffffffffffffffffffffffffffffff166370a08231306040518263ffffffff1660e01b8152600401616fd29190619e7c565b602060405180830381865afa158015616fed573d5f5f3e3d5ffd5b505050506040513d601f19601f82011682018060405250810190617011919061a77b565b90505f81111561704c575f6170276028546182a2565b90505f81111561704a578060265f828254617042919061a663565b925050819055505b505b505b565b5f620f424060105483617063919061a726565b61706d919061a6c3565b90505f8111156170a3576170a260215f9054906101000a900473ffffffffffffffffffffffffffffffffffffffff1682617efa565b5b5f620f4240601154846170b6919061a726565b6170c0919061a6c3565b90505f811180156170d557506170d4616d2c565b5b1561714e576170e2616d83565b73ffffffffffffffffffffffffffffffffffffffff16635c153adc82836040518363ffffffff1660e01b815260040161711b919061a08a565b5f604051808303818588803b158015617132575f5ffd5b505af1158015617144573d5f5f3e3d5ffd5b5050505050617183565b5f8111156171825761718160215f9054906101000a900473ffffffffffffffffffffffffffffffffffffffff1682617efa565b5b5b5f620f424060125485617196919061a726565b6171a0919061a6c3565b90505f8111156171b4576171b3816186f2565b5b50505050565b5f81031561767f575f6002826171d0919061a6c3565b90505f81836171df919061a6f3565b90505f600267ffffffffffffffff8111156171fd576171fc61a9b8565b5b60405190808252806020026020018201604052801561722b5781602001602082028036833780820191505090505b5090507f0000000000000000000000000000000000000000000000000000000000000000815f815181106172625761726161a86d565b5b602002602001019073ffffffffffffffffffffffffffffffffffffffff16908173ffffffffffffffffffffffffffffffffffffffff168152505030816001815181106172b1576172b061a86d565b5b602002602001019073ffffffffffffffffffffffffffffffffffffffff16908173ffffffffffffffffffffffffffffffffffffffff16815250505f6173157f0000000000000000000000000000000000000000000000000000000000000000613ed3565b90505f617322855f618a23565b90507f000000000000000000000000000000000000000000000000000000000000000073ffffffffffffffffffffffffffffffffffffffff1663b6f9de958683867f000000000000000000000000000000000000000000000000000000000000000061012c42617392919061a663565b6040518663ffffffff1660e01b81526004016173b1949392919061aa9c565b5f604051808303818588803b1580156173c8575f5ffd5b505af1935050505080156173da575060015b61740e5761740960215f9054906101000a900473ffffffffffffffffffffffffffffffffffffffff1687617efa565b617679565b5f826174397f0000000000000000000000000000000000000000000000000000000000000000613ed3565b617443919061a6f3565b90505f8111801561745357505f85115b15617677577f000000000000000000000000000000000000000000000000000000000000000073ffffffffffffffffffffffffffffffffffffffff1663d0e30db0866040518263ffffffff1660e01b81526004015f604051808303818588803b1580156174be575f5ffd5b505af11580156174d0573d5f5f3e3d5ffd5b50505050507f000000000000000000000000000000000000000000000000000000000000000073ffffffffffffffffffffffffffffffffffffffff1663a9059cbb7f0000000000000000000000000000000000000000000000000000000000000000876040518363ffffffff1660e01b815260040161755092919061a89a565b6020604051808303815f875af115801561756c573d5f5f3e3d5ffd5b505050506040513d601f19601f82011682018060405250810190617590919061a8d5565b506175dc7f00000000000000000000000000000000000000000000000000000000000000007f000000000000000000000000000000000000000000000000000000000000000083617c1e565b7f000000000000000000000000000000000000000000000000000000000000000073ffffffffffffffffffffffffffffffffffffffff16636a627842306040518263ffffffff1660e01b81526004016176359190619e7c565b6020604051808303815f875af1158015617651573d5f5f3e3d5ffd5b505050506040513d601f19601f82011682018060405250810190617675919061a77b565b505b505b50505050505b50565b5f8290505f5f90505b602d81101561779f575f60085f8473ffffffffffffffffffffffffffffffffffffffff1673ffffffffffffffffffffffffffffffffffffffff1681526020019081526020015f205f9054906101000a900473ffffffffffffffffffffffffffffffffffffffff1690505f73ffffffffffffffffffffffffffffffffffffffff168173ffffffffffffffffffffffffffffffffffffffff160361772d575061779f565b5f60185f8373ffffffffffffffffffffffffffffffffffffffff1673ffffffffffffffffffffffffffffffffffffffff1681526020019081526020015f20905084815f015f82825461777f919061a663565b9250508190555061778f82618a9e565b819350826001019250505061768b565b50505050565b6177ad616d2c565b1561791e576177ba616d83565b73ffffffffffffffffffffffffffffffffffffffff16633d5d6096836040518263ffffffff1660e01b81526004016177f29190619e7c565b602060405180830381865afa15801561780d573d5f5f3e3d5ffd5b505050506040513d601f19601f82011682018060405250810190617831919061a8d5565b156178aa5761783e616d83565b73ffffffffffffffffffffffffffffffffffffffff1663f6fe47f183836040518363ffffffff1660e01b815260040161787892919061a89a565b5f604051808303815f87803b15801561788f575f5ffd5b505af11580156178a1573d5f5f3e3d5ffd5b5050505061791d565b6178b2616d83565b73ffffffffffffffffffffffffffffffffffffffff1663b631c4ca836001846040518463ffffffff1660e01b81526004016178ef9392919061a7db565b5f604051808303815f87803b158015617906575f5ffd5b505af1158015617918573d5f5f3e3d5ffd5b505050505b5b5050565b5f33905090565b6179368383836001618b63565b505050565b5f828486620f424061794d919061a6f3565b617957919061a6f3565b617961919061a6f3565b90505f81148061797057508082115b156179a7576040517f6a43f8d100000000000000000000000000000000000000000000000000000000815260040160405180910390fd5b5050505050565b6179b6617922565b73ffffffffffffffffffffffffffffffffffffffff166179d461492f565b73ffffffffffffffffffffffffffffffffffffffff1614617a33576179f7617922565b6040517f118cdaa7000000000000000000000000000000000000000000000000000000008152600401617a2a9190619e7c565b60405180910390fd5b565b5f617a408484615c8c565b90507fffffffffffffffffffffffffffffffffffffffffffffffffffffffffffffffff811015617ac25781811015617ab3578281836040517ffb8f41b2000000000000000000000000000000000000000000000000000000008152600401617aaa9392919061aae6565b60405180910390fd5b617ac184848484035f618b63565b5b50505050565b5f73ffffffffffffffffffffffffffffffffffffffff168373ffffffffffffffffffffffffffffffffffffffff1603617b38575f6040517f96c6fd1e000000000000000000000000000000000000000000000000000000008152600401617b2f9190619e7c565b60405180910390fd5b5f73ffffffffffffffffffffffffffffffffffffffff168273ffffffffffffffffffffffffffffffffffffffff1603617ba8575f6040517fec442f05000000000000000000000000000000000000000000000000000000008152600401617b9f9190619e7c565b60405180910390fd5b617bb3838383618d32565b505050565b5f617bc161492f565b90505f73ffffffffffffffffffffffffffffffffffffffff168173ffffffffffffffffffffffffffffffffffffffff1603617c1b5760225f9054906101000a900473ffffffffffffffffffffffffffffffffffffffff1690505b90565b5f73ffffffffffffffffffffffffffffffffffffffff168373ffffffffffffffffffffffffffffffffffffffff1603617c6e578060025f828254617c62919061a663565b92505081905550617d3c565b5f5f5f8573ffffffffffffffffffffffffffffffffffffffff1673ffffffffffffffffffffffffffffffffffffffff1681526020019081526020015f2054905081811015617cf7578381836040517fe450d38c000000000000000000000000000000000000000000000000000000008152600401617cee9392919061aae6565b60405180910390fd5b8181035f5f8673ffffffffffffffffffffffffffffffffffffffff1673ffffffffffffffffffffffffffffffffffffffff1681526020019081526020015f2081905550505b5f73ffffffffffffffffffffffffffffffffffffffff168273ffffffffffffffffffffffffffffffffffffffff1603617d83578060025f8282540392505081905550617dcd565b805f5f8473ffffffffffffffffffffffffffffffffffffffff1673ffffffffffffffffffffffffffffffffffffffff1681526020019081526020015f205f82825401925050819055505b8173ffffffffffffffffffffffffffffffffffffffff168373ffffffffffffffffffffffffffffffffffffffff167fddf252ad1be2c89b69c2b068fc378daa952ba7f163c4a11628f55a4df523b3ef83604051617e2a919061a08a565b60405180910390a3505050565b5f60055f9054906101000a900473ffffffffffffffffffffffffffffffffffffffff1690508160055f6101000a81548173ffffffffffffffffffffffffffffffffffffffff021916908373ffffffffffffffffffffffffffffffffffffffff1602179055508173ffffffffffffffffffffffffffffffffffffffff168173ffffffffffffffffffffffffffffffffffffffff167f8be0079c531659141344cd1fd0a4f28419497f9722a3daafe3b4186f6b6457e060405160405180910390a35050565b5f811480617f3357505f73ffffffffffffffffffffffffffffffffffffffff168273ffffffffffffffffffffffffffffffffffffffff16145b617fd8575f8273ffffffffffffffffffffffffffffffffffffffff1682604051617f5c9061a92d565b5f6040518083038185875af1925050503d805f8114617f96576040519150601f19603f3d011682016040523d82523d5f602084013e617f9b565b606091505b5050905080617fd6576040517f90b8ec1800000000000000000000000000000000000000000000000000000000815260040160405180910390fd5b505b5050565b5f73ffffffffffffffffffffffffffffffffffffffff168273ffffffffffffffffffffffffffffffffffffffff160361804c575f6040517fec442f050000000000000000000000000000000000000000000000000000000081526004016180439190619e7c565b60405180910390fd5b6180575f8383618d32565b5050565b5f5f5f830361806f575f5f91509150618274565b5f600267ffffffffffffffff81111561808b5761808a61a9b8565b5b6040519080825280602002602001820160405280156180b95781602001602082028036833780820191505090505b50905030815f815181106180d0576180cf61a86d565b5b602002602001019073ffffffffffffffffffffffffffffffffffffffff16908173ffffffffffffffffffffffffffffffffffffffff16815250507f00000000000000000000000000000000000000000000000000000000000000008160018151811061813f5761813e61a86d565b5b602002602001019073ffffffffffffffffffffffffffffffffffffffff16908173ffffffffffffffffffffffffffffffffffffffff16815250505f4790505f618189866001618a23565b90506181b6307f000000000000000000000000000000000000000000000000000000000000000088617929565b7f000000000000000000000000000000000000000000000000000000000000000073ffffffffffffffffffffffffffffffffffffffff1663791ac9478783863061012c42618204919061a663565b6040518663ffffffff1660e01b815260040161822495949392919061ab1b565b5f604051808303815f87803b15801561823b575f5ffd5b505af192505050801561824c575060015b61825e575f5f94509450505050618274565b814761826a919061a6f3565b6001945094505050505b915091565b5f5f479050602654811161828d575f61829c565b6026548161829b919061a6f3565b5b91505090565b5f5f7f000000000000000000000000000000000000000000000000000000000000000073ffffffffffffffffffffffffffffffffffffffff166370a08231306040518263ffffffff1660e01b81526004016182fd9190619e7c565b602060405180830381865afa158015618318573d5f5f3e3d5ffd5b505050506040513d601f19601f8201168201806040525081019061833c919061a77b565b90505f810361834e575f9150506185b2565b5f6183588461968a565b905081811115618366578190505b5f8103618377575f925050506185b2565b5f61838130613ed3565b90507f000000000000000000000000000000000000000000000000000000000000000073ffffffffffffffffffffffffffffffffffffffff1663095ea7b37f0000000000000000000000000000000000000000000000000000000000000000846040518363ffffffff1660e01b81526004016183fe92919061a89a565b6020604051808303815f875af115801561841a573d5f5f3e3d5ffd5b505050506040513d601f19601f8201168201806040525081019061843e919061a8d5565b507f000000000000000000000000000000000000000000000000000000000000000073ffffffffffffffffffffffffffffffffffffffff1663af2979eb30845f620f4240602954620f4240618493919061a6f3565b8b61849e919061a726565b6184a8919061a6c3565b3061012c426184b7919061a663565b6040518763ffffffff1660e01b81526004016184d89695949392919061ab73565b6020604051808303815f875af192505050801561851357506040513d601f19601f82011682018060405250810190618510919061a77b565b60015b61851f575f93506185ae565b8094505f61852c30613ed3565b90505f83821161853c575f618549565b8382618548919061a6f3565b5b90505f8111156185aa575f5f61855e8361805b565b9150915080618598576185933060215f9054906101000a900473ffffffffffffffffffffffffffffffffffffffff1685617c1e565b6185a7565b81896185a4919061a663565b98505b50505b5050505b5050505b919050565b5f8290505f5f90505b602d8110156186ec575f60085f8473ffffffffffffffffffffffffffffffffffffffff1673ffffffffffffffffffffffffffffffffffffffff1681526020019081526020015f205f9054906101000a900473ffffffffffffffffffffffffffffffffffffffff1690505f73ffffffffffffffffffffffffffffffffffffffff168173ffffffffffffffffffffffffffffffffffffffff160361866257506186ec565b5f60185f8373ffffffffffffffffffffffffffffffffffffffff1673ffffffffffffffffffffffffffffffffffffffff1681526020019081526020015f20905084815f0154106186ca5784815f015f8282546186be919061a6f3565b925050819055506186d3565b5f815f01819055505b6186dc82618a9e565b81935082600101925050506185c0565b50505050565b5f810315618a20575f600267ffffffffffffffff8111156187165761871561a9b8565b5b6040519080825280602002602001820160405280156187445781602001602082028036833780820191505090505b5090507f0000000000000000000000000000000000000000000000000000000000000000815f8151811061877b5761877a61a86d565b5b602002602001019073ffffffffffffffffffffffffffffffffffffffff16908173ffffffffffffffffffffffffffffffffffffffff168152505030816001815181106187ca576187c961a86d565b5b602002602001019073ffffffffffffffffffffffffffffffffffffffff16908173ffffffffffffffffffffffffffffffffffffffff16815250505f61882e7f0000000000000000000000000000000000000000000000000000000000000000613ed3565b90505f61883b845f618a23565b90507f000000000000000000000000000000000000000000000000000000000000000073ffffffffffffffffffffffffffffffffffffffff1663b6f9de958583867f000000000000000000000000000000000000000000000000000000000000000061012c426188ab919061a663565b6040518663ffffffff1660e01b81526004016188ca949392919061aa9c565b5f604051808303818588803b1580156188e1575f5ffd5b505af1935050505080156188f3575060015b6189275761892260215f9054906101000a900473ffffffffffffffffffffffffffffffffffffffff1685617efa565b618a1c565b5f826189527f0000000000000000000000000000000000000000000000000000000000000000613ed3565b61895c919061a6f3565b90505f811115618a1a575f600160056008618977919061a6f3565b618981919061a663565b60255461898e919061abd2565b600561899a919061a663565b905060255f8154809291906189ae9061ac02565b91905055505f81836189c0919061a6c3565b90505f5f90505b82811015618a16575f821115618a0b57618a0a7f0000000000000000000000000000000000000000000000000000000000000000618a0483619781565b84617c1e565b5b8060010190506189c7565b5050505b505b5050505b50565b5f5f5f618a2e6197d5565b915091505f84618a4857618a43868385619917565b618a54565b618a53868484619917565b5b90505f8103618a68575f9350505050618a98565b620f4240602954620f4240618a7d919061a6f3565b82618a88919061a726565b618a92919061a6c3565b93505050505b92915050565b5f60185f8373ffffffffffffffffffffffffffffffffffffffff1673ffffffffffffffffffffffffffffffffffffffff1681526020019081526020015f2090505f6001826001015f9054906101000a900460ff16618afc919061ac49565b90505b60058160ff1611618b5e5760195f8260ff1660ff1681526020019081526020015f205f0154825f015410618b4e5780826001015f6101000a81548160ff021916908360ff160217905550618b53565b618b5e565b806001019050618aff565b505050565b5f73ffffffffffffffffffffffffffffffffffffffff168473ffffffffffffffffffffffffffffffffffffffff1603618bd3575f6040517fe602df05000000000000000000000000000000000000000000000000000000008152600401618bca9190619e7c565b60405180910390fd5b5f73ffffffffffffffffffffffffffffffffffffffff168373ffffffffffffffffffffffffffffffffffffffff1603618c43575f6040517f94280d62000000000000000000000000000000000000000000000000000000008152600401618c3a9190619e7c565b60405180910390fd5b8160015f8673ffffffffffffffffffffffffffffffffffffffff1673ffffffffffffffffffffffffffffffffffffffff1681526020019081526020015f205f8573ffffffffffffffffffffffffffffffffffffffff1673ffffffffffffffffffffffffffffffffffffffff1681526020019081526020015f20819055508015618d2c578273ffffffffffffffffffffffffffffffffffffffff168473ffffffffffffffffffffffffffffffffffffffff167f8c5be1e5ebec7d5bd14f71427d1e84f3dd0314c0f7b2291e5b200ac8c7c3b92584604051618d23919061a08a565b60405180910390a35b50505050565b5f73ffffffffffffffffffffffffffffffffffffffff168373ffffffffffffffffffffffffffffffffffffffff1614158015618db45750601d5f8473ffffffffffffffffffffffffffffffffffffffff1673ffffffffffffffffffffffffffffffffffffffff1681526020019081526020015f205f9054906101000a900460ff165b15618deb576040517f09550c7700000000000000000000000000000000000000000000000000000000815260040160405180910390fd5b5f73ffffffffffffffffffffffffffffffffffffffff168273ffffffffffffffffffffffffffffffffffffffff1614158015618e6d5750601d5f8373ffffffffffffffffffffffffffffffffffffffff1673ffffffffffffffffffffffffffffffffffffffff1681526020019081526020015f205f9054906101000a900460ff165b15618ea4576040517f09550c7700000000000000000000000000000000000000000000000000000000815260040160405180910390fd5b600b5f9054906101000a900460ff168015618eeb57505f73ffffffffffffffffffffffffffffffffffffffff168373ffffffffffffffffffffffffffffffffffffffff1614155b8015618f2357505f73ffffffffffffffffffffffffffffffffffffffff168273ffffffffffffffffffffffffffffffffffffffff1614155b8015618f5a57503273ffffffffffffffffffffffffffffffffffffffff168373ffffffffffffffffffffffffffffffffffffffff16145b8015618fed57505f73ffffffffffffffffffffffffffffffffffffffff1660085f8473ffffffffffffffffffffffffffffffffffffffff1673ffffffffffffffffffffffffffffffffffffffff1681526020019081526020015f205f9054906101000a900473ffffffffffffffffffffffffffffffffffffffff1673ffffffffffffffffffffffffffffffffffffffff16145b8015618ffb5750600a548110155b801561900d575061900b83619987565b155b801561901f575061901d82619987565b155b1561902f5761902e8284619a34565b5b5f5f7f000000000000000000000000000000000000000000000000000000000000000073ffffffffffffffffffffffffffffffffffffffff168573ffffffffffffffffffffffffffffffffffffffff1614806190d657507f000000000000000000000000000000000000000000000000000000000000000073ffffffffffffffffffffffffffffffffffffffff168573ffffffffffffffffffffffffffffffffffffffff16145b90505f7f000000000000000000000000000000000000000000000000000000000000000073ffffffffffffffffffffffffffffffffffffffff168573ffffffffffffffffffffffffffffffffffffffff16148061917e57507f000000000000000000000000000000000000000000000000000000000000000073ffffffffffffffffffffffffffffffffffffffff168573ffffffffffffffffffffffffffffffffffffffff16145b905081806191895750805b80156191a25750600560149054906101000a900460ff16155b156193dc575f601c5f8873ffffffffffffffffffffffffffffffffffffffff1673ffffffffffffffffffffffffffffffffffffffff1681526020019081526020015f205f9054906101000a900460ff168061924857507f000000000000000000000000000000000000000000000000000000000000000073ffffffffffffffffffffffffffffffffffffffff168773ffffffffffffffffffffffffffffffffffffffff16145b8061929e57507f000000000000000000000000000000000000000000000000000000000000000073ffffffffffffffffffffffffffffffffffffffff168773ffffffffffffffffffffffffffffffffffffffff16145b90505f601c5f8873ffffffffffffffffffffffffffffffffffffffff1673ffffffffffffffffffffffffffffffffffffffff1681526020019081526020015f205f9054906101000a900460ff168061934157507f000000000000000000000000000000000000000000000000000000000000000073ffffffffffffffffffffffffffffffffffffffff168773ffffffffffffffffffffffffffffffffffffffff16145b8061939757507f000000000000000000000000000000000000000000000000000000000000000073ffffffffffffffffffffffffffffffffffffffff168773ffffffffffffffffffffffffffffffffffffffff16145b90508180156193a35750805b6193d9576040517fbcb8b8fb00000000000000000000000000000000000000000000000000000000815260040160405180910390fd5b50505b601c5f8773ffffffffffffffffffffffffffffffffffffffff1673ffffffffffffffffffffffffffffffffffffffff1681526020019081526020015f205f9054906101000a900460ff16806194775750601c5f8673ffffffffffffffffffffffffffffffffffffffff1673ffffffffffffffffffffffffffffffffffffffff1681526020019081526020015f205f9054906101000a900460ff165b6194e55781801561948957505f600654115b156194b157620f4240600654856194a0919061a726565b6194aa919061a6c3565b92506194e4565b8080156194bf57505f600754115b156194e357620f4240600754856194d6919061a726565b6194e0919061a6c3565b92505b5b5b5f831115619552576194f8863085617c1e565b801561951b578260205f82825461950f919061a663565b92505081905550619551565b82601f5f620151804261952e919061a6c3565b81526020019081526020015f205f828254619549919061a663565b925050819055505b5b5f838561955f919061a6f3565b90508180156195795750601a5f9054906101000a900460ff165b80156195b157505f73ffffffffffffffffffffffffffffffffffffffff168773ffffffffffffffffffffffffffffffffffffffff1614155b80156196045750601c5f8873ffffffffffffffffffffffffffffffffffffffff1673ffffffffffffffffffffffffffffffffffffffff1681526020019081526020015f205f9054906101000a900460ff16155b1561966d575f620f4240601b548361961c919061a726565b619626919061a6c3565b90505f81111561966b57808261963c919061a6f3565b915061966a8860215f9054906101000a900473ffffffffffffffffffffffffffffffffffffffff1683617c1e565b5b505b5f81111561968157619680878783617c1e565b5b50505050505050565b5f5f7f000000000000000000000000000000000000000000000000000000000000000073ffffffffffffffffffffffffffffffffffffffff166318160ddd6040518163ffffffff1660e01b8152600401602060405180830381865afa1580156196f5573d5f5f3e3d5ffd5b505050506040513d601f19601f82011682018060405250810190619719919061a77b565b90505f810361972b575f91505061977c565b5f6197346197d5565b9150505f8103619748575f9250505061977c565b606481619755919061a726565b606e8386619763919061a726565b61976d919061a726565b619777919061a6c3565b925050505b919050565b5f60255f8154809291906197949061ac02565b9190505550602554824244335a6040516020016197b69695949392919061ace2565b604051602081830303815290604052805190602001205f1c9050919050565b5f5f5f5f7f000000000000000000000000000000000000000000000000000000000000000073ffffffffffffffffffffffffffffffffffffffff16630902f1ac6040518163ffffffff1660e01b8152600401606060405180830381865afa158015619842573d5f5f3e3d5ffd5b505050506040513d601f19601f82011682018060405250810190619866919061adcd565b50915091503073ffffffffffffffffffffffffffffffffffffffff167f000000000000000000000000000000000000000000000000000000000000000073ffffffffffffffffffffffffffffffffffffffff1610156198ea57816dffffffffffffffffffffffffffff169250806dffffffffffffffffffffffffffff169350619911565b816dffffffffffffffffffffffffffff169350806dffffffffffffffffffffffffffff1692505b50509091565b5f5f84148061992557505f83145b8061992f57505f82145b1561993c575f9050619980565b5f6103e58561994b919061a726565b9050806103e88561995c919061a726565b619966919061a663565b8382619972919061a726565b61997c919061a6c3565b9150505b9392505050565b5f7f000000000000000000000000000000000000000000000000000000000000000073ffffffffffffffffffffffffffffffffffffffff168273ffffffffffffffffffffffffffffffffffffffff161480619a2d57507f000000000000000000000000000000000000000000000000000000000000000073ffffffffffffffffffffffffffffffffffffffff168273ffffffffffffffffffffffffffffffffffffffff16145b9050919050565b5f73ffffffffffffffffffffffffffffffffffffffff1660085f8473ffffffffffffffffffffffffffffffffffffffff1673ffffffffffffffffffffffffffffffffffffffff1681526020019081526020015f205f9054906101000a900473ffffffffffffffffffffffffffffffffffffffff1673ffffffffffffffffffffffffffffffffffffffff16148015619af757505f73ffffffffffffffffffffffffffffffffffffffff168173ffffffffffffffffffffffffffffffffffffffff1614155b8015619b2f57505f73ffffffffffffffffffffffffffffffffffffffff168273ffffffffffffffffffffffffffffffffffffffff1614155b8015619b6757508173ffffffffffffffffffffffffffffffffffffffff168173ffffffffffffffffffffffffffffffffffffffff1614155b15619c83578060085f8473ffffffffffffffffffffffffffffffffffffffff1673ffffffffffffffffffffffffffffffffffffffff1681526020019081526020015f205f6101000a81548173ffffffffffffffffffffffffffffffffffffffff021916908373ffffffffffffffffffffffffffffffffffffffff16021790555060095f8273ffffffffffffffffffffffffffffffffffffffff1673ffffffffffffffffffffffffffffffffffffffff1681526020019081526020015f2082908060018154018082558091505060019003905f5260205f20015f9091909190916101000a81548173ffffffffffffffffffffffffffffffffffffffff021916908373ffffffffffffffffffffffffffffffffffffffff1602179055505b5050565b5f81519050919050565b5f82825260208201905092915050565b8281835e5f83830152505050565b5f601f19601f8301169050919050565b5f619cc982619c87565b619cd38185619c91565b9350619ce3818560208601619ca1565b619cec81619caf565b840191505092915050565b5f6020820190508181035f830152619d0f8184619cbf565b905092915050565b5f5ffd5b5f5ffd5b5f73ffffffffffffffffffffffffffffffffffffffff82169050919050565b5f619d4882619d1f565b9050919050565b619d5881619d3e565b8114619d62575f5ffd5b50565b5f81359050619d7381619d4f565b92915050565b5f819050919050565b619d8b81619d79565b8114619d95575f5ffd5b50565b5f81359050619da681619d82565b92915050565b5f5f60408385031215619dc257619dc1619d17565b5b5f619dcf85828601619d65565b9250506020619de085828601619d98565b9150509250929050565b5f8115159050919050565b619dfe81619dea565b82525050565b5f602082019050619e175f830184619df5565b92915050565b5f5f5f60608486031215619e3457619e33619d17565b5b5f619e4186828701619d98565b9350506020619e5286828701619d98565b9250506040619e6386828701619d98565b9150509250925092565b619e7681619d3e565b82525050565b5f602082019050619e8f5f830184619e6d565b92915050565b5f60208284031215619eaa57619ea9619d17565b5b5f619eb784828501619d98565b91505092915050565b5f5ffd5b5f5ffd5b5f5ffd5b5f5f83601f840112619ee157619ee0619ec0565b5b8235905067ffffffffffffffff811115619efe57619efd619ec4565b5b602083019150836020820283011115619f1a57619f19619ec8565b5b9250929050565b5f5f83601f840112619f3657619f35619ec0565b5b8235905067ffffffffffffffff811115619f5357619f52619ec4565b5b602083019150836020820283011115619f6f57619f6e619ec8565b5b9250929050565b5f5f83601f840112619f8b57619f8a619ec0565b5b8235905067ffffffffffffffff811115619fa857619fa7619ec4565b5b602083019150836020820283011115619fc457619fc3619ec8565b5b9250929050565b5f5f5f5f5f5f60608789031215619fe557619fe4619d17565b5b5f87013567ffffffffffffffff81111561a0025761a001619d1b565b5b61a00e89828a01619ecc565b9650965050602087013567ffffffffffffffff81111561a0315761a030619d1b565b5b61a03d89828a01619f21565b9450945050604087013567ffffffffffffffff81111561a0605761a05f619d1b565b5b61a06c89828a01619f76565b92509250509295509295509295565b61a08481619d79565b82525050565b5f60208201905061a09d5f83018461a07b565b92915050565b61a0ac81619dea565b811461a0b6575f5ffd5b50565b5f8135905061a0c78161a0a3565b92915050565b5f6020828403121561a0e25761a0e1619d17565b5b5f61a0ef8482850161a0b9565b91505092915050565b5f5f6040838503121561a10e5761a10d619d17565b5b5f61a11b85828601619d98565b925050602061a12c85828601619d98565b9150509250929050565b5f6020828403121561a14b5761a14a619d17565b5b5f61a15884828501619d65565b91505092915050565b5f5f5f6060848603121561a1785761a177619d17565b5b5f61a18586828701619d65565b935050602061a19686828701619d65565b925050604061a1a786828701619d98565b9150509250925092565b5f60ff82169050919050565b61a1c68161a1b1565b811461a1d0575f5ffd5b50565b5f8135905061a1e18161a1bd565b92915050565b5f6020828403121561a1fc5761a1fb619d17565b5b5f61a2098482850161a1d3565b91505092915050565b5f60408201905061a2255f83018561a07b565b61a232602083018461a07b565b9392505050565b61a2428161a1b1565b82525050565b5f60208201905061a25b5f83018461a239565b92915050565b5f5f5f6060848603121561a2785761a277619d17565b5b5f61a2858682870161a1d3565b935050602061a29686828701619d98565b925050604061a2a786828701619d98565b9150509250925092565b5f5f6040838503121561a2c75761a2c6619d17565b5b5f61a2d485828601619d65565b925050602061a2e58582860161a1d3565b9150509250929050565b5f5f5f5f5f60a0868803121561a3085761a307619d17565b5b5f61a31588828901619d98565b955050602061a3268882890161a0b9565b945050604061a33788828901619d98565b935050606061a34888828901619d98565b925050608061a35988828901619d98565b9150509295509295909350565b5f60608201905061a3795f83018661a07b565b61a386602083018561a239565b61a393604083018461a07b565b949350505050565b5f5f5f5f6040858703121561a3b35761a3b2619d17565b5b5f85013567ffffffffffffffff81111561a3d05761a3cf619d1b565b5b61a3dc87828801619ecc565b9450945050602085013567ffffffffffffffff81111561a3ff5761a3fe619d1b565b5b61a40b87828801619ecc565b925092505092959194509250565b5f5f5f5f5f5f6060878903121561a4335761a432619d17565b5b5f87013567ffffffffffffffff81111561a4505761a44f619d1b565b5b61a45c89828a01619ecc565b9650965050602087013567ffffffffffffffff81111561a47f5761a47e619d1b565b5b61a48b89828a01619f21565b9450945050604087013567ffffffffffffffff81111561a4ae5761a4ad619d1b565b5b61a4ba89828a01619f21565b92509250509295509295509295565b5f5f6040838503121561a4df5761a4de619d17565b5b5f61a4ec85828601619d65565b925050602061a4fd8582860161a0b9565b9150509250929050565b5f5f6040838503121561a51d5761a51c619d17565b5b5f61a52a8582860161a0b9565b925050602061a53b85828601619d98565b9150509250929050565b5f5f6040838503121561a55b5761a55a619d17565b5b5f61a56885828601619d65565b925050602061a57985828601619d65565b9150509250929050565b5f60608201905061a5965f83018661a07b565b61a5a3602083018561a07b565b61a5b0604083018461a07b565b949350505050565b5f5f5f5f6040858703121561a5d05761a5cf619d17565b5b5f85013567ffffffffffffffff81111561a5ed5761a5ec619d1b565b5b61a5f987828801619ecc565b9450945050602085013567ffffffffffffffff81111561a61c5761a61b619d1b565b5b61a62887828801619f21565b925092505092959194509250565b7f4e487b71000000000000000000000000000000000000000000000000000000005f52601160045260245ffd5b5f61a66d82619d79565b915061a67883619d79565b925082820190508082111561a6905761a68f61a636565b5b92915050565b7f4e487b71000000000000000000000000000000000000000000000000000000005f52601260045260245ffd5b5f61a6cd82619d79565b915061a6d883619d79565b92508261a6e85761a6e761a696565b5b828204905092915050565b5f61a6fd82619d79565b915061a70883619d79565b925082820390508181111561a7205761a71f61a636565b5b92915050565b5f61a73082619d79565b915061a73b83619d79565b925082820261a74981619d79565b9150828204841483151761a7605761a75f61a636565b5b5092915050565b5f8151905061a77581619d82565b92915050565b5f6020828403121561a7905761a78f619d17565b5b5f61a79d8482850161a767565b91505092915050565b5f60608201905061a7b95f830186619e6d565b61a7c6602083018561a07b565b61a7d36040830184619df5565b949350505050565b5f60608201905061a7ee5f830186619e6d565b61a7fb6020830185619df5565b61a808604083018461a07b565b949350505050565b7f4e487b71000000000000000000000000000000000000000000000000000000005f52602260045260245ffd5b5f600282049050600182168061a85457607f821691505b60208210810361a8675761a86661a810565b5b50919050565b7f4e487b71000000000000000000000000000000000000000000000000000000005f52603260045260245ffd5b5f60408201905061a8ad5f830185619e6d565b61a8ba602083018461a07b565b9392505050565b5f8151905061a8cf8161a0a3565b92915050565b5f6020828403121561a8ea5761a8e9619d17565b5b5f61a8f78482850161a8c1565b91505092915050565b5f81905092915050565b50565b5f61a9185f8361a900565b915061a9238261a90a565b5f82019050919050565b5f61a9378261a90d565b9150819050919050565b5f819050919050565b5f819050919050565b5f61a96d61a96861a9638461a941565b61a94a565b619d79565b9050919050565b61a97d8161a953565b82525050565b5f60608201905061a9965f830186619e6d565b61a9a3602083018561a974565b61a9b06040830184619df5565b949350505050565b7f4e487b71000000000000000000000000000000000000000000000000000000005f52604160045260245ffd5b5f81519050919050565b5f82825260208201905092915050565b5f819050602082019050919050565b61aa1781619d3e565b82525050565b5f61aa28838361aa0e565b60208301905092915050565b5f602082019050919050565b5f61aa4a8261a9e5565b61aa54818561a9ef565b935061aa5f8361a9ff565b805f5b8381101561aa8f57815161aa76888261aa1d565b975061aa818361aa34565b92505060018101905061aa62565b5085935050505092915050565b5f60808201905061aaaf5f83018761a07b565b818103602083015261aac1818661aa40565b905061aad06040830185619e6d565b61aadd606083018461a07b565b95945050505050565b5f60608201905061aaf95f830186619e6d565b61ab06602083018561a07b565b61ab13604083018461a07b565b949350505050565b5f60a08201905061ab2e5f83018861a07b565b61ab3b602083018761a07b565b818103604083015261ab4d818661aa40565b905061ab5c6060830185619e6d565b61ab69608083018461a07b565b9695505050505050565b5f60c08201905061ab865f830189619e6d565b61ab93602083018861a07b565b61aba0604083018761a974565b61abad606083018661a07b565b61abba6080830185619e6d565b61abc760a083018461a07b565b979650505050505050565b5f61abdc82619d79565b915061abe783619d79565b92508261abf75761abf661a696565b5b828206905092915050565b5f61ac0c82619d79565b91507fffffffffffffffffffffffffffffffffffffffffffffffffffffffffffffffff820361ac3e5761ac3d61a636565b5b600182019050919050565b5f61ac538261a1b1565b915061ac5e8361a1b1565b9250828201905060ff81111561ac775761ac7661a636565b5b92915050565b5f819050919050565b61ac9761ac9282619d79565b61ac7d565b82525050565b5f8160601b9050919050565b5f61acb38261ac9d565b9050919050565b5f61acc48261aca9565b9050919050565b61acdc61acd782619d3e565b61acba565b82525050565b5f61aced828961ac86565b60208201915061acfd828861ac86565b60208201915061ad0d828761ac86565b60208201915061ad1d828661ac86565b60208201915061ad2d828561accb565b60148201915061ad3d828461ac86565b602082019150819050979650505050505050565b5f6dffffffffffffffffffffffffffff82169050919050565b61ad738161ad51565b811461ad7d575f5ffd5b50565b5f8151905061ad8e8161ad6a565b92915050565b5f63ffffffff82169050919050565b61adac8161ad94565b811461adb6575f5ffd5b50565b5f8151905061adc78161ada3565b92915050565b5f5f5f6060848603121561ade45761ade3619d17565b5b5f61adf18682870161ad80565b935050602061ae028682870161ad80565b925050604061ae138682870161adb9565b915050925092509256fea2646970667358221220f4d318997c70b7519e24e32f190d6e6458d9085e55e89509fbc768848940feac64736f6c6343000822003360a0604052348015600e575f5ffd5b503373ffffffffffffffffffffffffffffffffffffffff1660808173ffffffffffffffffffffffffffffffffffffffff168152505060805160f96100585f395f604f015260f95ff3fe608060405260043610601e575f3560e01c8063fc0c546a146028576024565b36602457005b5f5ffd5b3480156032575f5ffd5b506039604d565b6040516044919060ac565b60405180910390f35b7f000000000000000000000000000000000000000000000000000000000000000081565b5f73ffffffffffffffffffffffffffffffffffffffff82169050919050565b5f6098826071565b9050919050565b60a6816090565b82525050565b5f60208201905060bd5f830184609f565b9291505056fea26469706673582212204dd959a8da8366a4b979e408ae0a6e11b818a60384c47f5edf5bfec8c4f14f9164736f6c63430008220033",
			"opcodes": "PUSH2 0x100 PUSH1 0x40 MSTORE PUSH2 0x7530 PUSH1 0x6 SSTORE PUSH2 0x7530 PUSH1 0x7 SSTORE PUSH8 0x6F05B59D3B20000 PUSH1 0xA SSTORE PUSH1 0x1 PUSH1 0xB PUSH0 PUSH2 0x100 EXP DUP2 SLOAD DUP2 PUSH1 0xFF MUL NOT AND SWAP1 DUP4 ISZERO ISZERO MUL OR SWAP1 SSTORE POP PUSH1 0x7 PUSH1 0xC SSTORE PUSH3 0xA8C00 PUSH1 0xD SSTORE PUSH2 0x4650 PUSH1 0xE SSTORE PUSH3 0xF4240 PUSH1 0xF SSTORE PUSH2 0x7526 PUSH1 0x10 SSTORE PUSH2 0x4E20 PUSH1 0x11 SSTORE PUSH1 0xA PUSH1 0x12 SSTORE PUSH3 0x1EC30 PUSH1 0x13 SSTORE PUSH8 0x16345785D8A0000 PUSH1 0x14 SSTORE PUSH8 0x29A2241AF62C0000 PUSH1 0x15 SSTORE PUSH8 0x1BC16D674EC80000 PUSH1 0x16 SSTORE PUSH3 0x3D090 PUSH1 0x1B SSTORE PUSH8 0xDE0B6B3A7640000 PUSH1 0x27 SSTORE PUSH8 0x4563918244F40000 PUSH1 0x28 SSTORE PUSH2 0x1F4 PUSH1 0x29 SSTORE PUSH2 0x4E20 PUSH1 0x2B SSTORE PUSH1 0x1 PUSH1 0x2C PUSH0 PUSH2 0x100 EXP DUP2 SLOAD DUP2 PUSH1 0xFF MUL NOT AND SWAP1 DUP4 ISZERO ISZERO MUL OR SWAP1 SSTORE POP PUSH3 0x30CDC PUSH1 0x2D SSTORE PUSH1 0x64 PUSH1 0x2E SSTORE PUSH2 0x1C20 PUSH1 0x2F SSTORE CALLVALUE DUP1 ISZERO PUSH2 0xEE JUMPI PUSH0 PUSH0 REVERT JUMPDEST POP PUSH1 0x40 MLOAD PUSH2 0xD2F9 CODESIZE SUB DUP1 PUSH2 0xD2F9 DUP4 CODECOPY DUP2 DUP2 ADD PUSH1 0x40 MSTORE DUP2 ADD SWAP1 PUSH2 0x110 SWAP2 SWAP1 PUSH2 0x1A83 JUMP JUMPDEST DUP2 DUP6 DUP6 DUP2 PUSH1 0x3 SWAP1 DUP2 PUSH2 0x122 SWAP2 SWAP1 PUSH2 0x1D84 JUMP JUMPDEST POP DUP1 PUSH1 0x4 SWAP1 DUP2 PUSH2 0x132 SWAP2 SWAP1 PUSH2 0x1D84 JUMP JUMPDEST POP POP POP PUSH0 PUSH20 0xFFFFFFFFFFFFFFFFFFFFFFFFFFFFFFFFFFFFFFFF AND DUP2 PUSH20 0xFFFFFFFFFFFFFFFFFFFFFFFFFFFFFFFFFFFFFFFF AND SUB PUSH2 0x1A5 JUMPI PUSH0 PUSH1 0x40 MLOAD PUSH32 0x1E4FBDF700000000000000000000000000000000000000000000000000000000 DUP2 MSTORE PUSH1 0x4 ADD PUSH2 0x19C SWAP2 SWAP1 PUSH2 0x1E62 JUMP JUMPDEST PUSH1 0x40 MLOAD DUP1 SWAP2 SUB SWAP1 REVERT JUMPDEST PUSH2 0x1B4 DUP2 PUSH2 0x651 PUSH1 0x20 SHL PUSH1 0x20 SHR JUMP JUMPDEST POP PUSH0 PUSH20 0xFFFFFFFFFFFFFFFFFFFFFFFFFFFFFFFFFFFFFFFF AND DUP9 PUSH20 0xFFFFFFFFFFFFFFFFFFFFFFFFFFFFFFFFFFFFFFFF AND EQ DUP1 PUSH2 0x21A JUMPI POP PUSH0 PUSH20 0xFFFFFFFFFFFFFFFFFFFFFFFFFFFFFFFFFFFFFFFF AND DUP8 PUSH20 0xFFFFFFFFFFFFFFFFFFFFFFFFFFFFFFFFFFFFFFFF AND EQ JUMPDEST DUP1 PUSH2 0x250 JUMPI POP PUSH0 PUSH20 0xFFFFFFFFFFFFFFFFFFFFFFFFFFFFFFFFFFFFFFFF AND DUP7 PUSH20 0xFFFFFFFFFFFFFFFFFFFFFFFFFFFFFFFFFFFFFFFF AND EQ JUMPDEST DUP1 PUSH2 0x286 JUMPI POP PUSH0 PUSH20 0xFFFFFFFFFFFFFFFFFFFFFFFFFFFFFFFFFFFFFFFF AND DUP2 PUSH20 0xFFFFFFFFFFFFFFFFFFFFFFFFFFFFFFFFFFFFFFFF AND EQ JUMPDEST ISZERO PUSH2 0x2BD JUMPI PUSH1 0x40 MLOAD PUSH32 0xD92E233D00000000000000000000000000000000000000000000000000000000 DUP2 MSTORE PUSH1 0x4 ADD PUSH1 0x40 MLOAD DUP1 SWAP2 SUB SWAP1 REVERT JUMPDEST DUP8 PUSH20 0xFFFFFFFFFFFFFFFFFFFFFFFFFFFFFFFFFFFFFFFF AND PUSH1 0xA0 DUP2 PUSH20 0xFFFFFFFFFFFFFFFFFFFFFFFFFFFFFFFFFFFFFFFF AND DUP2 MSTORE POP POP DUP7 PUSH1 0x21 PUSH0 PUSH2 0x100 EXP DUP2 SLOAD DUP2 PUSH20 0xFFFFFFFFFFFFFFFFFFFFFFFFFFFFFFFFFFFFFFFF MUL NOT AND SWAP1 DUP4 PUSH20 0xFFFFFFFFFFFFFFFFFFFFFFFFFFFFFFFFFFFFFFFF AND MUL OR SWAP1 SSTORE POP DUP1 PUSH1 0x22 PUSH0 PUSH2 0x100 EXP DUP2 SLOAD DUP2 PUSH20 0xFFFFFFFFFFFFFFFFFFFFFFFFFFFFFFFFFFFFFFFF MUL NOT AND SWAP1 DUP4 PUSH20 0xFFFFFFFFFFFFFFFFFFFFFFFFFFFFFFFFFFFFFFFF AND MUL OR SWAP1 SSTORE POP DUP8 PUSH20 0xFFFFFFFFFFFFFFFFFFFFFFFFFFFFFFFFFFFFFFFF AND PUSH4 0xAD5C4648 PUSH1 0x40 MLOAD DUP2 PUSH4 0xFFFFFFFF AND PUSH1 0xE0 SHL DUP2 MSTORE PUSH1 0x4 ADD PUSH1 0x20 PUSH1 0x40 MLOAD DUP1 DUP4 SUB DUP2 DUP7 GAS STATICCALL ISZERO DUP1 ISZERO PUSH2 0x3BA JUMPI RETURNDATASIZE PUSH0 PUSH0 RETURNDATACOPY RETURNDATASIZE PUSH0 REVERT JUMPDEST POP POP POP POP PUSH1 0x40 MLOAD RETURNDATASIZE PUSH1 0x1F NOT PUSH1 0x1F DUP3 ADD AND DUP3 ADD DUP1 PUSH1 0x40 MSTORE POP DUP2 ADD SWAP1 PUSH2 0x3DE SWAP2 SWAP1 PUSH2 0x1E7B JUMP JUMPDEST PUSH20 0xFFFFFFFFFFFFFFFFFFFFFFFFFFFFFFFFFFFFFFFF AND PUSH1 0xC0 DUP2 PUSH20 0xFFFFFFFFFFFFFFFFFFFFFFFFFFFFFFFFFFFFFFFF AND DUP2 MSTORE POP POP PUSH2 0x420 DUP9 PUSH2 0x714 PUSH1 0x20 SHL PUSH1 0x20 SHR JUMP JUMPDEST PUSH20 0xFFFFFFFFFFFFFFFFFFFFFFFFFFFFFFFFFFFFFFFF AND PUSH1 0x80 DUP2 PUSH20 0xFFFFFFFFFFFFFFFFFFFFFFFFFFFFFFFFFFFFFFFF AND DUP2 MSTORE POP POP PUSH2 0x487 DUP7 PUSH2 0x465 PUSH2 0x92E PUSH1 0x20 SHL PUSH1 0x20 SHR JUMP JUMPDEST PUSH1 0xA PUSH2 0x471 SWAP2 SWAP1 PUSH2 0x200E JUMP JUMPDEST DUP6 PUSH2 0x47C SWAP2 SWAP1 PUSH2 0x2058 JUMP JUMPDEST PUSH2 0x936 PUSH1 0x20 SHL PUSH1 0x20 SHR JUMP JUMPDEST PUSH1 0x40 MLOAD PUSH2 0x493 SWAP1 PUSH2 0x189C JUMP JUMPDEST PUSH1 0x40 MLOAD DUP1 SWAP2 SUB SWAP1 PUSH0 CREATE DUP1 ISZERO DUP1 ISZERO PUSH2 0x4AC JUMPI RETURNDATASIZE PUSH0 PUSH0 RETURNDATACOPY RETURNDATASIZE PUSH0 REVERT JUMPDEST POP PUSH20 0xFFFFFFFFFFFFFFFFFFFFFFFFFFFFFFFFFFFFFFFF AND PUSH1 0xE0 DUP2 PUSH20 0xFFFFFFFFFFFFFFFFFFFFFFFFFFFFFFFFFFFFFFFF AND DUP2 MSTORE POP POP PUSH1 0x1 PUSH1 0x1C PUSH0 PUSH1 0xE0 MLOAD PUSH20 0xFFFFFFFFFFFFFFFFFFFFFFFFFFFFFFFFFFFFFFFF AND PUSH20 0xFFFFFFFFFFFFFFFFFFFFFFFFFFFFFFFFFFFFFFFF AND DUP2 MSTORE PUSH1 0x20 ADD SWAP1 DUP2 MSTORE PUSH1 0x20 ADD PUSH0 KECCAK256 PUSH0 PUSH2 0x100 EXP DUP2 SLOAD DUP2 PUSH1 0xFF MUL NOT AND SWAP1 DUP4 ISZERO ISZERO MUL OR SWAP1 SSTORE POP PUSH1 0x1 PUSH1 0x1C PUSH0 ADDRESS PUSH20 0xFFFFFFFFFFFFFFFFFFFFFFFFFFFFFFFFFFFFFFFF AND PUSH20 0xFFFFFFFFFFFFFFFFFFFFFFFFFFFFFFFFFFFFFFFF AND DUP2 MSTORE PUSH1 0x20 ADD SWAP1 DUP2 MSTORE PUSH1 0x20 ADD PUSH0 KECCAK256 PUSH0 PUSH2 0x100 EXP DUP2 SLOAD DUP2 PUSH1 0xFF MUL NOT AND SWAP1 DUP4 ISZERO ISZERO MUL OR SWAP1 SSTORE POP PUSH1 0x1 PUSH1 0x1C PUSH0 DUP9 PUSH20 0xFFFFFFFFFFFFFFFFFFFFFFFFFFFFFFFFFFFFFFFF AND PUSH20 0xFFFFFFFFFFFFFFFFFFFFFFFFFFFFFFFFFFFFFFFF AND DUP2 MSTORE PUSH1 0x20 ADD SWAP1 DUP2 MSTORE PUSH1 0x20 ADD PUSH0 KECCAK256 PUSH0 PUSH2 0x100 EXP DUP2 SLOAD DUP2 PUSH1 0xFF MUL NOT AND SWAP1 DUP4 ISZERO ISZERO MUL OR SWAP1 SSTORE POP PUSH1 0x1 PUSH1 0x1C PUSH0 DUP10 PUSH20 0xFFFFFFFFFFFFFFFFFFFFFFFFFFFFFFFFFFFFFFFF AND PUSH20 0xFFFFFFFFFFFFFFFFFFFFFFFFFFFFFFFFFFFFFFFF AND DUP2 MSTORE PUSH1 0x20 ADD SWAP1 DUP2 MSTORE PUSH1 0x20 ADD PUSH0 KECCAK256 PUSH0 PUSH2 0x100 EXP DUP2 SLOAD DUP2 PUSH1 0xFF MUL NOT AND SWAP1 DUP4 ISZERO ISZERO MUL OR SWAP1 SSTORE POP PUSH2 0x644 PUSH2 0x9BB PUSH1 0x20 SHL PUSH1 0x20 SHR JUMP JUMPDEST POP POP POP POP POP POP POP POP PUSH2 0x21E0 JUMP JUMPDEST PUSH0 PUSH1 0x5 PUSH0 SWAP1 SLOAD SWAP1 PUSH2 0x100 EXP SWAP1 DIV PUSH20 0xFFFFFFFFFFFFFFFFFFFFFFFFFFFFFFFFFFFFFFFF AND SWAP1 POP DUP2 PUSH1 0x5 PUSH0 PUSH2 0x100 EXP DUP2 SLOAD DUP2 PUSH20 0xFFFFFFFFFFFFFFFFFFFFFFFFFFFFFFFFFFFFFFFF MUL NOT AND SWAP1 DUP4 PUSH20 0xFFFFFFFFFFFFFFFFFFFFFFFFFFFFFFFFFFFFFFFF AND MUL OR SWAP1 SSTORE POP DUP2 PUSH20 0xFFFFFFFFFFFFFFFFFFFFFFFFFFFFFFFFFFFFFFFF AND DUP2 PUSH20 0xFFFFFFFFFFFFFFFFFFFFFFFFFFFFFFFFFFFFFFFF AND PUSH32 0x8BE0079C531659141344CD1FD0A4F28419497F9722A3DAAFE3B4186F6B6457E0 PUSH1 0x40 MLOAD PUSH1 0x40 MLOAD DUP1 SWAP2 SUB SWAP1 LOG3 POP POP JUMP JUMPDEST PUSH0 PUSH0 DUP3 PUSH20 0xFFFFFFFFFFFFFFFFFFFFFFFFFFFFFFFFFFFFFFFF AND PUSH4 0xC45A0155 PUSH1 0x40 MLOAD DUP2 PUSH4 0xFFFFFFFF AND PUSH1 0xE0 SHL DUP2 MSTORE PUSH1 0x4 ADD PUSH1 0x20 PUSH1 0x40 MLOAD DUP1 DUP4 SUB DUP2 DUP7 GAS STATICCALL ISZERO DUP1 ISZERO PUSH2 0x75F JUMPI RETURNDATASIZE PUSH0 PUSH0 RETURNDATACOPY RETURNDATASIZE PUSH0 REVERT JUMPDEST POP POP POP POP PUSH1 0x40 MLOAD RETURNDATASIZE PUSH1 0x1F NOT PUSH1 0x1F DUP3 ADD AND DUP3 ADD DUP1 PUSH1 0x40 MSTORE POP DUP2 ADD SWAP1 PUSH2 0x783 SWAP2 SWAP1 PUSH2 0x1E7B JUMP JUMPDEST SWAP1 POP PUSH0 DUP4 PUSH20 0xFFFFFFFFFFFFFFFFFFFFFFFFFFFFFFFFFFFFFFFF AND PUSH4 0xAD5C4648 PUSH1 0x40 MLOAD DUP2 PUSH4 0xFFFFFFFF AND PUSH1 0xE0 SHL DUP2 MSTORE PUSH1 0x4 ADD PUSH1 0x20 PUSH1 0x40 MLOAD DUP1 DUP4 SUB DUP2 DUP7 GAS STATICCALL ISZERO DUP1 ISZERO PUSH2 0x7CF JUMPI RETURNDATASIZE PUSH0 PUSH0 RETURNDATACOPY RETURNDATASIZE PUSH0 REVERT JUMPDEST POP POP POP POP PUSH1 0x40 MLOAD RETURNDATASIZE PUSH1 0x1F NOT PUSH1 0x1F DUP3 ADD AND DUP3 ADD DUP1 PUSH1 0x40 MSTORE POP DUP2 ADD SWAP1 PUSH2 0x7F3 SWAP2 SWAP1 PUSH2 0x1E7B JUMP JUMPDEST SWAP1 POP PUSH0 DUP3 PUSH20 0xFFFFFFFFFFFFFFFFFFFFFFFFFFFFFFFFFFFFFFFF AND PUSH4 0xE6A43905 ADDRESS DUP5 PUSH1 0x40 MLOAD DUP4 PUSH4 0xFFFFFFFF AND PUSH1 0xE0 SHL DUP2 MSTORE PUSH1 0x4 ADD PUSH2 0x831 SWAP3 SWAP2 SWAP1 PUSH2 0x2099 JUMP JUMPDEST PUSH1 0x20 PUSH1 0x40 MLOAD DUP1 DUP4 SUB DUP2 DUP7 GAS STATICCALL ISZERO DUP1 ISZERO PUSH2 0x84C JUMPI RETURNDATASIZE PUSH0 PUSH0 RETURNDATACOPY RETURNDATASIZE PUSH0 REVERT JUMPDEST POP POP POP POP PUSH1 0x40 MLOAD RETURNDATASIZE PUSH1 0x1F NOT PUSH1 0x1F DUP3 ADD AND DUP3 ADD DUP1 PUSH1 0x40 MSTORE POP DUP2 ADD SWAP1 PUSH2 0x870 SWAP2 SWAP1 PUSH2 0x1E7B JUMP JUMPDEST SWAP1 POP PUSH0 PUSH20 0xFFFFFFFFFFFFFFFFFFFFFFFFFFFFFFFFFFFFFFFF AND DUP2 PUSH20 0xFFFFFFFFFFFFFFFFFFFFFFFFFFFFFFFFFFFFFFFF AND SUB PUSH2 0x923 JUMPI DUP3 PUSH20 0xFFFFFFFFFFFFFFFFFFFFFFFFFFFFFFFFFFFFFFFF AND PUSH4 0xC9C65396 ADDRESS DUP5 PUSH1 0x40 MLOAD DUP4 PUSH4 0xFFFFFFFF AND PUSH1 0xE0 SHL DUP2 MSTORE PUSH1 0x4 ADD PUSH2 0x8E0 SWAP3 SWAP2 SWAP1 PUSH2 0x2099 JUMP JUMPDEST PUSH1 0x20 PUSH1 0x40 MLOAD DUP1 DUP4 SUB DUP2 PUSH0 DUP8 GAS CALL ISZERO DUP1 ISZERO PUSH2 0x8FC JUMPI RETURNDATASIZE PUSH0 PUSH0 RETURNDATACOPY RETURNDATASIZE PUSH0 REVERT JUMPDEST POP POP POP POP PUSH1 0x40 MLOAD RETURNDATASIZE PUSH1 0x1F NOT PUSH1 0x1F DUP3 ADD AND DUP3 ADD DUP1 PUSH1 0x40 MSTORE POP DUP2 ADD SWAP1 PUSH2 0x920 SWAP2 SWAP1 PUSH2 0x1E7B JUMP JUMPDEST SWAP1 POP JUMPDEST DUP1 SWAP4 POP POP POP POP SWAP2 SWAP1 POP JUMP JUMPDEST PUSH0 PUSH1 0x12 SWAP1 POP SWAP1 JUMP JUMPDEST PUSH0 PUSH20 0xFFFFFFFFFFFFFFFFFFFFFFFFFFFFFFFFFFFFFFFF AND DUP3 PUSH20 0xFFFFFFFFFFFFFFFFFFFFFFFFFFFFFFFFFFFFFFFF AND SUB PUSH2 0x9A6 JUMPI PUSH0 PUSH1 0x40 MLOAD PUSH32 0xEC442F0500000000000000000000000000000000000000000000000000000000 DUP2 MSTORE PUSH1 0x4 ADD PUSH2 0x99D SWAP2 SWAP1 PUSH2 0x1E62 JUMP JUMPDEST PUSH1 0x40 MLOAD DUP1 SWAP2 SUB SWAP1 REVERT JUMPDEST PUSH2 0x9B7 PUSH0 DUP4 DUP4 PUSH2 0xB33 PUSH1 0x20 SHL PUSH1 0x20 SHR JUMP JUMPDEST POP POP JUMP JUMPDEST PUSH1 0x40 MLOAD DUP1 PUSH1 0x40 ADD PUSH1 0x40 MSTORE DUP1 PUSH8 0x8AC7230489E80000 DUP2 MSTORE PUSH1 0x20 ADD PUSH3 0x11170 DUP2 MSTORE POP PUSH1 0x19 PUSH0 PUSH1 0x1 PUSH1 0xFF AND DUP2 MSTORE PUSH1 0x20 ADD SWAP1 DUP2 MSTORE PUSH1 0x20 ADD PUSH0 KECCAK256 PUSH0 DUP3 ADD MLOAD DUP2 PUSH0 ADD SSTORE PUSH1 0x20 DUP3 ADD MLOAD DUP2 PUSH1 0x1 ADD SSTORE SWAP1 POP POP PUSH1 0x40 MLOAD DUP1 PUSH1 0x40 ADD PUSH1 0x40 MSTORE DUP1 PUSH9 0x2B5E3AF16B1880000 DUP2 MSTORE PUSH1 0x20 ADD PUSH3 0x1FBD0 DUP2 MSTORE POP PUSH1 0x19 PUSH0 PUSH1 0x2 PUSH1 0xFF AND DUP2 MSTORE PUSH1 0x20 ADD SWAP1 DUP2 MSTORE PUSH1 0x20 ADD PUSH0 KECCAK256 PUSH0 DUP3 ADD MLOAD DUP2 PUSH0 ADD SSTORE PUSH1 0x20 DUP3 ADD MLOAD DUP2 PUSH1 0x1 ADD SSTORE SWAP1 POP POP PUSH1 0x40 MLOAD DUP1 PUSH1 0x40 ADD PUSH1 0x40 MSTORE DUP1 PUSH9 0xAD78EBC5AC6200000 DUP2 MSTORE PUSH1 0x20 ADD PUSH3 0x27100 DUP2 MSTORE POP PUSH1 0x19 PUSH0 PUSH1 0x3 PUSH1 0xFF AND DUP2 MSTORE PUSH1 0x20 ADD SWAP1 DUP2 MSTORE PUSH1 0x20 ADD PUSH0 KECCAK256 PUSH0 DUP3 ADD MLOAD DUP2 PUSH0 ADD SSTORE PUSH1 0x20 DUP3 ADD MLOAD DUP2 PUSH1 0x1 ADD SSTORE SWAP1 POP POP PUSH1 0x40 MLOAD DUP1 PUSH1 0x40 ADD PUSH1 0x40 MSTORE DUP1 PUSH9 0x1B1AE4D6E2EF500000 DUP2 MSTORE PUSH1 0x20 ADD PUSH3 0x2BF20 DUP2 MSTORE POP PUSH1 0x19 PUSH0 PUSH1 0x4 PUSH1 0xFF AND DUP2 MSTORE PUSH1 0x20 ADD SWAP1 DUP2 MSTORE PUSH1 0x20 ADD PUSH0 KECCAK256 PUSH0 DUP3 ADD MLOAD DUP2 PUSH0 ADD SSTORE PUSH1 0x20 DUP3 ADD MLOAD DUP2 PUSH1 0x1 ADD SSTORE SWAP1 POP POP PUSH1 0x40 MLOAD DUP1 PUSH1 0x40 ADD PUSH1 0x40 MSTORE DUP1 PUSH9 0x410D586A20A4C00000 DUP2 MSTORE PUSH1 0x20 ADD PUSH3 0x3D090 DUP2 MSTORE POP PUSH1 0x19 PUSH0 PUSH1 0x5 PUSH1 0xFF AND DUP2 MSTORE PUSH1 0x20 ADD SWAP1 DUP2 MSTORE PUSH1 0x20 ADD PUSH0 KECCAK256 PUSH0 DUP3 ADD MLOAD DUP2 PUSH0 ADD SSTORE PUSH1 0x20 DUP3 ADD MLOAD DUP2 PUSH1 0x1 ADD SSTORE SWAP1 POP POP JUMP JUMPDEST PUSH0 PUSH20 0xFFFFFFFFFFFFFFFFFFFFFFFFFFFFFFFFFFFFFFFF AND DUP4 PUSH20 0xFFFFFFFFFFFFFFFFFFFFFFFFFFFFFFFFFFFFFFFF AND EQ ISZERO DUP1 ISZERO PUSH2 0xBB5 JUMPI POP PUSH1 0x1D PUSH0 DUP5 PUSH20 0xFFFFFFFFFFFFFFFFFFFFFFFFFFFFFFFFFFFFFFFF AND PUSH20 0xFFFFFFFFFFFFFFFFFFFFFFFFFFFFFFFFFFFFFFFF AND DUP2 MSTORE PUSH1 0x20 ADD SWAP1 DUP2 MSTORE PUSH1 0x20 ADD PUSH0 KECCAK256 PUSH0 SWAP1 SLOAD SWAP1 PUSH2 0x100 EXP SWAP1 DIV PUSH1 0xFF AND JUMPDEST ISZERO PUSH2 0xBEC JUMPI PUSH1 0x40 MLOAD PUSH32 0x9550C7700000000000000000000000000000000000000000000000000000000 DUP2 MSTORE PUSH1 0x4 ADD PUSH1 0x40 MLOAD DUP1 SWAP2 SUB SWAP1 REVERT JUMPDEST PUSH0 PUSH20 0xFFFFFFFFFFFFFFFFFFFFFFFFFFFFFFFFFFFFFFFF AND DUP3 PUSH20 0xFFFFFFFFFFFFFFFFFFFFFFFFFFFFFFFFFFFFFFFF AND EQ ISZERO DUP1 ISZERO PUSH2 0xC6E JUMPI POP PUSH1 0x1D PUSH0 DUP4 PUSH20 0xFFFFFFFFFFFFFFFFFFFFFFFFFFFFFFFFFFFFFFFF AND PUSH20 0xFFFFFFFFFFFFFFFFFFFFFFFFFFFFFFFFFFFFFFFF AND DUP2 MSTORE PUSH1 0x20 ADD SWAP1 DUP2 MSTORE PUSH1 0x20 ADD PUSH0 KECCAK256 PUSH0 SWAP1 SLOAD SWAP1 PUSH2 0x100 EXP SWAP1 DIV PUSH1 0xFF AND JUMPDEST ISZERO PUSH2 0xCA5 JUMPI PUSH1 0x40 MLOAD PUSH32 0x9550C7700000000000000000000000000000000000000000000000000000000 DUP2 MSTORE PUSH1 0x4 ADD PUSH1 0x40 MLOAD DUP1 SWAP2 SUB SWAP1 REVERT JUMPDEST PUSH1 0xB PUSH0 SWAP1 SLOAD SWAP1 PUSH2 0x100 EXP SWAP1 DIV PUSH1 0xFF AND DUP1 ISZERO PUSH2 0xCEC JUMPI POP PUSH0 PUSH20 0xFFFFFFFFFFFFFFFFFFFFFFFFFFFFFFFFFFFFFFFF AND DUP4 PUSH20 0xFFFFFFFFFFFFFFFFFFFFFFFFFFFFFFFFFFFFFFFF AND EQ ISZERO JUMPDEST DUP1 ISZERO PUSH2 0xD24 JUMPI POP PUSH0 PUSH20 0xFFFFFFFFFFFFFFFFFFFFFFFFFFFFFFFFFFFFFFFF AND DUP3 PUSH20 0xFFFFFFFFFFFFFFFFFFFFFFFFFFFFFFFFFFFFFFFF AND EQ ISZERO JUMPDEST DUP1 ISZERO PUSH2 0xD5B JUMPI POP ORIGIN PUSH20 0xFFFFFFFFFFFFFFFFFFFFFFFFFFFFFFFFFFFFFFFF AND DUP4 PUSH20 0xFFFFFFFFFFFFFFFFFFFFFFFFFFFFFFFFFFFFFFFF AND EQ JUMPDEST DUP1 ISZERO PUSH2 0xDEE JUMPI POP PUSH0 PUSH20 0xFFFFFFFFFFFFFFFFFFFFFFFFFFFFFFFFFFFFFFFF AND PUSH1 0x8 PUSH0 DUP5 PUSH20 0xFFFFFFFFFFFFFFFFFFFFFFFFFFFFFFFFFFFFFFFF AND PUSH20 0xFFFFFFFFFFFFFFFFFFFFFFFFFFFFFFFFFFFFFFFF AND DUP2 MSTORE PUSH1 0x20 ADD SWAP1 DUP2 MSTORE PUSH1 0x20 ADD PUSH0 KECCAK256 PUSH0 SWAP1 SLOAD SWAP1 PUSH2 0x100 EXP SWAP1 DIV PUSH20 0xFFFFFFFFFFFFFFFFFFFFFFFFFFFFFFFFFFFFFFFF AND PUSH20 0xFFFFFFFFFFFFFFFFFFFFFFFFFFFFFFFFFFFFFFFF AND EQ JUMPDEST DUP1 ISZERO PUSH2 0xDFC JUMPI POP PUSH1 0xA SLOAD DUP2 LT ISZERO JUMPDEST DUP1 ISZERO PUSH2 0xE14 JUMPI POP PUSH2 0xE12 DUP4 PUSH2 0x13BF PUSH1 0x20 SHL PUSH1 0x20 SHR JUMP JUMPDEST ISZERO JUMPDEST DUP1 ISZERO PUSH2 0xE2C JUMPI POP PUSH2 0xE2A DUP3 PUSH2 0x13BF PUSH1 0x20 SHL PUSH1 0x20 SHR JUMP JUMPDEST ISZERO JUMPDEST ISZERO PUSH2 0xE42 JUMPI PUSH2 0xE41 DUP3 DUP5 PUSH2 0x1430 PUSH1 0x20 SHL PUSH1 0x20 SHR JUMP JUMPDEST JUMPDEST PUSH0 PUSH0 PUSH1 0x80 MLOAD PUSH20 0xFFFFFFFFFFFFFFFFFFFFFFFFFFFFFFFFFFFFFFFF AND DUP6 PUSH20 0xFFFFFFFFFFFFFFFFFFFFFFFFFFFFFFFFFFFFFFFF AND EQ DUP1 PUSH2 0xEAD JUMPI POP PUSH1 0xA0 MLOAD PUSH20 0xFFFFFFFFFFFFFFFFFFFFFFFFFFFFFFFFFFFFFFFF AND DUP6 PUSH20 0xFFFFFFFFFFFFFFFFFFFFFFFFFFFFFFFFFFFFFFFF AND EQ JUMPDEST SWAP1 POP PUSH0 PUSH1 0x80 MLOAD PUSH20 0xFFFFFFFFFFFFFFFFFFFFFFFFFFFFFFFFFFFFFFFF AND DUP6 PUSH20 0xFFFFFFFFFFFFFFFFFFFFFFFFFFFFFFFFFFFFFFFF AND EQ DUP1 PUSH2 0xF19 JUMPI POP PUSH1 0xA0 MLOAD PUSH20 0xFFFFFFFFFFFFFFFFFFFFFFFFFFFFFFFFFFFFFFFF AND DUP6 PUSH20 0xFFFFFFFFFFFFFFFFFFFFFFFFFFFFFFFFFFFFFFFF AND EQ JUMPDEST SWAP1 POP DUP2 DUP1 PUSH2 0xF24 JUMPI POP DUP1 JUMPDEST DUP1 ISZERO PUSH2 0xF3D JUMPI POP PUSH1 0x5 PUSH1 0x14 SWAP1 SLOAD SWAP1 PUSH2 0x100 EXP SWAP1 DIV PUSH1 0xFF AND ISZERO JUMPDEST ISZERO PUSH2 0x10FF JUMPI PUSH0 PUSH1 0x1C PUSH0 DUP9 PUSH20 0xFFFFFFFFFFFFFFFFFFFFFFFFFFFFFFFFFFFFFFFF AND PUSH20 0xFFFFFFFFFFFFFFFFFFFFFFFFFFFFFFFFFFFFFFFF AND DUP2 MSTORE PUSH1 0x20 ADD SWAP1 DUP2 MSTORE PUSH1 0x20 ADD PUSH0 KECCAK256 PUSH0 SWAP1 SLOAD SWAP1 PUSH2 0x100 EXP SWAP1 DIV PUSH1 0xFF AND DUP1 PUSH2 0xFC5 JUMPI POP PUSH1 0x80 MLOAD PUSH20 0xFFFFFFFFFFFFFFFFFFFFFFFFFFFFFFFFFFFFFFFF AND DUP8 PUSH20 0xFFFFFFFFFFFFFFFFFFFFFFFFFFFFFFFFFFFFFFFF AND EQ JUMPDEST DUP1 PUSH2 0xFFD JUMPI POP PUSH1 0xA0 MLOAD PUSH20 0xFFFFFFFFFFFFFFFFFFFFFFFFFFFFFFFFFFFFFFFF AND DUP8 PUSH20 0xFFFFFFFFFFFFFFFFFFFFFFFFFFFFFFFFFFFFFFFF AND EQ JUMPDEST SWAP1 POP PUSH0 PUSH1 0x1C PUSH0 DUP9 PUSH20 0xFFFFFFFFFFFFFFFFFFFFFFFFFFFFFFFFFFFFFFFF AND PUSH20 0xFFFFFFFFFFFFFFFFFFFFFFFFFFFFFFFFFFFFFFFF AND DUP2 MSTORE PUSH1 0x20 ADD SWAP1 DUP2 MSTORE PUSH1 0x20 ADD PUSH0 KECCAK256 PUSH0 SWAP1 SLOAD SWAP1 PUSH2 0x100 EXP SWAP1 DIV PUSH1 0xFF AND DUP1 PUSH2 0x1082 JUMPI POP PUSH1 0x80 MLOAD PUSH20 0xFFFFFFFFFFFFFFFFFFFFFFFFFFFFFFFFFFFFFFFF AND DUP8 PUSH20 0xFFFFFFFFFFFFFFFFFFFFFFFFFFFFFFFFFFFFFFFF AND EQ JUMPDEST DUP1 PUSH2 0x10BA JUMPI POP PUSH1 0xA0 MLOAD PUSH20 0xFFFFFFFFFFFFFFFFFFFFFFFFFFFFFFFFFFFFFFFF AND DUP8 PUSH20 0xFFFFFFFFFFFFFFFFFFFFFFFFFFFFFFFFFFFFFFFF AND EQ JUMPDEST SWAP1 POP DUP2 DUP1 ISZERO PUSH2 0x10C6 JUMPI POP DUP1 JUMPDEST PUSH2 0x10FC JUMPI PUSH1 0x40 MLOAD PUSH32 0xBCB8B8FB00000000000000000000000000000000000000000000000000000000 DUP2 MSTORE PUSH1 0x4 ADD PUSH1 0x40 MLOAD DUP1 SWAP2 SUB SWAP1 REVERT JUMPDEST POP POP JUMPDEST PUSH1 0x1C PUSH0 DUP8 PUSH20 0xFFFFFFFFFFFFFFFFFFFFFFFFFFFFFFFFFFFFFFFF AND PUSH20 0xFFFFFFFFFFFFFFFFFFFFFFFFFFFFFFFFFFFFFFFF AND DUP2 MSTORE PUSH1 0x20 ADD SWAP1 DUP2 MSTORE PUSH1 0x20 ADD PUSH0 KECCAK256 PUSH0 SWAP1 SLOAD SWAP1 PUSH2 0x100 EXP SWAP1 DIV PUSH1 0xFF AND DUP1 PUSH2 0x119A JUMPI POP PUSH1 0x1C PUSH0 DUP7 PUSH20 0xFFFFFFFFFFFFFFFFFFFFFFFFFFFFFFFFFFFFFFFF AND PUSH20 0xFFFFFFFFFFFFFFFFFFFFFFFFFFFFFFFFFFFFFFFF AND DUP2 MSTORE PUSH1 0x20 ADD SWAP1 DUP2 MSTORE PUSH1 0x20 ADD PUSH0 KECCAK256 PUSH0 SWAP1 SLOAD SWAP1 PUSH2 0x100 EXP SWAP1 DIV PUSH1 0xFF AND JUMPDEST PUSH2 0x1208 JUMPI DUP2 DUP1 ISZERO PUSH2 0x11AC JUMPI POP PUSH0 PUSH1 0x6 SLOAD GT JUMPDEST ISZERO PUSH2 0x11D4 JUMPI PUSH3 0xF4240 PUSH1 0x6 SLOAD DUP6 PUSH2 0x11C3 SWAP2 SWAP1 PUSH2 0x2058 JUMP JUMPDEST PUSH2 0x11CD SWAP2 SWAP1 PUSH2 0x20ED JUMP JUMPDEST SWAP3 POP PUSH2 0x1207 JUMP JUMPDEST DUP1 DUP1 ISZERO PUSH2 0x11E2 JUMPI POP PUSH0 PUSH1 0x7 SLOAD GT JUMPDEST ISZERO PUSH2 0x1206 JUMPI PUSH3 0xF4240 PUSH1 0x7 SLOAD DUP6 PUSH2 0x11F9 SWAP2 SWAP1 PUSH2 0x2058 JUMP JUMPDEST PUSH2 0x1203 SWAP2 SWAP1 PUSH2 0x20ED JUMP JUMPDEST SWAP3 POP JUMPDEST JUMPDEST JUMPDEST PUSH0 DUP4 GT ISZERO PUSH2 0x127B JUMPI PUSH2 0x1221 DUP7 ADDRESS DUP6 PUSH2 0x1683 PUSH1 0x20 SHL PUSH1 0x20 SHR JUMP JUMPDEST DUP1 ISZERO PUSH2 0x1244 JUMPI DUP3 PUSH1 0x20 PUSH0 DUP3 DUP3 SLOAD PUSH2 0x1238 SWAP2 SWAP1 PUSH2 0x211D JUMP JUMPDEST SWAP3 POP POP DUP2 SWAP1 SSTORE POP PUSH2 0x127A JUMP JUMPDEST DUP3 PUSH1 0x1F PUSH0 PUSH3 0x15180 TIMESTAMP PUSH2 0x1257 SWAP2 SWAP1 PUSH2 0x20ED JUMP JUMPDEST DUP2 MSTORE PUSH1 0x20 ADD SWAP1 DUP2 MSTORE PUSH1 0x20 ADD PUSH0 KECCAK256 PUSH0 DUP3 DUP3 SLOAD PUSH2 0x1272 SWAP2 SWAP1 PUSH2 0x211D JUMP JUMPDEST SWAP3 POP POP DUP2 SWAP1 SSTORE POP JUMPDEST JUMPDEST PUSH0 DUP4 DUP6 PUSH2 0x1288 SWAP2 SWAP1 PUSH2 0x2150 JUMP JUMPDEST SWAP1 POP DUP2 DUP1 ISZERO PUSH2 0x12A2 JUMPI POP PUSH1 0x1A PUSH0 SWAP1 SLOAD SWAP1 PUSH2 0x100 EXP SWAP1 DIV PUSH1 0xFF AND JUMPDEST DUP1 ISZERO PUSH2 0x12DA JUMPI POP PUSH0 PUSH20 0xFFFFFFFFFFFFFFFFFFFFFFFFFFFFFFFFFFFFFFFF AND DUP8 PUSH20 0xFFFFFFFFFFFFFFFFFFFFFFFFFFFFFFFFFFFFFFFF AND EQ ISZERO JUMPDEST DUP1 ISZERO PUSH2 0x132D JUMPI POP PUSH1 0x1C PUSH0 DUP9 PUSH20 0xFFFFFFFFFFFFFFFFFFFFFFFFFFFFFFFFFFFFFFFF AND PUSH20 0xFFFFFFFFFFFFFFFFFFFFFFFFFFFFFFFFFFFFFFFF AND DUP2 MSTORE PUSH1 0x20 ADD SWAP1 DUP2 MSTORE PUSH1 0x20 ADD PUSH0 KECCAK256 PUSH0 SWAP1 SLOAD SWAP1 PUSH2 0x100 EXP SWAP1 DIV PUSH1 0xFF AND ISZERO JUMPDEST ISZERO PUSH2 0x139C JUMPI PUSH0 PUSH3 0xF4240 PUSH1 0x1B SLOAD DUP4 PUSH2 0x1345 SWAP2 SWAP1 PUSH2 0x2058 JUMP JUMPDEST PUSH2 0x134F SWAP2 SWAP1 PUSH2 0x20ED JUMP JUMPDEST SWAP1 POP PUSH0 DUP2 GT ISZERO PUSH2 0x139A JUMPI DUP1 DUP3 PUSH2 0x1365 SWAP2 SWAP1 PUSH2 0x2150 JUMP JUMPDEST SWAP2 POP PUSH2 0x1399 DUP9 PUSH1 0x21 PUSH0 SWAP1 SLOAD SWAP1 PUSH2 0x100 EXP SWAP1 DIV PUSH20 0xFFFFFFFFFFFFFFFFFFFFFFFFFFFFFFFFFFFFFFFF AND DUP4 PUSH2 0x1683 PUSH1 0x20 SHL PUSH1 0x20 SHR JUMP JUMPDEST JUMPDEST POP JUMPDEST PUSH0 DUP2 GT ISZERO PUSH2 0x13B6 JUMPI PUSH2 0x13B5 DUP8 DUP8 DUP4 PUSH2 0x1683 PUSH1 0x20 SHL PUSH1 0x20 SHR JUMP JUMPDEST JUMPDEST POP POP POP POP POP POP POP JUMP JUMPDEST PUSH0 PUSH1 0x80 MLOAD PUSH20 0xFFFFFFFFFFFFFFFFFFFFFFFFFFFFFFFFFFFFFFFF AND DUP3 PUSH20 0xFFFFFFFFFFFFFFFFFFFFFFFFFFFFFFFFFFFFFFFF AND EQ DUP1 PUSH2 0x1429 JUMPI POP PUSH1 0xA0 MLOAD PUSH20 0xFFFFFFFFFFFFFFFFFFFFFFFFFFFFFFFFFFFFFFFF AND DUP3 PUSH20 0xFFFFFFFFFFFFFFFFFFFFFFFFFFFFFFFFFFFFFFFF AND EQ JUMPDEST SWAP1 POP SWAP2 SWAP1 POP JUMP JUMPDEST PUSH0 PUSH20 0xFFFFFFFFFFFFFFFFFFFFFFFFFFFFFFFFFFFFFFFF AND PUSH1 0x8 PUSH0 DUP5 PUSH20 0xFFFFFFFFFFFFFFFFFFFFFFFFFFFFFFFFFFFFFFFF AND PUSH20 0xFFFFFFFFFFFFFFFFFFFFFFFFFFFFFFFFFFFFFFFF AND DUP2 MSTORE PUSH1 0x20 ADD SWAP1 DUP2 MSTORE PUSH1 0x20 ADD PUSH0 KECCAK256 PUSH0 SWAP1 SLOAD SWAP1 PUSH2 0x100 EXP SWAP1 DIV PUSH20 0xFFFFFFFFFFFFFFFFFFFFFFFFFFFFFFFFFFFFFFFF AND PUSH20 0xFFFFFFFFFFFFFFFFFFFFFFFFFFFFFFFFFFFFFFFF AND EQ DUP1 ISZERO PUSH2 0x14F3 JUMPI POP PUSH0 PUSH20 0xFFFFFFFFFFFFFFFFFFFFFFFFFFFFFFFFFFFFFFFF AND DUP2 PUSH20 0xFFFFFFFFFFFFFFFFFFFFFFFFFFFFFFFFFFFFFFFF AND EQ ISZERO JUMPDEST DUP1 ISZERO PUSH2 0x152B JUMPI POP PUSH0 PUSH20 0xFFFFFFFFFFFFFFFFFFFFFFFFFFFFFFFFFFFFFFFF AND DUP3 PUSH20 0xFFFFFFFFFFFFFFFFFFFFFFFFFFFFFFFFFFFFFFFF AND EQ ISZERO JUMPDEST DUP1 ISZERO PUSH2 0x1563 JUMPI POP DUP2 PUSH20 0xFFFFFFFFFFFFFFFFFFFFFFFFFFFFFFFFFFFFFFFF AND DUP2 PUSH20 0xFFFFFFFFFFFFFFFFFFFFFFFFFFFFFFFFFFFFFFFF AND EQ ISZERO JUMPDEST ISZERO PUSH2 0x167F JUMPI DUP1 PUSH1 0x8 PUSH0 DUP5 PUSH20 0xFFFFFFFFFFFFFFFFFFFFFFFFFFFFFFFFFFFFFFFF AND PUSH20 0xFFFFFFFFFFFFFFFFFFFFFFFFFFFFFFFFFFFFFFFF AND DUP2 MSTORE PUSH1 0x20 ADD SWAP1 DUP2 MSTORE PUSH1 0x20 ADD PUSH0 KECCAK256 PUSH0 PUSH2 0x100 EXP DUP2 SLOAD DUP2 PUSH20 0xFFFFFFFFFFFFFFFFFFFFFFFFFFFFFFFFFFFFFFFF MUL NOT AND SWAP1 DUP4 PUSH20 0xFFFFFFFFFFFFFFFFFFFFFFFFFFFFFFFFFFFFFFFF AND MUL OR SWAP1 SSTORE POP PUSH1 0x9 PUSH0 DUP3 PUSH20 0xFFFFFFFFFFFFFFFFFFFFFFFFFFFFFFFFFFFFFFFF AND PUSH20 0xFFFFFFFFFFFFFFFFFFFFFFFFFFFFFFFFFFFFFFFF AND DUP2 MSTORE PUSH1 0x20 ADD SWAP1 DUP2 MSTORE PUSH1 0x20 ADD PUSH0 KECCAK256 DUP3 SWAP1 DUP1 PUSH1 0x1 DUP2 SLOAD ADD DUP1 DUP3 SSTORE DUP1 SWAP2 POP POP PUSH1 0x1 SWAP1 SUB SWAP1 PUSH0 MSTORE PUSH1 0x20 PUSH0 KECCAK256 ADD PUSH0 SWAP1 SWAP2 SWAP1 SWAP2 SWAP1 SWAP2 PUSH2 0x100 EXP DUP2 SLOAD DUP2 PUSH20 0xFFFFFFFFFFFFFFFFFFFFFFFFFFFFFFFFFFFFFFFF MUL NOT AND SWAP1 DUP4 PUSH20 0xFFFFFFFFFFFFFFFFFFFFFFFFFFFFFFFFFFFFFFFF AND MUL OR SWAP1 SSTORE POP JUMPDEST POP POP JUMP JUMPDEST PUSH0 PUSH20 0xFFFFFFFFFFFFFFFFFFFFFFFFFFFFFFFFFFFFFFFF AND DUP4 PUSH20 0xFFFFFFFFFFFFFFFFFFFFFFFFFFFFFFFFFFFFFFFF AND SUB PUSH2 0x16D3 JUMPI DUP1 PUSH1 0x2 PUSH0 DUP3 DUP3 SLOAD PUSH2 0x16C7 SWAP2 SWAP1 PUSH2 0x211D JUMP JUMPDEST SWAP3 POP POP DUP2 SWAP1 SSTORE POP PUSH2 0x17A1 JUMP JUMPDEST PUSH0 PUSH0 PUSH0 DUP6 PUSH20 0xFFFFFFFFFFFFFFFFFFFFFFFFFFFFFFFFFFFFFFFF AND PUSH20 0xFFFFFFFFFFFFFFFFFFFFFFFFFFFFFFFFFFFFFFFF AND DUP2 MSTORE PUSH1 0x20 ADD SWAP1 DUP2 MSTORE PUSH1 0x20 ADD PUSH0 KECCAK256 SLOAD SWAP1 POP DUP2 DUP2 LT ISZERO PUSH2 0x175C JUMPI DUP4 DUP2 DUP4 PUSH1 0x40 MLOAD PUSH32 0xE450D38C00000000000000000000000000000000000000000000000000000000 DUP2 MSTORE PUSH1 0x4 ADD PUSH2 0x1753 SWAP4 SWAP3 SWAP2 SWAP1 PUSH2 0x2192 JUMP JUMPDEST PUSH1 0x40 MLOAD DUP1 SWAP2 SUB SWAP1 REVERT JUMPDEST DUP2 DUP2 SUB PUSH0 PUSH0 DUP7 PUSH20 0xFFFFFFFFFFFFFFFFFFFFFFFFFFFFFFFFFFFFFFFF AND PUSH20 0xFFFFFFFFFFFFFFFFFFFFFFFFFFFFFFFFFFFFFFFF AND DUP2 MSTORE PUSH1 0x20 ADD SWAP1 DUP2 MSTORE PUSH1 0x20 ADD PUSH0 KECCAK256 DUP2 SWAP1 SSTORE POP POP JUMPDEST PUSH0 PUSH20 0xFFFFFFFFFFFFFFFFFFFFFFFFFFFFFFFFFFFFFFFF AND DUP3 PUSH20 0xFFFFFFFFFFFFFFFFFFFFFFFFFFFFFFFFFFFFFFFF AND SUB PUSH2 0x17E8 JUMPI DUP1 PUSH1 0x2 PUSH0 DUP3 DUP3 SLOAD SUB SWAP3 POP POP DUP2 SWAP1 SSTORE POP PUSH2 0x1832 JUMP JUMPDEST DUP1 PUSH0 PUSH0 DUP5 PUSH20 0xFFFFFFFFFFFFFFFFFFFFFFFFFFFFFFFFFFFFFFFF AND PUSH20 0xFFFFFFFFFFFFFFFFFFFFFFFFFFFFFFFFFFFFFFFF AND DUP2 MSTORE PUSH1 0x20 ADD SWAP1 DUP2 MSTORE PUSH1 0x20 ADD PUSH0 KECCAK256 PUSH0 DUP3 DUP3 SLOAD ADD SWAP3 POP POP DUP2 SWAP1 SSTORE POP JUMPDEST DUP2 PUSH20 0xFFFFFFFFFFFFFFFFFFFFFFFFFFFFFFFFFFFFFFFF AND DUP4 PUSH20 0xFFFFFFFFFFFFFFFFFFFFFFFFFFFFFFFFFFFFFFFF AND PUSH32 0xDDF252AD1BE2C89B69C2B068FC378DAA952BA7F163C4A11628F55A4DF523B3EF DUP4 PUSH1 0x40 MLOAD PUSH2 0x188F SWAP2 SWAP1 PUSH2 0x21C7 JUMP JUMPDEST PUSH1 0x40 MLOAD DUP1 SWAP2 SUB SWAP1 LOG3 POP POP POP JUMP JUMPDEST PUSH2 0x151 DUP1 PUSH2 0xD1A8 DUP4 CODECOPY ADD SWAP1 JUMP JUMPDEST PUSH0 PUSH1 0x40 MLOAD SWAP1 POP SWAP1 JUMP JUMPDEST PUSH0 PUSH0 REVERT JUMPDEST PUSH0 PUSH0 REVERT JUMPDEST PUSH0 PUSH20 0xFFFFFFFFFFFFFFFFFFFFFFFFFFFFFFFFFFFFFFFF DUP3 AND SWAP1 POP SWAP2 SWAP1 POP JUMP JUMPDEST PUSH0 PUSH2 0x18E3 DUP3 PUSH2 0x18BA JUMP JUMPDEST SWAP1 POP SWAP2 SWAP1 POP JUMP JUMPDEST PUSH2 0x18F3 DUP2 PUSH2 0x18D9 JUMP JUMPDEST DUP2 EQ PUSH2 0x18FD JUMPI PUSH0 PUSH0 REVERT JUMPDEST POP JUMP JUMPDEST PUSH0 DUP2 MLOAD SWAP1 POP PUSH2 0x190E DUP2 PUSH2 0x18EA JUMP JUMPDEST SWAP3 SWAP2 POP POP JUMP JUMPDEST PUSH0 PUSH0 REVERT JUMPDEST PUSH0 PUSH0 REVERT JUMPDEST PUSH0 PUSH1 0x1F NOT PUSH1 0x1F DUP4 ADD AND SWAP1 POP SWAP2 SWAP1 POP JUMP JUMPDEST PUSH32 0x4E487B7100000000000000000000000000000000000000000000000000000000 PUSH0 MSTORE PUSH1 0x41 PUSH1 0x4 MSTORE PUSH1 0x24 PUSH0 REVERT JUMPDEST PUSH2 0x1962 DUP3 PUSH2 0x191C JUMP JUMPDEST DUP2 ADD DUP2 DUP2 LT PUSH8 0xFFFFFFFFFFFFFFFF DUP3 GT OR ISZERO PUSH2 0x1981 JUMPI PUSH2 0x1980 PUSH2 0x192C JUMP JUMPDEST JUMPDEST DUP1 PUSH1 0x40 MSTORE POP POP POP JUMP JUMPDEST PUSH0 PUSH2 0x1993 PUSH2 0x18A9 JUMP JUMPDEST SWAP1 POP PUSH2 0x199F DUP3 DUP3 PUSH2 0x1959 JUMP JUMPDEST SWAP2 SWAP1 POP JUMP JUMPDEST PUSH0 PUSH8 0xFFFFFFFFFFFFFFFF DUP3 GT ISZERO PUSH2 0x19BE JUMPI PUSH2 0x19BD PUSH2 0x192C JUMP JUMPDEST JUMPDEST PUSH2 0x19C7 DUP3 PUSH2 0x191C JUMP JUMPDEST SWAP1 POP PUSH1 0x20 DUP2 ADD SWAP1 POP SWAP2 SWAP1 POP JUMP JUMPDEST DUP3 DUP2 DUP4 MCOPY PUSH0 DUP4 DUP4 ADD MSTORE POP POP POP JUMP JUMPDEST PUSH0 PUSH2 0x19F4 PUSH2 0x19EF DUP5 PUSH2 0x19A4 JUMP JUMPDEST PUSH2 0x198A JUMP JUMPDEST SWAP1 POP DUP3 DUP2 MSTORE PUSH1 0x20 DUP2 ADD DUP5 DUP5 DUP5 ADD GT ISZERO PUSH2 0x1A10 JUMPI PUSH2 0x1A0F PUSH2 0x1918 JUMP JUMPDEST JUMPDEST PUSH2 0x1A1B DUP5 DUP3 DUP6 PUSH2 0x19D4 JUMP JUMPDEST POP SWAP4 SWAP3 POP POP POP JUMP JUMPDEST PUSH0 DUP3 PUSH1 0x1F DUP4 ADD SLT PUSH2 0x1A37 JUMPI PUSH2 0x1A36 PUSH2 0x1914 JUMP JUMPDEST JUMPDEST DUP2 MLOAD PUSH2 0x1A47 DUP5 DUP3 PUSH1 0x20 DUP7 ADD PUSH2 0x19E2 JUMP JUMPDEST SWAP2 POP POP SWAP3 SWAP2 POP POP JUMP JUMPDEST PUSH0 DUP2 SWAP1 POP SWAP2 SWAP1 POP JUMP JUMPDEST PUSH2 0x1A62 DUP2 PUSH2 0x1A50 JUMP JUMPDEST DUP2 EQ PUSH2 0x1A6C JUMPI PUSH0 PUSH0 REVERT JUMPDEST POP JUMP JUMPDEST PUSH0 DUP2 MLOAD SWAP1 POP PUSH2 0x1A7D DUP2 PUSH2 0x1A59 JUMP JUMPDEST SWAP3 SWAP2 POP POP JUMP JUMPDEST PUSH0 PUSH0 PUSH0 PUSH0 PUSH0 PUSH0 PUSH0 PUSH0 PUSH2 0x100 DUP10 DUP12 SUB SLT ISZERO PUSH2 0x1AA0 JUMPI PUSH2 0x1A9F PUSH2 0x18B2 JUMP JUMPDEST JUMPDEST PUSH0 PUSH2 0x1AAD DUP12 DUP3 DUP13 ADD PUSH2 0x1900 JUMP JUMPDEST SWAP9 POP POP PUSH1 0x20 PUSH2 0x1ABE DUP12 DUP3 DUP13 ADD PUSH2 0x1900 JUMP JUMPDEST SWAP8 POP POP PUSH1 0x40 PUSH2 0x1ACF DUP12 DUP3 DUP13 ADD PUSH2 0x1900 JUMP JUMPDEST SWAP7 POP POP PUSH1 0x60 DUP10 ADD MLOAD PUSH8 0xFFFFFFFFFFFFFFFF DUP2 GT ISZERO PUSH2 0x1AF0 JUMPI PUSH2 0x1AEF PUSH2 0x18B6 JUMP JUMPDEST JUMPDEST PUSH2 0x1AFC DUP12 DUP3 DUP13 ADD PUSH2 0x1A23 JUMP JUMPDEST SWAP6 POP POP PUSH1 0x80 DUP10 ADD MLOAD PUSH8 0xFFFFFFFFFFFFFFFF DUP2 GT ISZERO PUSH2 0x1B1D JUMPI PUSH2 0x1B1C PUSH2 0x18B6 JUMP JUMPDEST JUMPDEST PUSH2 0x1B29 DUP12 DUP3 DUP13 ADD PUSH2 0x1A23 JUMP JUMPDEST SWAP5 POP POP PUSH1 0xA0 PUSH2 0x1B3A DUP12 DUP3 DUP13 ADD PUSH2 0x1A6F JUMP JUMPDEST SWAP4 POP POP PUSH1 0xC0 PUSH2 0x1B4B DUP12 DUP3 DUP13 ADD PUSH2 0x1900 JUMP JUMPDEST SWAP3 POP POP PUSH1 0xE0 PUSH2 0x1B5C DUP12 DUP3 DUP13 ADD PUSH2 0x1900 JUMP JUMPDEST SWAP2 POP POP SWAP3 SWAP6 SWAP9 POP SWAP3 SWAP6 SWAP9 SWAP1 SWAP4 SWAP7 POP JUMP JUMPDEST PUSH0 DUP2 MLOAD SWAP1 POP SWAP2 SWAP1 POP JUMP JUMPDEST PUSH32 0x4E487B7100000000000000000000000000000000000000000000000000000000 PUSH0 MSTORE PUSH1 0x22 PUSH1 0x4 MSTORE PUSH1 0x24 PUSH0 REVERT JUMPDEST PUSH0 PUSH1 0x2 DUP3 DIV SWAP1 POP PUSH1 0x1 DUP3 AND DUP1 PUSH2 0x1BBA JUMPI PUSH1 0x7F DUP3 AND SWAP2 POP JUMPDEST PUSH1 0x20 DUP3 LT DUP2 SUB PUSH2 0x1BCD JUMPI PUSH2 0x1BCC PUSH2 0x1B76 JUMP JUMPDEST JUMPDEST POP SWAP2 SWAP1 POP JUMP JUMPDEST PUSH0 DUP2 SWAP1 POP DUP2 PUSH0 MSTORE PUSH1 0x20 PUSH0 KECCAK256 SWAP1 POP SWAP2 SWAP1 POP JUMP JUMPDEST PUSH0 PUSH1 0x20 PUSH1 0x1F DUP4 ADD DIV SWAP1 POP SWAP2 SWAP1 POP JUMP JUMPDEST PUSH0 DUP3 DUP3 SHL SWAP1 POP SWAP3 SWAP2 POP POP JUMP JUMPDEST PUSH0 PUSH1 0x8 DUP4 MUL PUSH2 0x1C2F PUSH32 0xFFFFFFFFFFFFFFFFFFFFFFFFFFFFFFFFFFFFFFFFFFFFFFFFFFFFFFFFFFFFFFFF DUP3 PUSH2 0x1BF4 JUMP JUMPDEST PUSH2 0x1C39 DUP7 DUP4 PUSH2 0x1BF4 JUMP JUMPDEST SWAP6 POP DUP1 NOT DUP5 AND SWAP4 POP DUP1 DUP7 AND DUP5 OR SWAP3 POP POP POP SWAP4 SWAP3 POP POP POP JUMP JUMPDEST PUSH0 DUP2 SWAP1 POP SWAP2 SWAP1 POP JUMP JUMPDEST PUSH0 PUSH2 0x1C74 PUSH2 0x1C6F PUSH2 0x1C6A DUP5 PUSH2 0x1A50 JUMP JUMPDEST PUSH2 0x1C51 JUMP JUMPDEST PUSH2 0x1A50 JUMP JUMPDEST SWAP1 POP SWAP2 SWAP1 POP JUMP JUMPDEST PUSH0 DUP2 SWAP1 POP SWAP2 SWAP1 POP JUMP JUMPDEST PUSH2 0x1C8D DUP4 PUSH2 0x1C5A JUMP JUMPDEST PUSH2 0x1CA1 PUSH2 0x1C99 DUP3 PUSH2 0x1C7B JUMP JUMPDEST DUP5 DUP5 SLOAD PUSH2 0x1C00 JUMP JUMPDEST DUP3 SSTORE POP POP POP POP JUMP JUMPDEST PUSH0 PUSH0 SWAP1 POP SWAP1 JUMP JUMPDEST PUSH2 0x1CB8 PUSH2 0x1CA9 JUMP JUMPDEST PUSH2 0x1CC3 DUP2 DUP5 DUP5 PUSH2 0x1C84 JUMP JUMPDEST POP POP POP JUMP JUMPDEST PUSH0 JUMPDEST DUP3 DUP2 LT ISZERO PUSH2 0x1CE9 JUMPI PUSH2 0x1CDE PUSH0 DUP3 DUP5 ADD PUSH2 0x1CB0 JUMP JUMPDEST PUSH1 0x1 DUP2 ADD SWAP1 POP PUSH2 0x1CCA JUMP JUMPDEST POP POP POP JUMP JUMPDEST PUSH1 0x1F DUP3 GT ISZERO PUSH2 0x1D3C JUMPI DUP3 DUP3 GT ISZERO PUSH2 0x1D3B JUMPI PUSH2 0x1D08 DUP2 PUSH2 0x1BD3 JUMP JUMPDEST PUSH2 0x1D11 DUP4 PUSH2 0x1BE5 JUMP JUMPDEST PUSH2 0x1D1A DUP6 PUSH2 0x1BE5 JUMP JUMPDEST PUSH1 0x20 DUP7 LT ISZERO PUSH2 0x1D27 JUMPI PUSH0 SWAP1 POP JUMPDEST DUP1 DUP4 ADD PUSH2 0x1D36 DUP3 DUP5 SUB DUP3 PUSH2 0x1CC8 JUMP JUMPDEST POP POP POP POP JUMPDEST JUMPDEST POP POP POP JUMP JUMPDEST PUSH0 DUP3 DUP3 SHR SWAP1 POP SWAP3 SWAP2 POP POP JUMP JUMPDEST PUSH0 PUSH2 0x1D5C PUSH0 NOT DUP5 PUSH1 0x8 MUL PUSH2 0x1D41 JUMP JUMPDEST NOT DUP1 DUP4 AND SWAP2 POP POP SWAP3 SWAP2 POP POP JUMP JUMPDEST PUSH0 PUSH2 0x1D74 DUP4 DUP4 PUSH2 0x1D4D JUMP JUMPDEST SWAP2 POP DUP3 PUSH1 0x2 MUL DUP3 OR SWAP1 POP SWAP3 SWAP2 POP POP JUMP JUMPDEST PUSH2 0x1D8D DUP3 PUSH2 0x1B6C JUMP JUMPDEST PUSH8 0xFFFFFFFFFFFFFFFF DUP2 GT ISZERO PUSH2 0x1DA6 JUMPI PUSH2 0x1DA5 PUSH2 0x192C JUMP JUMPDEST JUMPDEST PUSH2 0x1DB0 DUP3 SLOAD PUSH2 0x1BA3 JUMP JUMPDEST PUSH2 0x1DBB DUP3 DUP3 DUP6 PUSH2 0x1CEE JUMP JUMPDEST PUSH0 PUSH1 0x20 SWAP1 POP PUSH1 0x1F DUP4 GT PUSH1 0x1 DUP2 EQ PUSH2 0x1DEC JUMPI PUSH0 DUP5 ISZERO PUSH2 0x1DDA JUMPI DUP3 DUP8 ADD MLOAD SWAP1 POP JUMPDEST PUSH2 0x1DE4 DUP6 DUP3 PUSH2 0x1D69 JUMP JUMPDEST DUP7 SSTORE POP PUSH2 0x1E4B JUMP JUMPDEST PUSH1 0x1F NOT DUP5 AND PUSH2 0x1DFA DUP7 PUSH2 0x1BD3 JUMP JUMPDEST PUSH0 JUMPDEST DUP3 DUP2 LT ISZERO PUSH2 0x1E21 JUMPI DUP5 DUP10 ADD MLOAD DUP3 SSTORE PUSH1 0x1 DUP3 ADD SWAP2 POP PUSH1 0x20 DUP6 ADD SWAP5 POP PUSH1 0x20 DUP2 ADD SWAP1 POP PUSH2 0x1DFC JUMP JUMPDEST DUP7 DUP4 LT ISZERO PUSH2 0x1E3E JUMPI DUP5 DUP10 ADD MLOAD PUSH2 0x1E3A PUSH1 0x1F DUP10 AND DUP3 PUSH2 0x1D4D JUMP JUMPDEST DUP4 SSTORE POP JUMPDEST PUSH1 0x1 PUSH1 0x2 DUP9 MUL ADD DUP9 SSTORE POP POP POP JUMPDEST POP POP POP POP POP POP JUMP JUMPDEST PUSH2 0x1E5C DUP2 PUSH2 0x18D9 JUMP JUMPDEST DUP3 MSTORE POP POP JUMP JUMPDEST PUSH0 PUSH1 0x20 DUP3 ADD SWAP1 POP PUSH2 0x1E75 PUSH0 DUP4 ADD DUP5 PUSH2 0x1E53 JUMP JUMPDEST SWAP3 SWAP2 POP POP JUMP JUMPDEST PUSH0 PUSH1 0x20 DUP3 DUP5 SUB SLT ISZERO PUSH2 0x1E90 JUMPI PUSH2 0x1E8F PUSH2 0x18B2 JUMP JUMPDEST JUMPDEST PUSH0 PUSH2 0x1E9D DUP5 DUP3 DUP6 ADD PUSH2 0x1900 JUMP JUMPDEST SWAP2 POP POP SWAP3 SWAP2 POP POP JUMP JUMPDEST PUSH32 0x4E487B7100000000000000000000000000000000000000000000000000000000 PUSH0 MSTORE PUSH1 0x11 PUSH1 0x4 MSTORE PUSH1 0x24 PUSH0 REVERT JUMPDEST PUSH0 DUP2 PUSH1 0x1 SHR SWAP1 POP SWAP2 SWAP1 POP JUMP JUMPDEST PUSH0 PUSH0 DUP3 SWAP2 POP DUP4 SWAP1 POP JUMPDEST PUSH1 0x1 DUP6 GT ISZERO PUSH2 0x1F28 JUMPI DUP1 DUP7 DIV DUP2 GT ISZERO PUSH2 0x1F04 JUMPI PUSH2 0x1F03 PUSH2 0x1EA6 JUMP JUMPDEST JUMPDEST PUSH1 0x1 DUP6 AND ISZERO PUSH2 0x1F13 JUMPI DUP1 DUP3 MUL SWAP2 POP JUMPDEST DUP1 DUP2 MUL SWAP1 POP PUSH2 0x1F21 DUP6 PUSH2 0x1ED3 JUMP JUMPDEST SWAP5 POP PUSH2 0x1EE8 JUMP JUMPDEST SWAP5 POP SWAP5 SWAP3 POP POP POP JUMP JUMPDEST PUSH0 DUP3 PUSH2 0x1F40 JUMPI PUSH1 0x1 SWAP1 POP PUSH2 0x1FFB JUMP JUMPDEST DUP2 PUSH2 0x1F4D JUMPI PUSH0 SWAP1 POP PUSH2 0x1FFB JUMP JUMPDEST DUP2 PUSH1 0x1 DUP2 EQ PUSH2 0x1F63 JUMPI PUSH1 0x2 DUP2 EQ PUSH2 0x1F6D JUMPI PUSH2 0x1F9C JUMP JUMPDEST PUSH1 0x1 SWAP2 POP POP PUSH2 0x1FFB JUMP JUMPDEST PUSH1 0xFF DUP5 GT ISZERO PUSH2 0x1F7F JUMPI PUSH2 0x1F7E PUSH2 0x1EA6 JUMP JUMPDEST JUMPDEST DUP4 PUSH1 0x2 EXP SWAP2 POP DUP5 DUP3 GT ISZERO PUSH2 0x1F96 JUMPI PUSH2 0x1F95 PUSH2 0x1EA6 JUMP JUMPDEST JUMPDEST POP PUSH2 0x1FFB JUMP JUMPDEST POP PUSH1 0x20 DUP4 LT PUSH2 0x133 DUP4 LT AND PUSH1 0x4E DUP5 LT PUSH1 0xB DUP5 LT AND OR ISZERO PUSH2 0x1FD1 JUMPI DUP3 DUP3 EXP SWAP1 POP DUP4 DUP2 GT ISZERO PUSH2 0x1FCC JUMPI PUSH2 0x1FCB PUSH2 0x1EA6 JUMP JUMPDEST JUMPDEST PUSH2 0x1FFB JUMP JUMPDEST PUSH2 0x1FDE DUP5 DUP5 DUP5 PUSH1 0x1 PUSH2 0x1EDF JUMP JUMPDEST SWAP3 POP SWAP1 POP DUP2 DUP5 DIV DUP2 GT ISZERO PUSH2 0x1FF5 JUMPI PUSH2 0x1FF4 PUSH2 0x1EA6 JUMP JUMPDEST JUMPDEST DUP2 DUP2 MUL SWAP1 POP JUMPDEST SWAP4 SWAP3 POP POP POP JUMP JUMPDEST PUSH0 PUSH1 0xFF DUP3 AND SWAP1 POP SWAP2 SWAP1 POP JUMP JUMPDEST PUSH0 PUSH2 0x2018 DUP3 PUSH2 0x1A50 JUMP JUMPDEST SWAP2 POP PUSH2 0x2023 DUP4 PUSH2 0x2002 JUMP JUMPDEST SWAP3 POP PUSH2 0x2050 PUSH32 0xFFFFFFFFFFFFFFFFFFFFFFFFFFFFFFFFFFFFFFFFFFFFFFFFFFFFFFFFFFFFFFFF DUP5 DUP5 PUSH2 0x1F31 JUMP JUMPDEST SWAP1 POP SWAP3 SWAP2 POP POP JUMP JUMPDEST PUSH0 PUSH2 0x2062 DUP3 PUSH2 0x1A50 JUMP JUMPDEST SWAP2 POP PUSH2 0x206D DUP4 PUSH2 0x1A50 JUMP JUMPDEST SWAP3 POP DUP3 DUP3 MUL PUSH2 0x207B DUP2 PUSH2 0x1A50 JUMP JUMPDEST SWAP2 POP DUP3 DUP3 DIV DUP5 EQ DUP4 ISZERO OR PUSH2 0x2092 JUMPI PUSH2 0x2091 PUSH2 0x1EA6 JUMP JUMPDEST JUMPDEST POP SWAP3 SWAP2 POP POP JUMP JUMPDEST PUSH0 PUSH1 0x40 DUP3 ADD SWAP1 POP PUSH2 0x20AC PUSH0 DUP4 ADD DUP6 PUSH2 0x1E53 JUMP JUMPDEST PUSH2 0x20B9 PUSH1 0x20 DUP4 ADD DUP5 PUSH2 0x1E53 JUMP JUMPDEST SWAP4 SWAP3 POP POP POP JUMP JUMPDEST PUSH32 0x4E487B7100000000000000000000000000000000000000000000000000000000 PUSH0 MSTORE PUSH1 0x12 PUSH1 0x4 MSTORE PUSH1 0x24 PUSH0 REVERT JUMPDEST PUSH0 PUSH2 0x20F7 DUP3 PUSH2 0x1A50 JUMP JUMPDEST SWAP2 POP PUSH2 0x2102 DUP4 PUSH2 0x1A50 JUMP JUMPDEST SWAP3 POP DUP3 PUSH2 0x2112 JUMPI PUSH2 0x2111 PUSH2 0x20C0 JUMP JUMPDEST JUMPDEST DUP3 DUP3 DIV SWAP1 POP SWAP3 SWAP2 POP POP JUMP JUMPDEST PUSH0 PUSH2 0x2127 DUP3 PUSH2 0x1A50 JUMP JUMPDEST SWAP2 POP PUSH2 0x2132 DUP4 PUSH2 0x1A50 JUMP JUMPDEST SWAP3 POP DUP3 DUP3 ADD SWAP1 POP DUP1 DUP3 GT ISZERO PUSH2 0x214A JUMPI PUSH2 0x2149 PUSH2 0x1EA6 JUMP JUMPDEST JUMPDEST SWAP3 SWAP2 POP POP JUMP JUMPDEST PUSH0 PUSH2 0x215A DUP3 PUSH2 0x1A50 JUMP JUMPDEST SWAP2 POP PUSH2 0x2165 DUP4 PUSH2 0x1A50 JUMP JUMPDEST SWAP3 POP DUP3 DUP3 SUB SWAP1 POP DUP2 DUP2 GT ISZERO PUSH2 0x217D JUMPI PUSH2 0x217C PUSH2 0x1EA6 JUMP JUMPDEST JUMPDEST SWAP3 SWAP2 POP POP JUMP JUMPDEST PUSH2 0x218C DUP2 PUSH2 0x1A50 JUMP JUMPDEST DUP3 MSTORE POP POP JUMP JUMPDEST PUSH0 PUSH1 0x60 DUP3 ADD SWAP1 POP PUSH2 0x21A5 PUSH0 DUP4 ADD DUP7 PUSH2 0x1E53 JUMP JUMPDEST PUSH2 0x21B2 PUSH1 0x20 DUP4 ADD DUP6 PUSH2 0x2183 JUMP JUMPDEST PUSH2 0x21BF PUSH1 0x40 DUP4 ADD DUP5 PUSH2 0x2183 JUMP JUMPDEST SWAP5 SWAP4 POP POP POP POP JUMP JUMPDEST PUSH0 PUSH1 0x20 DUP3 ADD SWAP1 POP PUSH2 0x21DA PUSH0 DUP4 ADD DUP5 PUSH2 0x2183 JUMP JUMPDEST SWAP3 SWAP2 POP POP JUMP JUMPDEST PUSH1 0x80 MLOAD PUSH1 0xA0 MLOAD PUSH1 0xC0 MLOAD PUSH1 0xE0 MLOAD PUSH2 0xAE53 PUSH2 0x2355 PUSH0 CODECOPY PUSH0 DUP2 DUP2 PUSH2 0x29A1 ADD MSTORE DUP2 DUP2 PUSH2 0x72F1 ADD MSTORE DUP2 DUP2 PUSH2 0x7365 ADD MSTORE DUP2 DUP2 PUSH2 0x7415 ADD MSTORE DUP2 DUP2 PUSH2 0x7596 ADD MSTORE DUP2 DUP2 PUSH2 0x880A ADD MSTORE DUP2 DUP2 PUSH2 0x887E ADD MSTORE DUP2 DUP2 PUSH2 0x892E ADD MSTORE PUSH2 0x89DC ADD MSTORE PUSH0 DUP2 DUP2 PUSH2 0x605 ADD MSTORE DUP2 DUP2 PUSH2 0x3949 ADD MSTORE DUP2 DUP2 PUSH2 0x7230 ADD MSTORE DUP2 DUP2 PUSH2 0x745A ADD MSTORE DUP2 DUP2 PUSH2 0x74D7 ADD MSTORE DUP2 DUP2 PUSH2 0x810C ADD MSTORE DUP2 DUP2 PUSH2 0x8749 ADD MSTORE PUSH2 0x9884 ADD MSTORE PUSH0 DUP2 DUP2 PUSH2 0x65A ADD MSTORE DUP2 DUP2 PUSH2 0x589E ADD MSTORE DUP2 DUP2 PUSH2 0x7326 ADD MSTORE DUP2 DUP2 PUSH2 0x8191 ADD MSTORE DUP2 DUP2 PUSH2 0x81B8 ADD MSTORE DUP2 DUP2 PUSH2 0x83C1 ADD MSTORE DUP2 DUP2 PUSH2 0x8441 ADD MSTORE DUP2 DUP2 PUSH2 0x883F ADD MSTORE DUP2 DUP2 PUSH2 0x9088 ADD MSTORE DUP2 DUP2 PUSH2 0x9130 ADD MSTORE DUP2 DUP2 PUSH2 0x9250 ADD MSTORE DUP2 DUP2 PUSH2 0x9349 ADD MSTORE PUSH2 0x99DF ADD MSTORE PUSH0 DUP2 DUP2 PUSH2 0x6B0 ADD MSTORE DUP2 DUP2 PUSH2 0x462F ADD MSTORE DUP2 DUP2 PUSH2 0x6317 ADD MSTORE DUP2 DUP2 PUSH2 0x63C8 ADD MSTORE DUP2 DUP2 PUSH2 0x6480 ADD MSTORE DUP2 DUP2 PUSH2 0x653E ADD MSTORE DUP2 DUP2 PUSH2 0x6569 ADD MSTORE DUP2 DUP2 PUSH2 0x6F7B ADD MSTORE DUP2 DUP2 PUSH2 0x7513 ADD MSTORE DUP2 DUP2 PUSH2 0x75B7 ADD MSTORE DUP2 DUP2 PUSH2 0x75DE ADD MSTORE DUP2 DUP2 PUSH2 0x82A6 ADD MSTORE DUP2 DUP2 PUSH2 0x8385 ADD MSTORE DUP2 DUP2 PUSH2 0x9033 ADD MSTORE DUP2 DUP2 PUSH2 0x90DB ADD MSTORE DUP2 DUP2 PUSH2 0x91FA ADD MSTORE DUP2 DUP2 PUSH2 0x92F3 ADD MSTORE DUP2 DUP2 PUSH2 0x968E ADD MSTORE DUP2 DUP2 PUSH2 0x97DB ADD MSTORE PUSH2 0x998A ADD MSTORE PUSH2 0xAE53 PUSH0 RETURN INVALID PUSH1 0x80 PUSH1 0x40 MSTORE PUSH1 0x4 CALLDATASIZE LT PUSH2 0x5FE JUMPI PUSH0 CALLDATALOAD PUSH1 0xE0 SHR DUP1 PUSH4 0x827D6F74 GT PUSH2 0x30D JUMPI DUP1 PUSH4 0xC466A3B6 GT PUSH2 0x19A JUMPI DUP1 PUSH4 0xE82BEF29 GT PUSH2 0xE6 JUMPI DUP1 PUSH4 0xF2FDE38B GT PUSH2 0x9F JUMPI DUP1 PUSH4 0xF8C6FC3B GT PUSH2 0x79 JUMPI DUP1 PUSH4 0xF8C6FC3B EQ PUSH2 0x1855 JUMPI DUP1 PUSH4 0xFDA5ECB1 EQ PUSH2 0x187F JUMPI DUP1 PUSH4 0xFE575A87 EQ PUSH2 0x18A7 JUMPI DUP1 PUSH4 0xFF41B308 EQ PUSH2 0x18E3 JUMPI PUSH2 0x7E2 JUMP JUMPDEST DUP1 PUSH4 0xF2FDE38B EQ PUSH2 0x17FB JUMPI DUP1 PUSH4 0xF69E2046 EQ PUSH2 0x1823 JUMPI DUP1 PUSH4 0xF7871706 EQ PUSH2 0x182D JUMPI PUSH2 0x7E2 JUMP JUMPDEST DUP1 PUSH4 0xE82BEF29 EQ PUSH2 0x16ED JUMPI DUP1 PUSH4 0xEA1B28E0 EQ PUSH2 0x1717 JUMPI DUP1 PUSH4 0xEE8F0B7A EQ PUSH2 0x1741 JUMPI DUP1 PUSH4 0xEEBA07FB EQ PUSH2 0x177D JUMPI DUP1 PUSH4 0xEF98F953 EQ PUSH2 0x17A7 JUMPI DUP1 PUSH4 0xF1887684 EQ PUSH2 0x17D1 JUMPI PUSH2 0x7E2 JUMP JUMPDEST DUP1 PUSH4 0xD32EC351 GT PUSH2 0x153 JUMPI DUP1 PUSH4 0xDFBF9DEF GT PUSH2 0x12D JUMPI DUP1 PUSH4 0xDFBF9DEF EQ PUSH2 0x1631 JUMPI DUP1 PUSH4 0xE1CCD36A EQ PUSH2 0x166F JUMPI DUP1 PUSH4 0xE3067449 EQ PUSH2 0x1699 JUMPI DUP1 PUSH4 0xE55A68B3 EQ PUSH2 0x16C3 JUMPI PUSH2 0x7E2 JUMP JUMPDEST DUP1 PUSH4 0xD32EC351 EQ PUSH2 0x15A1 JUMPI DUP1 PUSH4 0xD88E1E23 EQ PUSH2 0x15CB JUMPI DUP1 PUSH4 0xDD62ED3E EQ PUSH2 0x15F5 JUMPI PUSH2 0x7E2 JUMP JUMPDEST DUP1 PUSH4 0xC466A3B6 EQ PUSH2 0x14AB JUMPI DUP1 PUSH4 0xC51ECC9F EQ PUSH2 0x14D5 JUMPI DUP1 PUSH4 0xC74CAB49 EQ PUSH2 0x14FD JUMPI DUP1 PUSH4 0xC770DDD7 EQ PUSH2 0x1525 JUMPI DUP1 PUSH4 0xCD6A3D5E EQ PUSH2 0x154F JUMPI DUP1 PUSH4 0xD01DD6D2 EQ PUSH2 0x1579 JUMPI PUSH2 0x7E2 JUMP JUMPDEST DUP1 PUSH4 0x9D5BD1AE GT PUSH2 0x259 JUMPI DUP1 PUSH4 0xB3AB15FB GT PUSH2 0x212 JUMPI DUP1 PUSH4 0xBA76720D GT PUSH2 0x1EC JUMPI DUP1 PUSH4 0xBA76720D EQ PUSH2 0x1409 JUMPI DUP1 PUSH4 0xC2A7DEA3 EQ PUSH2 0x1431 JUMPI DUP1 PUSH4 0xC2E5EC04 EQ PUSH2 0x1459 JUMPI DUP1 PUSH4 0xC31C9C07 EQ PUSH2 0x1481 JUMPI PUSH2 0x7E2 JUMP JUMPDEST DUP1 PUSH4 0xB3AB15FB EQ PUSH2 0x138D JUMPI DUP1 PUSH4 0xB5D475A8 EQ PUSH2 0x13B5 JUMPI DUP1 PUSH4 0xB78AC009 EQ PUSH2 0x13DF JUMPI PUSH2 0x7E2 JUMP JUMPDEST DUP1 PUSH4 0x9D5BD1AE EQ PUSH2 0x1283 JUMPI DUP1 PUSH4 0xA9059CBB EQ PUSH2 0x12AD JUMPI DUP1 PUSH4 0xB0E6BC00 EQ PUSH2 0x12E9 JUMPI DUP1 PUSH4 0xB29C181F EQ PUSH2 0x1313 JUMPI DUP1 PUSH4 0xB2FDE795 EQ PUSH2 0x133B JUMPI DUP1 PUSH4 0xB307DC95 EQ PUSH2 0x1363 JUMPI PUSH2 0x7E2 JUMP JUMPDEST DUP1 PUSH4 0x8E885396 GT PUSH2 0x2C6 JUMPI DUP1 PUSH4 0x9343278F GT PUSH2 0x2A0 JUMPI DUP1 PUSH4 0x9343278F EQ PUSH2 0x11DF JUMPI DUP1 PUSH4 0x94F7693A EQ PUSH2 0x1209 JUMPI DUP1 PUSH4 0x95D89B41 EQ PUSH2 0x1231 JUMPI DUP1 PUSH4 0x9A654CB3 EQ PUSH2 0x125B JUMPI PUSH2 0x7E2 JUMP JUMPDEST DUP1 PUSH4 0x8E885396 EQ PUSH2 0x1163 JUMPI DUP1 PUSH4 0x9281AA0B EQ PUSH2 0x118D JUMPI DUP1 PUSH4 0x92FD039E EQ PUSH2 0x11B5 JUMPI PUSH2 0x7E2 JUMP JUMPDEST DUP1 PUSH4 0x827D6F74 EQ PUSH2 0x106F JUMPI DUP1 PUSH4 0x82EEFCA5 EQ PUSH2 0x1097 JUMPI DUP1 PUSH4 0x85AF30C5 EQ PUSH2 0x10BF JUMPI DUP1 PUSH4 0x85DC3004 EQ PUSH2 0x10E9 JUMPI DUP1 PUSH4 0x8BF60537 EQ PUSH2 0x1111 JUMPI DUP1 PUSH4 0x8DA5CB5B EQ PUSH2 0x1139 JUMPI PUSH2 0x7E2 JUMP JUMPDEST DUP1 PUSH4 0x392075B2 GT PUSH2 0x48B JUMPI DUP1 PUSH4 0x603E43D5 GT PUSH2 0x3D7 JUMPI DUP1 PUSH4 0x70A08231 GT PUSH2 0x390 JUMPI DUP1 PUSH4 0x7EFCC3A2 GT PUSH2 0x36A JUMPI DUP1 PUSH4 0x7EFCC3A2 EQ PUSH2 0xFB3 JUMPI DUP1 PUSH4 0x7F1795A0 EQ PUSH2 0xFDD JUMPI DUP1 PUSH4 0x80AEFD56 EQ PUSH2 0x101B JUMPI DUP1 PUSH4 0x81D5BBE5 EQ PUSH2 0x1045 JUMPI PUSH2 0x7E2 JUMP JUMPDEST DUP1 PUSH4 0x70A08231 EQ PUSH2 0xF39 JUMPI DUP1 PUSH4 0x715018A6 EQ PUSH2 0xF75 JUMPI DUP1 PUSH4 0x75E27E8D EQ PUSH2 0xF8B JUMPI PUSH2 0x7E2 JUMP JUMPDEST DUP1 PUSH4 0x603E43D5 EQ PUSH2 0xE2F JUMPI DUP1 PUSH4 0x6359E6AE EQ PUSH2 0xE59 JUMPI DUP1 PUSH4 0x65B3A294 EQ PUSH2 0xE83 JUMPI DUP1 PUSH4 0x682674A7 EQ PUSH2 0xEBF JUMPI DUP1 PUSH4 0x6A5BA778 EQ PUSH2 0xEE7 JUMPI DUP1 PUSH4 0x6D65D574 EQ PUSH2 0xF0F JUMPI PUSH2 0x7E2 JUMP JUMPDEST DUP1 PUSH4 0x4699771B GT PUSH2 0x444 JUMPI DUP1 PUSH4 0x4D754715 GT PUSH2 0x41E JUMPI DUP1 PUSH4 0x4D754715 EQ PUSH2 0xD87 JUMPI DUP1 PUSH4 0x5666FB67 EQ PUSH2 0xDB1 JUMPI DUP1 PUSH4 0x570CA735 EQ PUSH2 0xDDB JUMPI DUP1 PUSH4 0x5C975ABB EQ PUSH2 0xE05 JUMPI PUSH2 0x7E2 JUMP JUMPDEST DUP1 PUSH4 0x4699771B EQ PUSH2 0xD29 JUMPI DUP1 PUSH4 0x47062402 EQ PUSH2 0xD33 JUMPI DUP1 PUSH4 0x4ADA218B EQ PUSH2 0xD5D JUMPI PUSH2 0x7E2 JUMP JUMPDEST DUP1 PUSH4 0x392075B2 EQ PUSH2 0xC1F JUMPI DUP1 PUSH4 0x3AF32ABF EQ PUSH2 0xC47 JUMPI DUP1 PUSH4 0x3FC8CEF3 EQ PUSH2 0xC83 JUMPI DUP1 PUSH4 0x4017B7A1 EQ PUSH2 0xCAD JUMPI DUP1 PUSH4 0x441B1D30 EQ PUSH2 0xCD7 JUMPI DUP1 PUSH4 0x441F0027 EQ PUSH2 0xCFF JUMPI PUSH2 0x7E2 JUMP JUMPDEST DUP1 PUSH4 0x1955164A GT PUSH2 0x54A JUMPI DUP1 PUSH4 0x2AD2ADAC GT PUSH2 0x503 JUMPI DUP1 PUSH4 0x2BD7C8ED GT PUSH2 0x4DD JUMPI DUP1 PUSH4 0x2BD7C8ED EQ PUSH2 0xB8F JUMPI DUP1 PUSH4 0x313CE567 EQ PUSH2 0xBA5 JUMPI DUP1 PUSH4 0x33F3D628 EQ PUSH2 0xBCF JUMPI DUP1 PUSH4 0x358F2F4C EQ PUSH2 0xBF7 JUMPI PUSH2 0x7E2 JUMP JUMPDEST DUP1 PUSH4 0x2AD2ADAC EQ PUSH2 0xB13 JUMPI DUP1 PUSH4 0x2B14CA56 EQ PUSH2 0xB3B JUMPI DUP1 PUSH4 0x2B310671 EQ PUSH2 0xB65 JUMPI PUSH2 0x7E2 JUMP JUMPDEST DUP1 PUSH4 0x1955164A EQ PUSH2 0xA10 JUMPI DUP1 PUSH4 0x1A8573C2 EQ PUSH2 0xA38 JUMPI DUP1 PUSH4 0x1B967AD4 EQ PUSH2 0xA42 JUMPI DUP1 PUSH4 0x23B872DD EQ PUSH2 0xA7E JUMPI DUP1 PUSH4 0x26476204 EQ PUSH2 0xABA JUMPI DUP1 PUSH4 0x2935A0CC EQ PUSH2 0xAD6 JUMPI PUSH2 0x7E2 JUMP JUMPDEST DUP1 PUSH4 0xFC6A11C GT PUSH2 0x5B7 JUMPI DUP1 PUSH4 0x13B28D25 GT PUSH2 0x591 JUMPI DUP1 PUSH4 0x13B28D25 EQ PUSH2 0x958 JUMPI DUP1 PUSH4 0x168AB584 EQ PUSH2 0x982 JUMPI DUP1 PUSH4 0x16C38B3C EQ PUSH2 0x9BE JUMPI DUP1 PUSH4 0x18160DDD EQ PUSH2 0x9E6 JUMPI PUSH2 0x7E2 JUMP JUMPDEST DUP1 PUSH4 0xFC6A11C EQ PUSH2 0x8DC JUMPI DUP1 PUSH4 0xFC8FA41 EQ PUSH2 0x906 JUMPI DUP1 PUSH4 0x1213C7FE EQ PUSH2 0x930 JUMPI PUSH2 0x7E2 JUMP JUMPDEST DUP1 PUSH4 0x6FDDE03 EQ PUSH2 0x7E6 JUMPI DUP1 PUSH4 0x95EA7B3 EQ PUSH2 0x810 JUMPI DUP1 PUSH4 0xD04C3BC EQ PUSH2 0x84C JUMPI DUP1 PUSH4 0xE010C9E EQ PUSH2 0x874 JUMPI DUP1 PUSH4 0xFAF8BAF EQ PUSH2 0x89E JUMPI DUP1 PUSH4 0xFC0482A EQ PUSH2 0x8C6 JUMPI PUSH2 0x7E2 JUMP JUMPDEST CALLDATASIZE PUSH2 0x7E2 JUMPI PUSH32 0x0 PUSH20 0xFFFFFFFFFFFFFFFFFFFFFFFFFFFFFFFFFFFFFFFF AND CALLER PUSH20 0xFFFFFFFFFFFFFFFFFFFFFFFFFFFFFFFFFFFFFFFF AND EQ DUP1 PUSH2 0x6A8 JUMPI POP PUSH32 0x0 PUSH20 0xFFFFFFFFFFFFFFFFFFFFFFFFFFFFFFFFFFFFFFFF AND CALLER PUSH20 0xFFFFFFFFFFFFFFFFFFFFFFFFFFFFFFFFFFFFFFFF AND EQ JUMPDEST DUP1 PUSH2 0x6FE JUMPI POP PUSH32 0x0 PUSH20 0xFFFFFFFFFFFFFFFFFFFFFFFFFFFFFFFFFFFFFFFF AND CALLER PUSH20 0xFFFFFFFFFFFFFFFFFFFFFFFFFFFFFFFFFFFFFFFF AND EQ JUMPDEST PUSH2 0x7E0 JUMPI PUSH2 0x70A PUSH2 0x18F9 JUMP JUMPDEST PUSH2 0x712 PUSH2 0x1942 JUMP JUMPDEST PUSH2 0x71A PUSH2 0x1987 JUMP JUMPDEST PUSH0 PUSH1 0x17 PUSH0 CALLER PUSH20 0xFFFFFFFFFFFFFFFFFFFFFFFFFFFFFFFFFFFFFFFF AND PUSH20 0xFFFFFFFFFFFFFFFFFFFFFFFFFFFFFFFFFFFFFFFF AND DUP2 MSTORE PUSH1 0x20 ADD SWAP1 DUP2 MSTORE PUSH1 0x20 ADD PUSH0 KECCAK256 SWAP1 POP PUSH0 PUSH0 DUP3 PUSH1 0x2 ADD SLOAD GT DUP1 ISZERO PUSH2 0x772 JUMPI POP DUP2 PUSH1 0x2 ADD SLOAD TIMESTAMP GT ISZERO JUMPDEST SWAP1 POP PUSH0 CALLVALUE EQ DUP1 ISZERO PUSH2 0x78E JUMPI POP PUSH1 0x1E PUSH0 SWAP1 SLOAD SWAP1 PUSH2 0x100 EXP SWAP1 DIV PUSH1 0xFF AND JUMPDEST DUP1 ISZERO PUSH2 0x797 JUMPI POP DUP1 JUMPDEST ISZERO PUSH2 0x7B4 JUMPI PUSH2 0x7A5 CALLER PUSH2 0x19EC JUMP JUMPDEST PUSH2 0x7AD PUSH2 0x1D23 JUMP JUMPDEST POP POP PUSH2 0x7E0 JUMP JUMPDEST DUP1 ISZERO PUSH2 0x7CA JUMPI PUSH2 0x7C5 CALLER CALLVALUE PUSH0 PUSH2 0x1D2C JUMP JUMPDEST PUSH2 0x7D5 JUMP JUMPDEST PUSH2 0x7D4 CALLER CALLVALUE PUSH2 0x2251 JUMP JUMPDEST JUMPDEST PUSH2 0x7DD PUSH2 0x1D23 JUMP JUMPDEST POP POP JUMPDEST STOP JUMPDEST PUSH0 PUSH0 REVERT JUMPDEST CALLVALUE DUP1 ISZERO PUSH2 0x7F1 JUMPI PUSH0 PUSH0 REVERT JUMPDEST POP PUSH2 0x7FA PUSH2 0x2691 JUMP JUMPDEST PUSH1 0x40 MLOAD PUSH2 0x807 SWAP2 SWAP1 PUSH2 0x9CF7 JUMP JUMPDEST PUSH1 0x40 MLOAD DUP1 SWAP2 SUB SWAP1 RETURN JUMPDEST CALLVALUE DUP1 ISZERO PUSH2 0x81B JUMPI PUSH0 PUSH0 REVERT JUMPDEST POP PUSH2 0x836 PUSH1 0x4 DUP1 CALLDATASIZE SUB DUP2 ADD SWAP1 PUSH2 0x831 SWAP2 SWAP1 PUSH2 0x9DAC JUMP JUMPDEST PUSH2 0x2721 JUMP JUMPDEST PUSH1 0x40 MLOAD PUSH2 0x843 SWAP2 SWAP1 PUSH2 0x9E04 JUMP JUMPDEST PUSH1 0x40 MLOAD DUP1 SWAP2 SUB SWAP1 RETURN JUMPDEST CALLVALUE DUP1 ISZERO PUSH2 0x857 JUMPI PUSH0 PUSH0 REVERT JUMPDEST POP PUSH2 0x872 PUSH1 0x4 DUP1 CALLDATASIZE SUB DUP2 ADD SWAP1 PUSH2 0x86D SWAP2 SWAP1 PUSH2 0x9E1D JUMP JUMPDEST PUSH2 0x2743 JUMP JUMPDEST STOP JUMPDEST CALLVALUE DUP1 ISZERO PUSH2 0x87F JUMPI PUSH0 PUSH0 REVERT JUMPDEST POP PUSH2 0x888 PUSH2 0x2885 JUMP JUMPDEST PUSH1 0x40 MLOAD PUSH2 0x895 SWAP2 SWAP1 PUSH2 0x9E7C JUMP JUMPDEST PUSH1 0x40 MLOAD DUP1 SWAP2 SUB SWAP1 RETURN JUMPDEST CALLVALUE DUP1 ISZERO PUSH2 0x8A9 JUMPI PUSH0 PUSH0 REVERT JUMPDEST POP PUSH2 0x8C4 PUSH1 0x4 DUP1 CALLDATASIZE SUB DUP2 ADD SWAP1 PUSH2 0x8BF SWAP2 SWAP1 PUSH2 0x9E95 JUMP JUMPDEST PUSH2 0x28AA JUMP JUMPDEST STOP JUMPDEST CALLVALUE DUP1 ISZERO PUSH2 0x8D1 JUMPI PUSH0 PUSH0 REVERT JUMPDEST POP PUSH2 0x8DA PUSH2 0x297B JUMP JUMPDEST STOP JUMPDEST CALLVALUE DUP1 ISZERO PUSH2 0x8E7 JUMPI PUSH0 PUSH0 REVERT JUMPDEST POP PUSH2 0x8F0 PUSH2 0x299F JUMP JUMPDEST PUSH1 0x40 MLOAD PUSH2 0x8FD SWAP2 SWAP1 PUSH2 0x9E7C JUMP JUMPDEST PUSH1 0x40 MLOAD DUP1 SWAP2 SUB SWAP1 RETURN JUMPDEST CALLVALUE DUP1 ISZERO PUSH2 0x911 JUMPI PUSH0 PUSH0 REVERT JUMPDEST POP PUSH2 0x91A PUSH2 0x29C3 JUMP JUMPDEST PUSH1 0x40 MLOAD PUSH2 0x927 SWAP2 SWAP1 PUSH2 0x9E04 JUMP JUMPDEST PUSH1 0x40 MLOAD DUP1 SWAP2 SUB SWAP1 RETURN JUMPDEST CALLVALUE DUP1 ISZERO PUSH2 0x93B JUMPI PUSH0 PUSH0 REVERT JUMPDEST POP PUSH2 0x956 PUSH1 0x4 DUP1 CALLDATASIZE SUB DUP2 ADD SWAP1 PUSH2 0x951 SWAP2 SWAP1 PUSH2 0x9FCB JUMP JUMPDEST PUSH2 0x29D5 JUMP JUMPDEST STOP JUMPDEST CALLVALUE DUP1 ISZERO PUSH2 0x963 JUMPI PUSH0 PUSH0 REVERT JUMPDEST POP PUSH2 0x96C PUSH2 0x2B6A JUMP JUMPDEST PUSH1 0x40 MLOAD PUSH2 0x979 SWAP2 SWAP1 PUSH2 0xA08A JUMP JUMPDEST PUSH1 0x40 MLOAD DUP1 SWAP2 SUB SWAP1 RETURN JUMPDEST CALLVALUE DUP1 ISZERO PUSH2 0x98D JUMPI PUSH0 PUSH0 REVERT JUMPDEST POP PUSH2 0x9A8 PUSH1 0x4 DUP1 CALLDATASIZE SUB DUP2 ADD SWAP1 PUSH2 0x9A3 SWAP2 SWAP1 PUSH2 0x9DAC JUMP JUMPDEST PUSH2 0x2B70 JUMP JUMPDEST PUSH1 0x40 MLOAD PUSH2 0x9B5 SWAP2 SWAP1 PUSH2 0x9E7C JUMP JUMPDEST PUSH1 0x40 MLOAD DUP1 SWAP2 SUB SWAP1 RETURN JUMPDEST CALLVALUE DUP1 ISZERO PUSH2 0x9C9 JUMPI PUSH0 PUSH0 REVERT JUMPDEST POP PUSH2 0x9E4 PUSH1 0x4 DUP1 CALLDATASIZE SUB DUP2 ADD SWAP1 PUSH2 0x9DF SWAP2 SWAP1 PUSH2 0xA0CD JUMP JUMPDEST PUSH2 0x2BB8 JUMP JUMPDEST STOP JUMPDEST CALLVALUE DUP1 ISZERO PUSH2 0x9F1 JUMPI PUSH0 PUSH0 REVERT JUMPDEST POP PUSH2 0x9FA PUSH2 0x2C9C JUMP JUMPDEST PUSH1 0x40 MLOAD PUSH2 0xA07 SWAP2 SWAP1 PUSH2 0xA08A JUMP JUMPDEST PUSH1 0x40 MLOAD DUP1 SWAP2 SUB SWAP1 RETURN JUMPDEST CALLVALUE DUP1 ISZERO PUSH2 0xA1B JUMPI PUSH0 PUSH0 REVERT JUMPDEST POP PUSH2 0xA36 PUSH1 0x4 DUP1 CALLDATASIZE SUB DUP2 ADD SWAP1 PUSH2 0xA31 SWAP2 SWAP1 PUSH2 0xA0F8 JUMP JUMPDEST PUSH2 0x2CA5 JUMP JUMPDEST STOP JUMPDEST PUSH2 0xA40 PUSH2 0x2DDA JUMP JUMPDEST STOP JUMPDEST CALLVALUE DUP1 ISZERO PUSH2 0xA4D JUMPI PUSH0 PUSH0 REVERT JUMPDEST POP PUSH2 0xA68 PUSH1 0x4 DUP1 CALLDATASIZE SUB DUP2 ADD SWAP1 PUSH2 0xA63 SWAP2 SWAP1 PUSH2 0xA136 JUMP JUMPDEST PUSH2 0x2EF4 JUMP JUMPDEST PUSH1 0x40 MLOAD PUSH2 0xA75 SWAP2 SWAP1 PUSH2 0xA08A JUMP JUMPDEST PUSH1 0x40 MLOAD DUP1 SWAP2 SUB SWAP1 RETURN JUMPDEST CALLVALUE DUP1 ISZERO PUSH2 0xA89 JUMPI PUSH0 PUSH0 REVERT JUMPDEST POP PUSH2 0xAA4 PUSH1 0x4 DUP1 CALLDATASIZE SUB DUP2 ADD SWAP1 PUSH2 0xA9F SWAP2 SWAP1 PUSH2 0xA161 JUMP JUMPDEST PUSH2 0x2F3D JUMP JUMPDEST PUSH1 0x40 MLOAD PUSH2 0xAB1 SWAP2 SWAP1 PUSH2 0x9E04 JUMP JUMPDEST PUSH1 0x40 MLOAD DUP1 SWAP2 SUB SWAP1 RETURN JUMPDEST PUSH2 0xAD4 PUSH1 0x4 DUP1 CALLDATASIZE SUB DUP2 ADD SWAP1 PUSH2 0xACF SWAP2 SWAP1 PUSH2 0xA136 JUMP JUMPDEST PUSH2 0x2F6B JUMP JUMPDEST STOP JUMPDEST CALLVALUE DUP1 ISZERO PUSH2 0xAE1 JUMPI PUSH0 PUSH0 REVERT JUMPDEST POP PUSH2 0xAFC PUSH1 0x4 DUP1 CALLDATASIZE SUB DUP2 ADD SWAP1 PUSH2 0xAF7 SWAP2 SWAP1 PUSH2 0xA1E7 JUMP JUMPDEST PUSH2 0x31EB JUMP JUMPDEST PUSH1 0x40 MLOAD PUSH2 0xB0A SWAP3 SWAP2 SWAP1 PUSH2 0xA212 JUMP JUMPDEST PUSH1 0x40 MLOAD DUP1 SWAP2 SUB SWAP1 RETURN JUMPDEST CALLVALUE DUP1 ISZERO PUSH2 0xB1E JUMPI PUSH0 PUSH0 REVERT JUMPDEST POP PUSH2 0xB39 PUSH1 0x4 DUP1 CALLDATASIZE SUB DUP2 ADD SWAP1 PUSH2 0xB34 SWAP2 SWAP1 PUSH2 0x9E95 JUMP JUMPDEST PUSH2 0x320B JUMP JUMPDEST STOP JUMPDEST CALLVALUE DUP1 ISZERO PUSH2 0xB46 JUMPI PUSH0 PUSH0 REVERT JUMPDEST POP PUSH2 0xB4F PUSH2 0x3319 JUMP JUMPDEST PUSH1 0x40 MLOAD PUSH2 0xB5C SWAP2 SWAP1 PUSH2 0xA08A JUMP JUMPDEST PUSH1 0x40 MLOAD DUP1 SWAP2 SUB SWAP1 RETURN JUMPDEST CALLVALUE DUP1 ISZERO PUSH2 0xB70 JUMPI PUSH0 PUSH0 REVERT JUMPDEST POP PUSH2 0xB79 PUSH2 0x331F JUMP JUMPDEST PUSH1 0x40 MLOAD PUSH2 0xB86 SWAP2 SWAP1 PUSH2 0xA08A JUMP JUMPDEST PUSH1 0x40 MLOAD DUP1 SWAP2 SUB SWAP1 RETURN JUMPDEST CALLVALUE DUP1 ISZERO PUSH2 0xB9A JUMPI PUSH0 PUSH0 REVERT JUMPDEST POP PUSH2 0xBA3 PUSH2 0x3325 JUMP JUMPDEST STOP JUMPDEST CALLVALUE DUP1 ISZERO PUSH2 0xBB0 JUMPI PUSH0 PUSH0 REVERT JUMPDEST POP PUSH2 0xBB9 PUSH2 0x33F6 JUMP JUMPDEST PUSH1 0x40 MLOAD PUSH2 0xBC6 SWAP2 SWAP1 PUSH2 0xA248 JUMP JUMPDEST PUSH1 0x40 MLOAD DUP1 SWAP2 SUB SWAP1 RETURN JUMPDEST CALLVALUE DUP1 ISZERO PUSH2 0xBDA JUMPI PUSH0 PUSH0 REVERT JUMPDEST POP PUSH2 0xBF5 PUSH1 0x4 DUP1 CALLDATASIZE SUB DUP2 ADD SWAP1 PUSH2 0xBF0 SWAP2 SWAP1 PUSH2 0x9DAC JUMP JUMPDEST PUSH2 0x33FE JUMP JUMPDEST STOP JUMPDEST CALLVALUE DUP1 ISZERO PUSH2 0xC02 JUMPI PUSH0 PUSH0 REVERT JUMPDEST POP PUSH2 0xC1D PUSH1 0x4 DUP1 CALLDATASIZE SUB DUP2 ADD SWAP1 PUSH2 0xC18 SWAP2 SWAP1 PUSH2 0xA261 JUMP JUMPDEST PUSH2 0x3634 JUMP JUMPDEST STOP JUMPDEST CALLVALUE DUP1 ISZERO PUSH2 0xC2A JUMPI PUSH0 PUSH0 REVERT JUMPDEST POP PUSH2 0xC45 PUSH1 0x4 DUP1 CALLDATASIZE SUB DUP2 ADD SWAP1 PUSH2 0xC40 SWAP2 SWAP1 PUSH2 0xA2B1 JUMP JUMPDEST PUSH2 0x37C9 JUMP JUMPDEST STOP JUMPDEST CALLVALUE DUP1 ISZERO PUSH2 0xC52 JUMPI PUSH0 PUSH0 REVERT JUMPDEST POP PUSH2 0xC6D PUSH1 0x4 DUP1 CALLDATASIZE SUB DUP2 ADD SWAP1 PUSH2 0xC68 SWAP2 SWAP1 PUSH2 0xA136 JUMP JUMPDEST PUSH2 0x392A JUMP JUMPDEST PUSH1 0x40 MLOAD PUSH2 0xC7A SWAP2 SWAP1 PUSH2 0x9E04 JUMP JUMPDEST PUSH1 0x40 MLOAD DUP1 SWAP2 SUB SWAP1 RETURN JUMPDEST CALLVALUE DUP1 ISZERO PUSH2 0xC8E JUMPI PUSH0 PUSH0 REVERT JUMPDEST POP PUSH2 0xC97 PUSH2 0x3947 JUMP JUMPDEST PUSH1 0x40 MLOAD PUSH2 0xCA4 SWAP2 SWAP1 PUSH2 0x9E7C JUMP JUMPDEST PUSH1 0x40 MLOAD DUP1 SWAP2 SUB SWAP1 RETURN JUMPDEST CALLVALUE DUP1 ISZERO PUSH2 0xCB8 JUMPI PUSH0 PUSH0 REVERT JUMPDEST POP PUSH2 0xCC1 PUSH2 0x396B JUMP JUMPDEST PUSH1 0x40 MLOAD PUSH2 0xCCE SWAP2 SWAP1 PUSH2 0xA08A JUMP JUMPDEST PUSH1 0x40 MLOAD DUP1 SWAP2 SUB SWAP1 RETURN JUMPDEST CALLVALUE DUP1 ISZERO PUSH2 0xCE2 JUMPI PUSH0 PUSH0 REVERT JUMPDEST POP PUSH2 0xCFD PUSH1 0x4 DUP1 CALLDATASIZE SUB DUP2 ADD SWAP1 PUSH2 0xCF8 SWAP2 SWAP1 PUSH2 0x9E95 JUMP JUMPDEST PUSH2 0x3970 JUMP JUMPDEST STOP JUMPDEST CALLVALUE DUP1 ISZERO PUSH2 0xD0A JUMPI PUSH0 PUSH0 REVERT JUMPDEST POP PUSH2 0xD13 PUSH2 0x3B20 JUMP JUMPDEST PUSH1 0x40 MLOAD PUSH2 0xD20 SWAP2 SWAP1 PUSH2 0x9E04 JUMP JUMPDEST PUSH1 0x40 MLOAD DUP1 SWAP2 SUB SWAP1 RETURN JUMPDEST PUSH2 0xD31 PUSH2 0x3B32 JUMP JUMPDEST STOP JUMPDEST CALLVALUE DUP1 ISZERO PUSH2 0xD3E JUMPI PUSH0 PUSH0 REVERT JUMPDEST POP PUSH2 0xD47 PUSH2 0x3C34 JUMP JUMPDEST PUSH1 0x40 MLOAD PUSH2 0xD54 SWAP2 SWAP1 PUSH2 0xA08A JUMP JUMPDEST PUSH1 0x40 MLOAD DUP1 SWAP2 SUB SWAP1 RETURN JUMPDEST CALLVALUE DUP1 ISZERO PUSH2 0xD68 JUMPI PUSH0 PUSH0 REVERT JUMPDEST POP PUSH2 0xD71 PUSH2 0x3C3A JUMP JUMPDEST PUSH1 0x40 MLOAD PUSH2 0xD7E SWAP2 SWAP1 PUSH2 0x9E04 JUMP JUMPDEST PUSH1 0x40 MLOAD DUP1 SWAP2 SUB SWAP1 RETURN JUMPDEST CALLVALUE DUP1 ISZERO PUSH2 0xD92 JUMPI PUSH0 PUSH0 REVERT JUMPDEST POP PUSH2 0xD9B PUSH2 0x3C4D JUMP JUMPDEST PUSH1 0x40 MLOAD PUSH2 0xDA8 SWAP2 SWAP1 PUSH2 0x9E04 JUMP JUMPDEST PUSH1 0x40 MLOAD DUP1 SWAP2 SUB SWAP1 RETURN JUMPDEST CALLVALUE DUP1 ISZERO PUSH2 0xDBC JUMPI PUSH0 PUSH0 REVERT JUMPDEST POP PUSH2 0xDC5 PUSH2 0x3C5F JUMP JUMPDEST PUSH1 0x40 MLOAD PUSH2 0xDD2 SWAP2 SWAP1 PUSH2 0x9E04 JUMP JUMPDEST PUSH1 0x40 MLOAD DUP1 SWAP2 SUB SWAP1 RETURN JUMPDEST CALLVALUE DUP1 ISZERO PUSH2 0xDE6 JUMPI PUSH0 PUSH0 REVERT JUMPDEST POP PUSH2 0xDEF PUSH2 0x3C71 JUMP JUMPDEST PUSH1 0x40 MLOAD PUSH2 0xDFC SWAP2 SWAP1 PUSH2 0x9E7C JUMP JUMPDEST PUSH1 0x40 MLOAD DUP1 SWAP2 SUB SWAP1 RETURN JUMPDEST CALLVALUE DUP1 ISZERO PUSH2 0xE10 JUMPI PUSH0 PUSH0 REVERT JUMPDEST POP PUSH2 0xE19 PUSH2 0x3C96 JUMP JUMPDEST PUSH1 0x40 MLOAD PUSH2 0xE26 SWAP2 SWAP1 PUSH2 0x9E04 JUMP JUMPDEST PUSH1 0x40 MLOAD DUP1 SWAP2 SUB SWAP1 RETURN JUMPDEST CALLVALUE DUP1 ISZERO PUSH2 0xE3A JUMPI PUSH0 PUSH0 REVERT JUMPDEST POP PUSH2 0xE43 PUSH2 0x3CA9 JUMP JUMPDEST PUSH1 0x40 MLOAD PUSH2 0xE50 SWAP2 SWAP1 PUSH2 0xA08A JUMP JUMPDEST PUSH1 0x40 MLOAD DUP1 SWAP2 SUB SWAP1 RETURN JUMPDEST CALLVALUE DUP1 ISZERO PUSH2 0xE64 JUMPI PUSH0 PUSH0 REVERT JUMPDEST POP PUSH2 0xE6D PUSH2 0x3CB0 JUMP JUMPDEST PUSH1 0x40 MLOAD PUSH2 0xE7A SWAP2 SWAP1 PUSH2 0xA08A JUMP JUMPDEST PUSH1 0x40 MLOAD DUP1 SWAP2 SUB SWAP1 RETURN JUMPDEST CALLVALUE DUP1 ISZERO PUSH2 0xE8E JUMPI PUSH0 PUSH0 REVERT JUMPDEST POP PUSH2 0xEA9 PUSH1 0x4 DUP1 CALLDATASIZE SUB DUP2 ADD SWAP1 PUSH2 0xEA4 SWAP2 SWAP1 PUSH2 0x9E95 JUMP JUMPDEST PUSH2 0x3CB7 JUMP JUMPDEST PUSH1 0x40 MLOAD PUSH2 0xEB6 SWAP2 SWAP1 PUSH2 0xA08A JUMP JUMPDEST PUSH1 0x40 MLOAD DUP1 SWAP2 SUB SWAP1 RETURN JUMPDEST CALLVALUE DUP1 ISZERO PUSH2 0xECA JUMPI PUSH0 PUSH0 REVERT JUMPDEST POP PUSH2 0xEE5 PUSH1 0x4 DUP1 CALLDATASIZE SUB DUP2 ADD SWAP1 PUSH2 0xEE0 SWAP2 SWAP1 PUSH2 0x9E1D JUMP JUMPDEST PUSH2 0x3CCC JUMP JUMPDEST STOP JUMPDEST CALLVALUE DUP1 ISZERO PUSH2 0xEF2 JUMPI PUSH0 PUSH0 REVERT JUMPDEST POP PUSH2 0xF0D PUSH1 0x4 DUP1 CALLDATASIZE SUB DUP2 ADD SWAP1 PUSH2 0xF08 SWAP2 SWAP1 PUSH2 0xA0CD JUMP JUMPDEST PUSH2 0x3DEA JUMP JUMPDEST STOP JUMPDEST CALLVALUE DUP1 ISZERO PUSH2 0xF1A JUMPI PUSH0 PUSH0 REVERT JUMPDEST POP PUSH2 0xF23 PUSH2 0x3ECD JUMP JUMPDEST PUSH1 0x40 MLOAD PUSH2 0xF30 SWAP2 SWAP1 PUSH2 0xA08A JUMP JUMPDEST PUSH1 0x40 MLOAD DUP1 SWAP2 SUB SWAP1 RETURN JUMPDEST CALLVALUE DUP1 ISZERO PUSH2 0xF44 JUMPI PUSH0 PUSH0 REVERT JUMPDEST POP PUSH2 0xF5F PUSH1 0x4 DUP1 CALLDATASIZE SUB DUP2 ADD SWAP1 PUSH2 0xF5A SWAP2 SWAP1 PUSH2 0xA136 JUMP JUMPDEST PUSH2 0x3ED3 JUMP JUMPDEST PUSH1 0x40 MLOAD PUSH2 0xF6C SWAP2 SWAP1 PUSH2 0xA08A JUMP JUMPDEST PUSH1 0x40 MLOAD DUP1 SWAP2 SUB SWAP1 RETURN JUMPDEST CALLVALUE DUP1 ISZERO PUSH2 0xF80 JUMPI PUSH0 PUSH0 REVERT JUMPDEST POP PUSH2 0xF89 PUSH2 0x3F18 JUMP JUMPDEST STOP JUMPDEST CALLVALUE DUP1 ISZERO PUSH2 0xF96 JUMPI PUSH0 PUSH0 REVERT JUMPDEST POP PUSH2 0xFB1 PUSH1 0x4 DUP1 CALLDATASIZE SUB DUP2 ADD SWAP1 PUSH2 0xFAC SWAP2 SWAP1 PUSH2 0xA2EF JUMP JUMPDEST PUSH2 0x3F2B JUMP JUMPDEST STOP JUMPDEST CALLVALUE DUP1 ISZERO PUSH2 0xFBE JUMPI PUSH0 PUSH0 REVERT JUMPDEST POP PUSH2 0xFC7 PUSH2 0x40F8 JUMP JUMPDEST PUSH1 0x40 MLOAD PUSH2 0xFD4 SWAP2 SWAP1 PUSH2 0xA08A JUMP JUMPDEST PUSH1 0x40 MLOAD DUP1 SWAP2 SUB SWAP1 RETURN JUMPDEST CALLVALUE DUP1 ISZERO PUSH2 0xFE8 JUMPI PUSH0 PUSH0 REVERT JUMPDEST POP PUSH2 0x1003 PUSH1 0x4 DUP1 CALLDATASIZE SUB DUP2 ADD SWAP1 PUSH2 0xFFE SWAP2 SWAP1 PUSH2 0xA136 JUMP JUMPDEST PUSH2 0x40FE JUMP JUMPDEST PUSH1 0x40 MLOAD PUSH2 0x1012 SWAP4 SWAP3 SWAP2 SWAP1 PUSH2 0xA366 JUMP JUMPDEST PUSH1 0x40 MLOAD DUP1 SWAP2 SUB SWAP1 RETURN JUMPDEST CALLVALUE DUP1 ISZERO PUSH2 0x1026 JUMPI PUSH0 PUSH0 REVERT JUMPDEST POP PUSH2 0x102F PUSH2 0x4130 JUMP JUMPDEST PUSH1 0x40 MLOAD PUSH2 0x103C SWAP2 SWAP1 PUSH2 0xA08A JUMP JUMPDEST PUSH1 0x40 MLOAD DUP1 SWAP2 SUB SWAP1 RETURN JUMPDEST CALLVALUE DUP1 ISZERO PUSH2 0x1050 JUMPI PUSH0 PUSH0 REVERT JUMPDEST POP PUSH2 0x1059 PUSH2 0x4135 JUMP JUMPDEST PUSH1 0x40 MLOAD PUSH2 0x1066 SWAP2 SWAP1 PUSH2 0xA08A JUMP JUMPDEST PUSH1 0x40 MLOAD DUP1 SWAP2 SUB SWAP1 RETURN JUMPDEST CALLVALUE DUP1 ISZERO PUSH2 0x107A JUMPI PUSH0 PUSH0 REVERT JUMPDEST POP PUSH2 0x1095 PUSH1 0x4 DUP1 CALLDATASIZE SUB DUP2 ADD SWAP1 PUSH2 0x1090 SWAP2 SWAP1 PUSH2 0xA39B JUMP JUMPDEST PUSH2 0x413C JUMP JUMPDEST STOP JUMPDEST CALLVALUE DUP1 ISZERO PUSH2 0x10A2 JUMPI PUSH0 PUSH0 REVERT JUMPDEST POP PUSH2 0x10BD PUSH1 0x4 DUP1 CALLDATASIZE SUB DUP2 ADD SWAP1 PUSH2 0x10B8 SWAP2 SWAP1 PUSH2 0xA419 JUMP JUMPDEST PUSH2 0x44B9 JUMP JUMPDEST STOP JUMPDEST CALLVALUE DUP1 ISZERO PUSH2 0x10CA JUMPI PUSH0 PUSH0 REVERT JUMPDEST POP PUSH2 0x10D3 PUSH2 0x462D JUMP JUMPDEST PUSH1 0x40 MLOAD PUSH2 0x10E0 SWAP2 SWAP1 PUSH2 0x9E7C JUMP JUMPDEST PUSH1 0x40 MLOAD DUP1 SWAP2 SUB SWAP1 RETURN JUMPDEST CALLVALUE DUP1 ISZERO PUSH2 0x10F4 JUMPI PUSH0 PUSH0 REVERT JUMPDEST POP PUSH2 0x110F PUSH1 0x4 DUP1 CALLDATASIZE SUB DUP2 ADD SWAP1 PUSH2 0x110A SWAP2 SWAP1 PUSH2 0xA136 JUMP JUMPDEST PUSH2 0x4651 JUMP JUMPDEST STOP JUMPDEST CALLVALUE DUP1 ISZERO PUSH2 0x111C JUMPI PUSH0 PUSH0 REVERT JUMPDEST POP PUSH2 0x1137 PUSH1 0x4 DUP1 CALLDATASIZE SUB DUP2 ADD SWAP1 PUSH2 0x1132 SWAP2 SWAP1 PUSH2 0xA136 JUMP JUMPDEST PUSH2 0x47C0 JUMP JUMPDEST STOP JUMPDEST CALLVALUE DUP1 ISZERO PUSH2 0x1144 JUMPI PUSH0 PUSH0 REVERT JUMPDEST POP PUSH2 0x114D PUSH2 0x492F JUMP JUMPDEST PUSH1 0x40 MLOAD PUSH2 0x115A SWAP2 SWAP1 PUSH2 0x9E7C JUMP JUMPDEST PUSH1 0x40 MLOAD DUP1 SWAP2 SUB SWAP1 RETURN JUMPDEST CALLVALUE DUP1 ISZERO PUSH2 0x116E JUMPI PUSH0 PUSH0 REVERT JUMPDEST POP PUSH2 0x1177 PUSH2 0x4957 JUMP JUMPDEST PUSH1 0x40 MLOAD PUSH2 0x1184 SWAP2 SWAP1 PUSH2 0xA08A JUMP JUMPDEST PUSH1 0x40 MLOAD DUP1 SWAP2 SUB SWAP1 RETURN JUMPDEST CALLVALUE DUP1 ISZERO PUSH2 0x1198 JUMPI PUSH0 PUSH0 REVERT JUMPDEST POP PUSH2 0x11B3 PUSH1 0x4 DUP1 CALLDATASIZE SUB DUP2 ADD SWAP1 PUSH2 0x11AE SWAP2 SWAP1 PUSH2 0xA4C9 JUMP JUMPDEST PUSH2 0x495E JUMP JUMPDEST STOP JUMPDEST CALLVALUE DUP1 ISZERO PUSH2 0x11C0 JUMPI PUSH0 PUSH0 REVERT JUMPDEST POP PUSH2 0x11C9 PUSH2 0x4A7D JUMP JUMPDEST PUSH1 0x40 MLOAD PUSH2 0x11D6 SWAP2 SWAP1 PUSH2 0xA08A JUMP JUMPDEST PUSH1 0x40 MLOAD DUP1 SWAP2 SUB SWAP1 RETURN JUMPDEST CALLVALUE DUP1 ISZERO PUSH2 0x11EA JUMPI PUSH0 PUSH0 REVERT JUMPDEST POP PUSH2 0x11F3 PUSH2 0x4A83 JUMP JUMPDEST PUSH1 0x40 MLOAD PUSH2 0x1200 SWAP2 SWAP1 PUSH2 0xA08A JUMP JUMPDEST PUSH1 0x40 MLOAD DUP1 SWAP2 SUB SWAP1 RETURN JUMPDEST CALLVALUE DUP1 ISZERO PUSH2 0x1214 JUMPI PUSH0 PUSH0 REVERT JUMPDEST POP PUSH2 0x122F PUSH1 0x4 DUP1 CALLDATASIZE SUB DUP2 ADD SWAP1 PUSH2 0x122A SWAP2 SWAP1 PUSH2 0x9DAC JUMP JUMPDEST PUSH2 0x4A8C JUMP JUMPDEST STOP JUMPDEST CALLVALUE DUP1 ISZERO PUSH2 0x123C JUMPI PUSH0 PUSH0 REVERT JUMPDEST POP PUSH2 0x1245 PUSH2 0x4BA7 JUMP JUMPDEST PUSH1 0x40 MLOAD PUSH2 0x1252 SWAP2 SWAP1 PUSH2 0x9CF7 JUMP JUMPDEST PUSH1 0x40 MLOAD DUP1 SWAP2 SUB SWAP1 RETURN JUMPDEST CALLVALUE DUP1 ISZERO PUSH2 0x1266 JUMPI PUSH0 PUSH0 REVERT JUMPDEST POP PUSH2 0x1281 PUSH1 0x4 DUP1 CALLDATASIZE SUB DUP2 ADD SWAP1 PUSH2 0x127C SWAP2 SWAP1 PUSH2 0xA0F8 JUMP JUMPDEST PUSH2 0x4C37 JUMP JUMPDEST STOP JUMPDEST CALLVALUE DUP1 ISZERO PUSH2 0x128E JUMPI PUSH0 PUSH0 REVERT JUMPDEST POP PUSH2 0x1297 PUSH2 0x4D4A JUMP JUMPDEST PUSH1 0x40 MLOAD PUSH2 0x12A4 SWAP2 SWAP1 PUSH2 0xA08A JUMP JUMPDEST PUSH1 0x40 MLOAD DUP1 SWAP2 SUB SWAP1 RETURN JUMPDEST CALLVALUE DUP1 ISZERO PUSH2 0x12B8 JUMPI PUSH0 PUSH0 REVERT JUMPDEST POP PUSH2 0x12D3 PUSH1 0x4 DUP1 CALLDATASIZE SUB DUP2 ADD SWAP1 PUSH2 0x12CE SWAP2 SWAP1 PUSH2 0x9DAC JUMP JUMPDEST PUSH2 0x4D50 JUMP JUMPDEST PUSH1 0x40 MLOAD PUSH2 0x12E0 SWAP2 SWAP1 PUSH2 0x9E04 JUMP JUMPDEST PUSH1 0x40 MLOAD DUP1 SWAP2 SUB SWAP1 RETURN JUMPDEST CALLVALUE DUP1 ISZERO PUSH2 0x12F4 JUMPI PUSH0 PUSH0 REVERT JUMPDEST POP PUSH2 0x12FD PUSH2 0x4D72 JUMP JUMPDEST PUSH1 0x40 MLOAD PUSH2 0x130A SWAP2 SWAP1 PUSH2 0xA08A JUMP JUMPDEST PUSH1 0x40 MLOAD DUP1 SWAP2 SUB SWAP1 RETURN JUMPDEST CALLVALUE DUP1 ISZERO PUSH2 0x131E JUMPI PUSH0 PUSH0 REVERT JUMPDEST POP PUSH2 0x1339 PUSH1 0x4 DUP1 CALLDATASIZE SUB DUP2 ADD SWAP1 PUSH2 0x1334 SWAP2 SWAP1 PUSH2 0x9DAC JUMP JUMPDEST PUSH2 0x4D78 JUMP JUMPDEST STOP JUMPDEST CALLVALUE DUP1 ISZERO PUSH2 0x1346 JUMPI PUSH0 PUSH0 REVERT JUMPDEST POP PUSH2 0x1361 PUSH1 0x4 DUP1 CALLDATASIZE SUB DUP2 ADD SWAP1 PUSH2 0x135C SWAP2 SWAP1 PUSH2 0xA136 JUMP JUMPDEST PUSH2 0x528E JUMP JUMPDEST STOP JUMPDEST CALLVALUE DUP1 ISZERO PUSH2 0x136E JUMPI PUSH0 PUSH0 REVERT JUMPDEST POP PUSH2 0x1377 PUSH2 0x53FD JUMP JUMPDEST PUSH1 0x40 MLOAD PUSH2 0x1384 SWAP2 SWAP1 PUSH2 0xA08A JUMP JUMPDEST PUSH1 0x40 MLOAD DUP1 SWAP2 SUB SWAP1 RETURN JUMPDEST CALLVALUE DUP1 ISZERO PUSH2 0x1398 JUMPI PUSH0 PUSH0 REVERT JUMPDEST POP PUSH2 0x13B3 PUSH1 0x4 DUP1 CALLDATASIZE SUB DUP2 ADD SWAP1 PUSH2 0x13AE SWAP2 SWAP1 PUSH2 0xA136 JUMP JUMPDEST PUSH2 0x5403 JUMP JUMPDEST STOP JUMPDEST CALLVALUE DUP1 ISZERO PUSH2 0x13C0 JUMPI PUSH0 PUSH0 REVERT JUMPDEST POP PUSH2 0x13C9 PUSH2 0x5572 JUMP JUMPDEST PUSH1 0x40 MLOAD PUSH2 0x13D6 SWAP2 SWAP1 PUSH2 0x9E04 JUMP JUMPDEST PUSH1 0x40 MLOAD DUP1 SWAP2 SUB SWAP1 RETURN JUMPDEST CALLVALUE DUP1 ISZERO PUSH2 0x13EA JUMPI PUSH0 PUSH0 REVERT JUMPDEST POP PUSH2 0x13F3 PUSH2 0x5584 JUMP JUMPDEST PUSH1 0x40 MLOAD PUSH2 0x1400 SWAP2 SWAP1 PUSH2 0xA08A JUMP JUMPDEST PUSH1 0x40 MLOAD DUP1 SWAP2 SUB SWAP1 RETURN JUMPDEST CALLVALUE DUP1 ISZERO PUSH2 0x1414 JUMPI PUSH0 PUSH0 REVERT JUMPDEST POP PUSH2 0x142F PUSH1 0x4 DUP1 CALLDATASIZE SUB DUP2 ADD SWAP1 PUSH2 0x142A SWAP2 SWAP1 PUSH2 0x9E95 JUMP JUMPDEST PUSH2 0x558A JUMP JUMPDEST STOP JUMPDEST CALLVALUE DUP1 ISZERO PUSH2 0x143C JUMPI PUSH0 PUSH0 REVERT JUMPDEST POP PUSH2 0x1457 PUSH1 0x4 DUP1 CALLDATASIZE SUB DUP2 ADD SWAP1 PUSH2 0x1452 SWAP2 SWAP1 PUSH2 0x9E95 JUMP JUMPDEST PUSH2 0x5698 JUMP JUMPDEST STOP JUMPDEST CALLVALUE DUP1 ISZERO PUSH2 0x1464 JUMPI PUSH0 PUSH0 REVERT JUMPDEST POP PUSH2 0x147F PUSH1 0x4 DUP1 CALLDATASIZE SUB DUP2 ADD SWAP1 PUSH2 0x147A SWAP2 SWAP1 PUSH2 0xA0CD JUMP JUMPDEST PUSH2 0x57B8 JUMP JUMPDEST STOP JUMPDEST CALLVALUE DUP1 ISZERO PUSH2 0x148C JUMPI PUSH0 PUSH0 REVERT JUMPDEST POP PUSH2 0x1495 PUSH2 0x589C JUMP JUMPDEST PUSH1 0x40 MLOAD PUSH2 0x14A2 SWAP2 SWAP1 PUSH2 0x9E7C JUMP JUMPDEST PUSH1 0x40 MLOAD DUP1 SWAP2 SUB SWAP1 RETURN JUMPDEST CALLVALUE DUP1 ISZERO PUSH2 0x14B6 JUMPI PUSH0 PUSH0 REVERT JUMPDEST POP PUSH2 0x14BF PUSH2 0x58C0 JUMP JUMPDEST PUSH1 0x40 MLOAD PUSH2 0x14CC SWAP2 SWAP1 PUSH2 0x9E7C JUMP JUMPDEST PUSH1 0x40 MLOAD DUP1 SWAP2 SUB SWAP1 RETURN JUMPDEST CALLVALUE DUP1 ISZERO PUSH2 0x14E0 JUMPI PUSH0 PUSH0 REVERT JUMPDEST POP PUSH2 0x14FB PUSH1 0x4 DUP1 CALLDATASIZE SUB DUP2 ADD SWAP1 PUSH2 0x14F6 SWAP2 SWAP1 PUSH2 0xA507 JUMP JUMPDEST PUSH2 0x58E5 JUMP JUMPDEST STOP JUMPDEST CALLVALUE DUP1 ISZERO PUSH2 0x1508 JUMPI PUSH0 PUSH0 REVERT JUMPDEST POP PUSH2 0x1523 PUSH1 0x4 DUP1 CALLDATASIZE SUB DUP2 ADD SWAP1 PUSH2 0x151E SWAP2 SWAP1 PUSH2 0x9E95 JUMP JUMPDEST PUSH2 0x5A0D JUMP JUMPDEST STOP JUMPDEST CALLVALUE DUP1 ISZERO PUSH2 0x1530 JUMPI PUSH0 PUSH0 REVERT JUMPDEST POP PUSH2 0x1539 PUSH2 0x5B56 JUMP JUMPDEST PUSH1 0x40 MLOAD PUSH2 0x1546 SWAP2 SWAP1 PUSH2 0xA08A JUMP JUMPDEST PUSH1 0x40 MLOAD DUP1 SWAP2 SUB SWAP1 RETURN JUMPDEST CALLVALUE DUP1 ISZERO PUSH2 0x155A JUMPI PUSH0 PUSH0 REVERT JUMPDEST POP PUSH2 0x1563 PUSH2 0x5B5C JUMP JUMPDEST PUSH1 0x40 MLOAD PUSH2 0x1570 SWAP2 SWAP1 PUSH2 0xA08A JUMP JUMPDEST PUSH1 0x40 MLOAD DUP1 SWAP2 SUB SWAP1 RETURN JUMPDEST CALLVALUE DUP1 ISZERO PUSH2 0x1584 JUMPI PUSH0 PUSH0 REVERT JUMPDEST POP PUSH2 0x159F PUSH1 0x4 DUP1 CALLDATASIZE SUB DUP2 ADD SWAP1 PUSH2 0x159A SWAP2 SWAP1 PUSH2 0xA4C9 JUMP JUMPDEST PUSH2 0x5B62 JUMP JUMPDEST STOP JUMPDEST CALLVALUE DUP1 ISZERO PUSH2 0x15AC JUMPI PUSH0 PUSH0 REVERT JUMPDEST POP PUSH2 0x15B5 PUSH2 0x5C81 JUMP JUMPDEST PUSH1 0x40 MLOAD PUSH2 0x15C2 SWAP2 SWAP1 PUSH2 0xA08A JUMP JUMPDEST PUSH1 0x40 MLOAD DUP1 SWAP2 SUB SWAP1 RETURN JUMPDEST CALLVALUE DUP1 ISZERO PUSH2 0x15D6 JUMPI PUSH0 PUSH0 REVERT JUMPDEST POP PUSH2 0x15DF PUSH2 0x5C86 JUMP JUMPDEST PUSH1 0x40 MLOAD PUSH2 0x15EC SWAP2 SWAP1 PUSH2 0xA08A JUMP JUMPDEST PUSH1 0x40 MLOAD DUP1 SWAP2 SUB SWAP1 RETURN JUMPDEST CALLVALUE DUP1 ISZERO PUSH2 0x1600 JUMPI PUSH0 PUSH0 REVERT JUMPDEST POP PUSH2 0x161B PUSH1 0x4 DUP1 CALLDATASIZE SUB DUP2 ADD SWAP1 PUSH2 0x1616 SWAP2 SWAP1 PUSH2 0xA545 JUMP JUMPDEST PUSH2 0x5C8C JUMP JUMPDEST PUSH1 0x40 MLOAD PUSH2 0x1628 SWAP2 SWAP1 PUSH2 0xA08A JUMP JUMPDEST PUSH1 0x40 MLOAD DUP1 SWAP2 SUB SWAP1 RETURN JUMPDEST CALLVALUE DUP1 ISZERO PUSH2 0x163C JUMPI PUSH0 PUSH0 REVERT JUMPDEST POP PUSH2 0x1657 PUSH1 0x4 DUP1 CALLDATASIZE SUB DUP2 ADD SWAP1 PUSH2 0x1652 SWAP2 SWAP1 PUSH2 0xA136 JUMP JUMPDEST PUSH2 0x5D0E JUMP JUMPDEST PUSH1 0x40 MLOAD PUSH2 0x1666 SWAP4 SWAP3 SWAP2 SWAP1 PUSH2 0xA583 JUMP JUMPDEST PUSH1 0x40 MLOAD DUP1 SWAP2 SUB SWAP1 RETURN JUMPDEST CALLVALUE DUP1 ISZERO PUSH2 0x167A JUMPI PUSH0 PUSH0 REVERT JUMPDEST POP PUSH2 0x1683 PUSH2 0x5D34 JUMP JUMPDEST PUSH1 0x40 MLOAD PUSH2 0x1690 SWAP2 SWAP1 PUSH2 0xA08A JUMP JUMPDEST PUSH1 0x40 MLOAD DUP1 SWAP2 SUB SWAP1 RETURN JUMPDEST CALLVALUE DUP1 ISZERO PUSH2 0x16A4 JUMPI PUSH0 PUSH0 REVERT JUMPDEST POP PUSH2 0x16AD PUSH2 0x5D3A JUMP JUMPDEST PUSH1 0x40 MLOAD PUSH2 0x16BA SWAP2 SWAP1 PUSH2 0xA08A JUMP JUMPDEST PUSH1 0x40 MLOAD DUP1 SWAP2 SUB SWAP1 RETURN JUMPDEST CALLVALUE DUP1 ISZERO PUSH2 0x16CE JUMPI PUSH0 PUSH0 REVERT JUMPDEST POP PUSH2 0x16D7 PUSH2 0x5D40 JUMP JUMPDEST PUSH1 0x40 MLOAD PUSH2 0x16E4 SWAP2 SWAP1 PUSH2 0xA08A JUMP JUMPDEST PUSH1 0x40 MLOAD DUP1 SWAP2 SUB SWAP1 RETURN JUMPDEST CALLVALUE DUP1 ISZERO PUSH2 0x16F8 JUMPI PUSH0 PUSH0 REVERT JUMPDEST POP PUSH2 0x1701 PUSH2 0x5D46 JUMP JUMPDEST PUSH1 0x40 MLOAD PUSH2 0x170E SWAP2 SWAP1 PUSH2 0x9E7C JUMP JUMPDEST PUSH1 0x40 MLOAD DUP1 SWAP2 SUB SWAP1 RETURN JUMPDEST CALLVALUE DUP1 ISZERO PUSH2 0x1722 JUMPI PUSH0 PUSH0 REVERT JUMPDEST POP PUSH2 0x172B PUSH2 0x5D6B JUMP JUMPDEST PUSH1 0x40 MLOAD PUSH2 0x1738 SWAP2 SWAP1 PUSH2 0xA08A JUMP JUMPDEST PUSH1 0x40 MLOAD DUP1 SWAP2 SUB SWAP1 RETURN JUMPDEST CALLVALUE DUP1 ISZERO PUSH2 0x174C JUMPI PUSH0 PUSH0 REVERT JUMPDEST POP PUSH2 0x1767 PUSH1 0x4 DUP1 CALLDATASIZE SUB DUP2 ADD SWAP1 PUSH2 0x1762 SWAP2 SWAP1 PUSH2 0xA136 JUMP JUMPDEST PUSH2 0x5D71 JUMP JUMPDEST PUSH1 0x40 MLOAD PUSH2 0x1774 SWAP2 SWAP1 PUSH2 0x9E7C JUMP JUMPDEST PUSH1 0x40 MLOAD DUP1 SWAP2 SUB SWAP1 RETURN JUMPDEST CALLVALUE DUP1 ISZERO PUSH2 0x1788 JUMPI PUSH0 PUSH0 REVERT JUMPDEST POP PUSH2 0x1791 PUSH2 0x5DA1 JUMP JUMPDEST PUSH1 0x40 MLOAD PUSH2 0x179E SWAP2 SWAP1 PUSH2 0xA08A JUMP JUMPDEST PUSH1 0x40 MLOAD DUP1 SWAP2 SUB SWAP1 RETURN JUMPDEST CALLVALUE DUP1 ISZERO PUSH2 0x17B2 JUMPI PUSH0 PUSH0 REVERT JUMPDEST POP PUSH2 0x17BB PUSH2 0x5DA7 JUMP JUMPDEST PUSH1 0x40 MLOAD PUSH2 0x17C8 SWAP2 SWAP1 PUSH2 0xA08A JUMP JUMPDEST PUSH1 0x40 MLOAD DUP1 SWAP2 SUB SWAP1 RETURN JUMPDEST CALLVALUE DUP1 ISZERO PUSH2 0x17DC JUMPI PUSH0 PUSH0 REVERT JUMPDEST POP PUSH2 0x17E5 PUSH2 0x5DAD JUMP JUMPDEST PUSH1 0x40 MLOAD PUSH2 0x17F2 SWAP2 SWAP1 PUSH2 0xA08A JUMP JUMPDEST PUSH1 0x40 MLOAD DUP1 SWAP2 SUB SWAP1 RETURN JUMPDEST CALLVALUE DUP1 ISZERO PUSH2 0x1806 JUMPI PUSH0 PUSH0 REVERT JUMPDEST POP PUSH2 0x1821 PUSH1 0x4 DUP1 CALLDATASIZE SUB DUP2 ADD SWAP1 PUSH2 0x181C SWAP2 SWAP1 PUSH2 0xA136 JUMP JUMPDEST PUSH2 0x5DB3 JUMP JUMPDEST STOP JUMPDEST PUSH2 0x182B PUSH2 0x5E37 JUMP JUMPDEST STOP JUMPDEST CALLVALUE DUP1 ISZERO PUSH2 0x1838 JUMPI PUSH0 PUSH0 REVERT JUMPDEST POP PUSH2 0x1853 PUSH1 0x4 DUP1 CALLDATASIZE SUB DUP2 ADD SWAP1 PUSH2 0x184E SWAP2 SWAP1 PUSH2 0xA5B8 JUMP JUMPDEST PUSH2 0x5EA0 JUMP JUMPDEST STOP JUMPDEST CALLVALUE DUP1 ISZERO PUSH2 0x1860 JUMPI PUSH0 PUSH0 REVERT JUMPDEST POP PUSH2 0x1869 PUSH2 0x5F9E JUMP JUMPDEST PUSH1 0x40 MLOAD PUSH2 0x1876 SWAP2 SWAP1 PUSH2 0xA08A JUMP JUMPDEST PUSH1 0x40 MLOAD DUP1 SWAP2 SUB SWAP1 RETURN JUMPDEST CALLVALUE DUP1 ISZERO PUSH2 0x188A JUMPI PUSH0 PUSH0 REVERT JUMPDEST POP PUSH2 0x18A5 PUSH1 0x4 DUP1 CALLDATASIZE SUB DUP2 ADD SWAP1 PUSH2 0x18A0 SWAP2 SWAP1 PUSH2 0xA0F8 JUMP JUMPDEST PUSH2 0x5FA4 JUMP JUMPDEST STOP JUMPDEST CALLVALUE DUP1 ISZERO PUSH2 0x18B2 JUMPI PUSH0 PUSH0 REVERT JUMPDEST POP PUSH2 0x18CD PUSH1 0x4 DUP1 CALLDATASIZE SUB DUP2 ADD SWAP1 PUSH2 0x18C8 SWAP2 SWAP1 PUSH2 0xA136 JUMP JUMPDEST PUSH2 0x60C7 JUMP JUMPDEST PUSH1 0x40 MLOAD PUSH2 0x18DA SWAP2 SWAP1 PUSH2 0x9E04 JUMP JUMPDEST PUSH1 0x40 MLOAD DUP1 SWAP2 SUB SWAP1 RETURN JUMPDEST CALLVALUE DUP1 ISZERO PUSH2 0x18EE JUMPI PUSH0 PUSH0 REVERT JUMPDEST POP PUSH2 0x18F7 PUSH2 0x60E4 JUMP JUMPDEST STOP JUMPDEST PUSH1 0x30 PUSH1 0x1 SWAP1 SLOAD SWAP1 PUSH2 0x100 EXP SWAP1 DIV PUSH1 0xFF AND ISZERO PUSH2 0x1940 JUMPI PUSH1 0x40 MLOAD PUSH32 0xD93C066500000000000000000000000000000000000000000000000000000000 DUP2 MSTORE PUSH1 0x4 ADD PUSH1 0x40 MLOAD DUP1 SWAP2 SUB SWAP1 REVERT JUMPDEST JUMP JUMPDEST PUSH0 PUSH1 0x31 SLOAD EQ PUSH2 0x197D JUMPI PUSH1 0x40 MLOAD PUSH32 0xA97AF87000000000000000000000000000000000000000000000000000000000 DUP2 MSTORE PUSH1 0x4 ADD PUSH1 0x40 MLOAD DUP1 SWAP2 SUB SWAP1 REVERT JUMPDEST PUSH1 0x1 PUSH1 0x31 DUP2 SWAP1 SSTORE POP JUMP JUMPDEST PUSH2 0x198F PUSH2 0x6215 JUMP JUMPDEST PUSH1 0x2C PUSH0 SWAP1 SLOAD SWAP1 PUSH2 0x100 EXP SWAP1 DIV PUSH1 0xFF AND DUP1 ISZERO PUSH2 0x19B9 JUMPI POP PUSH1 0x2F SLOAD PUSH1 0x2A SLOAD PUSH2 0x19B5 SWAP2 SWAP1 PUSH2 0xA663 JUMP JUMPDEST TIMESTAMP LT ISZERO JUMPDEST ISZERO PUSH2 0x19C7 JUMPI PUSH2 0x19C6 PUSH2 0x6311 JUMP JUMPDEST JUMPDEST PUSH2 0x19EA PUSH1 0x1 PUSH3 0x15180 TIMESTAMP PUSH2 0x19DB SWAP2 SWAP1 PUSH2 0xA6C3 JUMP JUMPDEST PUSH2 0x19E5 SWAP2 SWAP1 PUSH2 0xA6F3 JUMP JUMPDEST PUSH2 0x6628 JUMP JUMPDEST JUMP JUMPDEST PUSH1 0x1D PUSH0 DUP3 PUSH20 0xFFFFFFFFFFFFFFFFFFFFFFFFFFFFFFFFFFFFFFFF AND PUSH20 0xFFFFFFFFFFFFFFFFFFFFFFFFFFFFFFFFFFFFFFFF AND DUP2 MSTORE PUSH1 0x20 ADD SWAP1 DUP2 MSTORE PUSH1 0x20 ADD PUSH0 KECCAK256 PUSH0 SWAP1 SLOAD SWAP1 PUSH2 0x100 EXP SWAP1 DIV PUSH1 0xFF AND ISZERO PUSH2 0x1A6D JUMPI PUSH1 0x40 MLOAD PUSH32 0x9550C7700000000000000000000000000000000000000000000000000000000 DUP2 MSTORE PUSH1 0x4 ADD PUSH1 0x40 MLOAD DUP1 SWAP2 SUB SWAP1 REVERT JUMPDEST PUSH0 PUSH1 0x17 PUSH0 DUP4 PUSH20 0xFFFFFFFFFFFFFFFFFFFFFFFFFFFFFFFFFFFFFFFF AND PUSH20 0xFFFFFFFFFFFFFFFFFFFFFFFFFFFFFFFFFFFFFFFF AND DUP2 MSTORE PUSH1 0x20 ADD SWAP1 DUP2 MSTORE PUSH1 0x20 ADD PUSH0 KECCAK256 SWAP1 POP PUSH0 DUP2 PUSH1 0x2 ADD SLOAD EQ DUP1 PUSH2 0x1AC1 JUMPI POP PUSH0 DUP2 PUSH0 ADD SLOAD EQ JUMPDEST ISZERO PUSH2 0x1AF8 JUMPI PUSH1 0x40 MLOAD PUSH32 0x2C5211C600000000000000000000000000000000000000000000000000000000 DUP2 MSTORE PUSH1 0x4 ADD PUSH1 0x40 MLOAD DUP1 SWAP2 SUB SWAP1 REVERT JUMPDEST DUP1 PUSH1 0x2 ADD SLOAD TIMESTAMP GT ISZERO PUSH2 0x1B36 JUMPI PUSH1 0x40 MLOAD PUSH32 0x70F65CAA00000000000000000000000000000000000000000000000000000000 DUP2 MSTORE PUSH1 0x4 ADD PUSH1 0x40 MLOAD DUP1 SWAP2 SUB SWAP1 REVERT JUMPDEST PUSH0 PUSH3 0x15180 PUSH1 0xC SLOAD PUSH2 0x1B48 SWAP2 SWAP1 PUSH2 0xA726 JUMP JUMPDEST PUSH1 0xD SLOAD PUSH2 0x1B55 SWAP2 SWAP1 PUSH2 0xA6F3 JUMP JUMPDEST SWAP1 POP DUP1 DUP3 PUSH1 0x2 ADD SLOAD GT DUP1 ISZERO PUSH2 0x1B78 JUMPI POP DUP1 DUP3 PUSH1 0x2 ADD SLOAD PUSH2 0x1B75 SWAP2 SWAP1 PUSH2 0xA6F3 JUMP JUMPDEST TIMESTAMP LT JUMPDEST ISZERO PUSH2 0x1BAF JUMPI PUSH1 0x40 MLOAD PUSH32 0xD0404F8500000000000000000000000000000000000000000000000000000000 DUP2 MSTORE PUSH1 0x4 ADD PUSH1 0x40 MLOAD DUP1 SWAP2 SUB SWAP1 REVERT JUMPDEST PUSH0 DUP3 PUSH0 ADD SLOAD SWAP1 POP PUSH0 PUSH3 0xF4240 PUSH1 0xC SLOAD PUSH1 0xE SLOAD DUP5 PUSH2 0x1BCC SWAP2 SWAP1 PUSH2 0xA726 JUMP JUMPDEST PUSH2 0x1BD6 SWAP2 SWAP1 PUSH2 0xA726 JUMP JUMPDEST PUSH2 0x1BE0 SWAP2 SWAP1 PUSH2 0xA6C3 JUMP JUMPDEST SWAP1 POP PUSH0 PUSH3 0xF4240 PUSH1 0xF SLOAD DUP5 PUSH2 0x1BF5 SWAP2 SWAP1 PUSH2 0xA726 JUMP JUMPDEST PUSH2 0x1BFF SWAP2 SWAP1 PUSH2 0xA6C3 JUMP JUMPDEST SWAP1 POP PUSH0 PUSH2 0x1C0C DUP8 DUP4 PUSH2 0x6763 JUMP JUMPDEST SWAP1 POP DUP2 DUP2 LT ISZERO PUSH2 0x1C48 JUMPI PUSH1 0x40 MLOAD PUSH32 0x90B8EC1800000000000000000000000000000000000000000000000000000000 DUP2 MSTORE PUSH1 0x4 ADD PUSH1 0x40 MLOAD DUP1 SWAP2 SUB SWAP1 REVERT JUMPDEST PUSH2 0x1C6E DUP8 PUSH3 0xF4240 PUSH3 0xB71B0 DUP7 PUSH2 0x1C5F SWAP2 SWAP1 PUSH2 0xA726 JUMP JUMPDEST PUSH2 0x1C69 SWAP2 SWAP1 PUSH2 0xA6C3 JUMP JUMPDEST PUSH2 0x6878 JUMP JUMPDEST POP POP PUSH2 0x1C7A DUP8 DUP5 PUSH2 0x6928 JUMP JUMPDEST PUSH2 0x1C82 PUSH2 0x6D2C JUMP JUMPDEST ISZERO PUSH2 0x1D09 JUMPI PUSH2 0x1C8F PUSH2 0x6D83 JUMP JUMPDEST PUSH20 0xFFFFFFFFFFFFFFFFFFFFFFFFFFFFFFFFFFFFFFFF AND PUSH4 0xB6DFE6AD DUP9 PUSH1 0x40 MLOAD DUP3 PUSH4 0xFFFFFFFF AND PUSH1 0xE0 SHL DUP2 MSTORE PUSH1 0x4 ADD PUSH2 0x1CC7 SWAP2 SWAP1 PUSH2 0x9E7C JUMP JUMPDEST PUSH1 0x20 PUSH1 0x40 MLOAD DUP1 DUP4 SUB DUP2 PUSH0 DUP8 GAS CALL ISZERO DUP1 ISZERO PUSH2 0x1CE3 JUMPI RETURNDATASIZE PUSH0 PUSH0 RETURNDATACOPY RETURNDATASIZE PUSH0 REVERT JUMPDEST POP POP POP POP PUSH1 0x40 MLOAD RETURNDATASIZE PUSH1 0x1F NOT PUSH1 0x1F DUP3 ADD AND DUP3 ADD DUP1 PUSH1 0x40 MSTORE POP DUP2 ADD SWAP1 PUSH2 0x1D07 SWAP2 SWAP1 PUSH2 0xA77B JUMP JUMPDEST POP JUMPDEST PUSH2 0x1D12 DUP8 PUSH2 0x6DAB JUMP JUMPDEST PUSH2 0x1D1A PUSH2 0x6F6C JUMP JUMPDEST POP POP POP POP POP POP POP JUMP JUMPDEST PUSH0 PUSH1 0x31 DUP2 SWAP1 SSTORE POP JUMP JUMPDEST PUSH1 0x1D PUSH0 DUP5 PUSH20 0xFFFFFFFFFFFFFFFFFFFFFFFFFFFFFFFFFFFFFFFF AND PUSH20 0xFFFFFFFFFFFFFFFFFFFFFFFFFFFFFFFFFFFFFFFF AND DUP2 MSTORE PUSH1 0x20 ADD SWAP1 DUP2 MSTORE PUSH1 0x20 ADD PUSH0 KECCAK256 PUSH0 SWAP1 SLOAD SWAP1 PUSH2 0x100 EXP SWAP1 DIV PUSH1 0xFF AND ISZERO PUSH2 0x1DAD JUMPI PUSH1 0x40 MLOAD PUSH32 0x9550C7700000000000000000000000000000000000000000000000000000000 DUP2 MSTORE PUSH1 0x4 ADD PUSH1 0x40 MLOAD DUP1 SWAP2 SUB SWAP1 REVERT JUMPDEST PUSH0 PUSH1 0x17 PUSH0 DUP6 PUSH20 0xFFFFFFFFFFFFFFFFFFFFFFFFFFFFFFFFFFFFFFFF AND PUSH20 0xFFFFFFFFFFFFFFFFFFFFFFFFFFFFFFFFFFFFFFFF AND DUP2 MSTORE PUSH1 0x20 ADD SWAP1 DUP2 MSTORE PUSH1 0x20 ADD PUSH0 KECCAK256 SWAP1 POP DUP2 PUSH2 0x1F25 JUMPI PUSH0 DUP2 PUSH1 0x2 ADD SLOAD SUB PUSH2 0x1E2F JUMPI PUSH1 0x40 MLOAD PUSH32 0x2C5211C600000000000000000000000000000000000000000000000000000000 DUP2 MSTORE PUSH1 0x4 ADD PUSH1 0x40 MLOAD DUP1 SWAP2 SUB SWAP1 REVERT JUMPDEST DUP1 PUSH1 0x2 ADD SLOAD TIMESTAMP GT ISZERO PUSH2 0x1E6D JUMPI PUSH1 0x40 MLOAD PUSH32 0x70F65CAA00000000000000000000000000000000000000000000000000000000 DUP2 MSTORE PUSH1 0x4 ADD PUSH1 0x40 MLOAD DUP1 SWAP2 SUB SWAP1 REVERT JUMPDEST DUP1 PUSH0 ADD SLOAD DUP4 LT ISZERO PUSH2 0x1EAA JUMPI PUSH1 0x40 MLOAD PUSH32 0x2C5211C600000000000000000000000000000000000000000000000000000000 DUP2 MSTORE PUSH1 0x4 ADD PUSH1 0x40 MLOAD DUP1 SWAP2 SUB SWAP1 REVERT JUMPDEST PUSH0 PUSH3 0x15180 PUSH1 0xC SLOAD PUSH2 0x1EBC SWAP2 SWAP1 PUSH2 0xA726 JUMP JUMPDEST PUSH1 0xD SLOAD PUSH2 0x1EC9 SWAP2 SWAP1 PUSH2 0xA6F3 JUMP JUMPDEST SWAP1 POP DUP1 DUP3 PUSH1 0x2 ADD SLOAD GT DUP1 ISZERO PUSH2 0x1EEC JUMPI POP DUP1 DUP3 PUSH1 0x2 ADD SLOAD PUSH2 0x1EE9 SWAP2 SWAP1 PUSH2 0xA6F3 JUMP JUMPDEST TIMESTAMP LT JUMPDEST ISZERO PUSH2 0x1F23 JUMPI PUSH1 0x40 MLOAD PUSH32 0xD0404F8500000000000000000000000000000000000000000000000000000000 DUP2 MSTORE PUSH1 0x4 ADD PUSH1 0x40 MLOAD DUP1 SWAP2 SUB SWAP1 REVERT JUMPDEST POP JUMPDEST PUSH0 DUP2 PUSH0 ADD SLOAD SWAP1 POP PUSH0 PUSH3 0xF4240 PUSH1 0xC SLOAD PUSH1 0xE SLOAD DUP5 PUSH2 0x1F42 SWAP2 SWAP1 PUSH2 0xA726 JUMP JUMPDEST PUSH2 0x1F4C SWAP2 SWAP1 PUSH2 0xA726 JUMP JUMPDEST PUSH2 0x1F56 SWAP2 SWAP1 PUSH2 0xA6C3 JUMP JUMPDEST SWAP1 POP PUSH2 0x1F61 DUP6 PUSH2 0x7050 JUMP JUMPDEST PUSH0 PUSH3 0xF4240 PUSH1 0xF SLOAD DUP5 PUSH2 0x1F74 SWAP2 SWAP1 PUSH2 0xA726 JUMP JUMPDEST PUSH2 0x1F7E SWAP2 SWAP1 PUSH2 0xA6C3 JUMP JUMPDEST SWAP1 POP PUSH0 PUSH2 0x1F8B DUP9 DUP4 PUSH2 0x6763 JUMP JUMPDEST SWAP1 POP DUP2 DUP2 LT ISZERO PUSH2 0x1FC7 JUMPI PUSH1 0x40 MLOAD PUSH32 0x90B8EC1800000000000000000000000000000000000000000000000000000000 DUP2 MSTORE PUSH1 0x4 ADD PUSH1 0x40 MLOAD DUP1 SWAP2 SUB SWAP1 REVERT JUMPDEST PUSH2 0x1FED DUP9 PUSH3 0xF4240 PUSH3 0xB71B0 DUP7 PUSH2 0x1FDE SWAP2 SWAP1 PUSH2 0xA726 JUMP JUMPDEST PUSH2 0x1FE8 SWAP2 SWAP1 PUSH2 0xA6C3 JUMP JUMPDEST PUSH2 0x6878 JUMP JUMPDEST POP POP PUSH2 0x1FF9 DUP9 DUP5 PUSH2 0x6928 JUMP JUMPDEST DUP4 DUP8 GT ISZERO PUSH2 0x20B8 JUMPI PUSH0 PUSH1 0x12 SLOAD PUSH1 0x11 SLOAD PUSH1 0x10 SLOAD PUSH3 0xF4240 PUSH2 0x2019 SWAP2 SWAP1 PUSH2 0xA6F3 JUMP JUMPDEST PUSH2 0x2023 SWAP2 SWAP1 PUSH2 0xA6F3 JUMP JUMPDEST PUSH2 0x202D SWAP2 SWAP1 PUSH2 0xA6F3 JUMP JUMPDEST SWAP1 POP PUSH0 PUSH3 0xF4240 DUP3 DUP8 DUP12 PUSH2 0x2041 SWAP2 SWAP1 PUSH2 0xA6F3 JUMP JUMPDEST PUSH2 0x204B SWAP2 SWAP1 PUSH2 0xA726 JUMP JUMPDEST PUSH2 0x2055 SWAP2 SWAP1 PUSH2 0xA6C3 JUMP JUMPDEST SWAP1 POP PUSH0 DUP3 PUSH1 0x13 SLOAD DUP4 PUSH2 0x2067 SWAP2 SWAP1 PUSH2 0xA726 JUMP JUMPDEST PUSH2 0x2071 SWAP2 SWAP1 PUSH2 0xA6C3 JUMP JUMPDEST SWAP1 POP DUP1 PUSH1 0x26 PUSH0 DUP3 DUP3 SLOAD PUSH2 0x2084 SWAP2 SWAP1 PUSH2 0xA663 JUMP JUMPDEST SWAP3 POP POP DUP2 SWAP1 SSTORE POP PUSH2 0x209F DUP2 DUP4 PUSH2 0x209A SWAP2 SWAP1 PUSH2 0xA6F3 JUMP JUMPDEST PUSH2 0x71BA JUMP JUMPDEST PUSH2 0x20B4 DUP12 DUP9 DUP13 PUSH2 0x20AF SWAP2 SWAP1 PUSH2 0xA6F3 JUMP JUMPDEST PUSH2 0x7682 JUMP JUMPDEST POP POP POP JUMPDEST DUP7 DUP6 PUSH0 ADD DUP2 SWAP1 SSTORE POP PUSH1 0xD SLOAD TIMESTAMP PUSH2 0x20CE SWAP2 SWAP1 PUSH2 0xA663 JUMP JUMPDEST DUP6 PUSH1 0x2 ADD DUP2 SWAP1 SSTORE POP PUSH2 0x20DE PUSH2 0x6D2C JUMP JUMPDEST ISZERO PUSH2 0x21EB JUMPI PUSH2 0x20EB PUSH2 0x6D83 JUMP JUMPDEST PUSH20 0xFFFFFFFFFFFFFFFFFFFFFFFFFFFFFFFFFFFFFFFF AND PUSH4 0xB6DFE6AD DUP10 PUSH1 0x40 MLOAD DUP3 PUSH4 0xFFFFFFFF AND PUSH1 0xE0 SHL DUP2 MSTORE PUSH1 0x4 ADD PUSH2 0x2123 SWAP2 SWAP1 PUSH2 0x9E7C JUMP JUMPDEST PUSH1 0x20 PUSH1 0x40 MLOAD DUP1 DUP4 SUB DUP2 PUSH0 DUP8 GAS CALL ISZERO DUP1 ISZERO PUSH2 0x213F JUMPI RETURNDATASIZE PUSH0 PUSH0 RETURNDATACOPY RETURNDATASIZE PUSH0 REVERT JUMPDEST POP POP POP POP PUSH1 0x40 MLOAD RETURNDATASIZE PUSH1 0x1F NOT PUSH1 0x1F DUP3 ADD AND DUP3 ADD DUP1 PUSH1 0x40 MSTORE POP DUP2 ADD SWAP1 PUSH2 0x2163 SWAP2 SWAP1 PUSH2 0xA77B JUMP JUMPDEST POP PUSH1 0x16 SLOAD DUP8 LT PUSH2 0x2178 JUMPI PUSH2 0x2177 DUP9 DUP9 PUSH2 0x77A5 JUMP JUMPDEST JUMPDEST PUSH2 0x2180 PUSH2 0x6D83 JUMP JUMPDEST PUSH20 0xFFFFFFFFFFFFFFFFFFFFFFFFFFFFFFFFFFFFFFFF AND PUSH4 0xFF117898 DUP10 DUP10 PUSH1 0x1 PUSH1 0x40 MLOAD DUP5 PUSH4 0xFFFFFFFF AND PUSH1 0xE0 SHL DUP2 MSTORE PUSH1 0x4 ADD PUSH2 0x21BD SWAP4 SWAP3 SWAP2 SWAP1 PUSH2 0xA7A6 JUMP JUMPDEST PUSH0 PUSH1 0x40 MLOAD DUP1 DUP4 SUB DUP2 PUSH0 DUP8 DUP1 EXTCODESIZE ISZERO DUP1 ISZERO PUSH2 0x21D4 JUMPI PUSH0 PUSH0 REVERT JUMPDEST POP GAS CALL ISZERO DUP1 ISZERO PUSH2 0x21E6 JUMPI RETURNDATASIZE PUSH0 PUSH0 RETURNDATACOPY RETURNDATASIZE PUSH0 REVERT JUMPDEST POP POP POP POP JUMPDEST PUSH2 0x21F3 PUSH2 0x6F6C JUMP JUMPDEST DUP8 PUSH20 0xFFFFFFFFFFFFFFFFFFFFFFFFFFFFFFFFFFFFFFFF AND PUSH32 0x820CEA42E8517CF1EC6D4E9DB93909255F07C45F7EB0A7C7B5A0F8BDCFC2E5BF DUP9 DUP8 PUSH1 0x2 ADD SLOAD PUSH1 0x40 MLOAD PUSH2 0x223F SWAP3 SWAP2 SWAP1 PUSH2 0xA212 JUMP JUMPDEST PUSH1 0x40 MLOAD DUP1 SWAP2 SUB SWAP1 LOG2 POP POP POP POP POP POP POP POP JUMP JUMPDEST PUSH1 0x1D PUSH0 DUP4 PUSH20 0xFFFFFFFFFFFFFFFFFFFFFFFFFFFFFFFFFFFFFFFF AND PUSH20 0xFFFFFFFFFFFFFFFFFFFFFFFFFFFFFFFFFFFFFFFF AND DUP2 MSTORE PUSH1 0x20 ADD SWAP1 DUP2 MSTORE PUSH1 0x20 ADD PUSH0 KECCAK256 PUSH0 SWAP1 SLOAD SWAP1 PUSH2 0x100 EXP SWAP1 DIV PUSH1 0xFF AND ISZERO PUSH2 0x22D2 JUMPI PUSH1 0x40 MLOAD PUSH32 0x9550C7700000000000000000000000000000000000000000000000000000000 DUP2 MSTORE PUSH1 0x4 ADD PUSH1 0x40 MLOAD DUP1 SWAP2 SUB SWAP1 REVERT JUMPDEST PUSH1 0x14 SLOAD DUP2 LT DUP1 PUSH2 0x22E3 JUMPI POP PUSH1 0x15 SLOAD DUP2 GT JUMPDEST ISZERO PUSH2 0x231A JUMPI PUSH1 0x40 MLOAD PUSH32 0x2C5211C600000000000000000000000000000000000000000000000000000000 DUP2 MSTORE PUSH1 0x4 ADD PUSH1 0x40 MLOAD DUP1 SWAP2 SUB SWAP1 REVERT JUMPDEST PUSH0 PUSH20 0xFFFFFFFFFFFFFFFFFFFFFFFFFFFFFFFFFFFFFFFF AND PUSH1 0x8 PUSH0 DUP5 PUSH20 0xFFFFFFFFFFFFFFFFFFFFFFFFFFFFFFFFFFFFFFFF AND PUSH20 0xFFFFFFFFFFFFFFFFFFFFFFFFFFFFFFFFFFFFFFFF AND DUP2 MSTORE PUSH1 0x20 ADD SWAP1 DUP2 MSTORE PUSH1 0x20 ADD PUSH0 KECCAK256 PUSH0 SWAP1 SLOAD SWAP1 PUSH2 0x100 EXP SWAP1 DIV PUSH20 0xFFFFFFFFFFFFFFFFFFFFFFFFFFFFFFFFFFFFFFFF AND PUSH20 0xFFFFFFFFFFFFFFFFFFFFFFFFFFFFFFFFFFFFFFFF AND SUB PUSH2 0x23DB JUMPI PUSH1 0x40 MLOAD PUSH32 0xD92E233D00000000000000000000000000000000000000000000000000000000 DUP2 MSTORE PUSH1 0x4 ADD PUSH1 0x40 MLOAD DUP1 SWAP2 SUB SWAP1 REVERT JUMPDEST PUSH0 PUSH1 0x17 PUSH0 DUP5 PUSH20 0xFFFFFFFFFFFFFFFFFFFFFFFFFFFFFFFFFFFFFFFF AND PUSH20 0xFFFFFFFFFFFFFFFFFFFFFFFFFFFFFFFFFFFFFFFF AND DUP2 MSTORE PUSH1 0x20 ADD SWAP1 DUP2 MSTORE PUSH1 0x20 ADD PUSH0 KECCAK256 SWAP1 POP PUSH0 DUP2 PUSH1 0x2 ADD SLOAD GT ISZERO PUSH2 0x24C8 JUMPI DUP1 PUSH1 0x2 ADD SLOAD TIMESTAMP GT PUSH2 0x2464 JUMPI PUSH1 0x40 MLOAD PUSH32 0xD0404F8500000000000000000000000000000000000000000000000000000000 DUP2 MSTORE PUSH1 0x4 ADD PUSH1 0x40 MLOAD DUP1 SWAP2 SUB SWAP1 REVERT JUMPDEST PUSH0 DUP2 PUSH0 ADD SLOAD GT ISZERO PUSH2 0x24BE JUMPI DUP1 PUSH0 ADD SLOAD DUP3 LT ISZERO PUSH2 0x24AC JUMPI PUSH1 0x40 MLOAD PUSH32 0x2C5211C600000000000000000000000000000000000000000000000000000000 DUP2 MSTORE PUSH1 0x4 ADD PUSH1 0x40 MLOAD DUP1 SWAP2 SUB SWAP1 REVERT JUMPDEST PUSH2 0x24B8 DUP4 DUP4 PUSH1 0x1 PUSH2 0x1D2C JUMP JUMPDEST POP PUSH2 0x268D JUMP JUMPDEST PUSH2 0x24C7 DUP4 PUSH2 0x6DAB JUMP JUMPDEST JUMPDEST PUSH2 0x24D1 DUP3 PUSH2 0x7050 JUMP JUMPDEST PUSH0 PUSH1 0x12 SLOAD PUSH1 0x11 SLOAD PUSH1 0x10 SLOAD PUSH3 0xF4240 PUSH2 0x24E9 SWAP2 SWAP1 PUSH2 0xA6F3 JUMP JUMPDEST PUSH2 0x24F3 SWAP2 SWAP1 PUSH2 0xA6F3 JUMP JUMPDEST PUSH2 0x24FD SWAP2 SWAP1 PUSH2 0xA6F3 JUMP JUMPDEST SWAP1 POP PUSH0 PUSH3 0xF4240 PUSH1 0x13 SLOAD DUP6 PUSH2 0x2512 SWAP2 SWAP1 PUSH2 0xA726 JUMP JUMPDEST PUSH2 0x251C SWAP2 SWAP1 PUSH2 0xA6C3 JUMP JUMPDEST SWAP1 POP DUP1 PUSH1 0x26 PUSH0 DUP3 DUP3 SLOAD PUSH2 0x252F SWAP2 SWAP1 PUSH2 0xA663 JUMP JUMPDEST SWAP3 POP POP DUP2 SWAP1 SSTORE POP PUSH2 0x2565 PUSH3 0xF4240 PUSH1 0x13 SLOAD DUP5 PUSH2 0x254B SWAP2 SWAP1 PUSH2 0xA6F3 JUMP JUMPDEST DUP7 PUSH2 0x2556 SWAP2 SWAP1 PUSH2 0xA726 JUMP JUMPDEST PUSH2 0x2560 SWAP2 SWAP1 PUSH2 0xA6C3 JUMP JUMPDEST PUSH2 0x71BA JUMP JUMPDEST DUP4 DUP4 PUSH0 ADD DUP2 SWAP1 SSTORE POP PUSH1 0xD SLOAD TIMESTAMP PUSH2 0x257B SWAP2 SWAP1 PUSH2 0xA663 JUMP JUMPDEST DUP4 PUSH1 0x2 ADD DUP2 SWAP1 SSTORE POP PUSH2 0x258D DUP6 DUP6 PUSH2 0x7682 JUMP JUMPDEST PUSH2 0x2595 PUSH2 0x6D2C JUMP JUMPDEST ISZERO PUSH2 0x2689 JUMPI PUSH1 0x16 SLOAD DUP5 LT PUSH2 0x2616 JUMPI PUSH2 0x25AB PUSH2 0x6D83 JUMP JUMPDEST PUSH20 0xFFFFFFFFFFFFFFFFFFFFFFFFFFFFFFFFFFFFFFFF AND PUSH4 0xB631C4CA DUP7 PUSH1 0x1 DUP8 PUSH1 0x40 MLOAD DUP5 PUSH4 0xFFFFFFFF AND PUSH1 0xE0 SHL DUP2 MSTORE PUSH1 0x4 ADD PUSH2 0x25E8 SWAP4 SWAP3 SWAP2 SWAP1 PUSH2 0xA7DB JUMP JUMPDEST PUSH0 PUSH1 0x40 MLOAD DUP1 DUP4 SUB DUP2 PUSH0 DUP8 DUP1 EXTCODESIZE ISZERO DUP1 ISZERO PUSH2 0x25FF JUMPI PUSH0 PUSH0 REVERT JUMPDEST POP GAS CALL ISZERO DUP1 ISZERO PUSH2 0x2611 JUMPI RETURNDATASIZE PUSH0 PUSH0 RETURNDATACOPY RETURNDATASIZE PUSH0 REVERT JUMPDEST POP POP POP POP JUMPDEST PUSH2 0x261E PUSH2 0x6D83 JUMP JUMPDEST PUSH20 0xFFFFFFFFFFFFFFFFFFFFFFFFFFFFFFFFFFFFFFFF AND PUSH4 0xFF117898 DUP7 DUP7 PUSH1 0x1 PUSH1 0x40 MLOAD DUP5 PUSH4 0xFFFFFFFF AND PUSH1 0xE0 SHL DUP2 MSTORE PUSH1 0x4 ADD PUSH2 0x265B SWAP4 SWAP3 SWAP2 SWAP1 PUSH2 0xA7A6 JUMP JUMPDEST PUSH0 PUSH1 0x40 MLOAD DUP1 DUP4 SUB DUP2 PUSH0 DUP8 DUP1 EXTCODESIZE ISZERO DUP1 ISZERO PUSH2 0x2672 JUMPI PUSH0 PUSH0 REVERT JUMPDEST POP GAS CALL ISZERO DUP1 ISZERO PUSH2 0x2684 JUMPI RETURNDATASIZE PUSH0 PUSH0 RETURNDATACOPY RETURNDATASIZE PUSH0 REVERT JUMPDEST POP POP POP POP JUMPDEST POP POP POP JUMPDEST POP POP JUMP JUMPDEST PUSH1 0x60 PUSH1 0x3 DUP1 SLOAD PUSH2 0x26A0 SWAP1 PUSH2 0xA83D JUMP JUMPDEST DUP1 PUSH1 0x1F ADD PUSH1 0x20 DUP1 SWAP2 DIV MUL PUSH1 0x20 ADD PUSH1 0x40 MLOAD SWAP1 DUP2 ADD PUSH1 0x40 MSTORE DUP1 SWAP3 SWAP2 SWAP1 DUP2 DUP2 MSTORE PUSH1 0x20 ADD DUP3 DUP1 SLOAD PUSH2 0x26CC SWAP1 PUSH2 0xA83D JUMP JUMPDEST DUP1 ISZERO PUSH2 0x2717 JUMPI DUP1 PUSH1 0x1F LT PUSH2 0x26EE JUMPI PUSH2 0x100 DUP1 DUP4 SLOAD DIV MUL DUP4 MSTORE SWAP2 PUSH1 0x20 ADD SWAP2 PUSH2 0x2717 JUMP JUMPDEST DUP3 ADD SWAP2 SWAP1 PUSH0 MSTORE PUSH1 0x20 PUSH0 KECCAK256 SWAP1 JUMPDEST DUP2 SLOAD DUP2 MSTORE SWAP1 PUSH1 0x1 ADD SWAP1 PUSH1 0x20 ADD DUP1 DUP4 GT PUSH2 0x26FA JUMPI DUP3 SWAP1 SUB PUSH1 0x1F AND DUP3 ADD SWAP2 JUMPDEST POP POP POP POP POP SWAP1 POP SWAP1 JUMP JUMPDEST PUSH0 PUSH0 PUSH2 0x272B PUSH2 0x7922 JUMP JUMPDEST SWAP1 POP PUSH2 0x2738 DUP2 DUP6 DUP6 PUSH2 0x7929 JUMP JUMPDEST PUSH1 0x1 SWAP2 POP POP SWAP3 SWAP2 POP POP JUMP JUMPDEST PUSH1 0x22 PUSH0 SWAP1 SLOAD SWAP1 PUSH2 0x100 EXP SWAP1 DIV PUSH20 0xFFFFFFFFFFFFFFFFFFFFFFFFFFFFFFFFFFFFFFFF AND PUSH20 0xFFFFFFFFFFFFFFFFFFFFFFFFFFFFFFFFFFFFFFFF AND CALLER PUSH20 0xFFFFFFFFFFFFFFFFFFFFFFFFFFFFFFFFFFFFFFFF AND EQ ISZERO DUP1 ISZERO PUSH2 0x27D3 JUMPI POP PUSH2 0x27A3 PUSH2 0x492F JUMP JUMPDEST PUSH20 0xFFFFFFFFFFFFFFFFFFFFFFFFFFFFFFFFFFFFFFFF AND CALLER PUSH20 0xFFFFFFFFFFFFFFFFFFFFFFFFFFFFFFFFFFFFFFFF AND EQ ISZERO JUMPDEST ISZERO PUSH2 0x280A JUMPI PUSH1 0x40 MLOAD PUSH32 0x82B4290000000000000000000000000000000000000000000000000000000000 DUP2 MSTORE PUSH1 0x4 ADD PUSH1 0x40 MLOAD DUP1 SWAP2 SUB SWAP1 REVERT JUMPDEST PUSH3 0xF4240 DUP2 DUP4 DUP6 PUSH2 0x281B SWAP2 SWAP1 PUSH2 0xA663 JUMP JUMPDEST PUSH2 0x2825 SWAP2 SWAP1 PUSH2 0xA663 JUMP JUMPDEST GT ISZERO PUSH2 0x285D JUMPI PUSH1 0x40 MLOAD PUSH32 0x58D620B300000000000000000000000000000000000000000000000000000000 DUP2 MSTORE PUSH1 0x4 ADD PUSH1 0x40 MLOAD DUP1 SWAP2 SUB SWAP1 REVERT JUMPDEST PUSH2 0x286B DUP4 DUP4 DUP4 PUSH1 0x13 SLOAD PUSH2 0x793B JUMP JUMPDEST DUP3 PUSH1 0x10 DUP2 SWAP1 SSTORE POP DUP2 PUSH1 0x11 DUP2 SWAP1 SSTORE POP DUP1 PUSH1 0x12 DUP2 SWAP1 SSTORE POP POP POP POP JUMP JUMPDEST PUSH1 0x23 PUSH0 SWAP1 SLOAD SWAP1 PUSH2 0x100 EXP SWAP1 DIV PUSH20 0xFFFFFFFFFFFFFFFFFFFFFFFFFFFFFFFFFFFFFFFF AND DUP2 JUMP JUMPDEST PUSH1 0x22 PUSH0 SWAP1 SLOAD SWAP1 PUSH2 0x100 EXP SWAP1 DIV PUSH20 0xFFFFFFFFFFFFFFFFFFFFFFFFFFFFFFFFFFFFFFFF AND PUSH20 0xFFFFFFFFFFFFFFFFFFFFFFFFFFFFFFFFFFFFFFFF AND CALLER PUSH20 0xFFFFFFFFFFFFFFFFFFFFFFFFFFFFFFFFFFFFFFFF AND EQ ISZERO DUP1 ISZERO PUSH2 0x293A JUMPI POP PUSH2 0x290A PUSH2 0x492F JUMP JUMPDEST PUSH20 0xFFFFFFFFFFFFFFFFFFFFFFFFFFFFFFFFFFFFFFFF AND CALLER PUSH20 0xFFFFFFFFFFFFFFFFFFFFFFFFFFFFFFFFFFFFFFFF AND EQ ISZERO JUMPDEST ISZERO PUSH2 0x2971 JUMPI PUSH1 0x40 MLOAD PUSH32 0x82B4290000000000000000000000000000000000000000000000000000000000 DUP2 MSTORE PUSH1 0x4 ADD PUSH1 0x40 MLOAD DUP1 SWAP2 SUB SWAP1 REVERT JUMPDEST DUP1 PUSH1 0x16 DUP2 SWAP1 SSTORE POP POP JUMP JUMPDEST PUSH2 0x2983 PUSH2 0x79AE JUMP JUMPDEST PUSH1 0x1 PUSH1 0x30 PUSH0 PUSH2 0x100 EXP DUP2 SLOAD DUP2 PUSH1 0xFF MUL NOT AND SWAP1 DUP4 ISZERO ISZERO MUL OR SWAP1 SSTORE POP JUMP JUMPDEST PUSH32 0x0 DUP2 JUMP JUMPDEST PUSH1 0xB PUSH0 SWAP1 SLOAD SWAP1 PUSH2 0x100 EXP SWAP1 DIV PUSH1 0xFF AND DUP2 JUMP JUMPDEST PUSH2 0x29DD PUSH2 0x79AE JUMP JUMPDEST PUSH1 0x30 PUSH0 SWAP1 SLOAD SWAP1 PUSH2 0x100 EXP SWAP1 DIV PUSH1 0xFF AND ISZERO PUSH2 0x2A23 JUMPI PUSH1 0x40 MLOAD PUSH32 0x9BB3A4A300000000000000000000000000000000000000000000000000000000 DUP2 MSTORE PUSH1 0x4 ADD PUSH1 0x40 MLOAD DUP1 SWAP2 SUB SWAP1 REVERT JUMPDEST DUP4 DUP4 SWAP1 POP DUP7 DUP7 SWAP1 POP EQ ISZERO DUP1 PUSH2 0x2A3E JUMPI POP DUP2 DUP2 SWAP1 POP DUP7 DUP7 SWAP1 POP EQ ISZERO JUMPDEST ISZERO PUSH2 0x2A75 JUMPI PUSH1 0x40 MLOAD PUSH32 0x2C5211C600000000000000000000000000000000000000000000000000000000 DUP2 MSTORE PUSH1 0x4 ADD PUSH1 0x40 MLOAD DUP1 SWAP2 SUB SWAP1 REVERT JUMPDEST PUSH0 DUP7 DUP7 SWAP1 POP SWAP1 POP PUSH0 PUSH0 SWAP1 POP JUMPDEST DUP2 DUP2 LT ISZERO PUSH2 0x2B60 JUMPI PUSH0 PUSH1 0x18 PUSH0 DUP11 DUP11 DUP6 DUP2 DUP2 LT PUSH2 0x2AA0 JUMPI PUSH2 0x2A9F PUSH2 0xA86D JUMP JUMPDEST JUMPDEST SWAP1 POP PUSH1 0x20 MUL ADD PUSH1 0x20 DUP2 ADD SWAP1 PUSH2 0x2AB5 SWAP2 SWAP1 PUSH2 0xA136 JUMP JUMPDEST PUSH20 0xFFFFFFFFFFFFFFFFFFFFFFFFFFFFFFFFFFFFFFFF AND PUSH20 0xFFFFFFFFFFFFFFFFFFFFFFFFFFFFFFFFFFFFFFFF AND DUP2 MSTORE PUSH1 0x20 ADD SWAP1 DUP2 MSTORE PUSH1 0x20 ADD PUSH0 KECCAK256 SWAP1 POP DUP7 DUP7 DUP4 DUP2 DUP2 LT PUSH2 0x2B03 JUMPI PUSH2 0x2B02 PUSH2 0xA86D JUMP JUMPDEST JUMPDEST SWAP1 POP PUSH1 0x20 MUL ADD CALLDATALOAD DUP2 PUSH0 ADD DUP2 SWAP1 SSTORE POP DUP5 DUP5 DUP4 DUP2 DUP2 LT PUSH2 0x2B24 JUMPI PUSH2 0x2B23 PUSH2 0xA86D JUMP JUMPDEST JUMPDEST SWAP1 POP PUSH1 0x20 MUL ADD PUSH1 0x20 DUP2 ADD SWAP1 PUSH2 0x2B39 SWAP2 SWAP1 PUSH2 0xA1E7 JUMP JUMPDEST DUP2 PUSH1 0x1 ADD PUSH0 PUSH2 0x100 EXP DUP2 SLOAD DUP2 PUSH1 0xFF MUL NOT AND SWAP1 DUP4 PUSH1 0xFF AND MUL OR SWAP1 SSTORE POP DUP2 PUSH1 0x1 ADD SWAP2 POP POP PUSH2 0x2A81 JUMP JUMPDEST POP POP POP POP POP POP POP POP JUMP JUMPDEST PUSH1 0x20 SLOAD DUP2 JUMP JUMPDEST PUSH1 0x9 PUSH1 0x20 MSTORE DUP2 PUSH0 MSTORE PUSH1 0x40 PUSH0 KECCAK256 DUP2 DUP2 SLOAD DUP2 LT PUSH2 0x2B89 JUMPI PUSH0 DUP1 REVERT JUMPDEST SWAP1 PUSH0 MSTORE PUSH1 0x20 PUSH0 KECCAK256 ADD PUSH0 SWAP2 POP SWAP2 POP SWAP1 SLOAD SWAP1 PUSH2 0x100 EXP SWAP1 DIV PUSH20 0xFFFFFFFFFFFFFFFFFFFFFFFFFFFFFFFFFFFFFFFF AND DUP2 JUMP JUMPDEST PUSH1 0x22 PUSH0 SWAP1 SLOAD SWAP1 PUSH2 0x100 EXP SWAP1 DIV PUSH20 0xFFFFFFFFFFFFFFFFFFFFFFFFFFFFFFFFFFFFFFFF AND PUSH20 0xFFFFFFFFFFFFFFFFFFFFFFFFFFFFFFFFFFFFFFFF AND CALLER PUSH20 0xFFFFFFFFFFFFFFFFFFFFFFFFFFFFFFFFFFFFFFFF AND EQ ISZERO DUP1 ISZERO PUSH2 0x2C48 JUMPI POP PUSH2 0x2C18 PUSH2 0x492F JUMP JUMPDEST PUSH20 0xFFFFFFFFFFFFFFFFFFFFFFFFFFFFFFFFFFFFFFFF AND CALLER PUSH20 0xFFFFFFFFFFFFFFFFFFFFFFFFFFFFFFFFFFFFFFFF AND EQ ISZERO JUMPDEST ISZERO PUSH2 0x2C7F JUMPI PUSH1 0x40 MLOAD PUSH32 0x82B4290000000000000000000000000000000000000000000000000000000000 DUP2 MSTORE PUSH1 0x4 ADD PUSH1 0x40 MLOAD DUP1 SWAP2 SUB SWAP1 REVERT JUMPDEST DUP1 PUSH1 0x30 PUSH1 0x1 PUSH2 0x100 EXP DUP2 SLOAD DUP2 PUSH1 0xFF MUL NOT AND SWAP1 DUP4 ISZERO ISZERO MUL OR SWAP1 SSTORE POP POP JUMP JUMPDEST PUSH0 PUSH1 0x2 SLOAD SWAP1 POP SWAP1 JUMP JUMPDEST PUSH1 0x22 PUSH0 SWAP1 SLOAD SWAP1 PUSH2 0x100 EXP SWAP1 DIV PUSH20 0xFFFFFFFFFFFFFFFFFFFFFFFFFFFFFFFFFFFFFFFF AND PUSH20 0xFFFFFFFFFFFFFFFFFFFFFFFFFFFFFFFFFFFFFFFF AND CALLER PUSH20 0xFFFFFFFFFFFFFFFFFFFFFFFFFFFFFFFFFFFFFFFF AND EQ ISZERO DUP1 ISZERO PUSH2 0x2D35 JUMPI POP PUSH2 0x2D05 PUSH2 0x492F JUMP JUMPDEST PUSH20 0xFFFFFFFFFFFFFFFFFFFFFFFFFFFFFFFFFFFFFFFF AND CALLER PUSH20 0xFFFFFFFFFFFFFFFFFFFFFFFFFFFFFFFFFFFFFFFF AND EQ ISZERO JUMPDEST ISZERO PUSH2 0x2D6C JUMPI PUSH1 0x40 MLOAD PUSH32 0x82B4290000000000000000000000000000000000000000000000000000000000 DUP2 MSTORE PUSH1 0x4 ADD PUSH1 0x40 MLOAD DUP1 SWAP2 SUB SWAP1 REVERT JUMPDEST PUSH0 DUP3 EQ DUP1 PUSH2 0x2D79 JUMPI POP PUSH0 DUP2 EQ JUMPDEST DUP1 PUSH2 0x2D91 JUMPI POP PUSH3 0x15180 DUP3 PUSH2 0x2D8E SWAP2 SWAP1 PUSH2 0xA726 JUMP JUMPDEST DUP2 LT JUMPDEST ISZERO PUSH2 0x2DC8 JUMPI PUSH1 0x40 MLOAD PUSH32 0x2C5211C600000000000000000000000000000000000000000000000000000000 DUP2 MSTORE PUSH1 0x4 ADD PUSH1 0x40 MLOAD DUP1 SWAP2 SUB SWAP1 REVERT JUMPDEST DUP2 PUSH1 0xC DUP2 SWAP1 SSTORE POP DUP1 PUSH1 0xD DUP2 SWAP1 SSTORE POP POP POP JUMP JUMPDEST PUSH1 0x22 PUSH0 SWAP1 SLOAD SWAP1 PUSH2 0x100 EXP SWAP1 DIV PUSH20 0xFFFFFFFFFFFFFFFFFFFFFFFFFFFFFFFFFFFFFFFF AND PUSH20 0xFFFFFFFFFFFFFFFFFFFFFFFFFFFFFFFFFFFFFFFF AND CALLER PUSH20 0xFFFFFFFFFFFFFFFFFFFFFFFFFFFFFFFFFFFFFFFF AND EQ ISZERO DUP1 ISZERO PUSH2 0x2E6A JUMPI POP PUSH2 0x2E3A PUSH2 0x492F JUMP JUMPDEST PUSH20 0xFFFFFFFFFFFFFFFFFFFFFFFFFFFFFFFFFFFFFFFF AND CALLER PUSH20 0xFFFFFFFFFFFFFFFFFFFFFFFFFFFFFFFFFFFFFFFF AND EQ ISZERO JUMPDEST ISZERO PUSH2 0x2EA1 JUMPI PUSH1 0x40 MLOAD PUSH32 0x82B4290000000000000000000000000000000000000000000000000000000000 DUP2 MSTORE PUSH1 0x4 ADD PUSH1 0x40 MLOAD DUP1 SWAP2 SUB SWAP1 REVERT JUMPDEST PUSH0 CALLVALUE SUB PUSH2 0x2EDA JUMPI PUSH1 0x40 MLOAD PUSH32 0x2C5211C600000000000000000000000000000000000000000000000000000000 DUP2 MSTORE PUSH1 0x4 ADD PUSH1 0x40 MLOAD DUP1 SWAP2 SUB SWAP1 REVERT JUMPDEST CALLVALUE PUSH1 0x26 PUSH0 DUP3 DUP3 SLOAD PUSH2 0x2EEB SWAP2 SWAP1 PUSH2 0xA663 JUMP JUMPDEST SWAP3 POP POP DUP2 SWAP1 SSTORE POP JUMP JUMPDEST PUSH0 PUSH1 0x9 PUSH0 DUP4 PUSH20 0xFFFFFFFFFFFFFFFFFFFFFFFFFFFFFFFFFFFFFFFF AND PUSH20 0xFFFFFFFFFFFFFFFFFFFFFFFFFFFFFFFFFFFFFFFF AND DUP2 MSTORE PUSH1 0x20 ADD SWAP1 DUP2 MSTORE PUSH1 0x20 ADD PUSH0 KECCAK256 DUP1 SLOAD SWAP1 POP SWAP1 POP SWAP2 SWAP1 POP JUMP JUMPDEST PUSH0 PUSH0 PUSH2 0x2F47 PUSH2 0x7922 JUMP JUMPDEST SWAP1 POP PUSH2 0x2F54 DUP6 DUP3 DUP6 PUSH2 0x7A35 JUMP JUMPDEST PUSH2 0x2F5F DUP6 DUP6 DUP6 PUSH2 0x7AC8 JUMP JUMPDEST PUSH1 0x1 SWAP2 POP POP SWAP4 SWAP3 POP POP POP JUMP JUMPDEST PUSH2 0x2F73 PUSH2 0x1942 JUMP JUMPDEST PUSH2 0x2F7B PUSH2 0x18F9 JUMP JUMPDEST PUSH1 0x14 SLOAD CALLVALUE LT ISZERO PUSH2 0x2FB7 JUMPI PUSH1 0x40 MLOAD PUSH32 0x2C5211C600000000000000000000000000000000000000000000000000000000 DUP2 MSTORE PUSH1 0x4 ADD PUSH1 0x40 MLOAD DUP1 SWAP2 SUB SWAP1 REVERT JUMPDEST PUSH2 0x2FBF PUSH2 0x1987 JUMP JUMPDEST PUSH0 PUSH20 0xFFFFFFFFFFFFFFFFFFFFFFFFFFFFFFFFFFFFFFFF AND DUP2 PUSH20 0xFFFFFFFFFFFFFFFFFFFFFFFFFFFFFFFFFFFFFFFF AND EQ ISZERO DUP1 ISZERO PUSH2 0x3082 JUMPI POP PUSH0 PUSH20 0xFFFFFFFFFFFFFFFFFFFFFFFFFFFFFFFFFFFFFFFF AND PUSH1 0x8 PUSH0 CALLER PUSH20 0xFFFFFFFFFFFFFFFFFFFFFFFFFFFFFFFFFFFFFFFF AND PUSH20 0xFFFFFFFFFFFFFFFFFFFFFFFFFFFFFFFFFFFFFFFF AND DUP2 MSTORE PUSH1 0x20 ADD SWAP1 DUP2 MSTORE PUSH1 0x20 ADD PUSH0 KECCAK256 PUSH0 SWAP1 SLOAD SWAP1 PUSH2 0x100 EXP SWAP1 DIV PUSH20 0xFFFFFFFFFFFFFFFFFFFFFFFFFFFFFFFFFFFFFFFF AND PUSH20 0xFFFFFFFFFFFFFFFFFFFFFFFFFFFFFFFFFFFFFFFF AND EQ JUMPDEST DUP1 ISZERO PUSH2 0x30BA JUMPI POP CALLER PUSH20 0xFFFFFFFFFFFFFFFFFFFFFFFFFFFFFFFFFFFFFFFF AND DUP2 PUSH20 0xFFFFFFFFFFFFFFFFFFFFFFFFFFFFFFFFFFFFFFFF AND EQ ISZERO JUMPDEST ISZERO PUSH2 0x31D6 JUMPI DUP1 PUSH1 0x8 PUSH0 CALLER PUSH20 0xFFFFFFFFFFFFFFFFFFFFFFFFFFFFFFFFFFFFFFFF AND PUSH20 0xFFFFFFFFFFFFFFFFFFFFFFFFFFFFFFFFFFFFFFFF AND DUP2 MSTORE PUSH1 0x20 ADD SWAP1 DUP2 MSTORE PUSH1 0x20 ADD PUSH0 KECCAK256 PUSH0 PUSH2 0x100 EXP DUP2 SLOAD DUP2 PUSH20 0xFFFFFFFFFFFFFFFFFFFFFFFFFFFFFFFFFFFFFFFF MUL NOT AND SWAP1 DUP4 PUSH20 0xFFFFFFFFFFFFFFFFFFFFFFFFFFFFFFFFFFFFFFFF AND MUL OR SWAP1 SSTORE POP PUSH1 0x9 PUSH0 DUP3 PUSH20 0xFFFFFFFFFFFFFFFFFFFFFFFFFFFFFFFFFFFFFFFF AND PUSH20 0xFFFFFFFFFFFFFFFFFFFFFFFFFFFFFFFFFFFFFFFF AND DUP2 MSTORE PUSH1 0x20 ADD SWAP1 DUP2 MSTORE PUSH1 0x20 ADD PUSH0 KECCAK256 CALLER SWAP1 DUP1 PUSH1 0x1 DUP2 SLOAD ADD DUP1 DUP3 SSTORE DUP1 SWAP2 POP POP PUSH1 0x1 SWAP1 SUB SWAP1 PUSH0 MSTORE PUSH1 0x20 PUSH0 KECCAK256 ADD PUSH0 SWAP1 SWAP2 SWAP1 SWAP2 SWAP1 SWAP2 PUSH2 0x100 EXP DUP2 SLOAD DUP2 PUSH20 0xFFFFFFFFFFFFFFFFFFFFFFFFFFFFFFFFFFFFFFFF MUL NOT AND SWAP1 DUP4 PUSH20 0xFFFFFFFFFFFFFFFFFFFFFFFFFFFFFFFFFFFFFFFF AND MUL OR SWAP1 SSTORE POP JUMPDEST PUSH2 0x31E0 CALLER CALLVALUE PUSH2 0x2251 JUMP JUMPDEST PUSH2 0x31E8 PUSH2 0x1D23 JUMP JUMPDEST POP JUMP JUMPDEST PUSH1 0x19 PUSH1 0x20 MSTORE DUP1 PUSH0 MSTORE PUSH1 0x40 PUSH0 KECCAK256 PUSH0 SWAP2 POP SWAP1 POP DUP1 PUSH0 ADD SLOAD SWAP1 DUP1 PUSH1 0x1 ADD SLOAD SWAP1 POP DUP3 JUMP JUMPDEST PUSH1 0x22 PUSH0 SWAP1 SLOAD SWAP1 PUSH2 0x100 EXP SWAP1 DIV PUSH20 0xFFFFFFFFFFFFFFFFFFFFFFFFFFFFFFFFFFFFFFFF AND PUSH20 0xFFFFFFFFFFFFFFFFFFFFFFFFFFFFFFFFFFFFFFFF AND CALLER PUSH20 0xFFFFFFFFFFFFFFFFFFFFFFFFFFFFFFFFFFFFFFFF AND EQ ISZERO DUP1 ISZERO PUSH2 0x329B JUMPI POP PUSH2 0x326B PUSH2 0x492F JUMP JUMPDEST PUSH20 0xFFFFFFFFFFFFFFFFFFFFFFFFFFFFFFFFFFFFFFFF AND CALLER PUSH20 0xFFFFFFFFFFFFFFFFFFFFFFFFFFFFFFFFFFFFFFFF AND EQ ISZERO JUMPDEST ISZERO PUSH2 0x32D2 JUMPI PUSH1 0x40 MLOAD PUSH32 0x82B4290000000000000000000000000000000000000000000000000000000000 DUP2 MSTORE PUSH1 0x4 ADD PUSH1 0x40 MLOAD DUP1 SWAP2 SUB SWAP1 REVERT JUMPDEST PUSH3 0xF4240 DUP2 GT ISZERO PUSH2 0x330F JUMPI PUSH1 0x40 MLOAD PUSH32 0x6A43F8D100000000000000000000000000000000000000000000000000000000 DUP2 MSTORE PUSH1 0x4 ADD PUSH1 0x40 MLOAD DUP1 SWAP2 SUB SWAP1 REVERT JUMPDEST DUP1 PUSH1 0xE DUP2 SWAP1 SSTORE POP POP JUMP JUMPDEST PUSH1 0x7 SLOAD DUP2 JUMP JUMPDEST PUSH1 0xE SLOAD DUP2 JUMP JUMPDEST PUSH1 0x22 PUSH0 SWAP1 SLOAD SWAP1 PUSH2 0x100 EXP SWAP1 DIV PUSH20 0xFFFFFFFFFFFFFFFFFFFFFFFFFFFFFFFFFFFFFFFF AND PUSH20 0xFFFFFFFFFFFFFFFFFFFFFFFFFFFFFFFFFFFFFFFF AND CALLER PUSH20 0xFFFFFFFFFFFFFFFFFFFFFFFFFFFFFFFFFFFFFFFF AND EQ ISZERO DUP1 ISZERO PUSH2 0x33B5 JUMPI POP PUSH2 0x3385 PUSH2 0x492F JUMP JUMPDEST PUSH20 0xFFFFFFFFFFFFFFFFFFFFFFFFFFFFFFFFFFFFFFFF AND CALLER PUSH20 0xFFFFFFFFFFFFFFFFFFFFFFFFFFFFFFFFFFFFFFFF AND EQ ISZERO JUMPDEST ISZERO PUSH2 0x33EC JUMPI PUSH1 0x40 MLOAD PUSH32 0x82B4290000000000000000000000000000000000000000000000000000000000 DUP2 MSTORE PUSH1 0x4 ADD PUSH1 0x40 MLOAD DUP1 SWAP2 SUB SWAP1 REVERT JUMPDEST PUSH2 0x33F4 PUSH2 0x1987 JUMP JUMPDEST JUMP JUMPDEST PUSH0 PUSH1 0x12 SWAP1 POP SWAP1 JUMP JUMPDEST PUSH1 0x22 PUSH0 SWAP1 SLOAD SWAP1 PUSH2 0x100 EXP SWAP1 DIV PUSH20 0xFFFFFFFFFFFFFFFFFFFFFFFFFFFFFFFFFFFFFFFF AND PUSH20 0xFFFFFFFFFFFFFFFFFFFFFFFFFFFFFFFFFFFFFFFF AND CALLER PUSH20 0xFFFFFFFFFFFFFFFFFFFFFFFFFFFFFFFFFFFFFFFF AND EQ ISZERO DUP1 ISZERO PUSH2 0x348E JUMPI POP PUSH2 0x345E PUSH2 0x492F JUMP JUMPDEST PUSH20 0xFFFFFFFFFFFFFFFFFFFFFFFFFFFFFFFFFFFFFFFF AND CALLER PUSH20 0xFFFFFFFFFFFFFFFFFFFFFFFFFFFFFFFFFFFFFFFF AND EQ ISZERO JUMPDEST ISZERO PUSH2 0x34C5 JUMPI PUSH1 0x40 MLOAD PUSH32 0x82B4290000000000000000000000000000000000000000000000000000000000 DUP2 MSTORE PUSH1 0x4 ADD PUSH1 0x40 MLOAD DUP1 SWAP2 SUB SWAP1 REVERT JUMPDEST PUSH0 PUSH20 0xFFFFFFFFFFFFFFFFFFFFFFFFFFFFFFFFFFFFFFFF AND DUP3 PUSH20 0xFFFFFFFFFFFFFFFFFFFFFFFFFFFFFFFFFFFFFFFF AND SUB PUSH2 0x352A JUMPI PUSH1 0x40 MLOAD PUSH32 0xD92E233D00000000000000000000000000000000000000000000000000000000 DUP2 MSTORE PUSH1 0x4 ADD PUSH1 0x40 MLOAD DUP1 SWAP2 SUB SWAP1 REVERT JUMPDEST PUSH0 PUSH2 0x3533 PUSH2 0x7BB8 JUMP JUMPDEST SWAP1 POP ADDRESS PUSH20 0xFFFFFFFFFFFFFFFFFFFFFFFFFFFFFFFFFFFFFFFF AND DUP4 PUSH20 0xFFFFFFFFFFFFFFFFFFFFFFFFFFFFFFFFFFFFFFFF AND SUB PUSH2 0x3578 JUMPI PUSH2 0x3573 ADDRESS DUP3 DUP5 PUSH2 0x7C1E JUMP JUMPDEST PUSH2 0x362F JUMP JUMPDEST PUSH0 DUP4 PUSH20 0xFFFFFFFFFFFFFFFFFFFFFFFFFFFFFFFFFFFFFFFF AND PUSH4 0xA9059CBB DUP4 DUP6 PUSH1 0x40 MLOAD DUP4 PUSH4 0xFFFFFFFF AND PUSH1 0xE0 SHL DUP2 MSTORE PUSH1 0x4 ADD PUSH2 0x35B4 SWAP3 SWAP2 SWAP1 PUSH2 0xA89A JUMP JUMPDEST PUSH1 0x20 PUSH1 0x40 MLOAD DUP1 DUP4 SUB DUP2 PUSH0 DUP8 GAS CALL ISZERO DUP1 ISZERO PUSH2 0x35D0 JUMPI RETURNDATASIZE PUSH0 PUSH0 RETURNDATACOPY RETURNDATASIZE PUSH0 REVERT JUMPDEST POP POP POP POP PUSH1 0x40 MLOAD RETURNDATASIZE PUSH1 0x1F NOT PUSH1 0x1F DUP3 ADD AND DUP3 ADD DUP1 PUSH1 0x40 MSTORE POP DUP2 ADD SWAP1 PUSH2 0x35F4 SWAP2 SWAP1 PUSH2 0xA8D5 JUMP JUMPDEST SWAP1 POP DUP1 PUSH2 0x362D JUMPI PUSH1 0x40 MLOAD PUSH32 0x90B8EC1800000000000000000000000000000000000000000000000000000000 DUP2 MSTORE PUSH1 0x4 ADD PUSH1 0x40 MLOAD DUP1 SWAP2 SUB SWAP1 REVERT JUMPDEST POP JUMPDEST POP POP POP JUMP JUMPDEST PUSH1 0x22 PUSH0 SWAP1 SLOAD SWAP1 PUSH2 0x100 EXP SWAP1 DIV PUSH20 0xFFFFFFFFFFFFFFFFFFFFFFFFFFFFFFFFFFFFFFFF AND PUSH20 0xFFFFFFFFFFFFFFFFFFFFFFFFFFFFFFFFFFFFFFFF AND CALLER PUSH20 0xFFFFFFFFFFFFFFFFFFFFFFFFFFFFFFFFFFFFFFFF AND EQ ISZERO DUP1 ISZERO PUSH2 0x36C4 JUMPI POP PUSH2 0x3694 PUSH2 0x492F JUMP JUMPDEST PUSH20 0xFFFFFFFFFFFFFFFFFFFFFFFFFFFFFFFFFFFFFFFF AND CALLER PUSH20 0xFFFFFFFFFFFFFFFFFFFFFFFFFFFFFFFFFFFFFFFF AND EQ ISZERO JUMPDEST ISZERO PUSH2 0x36FB JUMPI PUSH1 0x40 MLOAD PUSH32 0x82B4290000000000000000000000000000000000000000000000000000000000 DUP2 MSTORE PUSH1 0x4 ADD PUSH1 0x40 MLOAD DUP1 SWAP2 SUB SWAP1 REVERT JUMPDEST PUSH0 DUP4 PUSH1 0xFF AND EQ DUP1 PUSH2 0x370F JUMPI POP PUSH1 0x5 DUP4 PUSH1 0xFF AND GT JUMPDEST ISZERO PUSH2 0x3746 JUMPI PUSH1 0x40 MLOAD PUSH32 0x2C5211C600000000000000000000000000000000000000000000000000000000 DUP2 MSTORE PUSH1 0x4 ADD PUSH1 0x40 MLOAD DUP1 SWAP2 SUB SWAP1 REVERT JUMPDEST PUSH3 0xF4240 DUP2 GT ISZERO PUSH2 0x3783 JUMPI PUSH1 0x40 MLOAD PUSH32 0x6A43F8D100000000000000000000000000000000000000000000000000000000 DUP2 MSTORE PUSH1 0x4 ADD PUSH1 0x40 MLOAD DUP1 SWAP2 SUB SWAP1 REVERT JUMPDEST PUSH1 0x40 MLOAD DUP1 PUSH1 0x40 ADD PUSH1 0x40 MSTORE DUP1 DUP4 DUP2 MSTORE PUSH1 0x20 ADD DUP3 DUP2 MSTORE POP PUSH1 0x19 PUSH0 DUP6 PUSH1 0xFF AND PUSH1 0xFF AND DUP2 MSTORE PUSH1 0x20 ADD SWAP1 DUP2 MSTORE PUSH1 0x20 ADD PUSH0 KECCAK256 PUSH0 DUP3 ADD MLOAD DUP2 PUSH0 ADD SSTORE PUSH1 0x20 DUP3 ADD MLOAD DUP2 PUSH1 0x1 ADD SSTORE SWAP1 POP POP POP POP POP JUMP JUMPDEST PUSH1 0x22 PUSH0 SWAP1 SLOAD SWAP1 PUSH2 0x100 EXP SWAP1 DIV PUSH20 0xFFFFFFFFFFFFFFFFFFFFFFFFFFFFFFFFFFFFFFFF AND PUSH20 0xFFFFFFFFFFFFFFFFFFFFFFFFFFFFFFFFFFFFFFFF AND CALLER PUSH20 0xFFFFFFFFFFFFFFFFFFFFFFFFFFFFFFFFFFFFFFFF AND EQ ISZERO DUP1 ISZERO PUSH2 0x3859 JUMPI POP PUSH2 0x3829 PUSH2 0x492F JUMP JUMPDEST PUSH20 0xFFFFFFFFFFFFFFFFFFFFFFFFFFFFFFFFFFFFFFFF AND CALLER PUSH20 0xFFFFFFFFFFFFFFFFFFFFFFFFFFFFFFFFFFFFFFFF AND EQ ISZERO JUMPDEST ISZERO PUSH2 0x3890 JUMPI PUSH1 0x40 MLOAD PUSH32 0x82B4290000000000000000000000000000000000000000000000000000000000 DUP2 MSTORE PUSH1 0x4 ADD PUSH1 0x40 MLOAD DUP1 SWAP2 SUB SWAP1 REVERT JUMPDEST PUSH1 0x5 DUP2 PUSH1 0xFF AND GT ISZERO PUSH2 0x38CE JUMPI PUSH1 0x40 MLOAD PUSH32 0x2C5211C600000000000000000000000000000000000000000000000000000000 DUP2 MSTORE PUSH1 0x4 ADD PUSH1 0x40 MLOAD DUP1 SWAP2 SUB SWAP1 REVERT JUMPDEST DUP1 PUSH1 0x18 PUSH0 DUP5 PUSH20 0xFFFFFFFFFFFFFFFFFFFFFFFFFFFFFFFFFFFFFFFF AND PUSH20 0xFFFFFFFFFFFFFFFFFFFFFFFFFFFFFFFFFFFFFFFF AND DUP2 MSTORE PUSH1 0x20 ADD SWAP1 DUP2 MSTORE PUSH1 0x20 ADD PUSH0 KECCAK256 PUSH1 0x1 ADD PUSH0 PUSH2 0x100 EXP DUP2 SLOAD DUP2 PUSH1 0xFF MUL NOT AND SWAP1 DUP4 PUSH1 0xFF AND MUL OR SWAP1 SSTORE POP POP POP JUMP JUMPDEST PUSH1 0x1C PUSH1 0x20 MSTORE DUP1 PUSH0 MSTORE PUSH1 0x40 PUSH0 KECCAK256 PUSH0 SWAP2 POP SLOAD SWAP1 PUSH2 0x100 EXP SWAP1 DIV PUSH1 0xFF AND DUP2 JUMP JUMPDEST PUSH32 0x0 DUP2 JUMP JUMPDEST PUSH1 0x5 DUP2 JUMP JUMPDEST PUSH1 0x22 PUSH0 SWAP1 SLOAD SWAP1 PUSH2 0x100 EXP SWAP1 DIV PUSH20 0xFFFFFFFFFFFFFFFFFFFFFFFFFFFFFFFFFFFFFFFF AND PUSH20 0xFFFFFFFFFFFFFFFFFFFFFFFFFFFFFFFFFFFFFFFF AND CALLER PUSH20 0xFFFFFFFFFFFFFFFFFFFFFFFFFFFFFFFFFFFFFFFF AND EQ ISZERO DUP1 ISZERO PUSH2 0x3A00 JUMPI POP PUSH2 0x39D0 PUSH2 0x492F JUMP JUMPDEST PUSH20 0xFFFFFFFFFFFFFFFFFFFFFFFFFFFFFFFFFFFFFFFF AND CALLER PUSH20 0xFFFFFFFFFFFFFFFFFFFFFFFFFFFFFFFFFFFFFFFF AND EQ ISZERO JUMPDEST ISZERO PUSH2 0x3A37 JUMPI PUSH1 0x40 MLOAD PUSH32 0x82B4290000000000000000000000000000000000000000000000000000000000 DUP2 MSTORE PUSH1 0x4 ADD PUSH1 0x40 MLOAD DUP1 SWAP2 SUB SWAP1 REVERT JUMPDEST SELFBALANCE DUP2 GT ISZERO PUSH2 0x3A71 JUMPI PUSH1 0x40 MLOAD PUSH32 0xF4D678B800000000000000000000000000000000000000000000000000000000 DUP2 MSTORE PUSH1 0x4 ADD PUSH1 0x40 MLOAD DUP1 SWAP2 SUB SWAP1 REVERT JUMPDEST PUSH0 PUSH2 0x3A7A PUSH2 0x7BB8 JUMP JUMPDEST SWAP1 POP PUSH0 DUP2 PUSH20 0xFFFFFFFFFFFFFFFFFFFFFFFFFFFFFFFFFFFFFFFF AND DUP4 PUSH1 0x40 MLOAD PUSH2 0x3AA1 SWAP1 PUSH2 0xA92D JUMP JUMPDEST PUSH0 PUSH1 0x40 MLOAD DUP1 DUP4 SUB DUP2 DUP6 DUP8 GAS CALL SWAP3 POP POP POP RETURNDATASIZE DUP1 PUSH0 DUP2 EQ PUSH2 0x3ADB JUMPI PUSH1 0x40 MLOAD SWAP2 POP PUSH1 0x1F NOT PUSH1 0x3F RETURNDATASIZE ADD AND DUP3 ADD PUSH1 0x40 MSTORE RETURNDATASIZE DUP3 MSTORE RETURNDATASIZE PUSH0 PUSH1 0x20 DUP5 ADD RETURNDATACOPY PUSH2 0x3AE0 JUMP JUMPDEST PUSH1 0x60 SWAP2 POP JUMPDEST POP POP SWAP1 POP DUP1 PUSH2 0x3B1B JUMPI PUSH1 0x40 MLOAD PUSH32 0x90B8EC1800000000000000000000000000000000000000000000000000000000 DUP2 MSTORE PUSH1 0x4 ADD PUSH1 0x40 MLOAD DUP1 SWAP2 SUB SWAP1 REVERT JUMPDEST POP POP POP JUMP JUMPDEST PUSH1 0x30 PUSH0 SWAP1 SLOAD SWAP1 PUSH2 0x100 EXP SWAP1 DIV PUSH1 0xFF AND DUP2 JUMP JUMPDEST PUSH1 0x22 PUSH0 SWAP1 SLOAD SWAP1 PUSH2 0x100 EXP SWAP1 DIV PUSH20 0xFFFFFFFFFFFFFFFFFFFFFFFFFFFFFFFFFFFFFFFF AND PUSH20 0xFFFFFFFFFFFFFFFFFFFFFFFFFFFFFFFFFFFFFFFF AND CALLER PUSH20 0xFFFFFFFFFFFFFFFFFFFFFFFFFFFFFFFFFFFFFFFF AND EQ ISZERO DUP1 ISZERO PUSH2 0x3BC2 JUMPI POP PUSH2 0x3B92 PUSH2 0x492F JUMP JUMPDEST PUSH20 0xFFFFFFFFFFFFFFFFFFFFFFFFFFFFFFFFFFFFFFFF AND CALLER PUSH20 0xFFFFFFFFFFFFFFFFFFFFFFFFFFFFFFFFFFFFFFFF AND EQ ISZERO JUMPDEST ISZERO PUSH2 0x3BF9 JUMPI PUSH1 0x40 MLOAD PUSH32 0x82B4290000000000000000000000000000000000000000000000000000000000 DUP2 MSTORE PUSH1 0x4 ADD PUSH1 0x40 MLOAD DUP1 SWAP2 SUB SWAP1 REVERT JUMPDEST PUSH0 CALLVALUE SUB PUSH2 0x3C32 JUMPI PUSH1 0x40 MLOAD PUSH32 0x2C5211C600000000000000000000000000000000000000000000000000000000 DUP2 MSTORE PUSH1 0x4 ADD PUSH1 0x40 MLOAD DUP1 SWAP2 SUB SWAP1 REVERT JUMPDEST JUMP JUMPDEST PUSH1 0x6 SLOAD DUP2 JUMP JUMPDEST PUSH1 0x5 PUSH1 0x14 SWAP1 SLOAD SWAP1 PUSH2 0x100 EXP SWAP1 DIV PUSH1 0xFF AND DUP2 JUMP JUMPDEST PUSH1 0x2C PUSH0 SWAP1 SLOAD SWAP1 PUSH2 0x100 EXP SWAP1 DIV PUSH1 0xFF AND DUP2 JUMP JUMPDEST PUSH1 0x1A PUSH0 SWAP1 SLOAD SWAP1 PUSH2 0x100 EXP SWAP1 DIV PUSH1 0xFF AND DUP2 JUMP JUMPDEST PUSH1 0x22 PUSH0 SWAP1 SLOAD SWAP1 PUSH2 0x100 EXP SWAP1 DIV PUSH20 0xFFFFFFFFFFFFFFFFFFFFFFFFFFFFFFFFFFFFFFFF AND DUP2 JUMP JUMPDEST PUSH1 0x30 PUSH1 0x1 SWAP1 SLOAD SWAP1 PUSH2 0x100 EXP SWAP1 DIV PUSH1 0xFF AND DUP2 JUMP JUMPDEST PUSH3 0xB71B0 DUP2 JUMP JUMPDEST PUSH3 0xF4240 DUP2 JUMP JUMPDEST PUSH1 0x1F PUSH1 0x20 MSTORE DUP1 PUSH0 MSTORE PUSH1 0x40 PUSH0 KECCAK256 PUSH0 SWAP2 POP SWAP1 POP SLOAD DUP2 JUMP JUMPDEST PUSH1 0x22 PUSH0 SWAP1 SLOAD SWAP1 PUSH2 0x100 EXP SWAP1 DIV PUSH20 0xFFFFFFFFFFFFFFFFFFFFFFFFFFFFFFFFFFFFFFFF AND PUSH20 0xFFFFFFFFFFFFFFFFFFFFFFFFFFFFFFFFFFFFFFFF AND CALLER PUSH20 0xFFFFFFFFFFFFFFFFFFFFFFFFFFFFFFFFFFFFFFFF AND EQ ISZERO DUP1 ISZERO PUSH2 0x3D5C JUMPI POP PUSH2 0x3D2C PUSH2 0x492F JUMP JUMPDEST PUSH20 0xFFFFFFFFFFFFFFFFFFFFFFFFFFFFFFFFFFFFFFFF AND CALLER PUSH20 0xFFFFFFFFFFFFFFFFFFFFFFFFFFFFFFFFFFFFFFFF AND EQ ISZERO JUMPDEST ISZERO PUSH2 0x3D93 JUMPI PUSH1 0x40 MLOAD PUSH32 0x82B4290000000000000000000000000000000000000000000000000000000000 DUP2 MSTORE PUSH1 0x4 ADD PUSH1 0x40 MLOAD DUP1 SWAP2 SUB SWAP1 REVERT JUMPDEST DUP3 PUSH1 0x27 DUP2 SWAP1 SSTORE POP DUP2 PUSH1 0x28 DUP2 SWAP1 SSTORE POP PUSH3 0xF4240 DUP2 GT ISZERO PUSH2 0x3DDE JUMPI PUSH1 0x40 MLOAD PUSH32 0x6A43F8D100000000000000000000000000000000000000000000000000000000 DUP2 MSTORE PUSH1 0x4 ADD PUSH1 0x40 MLOAD DUP1 SWAP2 SUB SWAP1 REVERT JUMPDEST DUP1 PUSH1 0x29 DUP2 SWAP1 SSTORE POP POP POP POP JUMP JUMPDEST PUSH1 0x22 PUSH0 SWAP1 SLOAD SWAP1 PUSH2 0x100 EXP SWAP1 DIV PUSH20 0xFFFFFFFFFFFFFFFFFFFFFFFFFFFFFFFFFFFFFFFF AND PUSH20 0xFFFFFFFFFFFFFFFFFFFFFFFFFFFFFFFFFFFFFFFF AND CALLER PUSH20 0xFFFFFFFFFFFFFFFFFFFFFFFFFFFFFFFFFFFFFFFF AND EQ ISZERO DUP1 ISZERO PUSH2 0x3E7A JUMPI POP PUSH2 0x3E4A PUSH2 0x492F JUMP JUMPDEST PUSH20 0xFFFFFFFFFFFFFFFFFFFFFFFFFFFFFFFFFFFFFFFF AND CALLER PUSH20 0xFFFFFFFFFFFFFFFFFFFFFFFFFFFFFFFFFFFFFFFF AND EQ ISZERO JUMPDEST ISZERO PUSH2 0x3EB1 JUMPI PUSH1 0x40 MLOAD PUSH32 0x82B4290000000000000000000000000000000000000000000000000000000000 DUP2 MSTORE PUSH1 0x4 ADD PUSH1 0x40 MLOAD DUP1 SWAP2 SUB SWAP1 REVERT JUMPDEST DUP1 PUSH1 0x1E PUSH0 PUSH2 0x100 EXP DUP2 SLOAD DUP2 PUSH1 0xFF MUL NOT AND SWAP1 DUP4 ISZERO ISZERO MUL OR SWAP1 SSTORE POP POP JUMP JUMPDEST PUSH1 0xA SLOAD DUP2 JUMP JUMPDEST PUSH0 PUSH0 PUSH0 DUP4 PUSH20 0xFFFFFFFFFFFFFFFFFFFFFFFFFFFFFFFFFFFFFFFF AND PUSH20 0xFFFFFFFFFFFFFFFFFFFFFFFFFFFFFFFFFFFFFFFF AND DUP2 MSTORE PUSH1 0x20 ADD SWAP1 DUP2 MSTORE PUSH1 0x20 ADD PUSH0 KECCAK256 SLOAD SWAP1 POP SWAP2 SWAP1 POP JUMP JUMPDEST PUSH2 0x3F20 PUSH2 0x79AE JUMP JUMPDEST PUSH2 0x3F29 PUSH0 PUSH2 0x7E37 JUMP JUMPDEST JUMP JUMPDEST PUSH1 0x22 PUSH0 SWAP1 SLOAD SWAP1 PUSH2 0x100 EXP SWAP1 DIV PUSH20 0xFFFFFFFFFFFFFFFFFFFFFFFFFFFFFFFFFFFFFFFF AND PUSH20 0xFFFFFFFFFFFFFFFFFFFFFFFFFFFFFFFFFFFFFFFF AND CALLER PUSH20 0xFFFFFFFFFFFFFFFFFFFFFFFFFFFFFFFFFFFFFFFF AND EQ ISZERO DUP1 ISZERO PUSH2 0x3FBB JUMPI POP PUSH2 0x3F8B PUSH2 0x492F JUMP JUMPDEST PUSH20 0xFFFFFFFFFFFFFFFFFFFFFFFFFFFFFFFFFFFFFFFF AND CALLER PUSH20 0xFFFFFFFFFFFFFFFFFFFFFFFFFFFFFFFFFFFFFFFF AND EQ ISZERO JUMPDEST ISZERO PUSH2 0x3FF2 JUMPI PUSH1 0x40 MLOAD PUSH32 0x82B4290000000000000000000000000000000000000000000000000000000000 DUP2 MSTORE PUSH1 0x4 ADD PUSH1 0x40 MLOAD DUP1 SWAP2 SUB SWAP1 REVERT JUMPDEST PUSH3 0xF4240 DUP6 GT ISZERO PUSH2 0x402F JUMPI PUSH1 0x40 MLOAD PUSH32 0x6A43F8D100000000000000000000000000000000000000000000000000000000 DUP2 MSTORE PUSH1 0x4 ADD PUSH1 0x40 MLOAD DUP1 SWAP2 SUB SWAP1 REVERT JUMPDEST PUSH0 DUP3 DUP5 PUSH2 0x403C SWAP2 SWAP1 PUSH2 0xA663 JUMP JUMPDEST SUB PUSH2 0x4073 JUMPI PUSH1 0x40 MLOAD PUSH32 0x6A43F8D100000000000000000000000000000000000000000000000000000000 DUP2 MSTORE PUSH1 0x4 ADD PUSH1 0x40 MLOAD DUP1 SWAP2 SUB SWAP1 REVERT JUMPDEST PUSH2 0xE10 DUP2 LT DUP1 PUSH2 0x4085 JUMPI POP PUSH3 0x93A80 DUP2 GT JUMPDEST ISZERO PUSH2 0x40BC JUMPI PUSH1 0x40 MLOAD PUSH32 0x2C5211C600000000000000000000000000000000000000000000000000000000 DUP2 MSTORE PUSH1 0x4 ADD PUSH1 0x40 MLOAD DUP1 SWAP2 SUB SWAP1 REVERT JUMPDEST DUP5 PUSH1 0x2B DUP2 SWAP1 SSTORE POP DUP4 PUSH1 0x2C PUSH0 PUSH2 0x100 EXP DUP2 SLOAD DUP2 PUSH1 0xFF MUL NOT AND SWAP1 DUP4 ISZERO ISZERO MUL OR SWAP1 SSTORE POP DUP3 PUSH1 0x2D DUP2 SWAP1 SSTORE POP DUP2 PUSH1 0x2E DUP2 SWAP1 SSTORE POP DUP1 PUSH1 0x2F DUP2 SWAP1 SSTORE POP POP POP POP POP POP JUMP JUMPDEST PUSH1 0xD SLOAD DUP2 JUMP JUMPDEST PUSH1 0x18 PUSH1 0x20 MSTORE DUP1 PUSH0 MSTORE PUSH1 0x40 PUSH0 KECCAK256 PUSH0 SWAP2 POP SWAP1 POP DUP1 PUSH0 ADD SLOAD SWAP1 DUP1 PUSH1 0x1 ADD PUSH0 SWAP1 SLOAD SWAP1 PUSH2 0x100 EXP SWAP1 DIV PUSH1 0xFF AND SWAP1 DUP1 PUSH1 0x2 ADD SLOAD SWAP1 POP DUP4 JUMP JUMPDEST PUSH1 0x8 DUP2 JUMP JUMPDEST PUSH3 0x30D40 DUP2 JUMP JUMPDEST PUSH2 0x4144 PUSH2 0x79AE JUMP JUMPDEST PUSH1 0x30 PUSH0 SWAP1 SLOAD SWAP1 PUSH2 0x100 EXP SWAP1 DIV PUSH1 0xFF AND ISZERO PUSH2 0x418A JUMPI PUSH1 0x40 MLOAD PUSH32 0x9BB3A4A300000000000000000000000000000000000000000000000000000000 DUP2 MSTORE PUSH1 0x4 ADD PUSH1 0x40 MLOAD DUP1 SWAP2 SUB SWAP1 REVERT JUMPDEST DUP2 DUP2 SWAP1 POP DUP5 DUP5 SWAP1 POP EQ PUSH2 0x41C9 JUMPI PUSH1 0x40 MLOAD PUSH32 0x2C5211C600000000000000000000000000000000000000000000000000000000 DUP2 MSTORE PUSH1 0x4 ADD PUSH1 0x40 MLOAD DUP1 SWAP2 SUB SWAP1 REVERT JUMPDEST PUSH0 DUP5 DUP5 SWAP1 POP SWAP1 POP PUSH0 PUSH0 SWAP1 POP JUMPDEST DUP2 DUP2 LT ISZERO PUSH2 0x44B1 JUMPI PUSH0 PUSH20 0xFFFFFFFFFFFFFFFFFFFFFFFFFFFFFFFFFFFFFFFF AND PUSH1 0x8 PUSH0 DUP9 DUP9 DUP6 DUP2 DUP2 LT PUSH2 0x420A JUMPI PUSH2 0x4209 PUSH2 0xA86D JUMP JUMPDEST JUMPDEST SWAP1 POP PUSH1 0x20 MUL ADD PUSH1 0x20 DUP2 ADD SWAP1 PUSH2 0x421F SWAP2 SWAP1 PUSH2 0xA136 JUMP JUMPDEST PUSH20 0xFFFFFFFFFFFFFFFFFFFFFFFFFFFFFFFFFFFFFFFF AND PUSH20 0xFFFFFFFFFFFFFFFFFFFFFFFFFFFFFFFFFFFFFFFF AND DUP2 MSTORE PUSH1 0x20 ADD SWAP1 DUP2 MSTORE PUSH1 0x20 ADD PUSH0 KECCAK256 PUSH0 SWAP1 SLOAD SWAP1 PUSH2 0x100 EXP SWAP1 DIV PUSH20 0xFFFFFFFFFFFFFFFFFFFFFFFFFFFFFFFFFFFFFFFF AND PUSH20 0xFFFFFFFFFFFFFFFFFFFFFFFFFFFFFFFFFFFFFFFF AND EQ DUP1 ISZERO PUSH2 0x42EE JUMPI POP PUSH0 PUSH20 0xFFFFFFFFFFFFFFFFFFFFFFFFFFFFFFFFFFFFFFFF AND DUP5 DUP5 DUP4 DUP2 DUP2 LT PUSH2 0x42C0 JUMPI PUSH2 0x42BF PUSH2 0xA86D JUMP JUMPDEST JUMPDEST SWAP1 POP PUSH1 0x20 MUL ADD PUSH1 0x20 DUP2 ADD SWAP1 PUSH2 0x42D5 SWAP2 SWAP1 PUSH2 0xA136 JUMP JUMPDEST PUSH20 0xFFFFFFFFFFFFFFFFFFFFFFFFFFFFFFFFFFFFFFFF AND EQ ISZERO JUMPDEST ISZERO PUSH2 0x44A6 JUMPI DUP4 DUP4 DUP3 DUP2 DUP2 LT PUSH2 0x4306 JUMPI PUSH2 0x4305 PUSH2 0xA86D JUMP JUMPDEST JUMPDEST SWAP1 POP PUSH1 0x20 MUL ADD PUSH1 0x20 DUP2 ADD SWAP1 PUSH2 0x431B SWAP2 SWAP1 PUSH2 0xA136 JUMP JUMPDEST PUSH1 0x8 PUSH0 DUP9 DUP9 DUP6 DUP2 DUP2 LT PUSH2 0x4331 JUMPI PUSH2 0x4330 PUSH2 0xA86D JUMP JUMPDEST JUMPDEST SWAP1 POP PUSH1 0x20 MUL ADD PUSH1 0x20 DUP2 ADD SWAP1 PUSH2 0x4346 SWAP2 SWAP1 PUSH2 0xA136 JUMP JUMPDEST PUSH20 0xFFFFFFFFFFFFFFFFFFFFFFFFFFFFFFFFFFFFFFFF AND PUSH20 0xFFFFFFFFFFFFFFFFFFFFFFFFFFFFFFFFFFFFFFFF AND DUP2 MSTORE PUSH1 0x20 ADD SWAP1 DUP2 MSTORE PUSH1 0x20 ADD PUSH0 KECCAK256 PUSH0 PUSH2 0x100 EXP DUP2 SLOAD DUP2 PUSH20 0xFFFFFFFFFFFFFFFFFFFFFFFFFFFFFFFFFFFFFFFF MUL NOT AND SWAP1 DUP4 PUSH20 0xFFFFFFFFFFFFFFFFFFFFFFFFFFFFFFFFFFFFFFFF AND MUL OR SWAP1 SSTORE POP PUSH1 0x9 PUSH0 DUP6 DUP6 DUP5 DUP2 DUP2 LT PUSH2 0x43D2 JUMPI PUSH2 0x43D1 PUSH2 0xA86D JUMP JUMPDEST JUMPDEST SWAP1 POP PUSH1 0x20 MUL ADD PUSH1 0x20 DUP2 ADD SWAP1 PUSH2 0x43E7 SWAP2 SWAP1 PUSH2 0xA136 JUMP JUMPDEST PUSH20 0xFFFFFFFFFFFFFFFFFFFFFFFFFFFFFFFFFFFFFFFF AND PUSH20 0xFFFFFFFFFFFFFFFFFFFFFFFFFFFFFFFFFFFFFFFF AND DUP2 MSTORE PUSH1 0x20 ADD SWAP1 DUP2 MSTORE PUSH1 0x20 ADD PUSH0 KECCAK256 DUP7 DUP7 DUP4 DUP2 DUP2 LT PUSH2 0x4433 JUMPI PUSH2 0x4432 PUSH2 0xA86D JUMP JUMPDEST JUMPDEST SWAP1 POP PUSH1 0x20 MUL ADD PUSH1 0x20 DUP2 ADD SWAP1 PUSH2 0x4448 SWAP2 SWAP1 PUSH2 0xA136 JUMP JUMPDEST SWAP1 DUP1 PUSH1 0x1 DUP2 SLOAD ADD DUP1 DUP3 SSTORE DUP1 SWAP2 POP POP PUSH1 0x1 SWAP1 SUB SWAP1 PUSH0 MSTORE PUSH1 0x20 PUSH0 KECCAK256 ADD PUSH0 SWAP1 SWAP2 SWAP1 SWAP2 SWAP1 SWAP2 PUSH2 0x100 EXP DUP2 SLOAD DUP2 PUSH20 0xFFFFFFFFFFFFFFFFFFFFFFFFFFFFFFFFFFFFFFFF MUL NOT AND SWAP1 DUP4 PUSH20 0xFFFFFFFFFFFFFFFFFFFFFFFFFFFFFFFFFFFFFFFF AND MUL OR SWAP1 SSTORE POP JUMPDEST DUP1 PUSH1 0x1 ADD SWAP1 POP PUSH2 0x41D5 JUMP JUMPDEST POP POP POP POP POP POP JUMP JUMPDEST PUSH2 0x44C1 PUSH2 0x79AE JUMP JUMPDEST PUSH1 0x30 PUSH0 SWAP1 SLOAD SWAP1 PUSH2 0x100 EXP SWAP1 DIV PUSH1 0xFF AND ISZERO PUSH2 0x4507 JUMPI PUSH1 0x40 MLOAD PUSH32 0x9BB3A4A300000000000000000000000000000000000000000000000000000000 DUP2 MSTORE PUSH1 0x4 ADD PUSH1 0x40 MLOAD DUP1 SWAP2 SUB SWAP1 REVERT JUMPDEST DUP4 DUP4 SWAP1 POP DUP7 DUP7 SWAP1 POP EQ ISZERO DUP1 PUSH2 0x4522 JUMPI POP DUP2 DUP2 SWAP1 POP DUP7 DUP7 SWAP1 POP EQ ISZERO JUMPDEST ISZERO PUSH2 0x4559 JUMPI PUSH1 0x40 MLOAD PUSH32 0x2C5211C600000000000000000000000000000000000000000000000000000000 DUP2 MSTORE PUSH1 0x4 ADD PUSH1 0x40 MLOAD DUP1 SWAP2 SUB SWAP1 REVERT JUMPDEST PUSH0 DUP7 DUP7 SWAP1 POP SWAP1 POP PUSH0 PUSH0 SWAP1 POP JUMPDEST DUP2 DUP2 LT ISZERO PUSH2 0x4623 JUMPI PUSH0 PUSH1 0x17 PUSH0 DUP11 DUP11 DUP6 DUP2 DUP2 LT PUSH2 0x4584 JUMPI PUSH2 0x4583 PUSH2 0xA86D JUMP JUMPDEST JUMPDEST SWAP1 POP PUSH1 0x20 MUL ADD PUSH1 0x20 DUP2 ADD SWAP1 PUSH2 0x4599 SWAP2 SWAP1 PUSH2 0xA136 JUMP JUMPDEST PUSH20 0xFFFFFFFFFFFFFFFFFFFFFFFFFFFFFFFFFFFFFFFF AND PUSH20 0xFFFFFFFFFFFFFFFFFFFFFFFFFFFFFFFFFFFFFFFF AND DUP2 MSTORE PUSH1 0x20 ADD SWAP1 DUP2 MSTORE PUSH1 0x20 ADD PUSH0 KECCAK256 SWAP1 POP DUP7 DUP7 DUP4 DUP2 DUP2 LT PUSH2 0x45E7 JUMPI PUSH2 0x45E6 PUSH2 0xA86D JUMP JUMPDEST JUMPDEST SWAP1 POP PUSH1 0x20 MUL ADD CALLDATALOAD DUP2 PUSH0 ADD DUP2 SWAP1 SSTORE POP DUP5 DUP5 DUP4 DUP2 DUP2 LT PUSH2 0x4608 JUMPI PUSH2 0x4607 PUSH2 0xA86D JUMP JUMPDEST JUMPDEST SWAP1 POP PUSH1 0x20 MUL ADD CALLDATALOAD DUP2 PUSH1 0x2 ADD DUP2 SWAP1 SSTORE POP DUP2 PUSH1 0x1 ADD SWAP2 POP POP PUSH2 0x4565 JUMP JUMPDEST POP POP POP POP POP POP POP POP JUMP JUMPDEST PUSH32 0x0 DUP2 JUMP JUMPDEST PUSH1 0x22 PUSH0 SWAP1 SLOAD SWAP1 PUSH2 0x100 EXP SWAP1 DIV PUSH20 0xFFFFFFFFFFFFFFFFFFFFFFFFFFFFFFFFFFFFFFFF AND PUSH20 0xFFFFFFFFFFFFFFFFFFFFFFFFFFFFFFFFFFFFFFFF AND CALLER PUSH20 0xFFFFFFFFFFFFFFFFFFFFFFFFFFFFFFFFFFFFFFFF AND EQ ISZERO DUP1 ISZERO PUSH2 0x46E1 JUMPI POP PUSH2 0x46B1 PUSH2 0x492F JUMP JUMPDEST PUSH20 0xFFFFFFFFFFFFFFFFFFFFFFFFFFFFFFFFFFFFFFFF AND CALLER PUSH20 0xFFFFFFFFFFFFFFFFFFFFFFFFFFFFFFFFFFFFFFFF AND EQ ISZERO JUMPDEST ISZERO PUSH2 0x4718 JUMPI PUSH1 0x40 MLOAD PUSH32 0x82B4290000000000000000000000000000000000000000000000000000000000 DUP2 MSTORE PUSH1 0x4 ADD PUSH1 0x40 MLOAD DUP1 SWAP2 SUB SWAP1 REVERT JUMPDEST PUSH0 PUSH20 0xFFFFFFFFFFFFFFFFFFFFFFFFFFFFFFFFFFFFFFFF AND DUP2 PUSH20 0xFFFFFFFFFFFFFFFFFFFFFFFFFFFFFFFFFFFFFFFF AND SUB PUSH2 0x477D JUMPI PUSH1 0x40 MLOAD PUSH32 0xD92E233D00000000000000000000000000000000000000000000000000000000 DUP2 MSTORE PUSH1 0x4 ADD PUSH1 0x40 MLOAD DUP1 SWAP2 SUB SWAP1 REVERT JUMPDEST DUP1 PUSH1 0x21 PUSH0 PUSH2 0x100 EXP DUP2 SLOAD DUP2 PUSH20 0xFFFFFFFFFFFFFFFFFFFFFFFFFFFFFFFFFFFFFFFF MUL NOT AND SWAP1 DUP4 PUSH20 0xFFFFFFFFFFFFFFFFFFFFFFFFFFFFFFFFFFFFFFFF AND MUL OR SWAP1 SSTORE POP POP JUMP JUMPDEST PUSH1 0x22 PUSH0 SWAP1 SLOAD SWAP1 PUSH2 0x100 EXP SWAP1 DIV PUSH20 0xFFFFFFFFFFFFFFFFFFFFFFFFFFFFFFFFFFFFFFFF AND PUSH20 0xFFFFFFFFFFFFFFFFFFFFFFFFFFFFFFFFFFFFFFFF AND CALLER PUSH20 0xFFFFFFFFFFFFFFFFFFFFFFFFFFFFFFFFFFFFFFFF AND EQ ISZERO DUP1 ISZERO PUSH2 0x4850 JUMPI POP PUSH2 0x4820 PUSH2 0x492F JUMP JUMPDEST PUSH20 0xFFFFFFFFFFFFFFFFFFFFFFFFFFFFFFFFFFFFFFFF AND CALLER PUSH20 0xFFFFFFFFFFFFFFFFFFFFFFFFFFFFFFFFFFFFFFFF AND EQ ISZERO JUMPDEST ISZERO PUSH2 0x4887 JUMPI PUSH1 0x40 MLOAD PUSH32 0x82B4290000000000000000000000000000000000000000000000000000000000 DUP2 MSTORE PUSH1 0x4 ADD PUSH1 0x40 MLOAD DUP1 SWAP2 SUB SWAP1 REVERT JUMPDEST PUSH0 PUSH20 0xFFFFFFFFFFFFFFFFFFFFFFFFFFFFFFFFFFFFFFFF AND DUP2 PUSH20 0xFFFFFFFFFFFFFFFFFFFFFFFFFFFFFFFFFFFFFFFF AND SUB PUSH2 0x48EC JUMPI PUSH1 0x40 MLOAD PUSH32 0xD92E233D00000000000000000000000000000000000000000000000000000000 DUP2 MSTORE PUSH1 0x4 ADD PUSH1 0x40 MLOAD DUP1 SWAP2 SUB SWAP1 REVERT JUMPDEST DUP1 PUSH1 0x23 PUSH0 PUSH2 0x100 EXP DUP2 SLOAD DUP2 PUSH20 0xFFFFFFFFFFFFFFFFFFFFFFFFFFFFFFFFFFFFFFFF MUL NOT AND SWAP1 DUP4 PUSH20 0xFFFFFFFFFFFFFFFFFFFFFFFFFFFFFFFFFFFFFFFF AND MUL OR SWAP1 SSTORE POP POP JUMP JUMPDEST PUSH0 PUSH1 0x5 PUSH0 SWAP1 SLOAD SWAP1 PUSH2 0x100 EXP SWAP1 DIV PUSH20 0xFFFFFFFFFFFFFFFFFFFFFFFFFFFFFFFFFFFFFFFF AND SWAP1 POP SWAP1 JUMP JUMPDEST PUSH3 0x3D090 DUP2 JUMP JUMPDEST PUSH1 0x22 PUSH0 SWAP1 SLOAD SWAP1 PUSH2 0x100 EXP SWAP1 DIV PUSH20 0xFFFFFFFFFFFFFFFFFFFFFFFFFFFFFFFFFFFFFFFF AND PUSH20 0xFFFFFFFFFFFFFFFFFFFFFFFFFFFFFFFFFFFFFFFF AND CALLER PUSH20 0xFFFFFFFFFFFFFFFFFFFFFFFFFFFFFFFFFFFFFFFF AND EQ ISZERO DUP1 ISZERO PUSH2 0x49EE JUMPI POP PUSH2 0x49BE PUSH2 0x492F JUMP JUMPDEST PUSH20 0xFFFFFFFFFFFFFFFFFFFFFFFFFFFFFFFFFFFFFFFF AND CALLER PUSH20 0xFFFFFFFFFFFFFFFFFFFFFFFFFFFFFFFFFFFFFFFF AND EQ ISZERO JUMPDEST ISZERO PUSH2 0x4A25 JUMPI PUSH1 0x40 MLOAD PUSH32 0x82B4290000000000000000000000000000000000000000000000000000000000 DUP2 MSTORE PUSH1 0x4 ADD PUSH1 0x40 MLOAD DUP1 SWAP2 SUB SWAP1 REVERT JUMPDEST DUP1 PUSH1 0x1C PUSH0 DUP5 PUSH20 0xFFFFFFFFFFFFFFFFFFFFFFFFFFFFFFFFFFFFFFFF AND PUSH20 0xFFFFFFFFFFFFFFFFFFFFFFFFFFFFFFFFFFFFFFFF AND DUP2 MSTORE PUSH1 0x20 ADD SWAP1 DUP2 MSTORE PUSH1 0x20 ADD PUSH0 KECCAK256 PUSH0 PUSH2 0x100 EXP DUP2 SLOAD DUP2 PUSH1 0xFF MUL NOT AND SWAP1 DUP4 ISZERO ISZERO MUL OR SWAP1 SSTORE POP POP POP JUMP JUMPDEST PUSH1 0x13 SLOAD DUP2 JUMP JUMPDEST PUSH0 PUSH1 0x26 SLOAD SWAP1 POP SWAP1 JUMP JUMPDEST PUSH2 0x4A94 PUSH2 0x1942 JUMP JUMPDEST PUSH1 0x24 PUSH0 SWAP1 SLOAD SWAP1 PUSH2 0x100 EXP SWAP1 DIV PUSH20 0xFFFFFFFFFFFFFFFFFFFFFFFFFFFFFFFFFFFFFFFF AND PUSH20 0xFFFFFFFFFFFFFFFFFFFFFFFFFFFFFFFFFFFFFFFF AND CALLER PUSH20 0xFFFFFFFFFFFFFFFFFFFFFFFFFFFFFFFFFFFFFFFF AND EQ ISZERO DUP1 PUSH2 0x4AF5 JUMPI POP PUSH2 0x4AF3 PUSH2 0x6D2C JUMP JUMPDEST ISZERO JUMPDEST ISZERO PUSH2 0x4B2C JUMPI PUSH1 0x40 MLOAD PUSH32 0x82B4290000000000000000000000000000000000000000000000000000000000 DUP2 MSTORE PUSH1 0x4 ADD PUSH1 0x40 MLOAD DUP1 SWAP2 SUB SWAP1 REVERT JUMPDEST PUSH2 0x4B34 PUSH2 0x6D83 JUMP JUMPDEST PUSH20 0xFFFFFFFFFFFFFFFFFFFFFFFFFFFFFFFFFFFFFFFF AND PUSH4 0x94F7693A DUP4 DUP4 PUSH1 0x40 MLOAD DUP4 PUSH4 0xFFFFFFFF AND PUSH1 0xE0 SHL DUP2 MSTORE PUSH1 0x4 ADD PUSH2 0x4B6E SWAP3 SWAP2 SWAP1 PUSH2 0xA89A JUMP JUMPDEST PUSH0 PUSH1 0x40 MLOAD DUP1 DUP4 SUB DUP2 PUSH0 DUP8 DUP1 EXTCODESIZE ISZERO DUP1 ISZERO PUSH2 0x4B85 JUMPI PUSH0 PUSH0 REVERT JUMPDEST POP GAS CALL ISZERO DUP1 ISZERO PUSH2 0x4B97 JUMPI RETURNDATASIZE PUSH0 PUSH0 RETURNDATACOPY RETURNDATASIZE PUSH0 REVERT JUMPDEST POP POP POP POP PUSH2 0x4BA3 PUSH2 0x1D23 JUMP JUMPDEST POP POP JUMP JUMPDEST PUSH1 0x60 PUSH1 0x4 DUP1 SLOAD PUSH2 0x4BB6 SWAP1 PUSH2 0xA83D JUMP JUMPDEST DUP1 PUSH1 0x1F ADD PUSH1 0x20 DUP1 SWAP2 DIV MUL PUSH1 0x20 ADD PUSH1 0x40 MLOAD SWAP1 DUP2 ADD PUSH1 0x40 MSTORE DUP1 SWAP3 SWAP2 SWAP1 DUP2 DUP2 MSTORE PUSH1 0x20 ADD DUP3 DUP1 SLOAD PUSH2 0x4BE2 SWAP1 PUSH2 0xA83D JUMP JUMPDEST DUP1 ISZERO PUSH2 0x4C2D JUMPI DUP1 PUSH1 0x1F LT PUSH2 0x4C04 JUMPI PUSH2 0x100 DUP1 DUP4 SLOAD DIV MUL DUP4 MSTORE SWAP2 PUSH1 0x20 ADD SWAP2 PUSH2 0x4C2D JUMP JUMPDEST DUP3 ADD SWAP2 SWAP1 PUSH0 MSTORE PUSH1 0x20 PUSH0 KECCAK256 SWAP1 JUMPDEST DUP2 SLOAD DUP2 MSTORE SWAP1 PUSH1 0x1 ADD SWAP1 PUSH1 0x20 ADD DUP1 DUP4 GT PUSH2 0x4C10 JUMPI DUP3 SWAP1 SUB PUSH1 0x1F AND DUP3 ADD SWAP2 JUMPDEST POP POP POP POP POP SWAP1 POP SWAP1 JUMP JUMPDEST PUSH1 0x22 PUSH0 SWAP1 SLOAD SWAP1 PUSH2 0x100 EXP SWAP1 DIV PUSH20 0xFFFFFFFFFFFFFFFFFFFFFFFFFFFFFFFFFFFFFFFF AND PUSH20 0xFFFFFFFFFFFFFFFFFFFFFFFFFFFFFFFFFFFFFFFF AND CALLER PUSH20 0xFFFFFFFFFFFFFFFFFFFFFFFFFFFFFFFFFFFFFFFF AND EQ ISZERO DUP1 ISZERO PUSH2 0x4CC7 JUMPI POP PUSH2 0x4C97 PUSH2 0x492F JUMP JUMPDEST PUSH20 0xFFFFFFFFFFFFFFFFFFFFFFFFFFFFFFFFFFFFFFFF AND CALLER PUSH20 0xFFFFFFFFFFFFFFFFFFFFFFFFFFFFFFFFFFFFFFFF AND EQ ISZERO JUMPDEST ISZERO PUSH2 0x4CFE JUMPI PUSH1 0x40 MLOAD PUSH32 0x82B4290000000000000000000000000000000000000000000000000000000000 DUP2 MSTORE PUSH1 0x4 ADD PUSH1 0x40 MLOAD DUP1 SWAP2 SUB SWAP1 REVERT JUMPDEST DUP1 DUP3 GT ISZERO PUSH2 0x4D38 JUMPI PUSH1 0x40 MLOAD PUSH32 0x2C5211C600000000000000000000000000000000000000000000000000000000 DUP2 MSTORE PUSH1 0x4 ADD PUSH1 0x40 MLOAD DUP1 SWAP2 SUB SWAP1 REVERT JUMPDEST DUP2 PUSH1 0x14 DUP2 SWAP1 SSTORE POP DUP1 PUSH1 0x15 DUP2 SWAP1 SSTORE POP POP POP JUMP JUMPDEST PUSH1 0x11 SLOAD DUP2 JUMP JUMPDEST PUSH0 PUSH0 PUSH2 0x4D5A PUSH2 0x7922 JUMP JUMPDEST SWAP1 POP PUSH2 0x4D67 DUP2 DUP6 DUP6 PUSH2 0x7AC8 JUMP JUMPDEST PUSH1 0x1 SWAP2 POP POP SWAP3 SWAP2 POP POP JUMP JUMPDEST PUSH1 0x16 SLOAD DUP2 JUMP JUMPDEST PUSH1 0x22 PUSH0 SWAP1 SLOAD SWAP1 PUSH2 0x100 EXP SWAP1 DIV PUSH20 0xFFFFFFFFFFFFFFFFFFFFFFFFFFFFFFFFFFFFFFFF AND PUSH20 0xFFFFFFFFFFFFFFFFFFFFFFFFFFFFFFFFFFFFFFFF AND CALLER PUSH20 0xFFFFFFFFFFFFFFFFFFFFFFFFFFFFFFFFFFFFFFFF AND EQ ISZERO DUP1 ISZERO PUSH2 0x4E08 JUMPI POP PUSH2 0x4DD8 PUSH2 0x492F JUMP JUMPDEST PUSH20 0xFFFFFFFFFFFFFFFFFFFFFFFFFFFFFFFFFFFFFFFF AND CALLER PUSH20 0xFFFFFFFFFFFFFFFFFFFFFFFFFFFFFFFFFFFFFFFF AND EQ ISZERO JUMPDEST ISZERO PUSH2 0x4E3F JUMPI PUSH1 0x40 MLOAD PUSH32 0x82B4290000000000000000000000000000000000000000000000000000000000 DUP2 MSTORE PUSH1 0x4 ADD PUSH1 0x40 MLOAD DUP1 SWAP2 SUB SWAP1 REVERT JUMPDEST PUSH2 0x4E47 PUSH2 0x1942 JUMP JUMPDEST PUSH0 PUSH20 0xFFFFFFFFFFFFFFFFFFFFFFFFFFFFFFFFFFFFFFFF AND DUP3 PUSH20 0xFFFFFFFFFFFFFFFFFFFFFFFFFFFFFFFFFFFFFFFF AND SUB PUSH2 0x4EAC JUMPI PUSH1 0x40 MLOAD PUSH32 0xD92E233D00000000000000000000000000000000000000000000000000000000 DUP2 MSTORE PUSH1 0x4 ADD PUSH1 0x40 MLOAD DUP1 SWAP2 SUB SWAP1 REVERT JUMPDEST PUSH0 DUP2 SUB PUSH2 0x4EE5 JUMPI PUSH1 0x40 MLOAD PUSH32 0x2C5211C600000000000000000000000000000000000000000000000000000000 DUP2 MSTORE PUSH1 0x4 ADD PUSH1 0x40 MLOAD DUP1 SWAP2 SUB SWAP1 REVERT JUMPDEST PUSH0 PUSH20 0xFFFFFFFFFFFFFFFFFFFFFFFFFFFFFFFFFFFFFFFF AND PUSH1 0x8 PUSH0 DUP5 PUSH20 0xFFFFFFFFFFFFFFFFFFFFFFFFFFFFFFFFFFFFFFFF AND PUSH20 0xFFFFFFFFFFFFFFFFFFFFFFFFFFFFFFFFFFFFFFFF AND DUP2 MSTORE PUSH1 0x20 ADD SWAP1 DUP2 MSTORE PUSH1 0x20 ADD PUSH0 KECCAK256 PUSH0 SWAP1 SLOAD SWAP1 PUSH2 0x100 EXP SWAP1 DIV PUSH20 0xFFFFFFFFFFFFFFFFFFFFFFFFFFFFFFFFFFFFFFFF AND PUSH20 0xFFFFFFFFFFFFFFFFFFFFFFFFFFFFFFFFFFFFFFFF AND SUB PUSH2 0x4FA6 JUMPI PUSH1 0x40 MLOAD PUSH32 0xD92E233D00000000000000000000000000000000000000000000000000000000 DUP2 MSTORE PUSH1 0x4 ADD PUSH1 0x40 MLOAD DUP1 SWAP2 SUB SWAP1 REVERT JUMPDEST PUSH2 0x4FAE PUSH2 0x6215 JUMP JUMPDEST PUSH0 PUSH1 0x17 PUSH0 DUP5 PUSH20 0xFFFFFFFFFFFFFFFFFFFFFFFFFFFFFFFFFFFFFFFF AND PUSH20 0xFFFFFFFFFFFFFFFFFFFFFFFFFFFFFFFFFFFFFFFF AND DUP2 MSTORE PUSH1 0x20 ADD SWAP1 DUP2 MSTORE PUSH1 0x20 ADD PUSH0 KECCAK256 SWAP1 POP PUSH0 DUP2 PUSH1 0x2 ADD SLOAD EQ DUP1 PUSH2 0x5002 JUMPI POP PUSH0 DUP2 PUSH0 ADD SLOAD EQ JUMPDEST ISZERO PUSH2 0x5130 JUMPI DUP2 DUP2 PUSH0 ADD DUP2 SWAP1 SSTORE POP PUSH1 0xD SLOAD TIMESTAMP PUSH2 0x501D SWAP2 SWAP1 PUSH2 0xA663 JUMP JUMPDEST DUP2 PUSH1 0x2 ADD DUP2 SWAP1 SSTORE POP PUSH2 0x502F DUP4 DUP4 PUSH2 0x7682 JUMP JUMPDEST PUSH2 0x5037 PUSH2 0x6D2C JUMP JUMPDEST ISZERO PUSH2 0x512B JUMPI PUSH1 0x16 SLOAD DUP3 LT PUSH2 0x50B8 JUMPI PUSH2 0x504D PUSH2 0x6D83 JUMP JUMPDEST PUSH20 0xFFFFFFFFFFFFFFFFFFFFFFFFFFFFFFFFFFFFFFFF AND PUSH4 0xB631C4CA DUP5 PUSH1 0x1 DUP6 PUSH1 0x40 MLOAD DUP5 PUSH4 0xFFFFFFFF AND PUSH1 0xE0 SHL DUP2 MSTORE PUSH1 0x4 ADD PUSH2 0x508A SWAP4 SWAP3 SWAP2 SWAP1 PUSH2 0xA7DB JUMP JUMPDEST PUSH0 PUSH1 0x40 MLOAD DUP1 DUP4 SUB DUP2 PUSH0 DUP8 DUP1 EXTCODESIZE ISZERO DUP1 ISZERO PUSH2 0x50A1 JUMPI PUSH0 PUSH0 REVERT JUMPDEST POP GAS CALL ISZERO DUP1 ISZERO PUSH2 0x50B3 JUMPI RETURNDATASIZE PUSH0 PUSH0 RETURNDATACOPY RETURNDATASIZE PUSH0 REVERT JUMPDEST POP POP POP POP JUMPDEST PUSH2 0x50C0 PUSH2 0x6D83 JUMP JUMPDEST PUSH20 0xFFFFFFFFFFFFFFFFFFFFFFFFFFFFFFFFFFFFFFFF AND PUSH4 0xFF117898 DUP5 DUP5 PUSH1 0x1 PUSH1 0x40 MLOAD DUP5 PUSH4 0xFFFFFFFF AND PUSH1 0xE0 SHL DUP2 MSTORE PUSH1 0x4 ADD PUSH2 0x50FD SWAP4 SWAP3 SWAP2 SWAP1 PUSH2 0xA7A6 JUMP JUMPDEST PUSH0 PUSH1 0x40 MLOAD DUP1 DUP4 SUB DUP2 PUSH0 DUP8 DUP1 EXTCODESIZE ISZERO DUP1 ISZERO PUSH2 0x5114 JUMPI PUSH0 PUSH0 REVERT JUMPDEST POP GAS CALL ISZERO DUP1 ISZERO PUSH2 0x5126 JUMPI RETURNDATASIZE PUSH0 PUSH0 RETURNDATACOPY RETURNDATASIZE PUSH0 REVERT JUMPDEST POP POP POP POP JUMPDEST PUSH2 0x5281 JUMP JUMPDEST PUSH0 DUP3 DUP3 PUSH0 ADD SLOAD PUSH2 0x5140 SWAP2 SWAP1 PUSH2 0xA663 JUMP JUMPDEST SWAP1 POP DUP1 DUP3 PUSH0 ADD DUP2 SWAP1 SSTORE POP PUSH1 0xD SLOAD TIMESTAMP PUSH2 0x5158 SWAP2 SWAP1 PUSH2 0xA663 JUMP JUMPDEST DUP3 PUSH1 0x2 ADD DUP2 SWAP1 SSTORE POP PUSH2 0x516A DUP5 DUP5 PUSH2 0x7682 JUMP JUMPDEST PUSH2 0x5172 PUSH2 0x6D2C JUMP JUMPDEST ISZERO PUSH2 0x527F JUMPI PUSH2 0x517F PUSH2 0x6D83 JUMP JUMPDEST PUSH20 0xFFFFFFFFFFFFFFFFFFFFFFFFFFFFFFFFFFFFFFFF AND PUSH4 0xB6DFE6AD DUP6 PUSH1 0x40 MLOAD DUP3 PUSH4 0xFFFFFFFF AND PUSH1 0xE0 SHL DUP2 MSTORE PUSH1 0x4 ADD PUSH2 0x51B7 SWAP2 SWAP1 PUSH2 0x9E7C JUMP JUMPDEST PUSH1 0x20 PUSH1 0x40 MLOAD DUP1 DUP4 SUB DUP2 PUSH0 DUP8 GAS CALL ISZERO DUP1 ISZERO PUSH2 0x51D3 JUMPI RETURNDATASIZE PUSH0 PUSH0 RETURNDATACOPY RETURNDATASIZE PUSH0 REVERT JUMPDEST POP POP POP POP PUSH1 0x40 MLOAD RETURNDATASIZE PUSH1 0x1F NOT PUSH1 0x1F DUP3 ADD AND DUP3 ADD DUP1 PUSH1 0x40 MSTORE POP DUP2 ADD SWAP1 PUSH2 0x51F7 SWAP2 SWAP1 PUSH2 0xA77B JUMP JUMPDEST POP PUSH1 0x16 SLOAD DUP2 LT PUSH2 0x520C JUMPI PUSH2 0x520B DUP5 DUP3 PUSH2 0x77A5 JUMP JUMPDEST JUMPDEST PUSH2 0x5214 PUSH2 0x6D83 JUMP JUMPDEST PUSH20 0xFFFFFFFFFFFFFFFFFFFFFFFFFFFFFFFFFFFFFFFF AND PUSH4 0xFF117898 DUP6 DUP4 PUSH1 0x1 PUSH1 0x40 MLOAD DUP5 PUSH4 0xFFFFFFFF AND PUSH1 0xE0 SHL DUP2 MSTORE PUSH1 0x4 ADD PUSH2 0x5251 SWAP4 SWAP3 SWAP2 SWAP1 PUSH2 0xA7A6 JUMP JUMPDEST PUSH0 PUSH1 0x40 MLOAD DUP1 DUP4 SUB DUP2 PUSH0 DUP8 DUP1 EXTCODESIZE ISZERO DUP1 ISZERO PUSH2 0x5268 JUMPI PUSH0 PUSH0 REVERT JUMPDEST POP GAS CALL ISZERO DUP1 ISZERO PUSH2 0x527A JUMPI RETURNDATASIZE PUSH0 PUSH0 RETURNDATACOPY RETURNDATASIZE PUSH0 REVERT JUMPDEST POP POP POP POP JUMPDEST POP JUMPDEST POP PUSH2 0x528A PUSH2 0x1D23 JUMP JUMPDEST POP POP JUMP JUMPDEST PUSH1 0x22 PUSH0 SWAP1 SLOAD SWAP1 PUSH2 0x100 EXP SWAP1 DIV PUSH20 0xFFFFFFFFFFFFFFFFFFFFFFFFFFFFFFFFFFFFFFFF AND PUSH20 0xFFFFFFFFFFFFFFFFFFFFFFFFFFFFFFFFFFFFFFFF AND CALLER PUSH20 0xFFFFFFFFFFFFFFFFFFFFFFFFFFFFFFFFFFFFFFFF AND EQ ISZERO DUP1 ISZERO PUSH2 0x531E JUMPI POP PUSH2 0x52EE PUSH2 0x492F JUMP JUMPDEST PUSH20 0xFFFFFFFFFFFFFFFFFFFFFFFFFFFFFFFFFFFFFFFF AND CALLER PUSH20 0xFFFFFFFFFFFFFFFFFFFFFFFFFFFFFFFFFFFFFFFF AND EQ ISZERO JUMPDEST ISZERO PUSH2 0x5355 JUMPI PUSH1 0x40 MLOAD PUSH32 0x82B4290000000000000000000000000000000000000000000000000000000000 DUP2 MSTORE PUSH1 0x4 ADD PUSH1 0x40 MLOAD DUP1 SWAP2 SUB SWAP1 REVERT JUMPDEST PUSH0 PUSH20 0xFFFFFFFFFFFFFFFFFFFFFFFFFFFFFFFFFFFFFFFF AND DUP2 PUSH20 0xFFFFFFFFFFFFFFFFFFFFFFFFFFFFFFFFFFFFFFFF AND SUB PUSH2 0x53BA JUMPI PUSH1 0x40 MLOAD PUSH32 0xD92E233D00000000000000000000000000000000000000000000000000000000 DUP2 MSTORE PUSH1 0x4 ADD PUSH1 0x40 MLOAD DUP1 SWAP2 SUB SWAP1 REVERT JUMPDEST DUP1 PUSH1 0x24 PUSH0 PUSH2 0x100 EXP DUP2 SLOAD DUP2 PUSH20 0xFFFFFFFFFFFFFFFFFFFFFFFFFFFFFFFFFFFFFFFF MUL NOT AND SWAP1 DUP4 PUSH20 0xFFFFFFFFFFFFFFFFFFFFFFFFFFFFFFFFFFFFFFFF AND MUL OR SWAP1 SSTORE POP POP JUMP JUMPDEST PUSH1 0x10 SLOAD DUP2 JUMP JUMPDEST PUSH1 0x22 PUSH0 SWAP1 SLOAD SWAP1 PUSH2 0x100 EXP SWAP1 DIV PUSH20 0xFFFFFFFFFFFFFFFFFFFFFFFFFFFFFFFFFFFFFFFF AND PUSH20 0xFFFFFFFFFFFFFFFFFFFFFFFFFFFFFFFFFFFFFFFF AND CALLER PUSH20 0xFFFFFFFFFFFFFFFFFFFFFFFFFFFFFFFFFFFFFFFF AND EQ ISZERO DUP1 ISZERO PUSH2 0x5493 JUMPI POP PUSH2 0x5463 PUSH2 0x492F JUMP JUMPDEST PUSH20 0xFFFFFFFFFFFFFFFFFFFFFFFFFFFFFFFFFFFFFFFF AND CALLER PUSH20 0xFFFFFFFFFFFFFFFFFFFFFFFFFFFFFFFFFFFFFFFF AND EQ ISZERO JUMPDEST ISZERO PUSH2 0x54CA JUMPI PUSH1 0x40 MLOAD PUSH32 0x82B4290000000000000000000000000000000000000000000000000000000000 DUP2 MSTORE PUSH1 0x4 ADD PUSH1 0x40 MLOAD DUP1 SWAP2 SUB SWAP1 REVERT JUMPDEST PUSH0 PUSH20 0xFFFFFFFFFFFFFFFFFFFFFFFFFFFFFFFFFFFFFFFF AND DUP2 PUSH20 0xFFFFFFFFFFFFFFFFFFFFFFFFFFFFFFFFFFFFFFFF AND SUB PUSH2 0x552F JUMPI PUSH1 0x40 MLOAD PUSH32 0xD92E233D00000000000000000000000000000000000000000000000000000000 DUP2 MSTORE PUSH1 0x4 ADD PUSH1 0x40 MLOAD DUP1 SWAP2 SUB SWAP1 REVERT JUMPDEST DUP1 PUSH1 0x22 PUSH0 PUSH2 0x100 EXP DUP2 SLOAD DUP2 PUSH20 0xFFFFFFFFFFFFFFFFFFFFFFFFFFFFFFFFFFFFFFFF MUL NOT AND SWAP1 DUP4 PUSH20 0xFFFFFFFFFFFFFFFFFFFFFFFFFFFFFFFFFFFFFFFF AND MUL OR SWAP1 SSTORE POP POP JUMP JUMPDEST PUSH1 0x1E PUSH0 SWAP1 SLOAD SWAP1 PUSH2 0x100 EXP SWAP1 DIV PUSH1 0xFF AND DUP2 JUMP JUMPDEST PUSH1 0x2B SLOAD DUP2 JUMP JUMPDEST PUSH1 0x22 PUSH0 SWAP1 SLOAD SWAP1 PUSH2 0x100 EXP SWAP1 DIV PUSH20 0xFFFFFFFFFFFFFFFFFFFFFFFFFFFFFFFFFFFFFFFF AND PUSH20 0xFFFFFFFFFFFFFFFFFFFFFFFFFFFFFFFFFFFFFFFF AND CALLER PUSH20 0xFFFFFFFFFFFFFFFFFFFFFFFFFFFFFFFFFFFFFFFF AND EQ ISZERO DUP1 ISZERO PUSH2 0x561A JUMPI POP PUSH2 0x55EA PUSH2 0x492F JUMP JUMPDEST PUSH20 0xFFFFFFFFFFFFFFFFFFFFFFFFFFFFFFFFFFFFFFFF AND CALLER PUSH20 0xFFFFFFFFFFFFFFFFFFFFFFFFFFFFFFFFFFFFFFFF AND EQ ISZERO JUMPDEST ISZERO PUSH2 0x5651 JUMPI PUSH1 0x40 MLOAD PUSH32 0x82B4290000000000000000000000000000000000000000000000000000000000 DUP2 MSTORE PUSH1 0x4 ADD PUSH1 0x40 MLOAD DUP1 SWAP2 SUB SWAP1 REVERT JUMPDEST PUSH3 0xF4240 DUP2 GT ISZERO PUSH2 0x568E JUMPI PUSH1 0x40 MLOAD PUSH32 0x6A43F8D100000000000000000000000000000000000000000000000000000000 DUP2 MSTORE PUSH1 0x4 ADD PUSH1 0x40 MLOAD DUP1 SWAP2 SUB SWAP1 REVERT JUMPDEST DUP1 PUSH1 0xF DUP2 SWAP1 SSTORE POP POP JUMP JUMPDEST PUSH1 0x22 PUSH0 SWAP1 SLOAD SWAP1 PUSH2 0x100 EXP SWAP1 DIV PUSH20 0xFFFFFFFFFFFFFFFFFFFFFFFFFFFFFFFFFFFFFFFF AND PUSH20 0xFFFFFFFFFFFFFFFFFFFFFFFFFFFFFFFFFFFFFFFF AND CALLER PUSH20 0xFFFFFFFFFFFFFFFFFFFFFFFFFFFFFFFFFFFFFFFF AND EQ ISZERO DUP1 ISZERO PUSH2 0x5728 JUMPI POP PUSH2 0x56F8 PUSH2 0x492F JUMP JUMPDEST PUSH20 0xFFFFFFFFFFFFFFFFFFFFFFFFFFFFFFFFFFFFFFFF AND CALLER PUSH20 0xFFFFFFFFFFFFFFFFFFFFFFFFFFFFFFFFFFFFFFFF AND EQ ISZERO JUMPDEST ISZERO PUSH2 0x575F JUMPI PUSH1 0x40 MLOAD PUSH32 0x82B4290000000000000000000000000000000000000000000000000000000000 DUP2 MSTORE PUSH1 0x4 ADD PUSH1 0x40 MLOAD DUP1 SWAP2 SUB SWAP1 REVERT JUMPDEST PUSH3 0xF4240 DUP2 GT ISZERO PUSH2 0x579C JUMPI PUSH1 0x40 MLOAD PUSH32 0x6A43F8D100000000000000000000000000000000000000000000000000000000 DUP2 MSTORE PUSH1 0x4 ADD PUSH1 0x40 MLOAD DUP1 SWAP2 SUB SWAP1 REVERT JUMPDEST PUSH2 0x57AE PUSH1 0x10 SLOAD PUSH1 0x11 SLOAD PUSH1 0x12 SLOAD DUP5 PUSH2 0x793B JUMP JUMPDEST DUP1 PUSH1 0x13 DUP2 SWAP1 SSTORE POP POP JUMP JUMPDEST PUSH1 0x22 PUSH0 SWAP1 SLOAD SWAP1 PUSH2 0x100 EXP SWAP1 DIV PUSH20 0xFFFFFFFFFFFFFFFFFFFFFFFFFFFFFFFFFFFFFFFF AND PUSH20 0xFFFFFFFFFFFFFFFFFFFFFFFFFFFFFFFFFFFFFFFF AND CALLER PUSH20 0xFFFFFFFFFFFFFFFFFFFFFFFFFFFFFFFFFFFFFFFF AND EQ ISZERO DUP1 ISZERO PUSH2 0x5848 JUMPI POP PUSH2 0x5818 PUSH2 0x492F JUMP JUMPDEST PUSH20 0xFFFFFFFFFFFFFFFFFFFFFFFFFFFFFFFFFFFFFFFF AND CALLER PUSH20 0xFFFFFFFFFFFFFFFFFFFFFFFFFFFFFFFFFFFFFFFF AND EQ ISZERO JUMPDEST ISZERO PUSH2 0x587F JUMPI PUSH1 0x40 MLOAD PUSH32 0x82B4290000000000000000000000000000000000000000000000000000000000 DUP2 MSTORE PUSH1 0x4 ADD PUSH1 0x40 MLOAD DUP1 SWAP2 SUB SWAP1 REVERT JUMPDEST DUP1 PUSH1 0x5 PUSH1 0x14 PUSH2 0x100 EXP DUP2 SLOAD DUP2 PUSH1 0xFF MUL NOT AND SWAP1 DUP4 ISZERO ISZERO MUL OR SWAP1 SSTORE POP POP JUMP JUMPDEST PUSH32 0x0 DUP2 JUMP JUMPDEST PUSH1 0x24 PUSH0 SWAP1 SLOAD SWAP1 PUSH2 0x100 EXP SWAP1 DIV PUSH20 0xFFFFFFFFFFFFFFFFFFFFFFFFFFFFFFFFFFFFFFFF AND DUP2 JUMP JUMPDEST PUSH1 0x22 PUSH0 SWAP1 SLOAD SWAP1 PUSH2 0x100 EXP SWAP1 DIV PUSH20 0xFFFFFFFFFFFFFFFFFFFFFFFFFFFFFFFFFFFFFFFF AND PUSH20 0xFFFFFFFFFFFFFFFFFFFFFFFFFFFFFFFFFFFFFFFF AND CALLER PUSH20 0xFFFFFFFFFFFFFFFFFFFFFFFFFFFFFFFFFFFFFFFF AND EQ ISZERO DUP1 ISZERO PUSH2 0x5975 JUMPI POP PUSH2 0x5945 PUSH2 0x492F JUMP JUMPDEST PUSH20 0xFFFFFFFFFFFFFFFFFFFFFFFFFFFFFFFFFFFFFFFF AND CALLER PUSH20 0xFFFFFFFFFFFFFFFFFFFFFFFFFFFFFFFFFFFFFFFF AND EQ ISZERO JUMPDEST ISZERO PUSH2 0x59AC JUMPI PUSH1 0x40 MLOAD PUSH32 0x82B4290000000000000000000000000000000000000000000000000000000000 DUP2 MSTORE PUSH1 0x4 ADD PUSH1 0x40 MLOAD DUP1 SWAP2 SUB SWAP1 REVERT JUMPDEST PUSH3 0xF4240 DUP2 GT ISZERO PUSH2 0x59E9 JUMPI PUSH1 0x40 MLOAD PUSH32 0x6A43F8D100000000000000000000000000000000000000000000000000000000 DUP2 MSTORE PUSH1 0x4 ADD PUSH1 0x40 MLOAD DUP1 SWAP2 SUB SWAP1 REVERT JUMPDEST DUP2 PUSH1 0x1A PUSH0 PUSH2 0x100 EXP DUP2 SLOAD DUP2 PUSH1 0xFF MUL NOT AND SWAP1 DUP4 ISZERO ISZERO MUL OR SWAP1 SSTORE POP DUP1 PUSH1 0x1B DUP2 SWAP1 SSTORE POP POP POP JUMP JUMPDEST PUSH1 0x22 PUSH0 SWAP1 SLOAD SWAP1 PUSH2 0x100 EXP SWAP1 DIV PUSH20 0xFFFFFFFFFFFFFFFFFFFFFFFFFFFFFFFFFFFFFFFF AND PUSH20 0xFFFFFFFFFFFFFFFFFFFFFFFFFFFFFFFFFFFFFFFF AND CALLER PUSH20 0xFFFFFFFFFFFFFFFFFFFFFFFFFFFFFFFFFFFFFFFF AND EQ ISZERO DUP1 ISZERO PUSH2 0x5A9D JUMPI POP PUSH2 0x5A6D PUSH2 0x492F JUMP JUMPDEST PUSH20 0xFFFFFFFFFFFFFFFFFFFFFFFFFFFFFFFFFFFFFFFF AND CALLER PUSH20 0xFFFFFFFFFFFFFFFFFFFFFFFFFFFFFFFFFFFFFFFF AND EQ ISZERO JUMPDEST ISZERO PUSH2 0x5AD4 JUMPI PUSH1 0x40 MLOAD PUSH32 0x82B4290000000000000000000000000000000000000000000000000000000000 DUP2 MSTORE PUSH1 0x4 ADD PUSH1 0x40 MLOAD DUP1 SWAP2 SUB SWAP1 REVERT JUMPDEST PUSH1 0x26 SLOAD DUP2 GT ISZERO PUSH2 0x5B10 JUMPI PUSH1 0x40 MLOAD PUSH32 0xF4D678B800000000000000000000000000000000000000000000000000000000 DUP2 MSTORE PUSH1 0x4 ADD PUSH1 0x40 MLOAD DUP1 SWAP2 SUB SWAP1 REVERT JUMPDEST DUP1 PUSH1 0x26 PUSH0 DUP3 DUP3 SLOAD PUSH2 0x5B21 SWAP2 SWAP1 PUSH2 0xA6F3 JUMP JUMPDEST SWAP3 POP POP DUP2 SWAP1 SSTORE POP PUSH2 0x5B53 PUSH1 0x21 PUSH0 SWAP1 SLOAD SWAP1 PUSH2 0x100 EXP SWAP1 DIV PUSH20 0xFFFFFFFFFFFFFFFFFFFFFFFFFFFFFFFFFFFFFFFF AND DUP3 PUSH2 0x7EFA JUMP JUMPDEST POP JUMP JUMPDEST PUSH1 0x2D SLOAD DUP2 JUMP JUMPDEST PUSH1 0xC SLOAD DUP2 JUMP JUMPDEST PUSH1 0x22 PUSH0 SWAP1 SLOAD SWAP1 PUSH2 0x100 EXP SWAP1 DIV PUSH20 0xFFFFFFFFFFFFFFFFFFFFFFFFFFFFFFFFFFFFFFFF AND PUSH20 0xFFFFFFFFFFFFFFFFFFFFFFFFFFFFFFFFFFFFFFFF AND CALLER PUSH20 0xFFFFFFFFFFFFFFFFFFFFFFFFFFFFFFFFFFFFFFFF AND EQ ISZERO DUP1 ISZERO PUSH2 0x5BF2 JUMPI POP PUSH2 0x5BC2 PUSH2 0x492F JUMP JUMPDEST PUSH20 0xFFFFFFFFFFFFFFFFFFFFFFFFFFFFFFFFFFFFFFFF AND CALLER PUSH20 0xFFFFFFFFFFFFFFFFFFFFFFFFFFFFFFFFFFFFFFFF AND EQ ISZERO JUMPDEST ISZERO PUSH2 0x5C29 JUMPI PUSH1 0x40 MLOAD PUSH32 0x82B4290000000000000000000000000000000000000000000000000000000000 DUP2 MSTORE PUSH1 0x4 ADD PUSH1 0x40 MLOAD DUP1 SWAP2 SUB SWAP1 REVERT JUMPDEST DUP1 PUSH1 0x1D PUSH0 DUP5 PUSH20 0xFFFFFFFFFFFFFFFFFFFFFFFFFFFFFFFFFFFFFFFF AND PUSH20 0xFFFFFFFFFFFFFFFFFFFFFFFFFFFFFFFFFFFFFFFF AND DUP2 MSTORE PUSH1 0x20 ADD SWAP1 DUP2 MSTORE PUSH1 0x20 ADD PUSH0 KECCAK256 PUSH0 PUSH2 0x100 EXP DUP2 SLOAD DUP2 PUSH1 0xFF MUL NOT AND SWAP1 DUP4 ISZERO ISZERO MUL OR SWAP1 SSTORE POP POP POP JUMP JUMPDEST PUSH1 0x2D DUP2 JUMP JUMPDEST PUSH1 0xF SLOAD DUP2 JUMP JUMPDEST PUSH0 PUSH1 0x1 PUSH0 DUP5 PUSH20 0xFFFFFFFFFFFFFFFFFFFFFFFFFFFFFFFFFFFFFFFF AND PUSH20 0xFFFFFFFFFFFFFFFFFFFFFFFFFFFFFFFFFFFFFFFF AND DUP2 MSTORE PUSH1 0x20 ADD SWAP1 DUP2 MSTORE PUSH1 0x20 ADD PUSH0 KECCAK256 PUSH0 DUP4 PUSH20 0xFFFFFFFFFFFFFFFFFFFFFFFFFFFFFFFFFFFFFFFF AND PUSH20 0xFFFFFFFFFFFFFFFFFFFFFFFFFFFFFFFFFFFFFFFF AND DUP2 MSTORE PUSH1 0x20 ADD SWAP1 DUP2 MSTORE PUSH1 0x20 ADD PUSH0 KECCAK256 SLOAD SWAP1 POP SWAP3 SWAP2 POP POP JUMP JUMPDEST PUSH1 0x17 PUSH1 0x20 MSTORE DUP1 PUSH0 MSTORE PUSH1 0x40 PUSH0 KECCAK256 PUSH0 SWAP2 POP SWAP1 POP DUP1 PUSH0 ADD SLOAD SWAP1 DUP1 PUSH1 0x1 ADD SLOAD SWAP1 DUP1 PUSH1 0x2 ADD SLOAD SWAP1 POP DUP4 JUMP JUMPDEST PUSH1 0x12 SLOAD DUP2 JUMP JUMPDEST PUSH1 0x2A SLOAD DUP2 JUMP JUMPDEST PUSH1 0x2F SLOAD DUP2 JUMP JUMPDEST PUSH1 0x21 PUSH0 SWAP1 SLOAD SWAP1 PUSH2 0x100 EXP SWAP1 DIV PUSH20 0xFFFFFFFFFFFFFFFFFFFFFFFFFFFFFFFFFFFFFFFF AND DUP2 JUMP JUMPDEST PUSH1 0x15 SLOAD DUP2 JUMP JUMPDEST PUSH1 0x8 PUSH1 0x20 MSTORE DUP1 PUSH0 MSTORE PUSH1 0x40 PUSH0 KECCAK256 PUSH0 SWAP2 POP SLOAD SWAP1 PUSH2 0x100 EXP SWAP1 DIV PUSH20 0xFFFFFFFFFFFFFFFFFFFFFFFFFFFFFFFFFFFFFFFF AND DUP2 JUMP JUMPDEST PUSH1 0x1B SLOAD DUP2 JUMP JUMPDEST PUSH2 0xC350 DUP2 JUMP JUMPDEST PUSH1 0x14 SLOAD DUP2 JUMP JUMPDEST PUSH2 0x5DBB PUSH2 0x79AE JUMP JUMPDEST PUSH0 PUSH20 0xFFFFFFFFFFFFFFFFFFFFFFFFFFFFFFFFFFFFFFFF AND DUP2 PUSH20 0xFFFFFFFFFFFFFFFFFFFFFFFFFFFFFFFFFFFFFFFF AND SUB PUSH2 0x5E2B JUMPI PUSH0 PUSH1 0x40 MLOAD PUSH32 0x1E4FBDF700000000000000000000000000000000000000000000000000000000 DUP2 MSTORE PUSH1 0x4 ADD PUSH2 0x5E22 SWAP2 SWAP1 PUSH2 0x9E7C JUMP JUMPDEST PUSH1 0x40 MLOAD DUP1 SWAP2 SUB SWAP1 REVERT JUMPDEST PUSH2 0x5E34 DUP2 PUSH2 0x7E37 JUMP JUMPDEST POP JUMP JUMPDEST PUSH2 0x5E3F PUSH2 0x1942 JUMP JUMPDEST PUSH2 0x5E47 PUSH2 0x18F9 JUMP JUMPDEST PUSH1 0x14 SLOAD CALLVALUE LT ISZERO PUSH2 0x5E83 JUMPI PUSH1 0x40 MLOAD PUSH32 0x2C5211C600000000000000000000000000000000000000000000000000000000 DUP2 MSTORE PUSH1 0x4 ADD PUSH1 0x40 MLOAD DUP1 SWAP2 SUB SWAP1 REVERT JUMPDEST PUSH2 0x5E8B PUSH2 0x1987 JUMP JUMPDEST PUSH2 0x5E96 CALLER CALLVALUE PUSH0 PUSH2 0x1D2C JUMP JUMPDEST PUSH2 0x5E9E PUSH2 0x1D23 JUMP JUMPDEST JUMP JUMPDEST PUSH2 0x5EA8 PUSH2 0x79AE JUMP JUMPDEST PUSH1 0x30 PUSH0 SWAP1 SLOAD SWAP1 PUSH2 0x100 EXP SWAP1 DIV PUSH1 0xFF AND ISZERO PUSH2 0x5EEE JUMPI PUSH1 0x40 MLOAD PUSH32 0x9BB3A4A300000000000000000000000000000000000000000000000000000000 DUP2 MSTORE PUSH1 0x4 ADD PUSH1 0x40 MLOAD DUP1 SWAP2 SUB SWAP1 REVERT JUMPDEST DUP2 DUP2 SWAP1 POP DUP5 DUP5 SWAP1 POP EQ PUSH2 0x5F2D JUMPI PUSH1 0x40 MLOAD PUSH32 0x2C5211C600000000000000000000000000000000000000000000000000000000 DUP2 MSTORE PUSH1 0x4 ADD PUSH1 0x40 MLOAD DUP1 SWAP2 SUB SWAP1 REVERT JUMPDEST PUSH0 DUP5 DUP5 SWAP1 POP SWAP1 POP PUSH0 PUSH0 SWAP1 POP JUMPDEST DUP2 DUP2 LT ISZERO PUSH2 0x5F96 JUMPI PUSH2 0x5F8B DUP7 DUP7 DUP4 DUP2 DUP2 LT PUSH2 0x5F57 JUMPI PUSH2 0x5F56 PUSH2 0xA86D JUMP JUMPDEST JUMPDEST SWAP1 POP PUSH1 0x20 MUL ADD PUSH1 0x20 DUP2 ADD SWAP1 PUSH2 0x5F6C SWAP2 SWAP1 PUSH2 0xA136 JUMP JUMPDEST DUP6 DUP6 DUP5 DUP2 DUP2 LT PUSH2 0x5F7F JUMPI PUSH2 0x5F7E PUSH2 0xA86D JUMP JUMPDEST JUMPDEST SWAP1 POP PUSH1 0x20 MUL ADD CALLDATALOAD PUSH2 0x7FDC JUMP JUMPDEST DUP1 PUSH1 0x1 ADD SWAP1 POP PUSH2 0x5F39 JUMP JUMPDEST POP POP POP POP POP POP JUMP JUMPDEST PUSH1 0x2E SLOAD DUP2 JUMP JUMPDEST PUSH1 0x22 PUSH0 SWAP1 SLOAD SWAP1 PUSH2 0x100 EXP SWAP1 DIV PUSH20 0xFFFFFFFFFFFFFFFFFFFFFFFFFFFFFFFFFFFFFFFF AND PUSH20 0xFFFFFFFFFFFFFFFFFFFFFFFFFFFFFFFFFFFFFFFF AND CALLER PUSH20 0xFFFFFFFFFFFFFFFFFFFFFFFFFFFFFFFFFFFFFFFF AND EQ ISZERO DUP1 ISZERO PUSH2 0x6034 JUMPI POP PUSH2 0x6004 PUSH2 0x492F JUMP JUMPDEST PUSH20 0xFFFFFFFFFFFFFFFFFFFFFFFFFFFFFFFFFFFFFFFF AND CALLER PUSH20 0xFFFFFFFFFFFFFFFFFFFFFFFFFFFFFFFFFFFFFFFF AND EQ ISZERO JUMPDEST ISZERO PUSH2 0x606B JUMPI PUSH1 0x40 MLOAD PUSH32 0x82B4290000000000000000000000000000000000000000000000000000000000 DUP2 MSTORE PUSH1 0x4 ADD PUSH1 0x40 MLOAD DUP1 SWAP2 SUB SWAP1 REVERT JUMPDEST PUSH3 0xF4240 DUP3 GT DUP1 PUSH2 0x607E JUMPI POP PUSH3 0xF4240 DUP2 GT JUMPDEST ISZERO PUSH2 0x60B5 JUMPI PUSH1 0x40 MLOAD PUSH32 0x58D620B300000000000000000000000000000000000000000000000000000000 DUP2 MSTORE PUSH1 0x4 ADD PUSH1 0x40 MLOAD DUP1 SWAP2 SUB SWAP1 REVERT JUMPDEST DUP2 PUSH1 0x6 DUP2 SWAP1 SSTORE POP DUP1 PUSH1 0x7 DUP2 SWAP1 SSTORE POP POP POP JUMP JUMPDEST PUSH1 0x1D PUSH1 0x20 MSTORE DUP1 PUSH0 MSTORE PUSH1 0x40 PUSH0 KECCAK256 PUSH0 SWAP2 POP SLOAD SWAP1 PUSH2 0x100 EXP SWAP1 DIV PUSH1 0xFF AND DUP2 JUMP JUMPDEST PUSH2 0x60EC PUSH2 0x1942 JUMP JUMPDEST PUSH0 PUSH1 0x20 SLOAD SWAP1 POP PUSH0 DUP2 SUB PUSH2 0x612B JUMPI PUSH1 0x40 MLOAD PUSH32 0x2C5211C600000000000000000000000000000000000000000000000000000000 DUP2 MSTORE PUSH1 0x4 ADD PUSH1 0x40 MLOAD DUP1 SWAP2 SUB SWAP1 REVERT JUMPDEST PUSH2 0x6133 PUSH2 0x6215 JUMP JUMPDEST PUSH0 PUSH0 PUSH2 0x613E DUP4 PUSH2 0x805B JUMP JUMPDEST SWAP2 POP SWAP2 POP DUP1 PUSH2 0x6179 JUMPI PUSH1 0x40 MLOAD PUSH32 0x90B8EC1800000000000000000000000000000000000000000000000000000000 DUP2 MSTORE PUSH1 0x4 ADD PUSH1 0x40 MLOAD DUP1 SWAP2 SUB SWAP1 REVERT JUMPDEST PUSH0 PUSH1 0x20 DUP2 SWAP1 SSTORE POP PUSH0 DUP3 GT DUP1 ISZERO PUSH2 0x6193 JUMPI POP PUSH2 0x6192 PUSH2 0x6D2C JUMP JUMPDEST JUMPDEST ISZERO PUSH2 0x6208 JUMPI PUSH2 0x61A0 PUSH2 0x6D83 JUMP JUMPDEST PUSH20 0xFFFFFFFFFFFFFFFFFFFFFFFFFFFFFFFFFFFFFFFF AND PUSH4 0x5C153ADC DUP4 DUP5 PUSH1 0x40 MLOAD DUP4 PUSH4 0xFFFFFFFF AND PUSH1 0xE0 SHL DUP2 MSTORE PUSH1 0x4 ADD PUSH2 0x61D9 SWAP2 SWAP1 PUSH2 0xA08A JUMP JUMPDEST PUSH0 PUSH1 0x40 MLOAD DUP1 DUP4 SUB DUP2 DUP6 DUP9 DUP1 EXTCODESIZE ISZERO DUP1 ISZERO PUSH2 0x61F0 JUMPI PUSH0 PUSH0 REVERT JUMPDEST POP GAS CALL ISZERO DUP1 ISZERO PUSH2 0x6202 JUMPI RETURNDATASIZE PUSH0 PUSH0 RETURNDATACOPY RETURNDATASIZE PUSH0 REVERT JUMPDEST POP POP POP POP POP JUMPDEST POP POP POP PUSH2 0x6213 PUSH2 0x1D23 JUMP JUMPDEST JUMP JUMPDEST PUSH2 0x621D PUSH2 0x6D2C JUMP JUMPDEST ISZERO PUSH2 0x630F JUMPI PUSH2 0x622A PUSH2 0x6D83 JUMP JUMPDEST PUSH20 0xFFFFFFFFFFFFFFFFFFFFFFFFFFFFFFFFFFFFFFFF AND PUSH4 0x97FED038 PUSH1 0x40 MLOAD DUP2 PUSH4 0xFFFFFFFF AND PUSH1 0xE0 SHL DUP2 MSTORE PUSH1 0x4 ADD PUSH1 0x20 PUSH1 0x40 MLOAD DUP1 DUP4 SUB DUP2 PUSH0 DUP8 GAS CALL ISZERO DUP1 ISZERO PUSH2 0x6273 JUMPI RETURNDATASIZE PUSH0 PUSH0 RETURNDATACOPY RETURNDATASIZE PUSH0 REVERT JUMPDEST POP POP POP POP PUSH1 0x40 MLOAD RETURNDATASIZE PUSH1 0x1F NOT PUSH1 0x1F DUP3 ADD AND DUP3 ADD DUP1 PUSH1 0x40 MSTORE POP DUP2 ADD SWAP1 PUSH2 0x6297 SWAP2 SWAP1 PUSH2 0xA77B JUMP JUMPDEST POP PUSH2 0x62A0 PUSH2 0x6D83 JUMP JUMPDEST PUSH20 0xFFFFFFFFFFFFFFFFFFFFFFFFFFFFFFFFFFFFFFFF AND PUSH4 0xE9949E26 PUSH1 0x40 MLOAD DUP2 PUSH4 0xFFFFFFFF AND PUSH1 0xE0 SHL DUP2 MSTORE PUSH1 0x4 ADD PUSH1 0x20 PUSH1 0x40 MLOAD DUP1 DUP4 SUB DUP2 PUSH0 DUP8 GAS CALL ISZERO DUP1 ISZERO PUSH2 0x62E9 JUMPI RETURNDATASIZE PUSH0 PUSH0 RETURNDATACOPY RETURNDATASIZE PUSH0 REVERT JUMPDEST POP POP POP POP PUSH1 0x40 MLOAD RETURNDATASIZE PUSH1 0x1F NOT PUSH1 0x1F DUP3 ADD AND DUP3 ADD DUP1 PUSH1 0x40 MSTORE POP DUP2 ADD SWAP1 PUSH2 0x630D SWAP2 SWAP1 PUSH2 0xA77B JUMP JUMPDEST POP JUMPDEST JUMP JUMPDEST PUSH0 PUSH2 0x633B PUSH32 0x0 PUSH2 0x3ED3 JUMP JUMPDEST SWAP1 POP PUSH0 DUP2 SUB PUSH2 0x6351 JUMPI TIMESTAMP PUSH1 0x2A DUP2 SWAP1 SSTORE POP POP PUSH2 0x6626 JUMP JUMPDEST PUSH0 PUSH3 0xF4240 PUSH1 0x2B SLOAD DUP4 PUSH2 0x6364 SWAP2 SWAP1 PUSH2 0xA726 JUMP JUMPDEST PUSH2 0x636E SWAP2 SWAP1 PUSH2 0xA6C3 JUMP JUMPDEST SWAP1 POP PUSH0 DUP2 SUB PUSH2 0x6385 JUMPI TIMESTAMP PUSH1 0x2A DUP2 SWAP1 SSTORE POP POP POP PUSH2 0x6626 JUMP JUMPDEST PUSH0 PUSH1 0x2E SLOAD PUSH1 0x2D SLOAD PUSH2 0x6396 SWAP2 SWAP1 PUSH2 0xA663 JUMP JUMPDEST SWAP1 POP PUSH0 DUP2 PUSH1 0x2D SLOAD DUP5 PUSH2 0x63A8 SWAP2 SWAP1 PUSH2 0xA726 JUMP JUMPDEST PUSH2 0x63B2 SWAP2 SWAP1 PUSH2 0xA6C3 JUMP JUMPDEST SWAP1 POP PUSH0 DUP2 DUP5 PUSH2 0x63C1 SWAP2 SWAP1 PUSH2 0xA6F3 JUMP JUMPDEST SWAP1 POP PUSH2 0x63F0 PUSH32 0x0 PUSH2 0xDEAD DUP5 PUSH2 0x7C1E JUMP JUMPDEST PUSH2 0x63F8 PUSH2 0x6D2C JUMP JUMPDEST DUP1 ISZERO PUSH2 0x6476 JUMPI POP PUSH0 PUSH2 0x6408 PUSH2 0x6D83 JUMP JUMPDEST PUSH20 0xFFFFFFFFFFFFFFFFFFFFFFFFFFFFFFFFFFFFFFFF AND PUSH4 0x82179904 PUSH1 0x40 MLOAD DUP2 PUSH4 0xFFFFFFFF AND PUSH1 0xE0 SHL DUP2 MSTORE PUSH1 0x4 ADD PUSH1 0x20 PUSH1 0x40 MLOAD DUP1 DUP4 SUB DUP2 DUP7 GAS STATICCALL ISZERO DUP1 ISZERO PUSH2 0x6450 JUMPI RETURNDATASIZE PUSH0 PUSH0 RETURNDATACOPY RETURNDATASIZE PUSH0 REVERT JUMPDEST POP POP POP POP PUSH1 0x40 MLOAD RETURNDATASIZE PUSH1 0x1F NOT PUSH1 0x1F DUP3 ADD AND DUP3 ADD DUP1 PUSH1 0x40 MSTORE POP DUP2 ADD SWAP1 PUSH2 0x6474 SWAP2 SWAP1 PUSH2 0xA77B JUMP JUMPDEST GT JUMPDEST ISZERO PUSH2 0x6539 JUMPI PUSH2 0x64C7 PUSH32 0x0 PUSH1 0x23 PUSH0 SWAP1 SLOAD SWAP1 PUSH2 0x100 EXP SWAP1 DIV PUSH20 0xFFFFFFFFFFFFFFFFFFFFFFFFFFFFFFFFFFFFFFFF AND DUP4 PUSH2 0x7C1E JUMP JUMPDEST PUSH2 0x64CF PUSH2 0x6D83 JUMP JUMPDEST PUSH20 0xFFFFFFFFFFFFFFFFFFFFFFFFFFFFFFFFFFFFFFFF AND PUSH4 0x6F45B423 DUP3 PUSH1 0x40 MLOAD DUP3 PUSH4 0xFFFFFFFF AND PUSH1 0xE0 SHL DUP2 MSTORE PUSH1 0x4 ADD PUSH2 0x6507 SWAP2 SWAP1 PUSH2 0xA08A JUMP JUMPDEST PUSH0 PUSH1 0x40 MLOAD DUP1 DUP4 SUB DUP2 PUSH0 DUP8 DUP1 EXTCODESIZE ISZERO DUP1 ISZERO PUSH2 0x651E JUMPI PUSH0 PUSH0 REVERT JUMPDEST POP GAS CALL ISZERO DUP1 ISZERO PUSH2 0x6530 JUMPI RETURNDATASIZE PUSH0 PUSH0 RETURNDATACOPY RETURNDATASIZE PUSH0 REVERT JUMPDEST POP POP POP POP PUSH2 0x6567 JUMP JUMPDEST PUSH2 0x6566 PUSH32 0x0 PUSH2 0xDEAD DUP4 PUSH2 0x7C1E JUMP JUMPDEST JUMPDEST PUSH32 0x0 PUSH20 0xFFFFFFFFFFFFFFFFFFFFFFFFFFFFFFFFFFFFFFFF AND PUSH4 0xFFF6CAE9 PUSH1 0x40 MLOAD DUP2 PUSH4 0xFFFFFFFF AND PUSH1 0xE0 SHL DUP2 MSTORE PUSH1 0x4 ADD PUSH0 PUSH1 0x40 MLOAD DUP1 DUP4 SUB DUP2 PUSH0 DUP8 DUP1 EXTCODESIZE ISZERO DUP1 ISZERO PUSH2 0x65CC JUMPI PUSH0 PUSH0 REVERT JUMPDEST POP GAS CALL SWAP3 POP POP POP DUP1 ISZERO PUSH2 0x65DD JUMPI POP PUSH1 0x1 JUMPDEST POP PUSH32 0x783E94F010BC7CE1BB1C87194A287F631A57AC415C2B3A09607225BC773C0288 DUP5 DUP4 DUP4 PUSH1 0x40 MLOAD PUSH2 0x6611 SWAP4 SWAP3 SWAP2 SWAP1 PUSH2 0xA583 JUMP JUMPDEST PUSH1 0x40 MLOAD DUP1 SWAP2 SUB SWAP1 LOG1 TIMESTAMP PUSH1 0x2A DUP2 SWAP1 SSTORE POP POP POP POP POP POP JUMPDEST JUMP JUMPDEST PUSH0 PUSH1 0x1F PUSH0 DUP4 DUP2 MSTORE PUSH1 0x20 ADD SWAP1 DUP2 MSTORE PUSH1 0x20 ADD PUSH0 KECCAK256 SLOAD SWAP1 POP PUSH0 DUP2 SUB PUSH2 0x664A JUMPI POP PUSH2 0x6760 JUMP JUMPDEST PUSH0 PUSH0 PUSH2 0x6655 DUP4 PUSH2 0x805B JUMP JUMPDEST SWAP2 POP SWAP2 POP DUP1 PUSH2 0x66BE JUMPI PUSH0 PUSH3 0x15180 TIMESTAMP PUSH2 0x666E SWAP2 SWAP1 PUSH2 0xA6C3 JUMP JUMPDEST SWAP1 POP DUP1 DUP6 EQ PUSH2 0x66B5 JUMPI DUP4 PUSH1 0x1F PUSH0 DUP4 DUP2 MSTORE PUSH1 0x20 ADD SWAP1 DUP2 MSTORE PUSH1 0x20 ADD PUSH0 KECCAK256 PUSH0 DUP3 DUP3 SLOAD PUSH2 0x6697 SWAP2 SWAP1 PUSH2 0xA663 JUMP JUMPDEST SWAP3 POP POP DUP2 SWAP1 SSTORE POP PUSH0 PUSH1 0x1F PUSH0 DUP8 DUP2 MSTORE PUSH1 0x20 ADD SWAP1 DUP2 MSTORE PUSH1 0x20 ADD PUSH0 KECCAK256 DUP2 SWAP1 SSTORE POP JUMPDEST POP POP POP POP PUSH2 0x6760 JUMP JUMPDEST PUSH0 PUSH1 0x1F PUSH0 DUP7 DUP2 MSTORE PUSH1 0x20 ADD SWAP1 DUP2 MSTORE PUSH1 0x20 ADD PUSH0 KECCAK256 DUP2 SWAP1 SSTORE POP PUSH0 DUP3 GT DUP1 ISZERO PUSH2 0x66E7 JUMPI POP PUSH2 0x66E6 PUSH2 0x6D2C JUMP JUMPDEST JUMPDEST ISZERO PUSH2 0x675C JUMPI PUSH2 0x66F4 PUSH2 0x6D83 JUMP JUMPDEST PUSH20 0xFFFFFFFFFFFFFFFFFFFFFFFFFFFFFFFFFFFFFFFF AND PUSH4 0x5C153ADC DUP4 DUP5 PUSH1 0x40 MLOAD DUP4 PUSH4 0xFFFFFFFF AND PUSH1 0xE0 SHL DUP2 MSTORE PUSH1 0x4 ADD PUSH2 0x672D SWAP2 SWAP1 PUSH2 0xA08A JUMP JUMPDEST PUSH0 PUSH1 0x40 MLOAD DUP1 DUP4 SUB DUP2 DUP6 DUP9 DUP1 EXTCODESIZE ISZERO DUP1 ISZERO PUSH2 0x6744 JUMPI PUSH0 PUSH0 REVERT JUMPDEST POP GAS CALL ISZERO DUP1 ISZERO PUSH2 0x6756 JUMPI RETURNDATASIZE PUSH0 PUSH0 RETURNDATACOPY RETURNDATASIZE PUSH0 REVERT JUMPDEST POP POP POP POP POP JUMPDEST POP POP POP JUMPDEST POP JUMP JUMPDEST PUSH0 PUSH0 DUP3 EQ DUP1 PUSH2 0x679D JUMPI POP PUSH0 PUSH20 0xFFFFFFFFFFFFFFFFFFFFFFFFFFFFFFFFFFFFFFFF AND DUP4 PUSH20 0xFFFFFFFFFFFFFFFFFFFFFFFFFFFFFFFFFFFFFFFF AND EQ JUMPDEST ISZERO PUSH2 0x67AA JUMPI PUSH0 SWAP1 POP PUSH2 0x6872 JUMP JUMPDEST PUSH0 PUSH2 0x67B3 PUSH2 0x8279 JUMP JUMPDEST SWAP1 POP DUP3 DUP2 LT ISZERO PUSH2 0x67DD JUMPI PUSH2 0x67D1 DUP2 DUP5 PUSH2 0x67CC SWAP2 SWAP1 PUSH2 0xA6F3 JUMP JUMPDEST PUSH2 0x82A2 JUMP JUMPDEST POP PUSH2 0x67DA PUSH2 0x8279 JUMP JUMPDEST SWAP1 POP JUMPDEST DUP3 DUP2 LT ISZERO PUSH2 0x67EB JUMPI DUP1 PUSH2 0x67ED JUMP JUMPDEST DUP3 JUMPDEST SWAP2 POP PUSH0 DUP3 GT ISZERO PUSH2 0x6870 JUMPI PUSH0 DUP5 PUSH20 0xFFFFFFFFFFFFFFFFFFFFFFFFFFFFFFFFFFFFFFFF AND DUP4 PUSH1 0x40 MLOAD PUSH2 0x681C SWAP1 PUSH2 0xA92D JUMP JUMPDEST PUSH0 PUSH1 0x40 MLOAD DUP1 DUP4 SUB DUP2 DUP6 DUP8 GAS CALL SWAP3 POP POP POP RETURNDATASIZE DUP1 PUSH0 DUP2 EQ PUSH2 0x6856 JUMPI PUSH1 0x40 MLOAD SWAP2 POP PUSH1 0x1F NOT PUSH1 0x3F RETURNDATASIZE ADD AND DUP3 ADD PUSH1 0x40 MSTORE RETURNDATASIZE DUP3 MSTORE RETURNDATASIZE PUSH0 PUSH1 0x20 DUP5 ADD RETURNDATACOPY PUSH2 0x685B JUMP JUMPDEST PUSH1 0x60 SWAP2 POP JUMPDEST POP POP SWAP1 POP DUP1 PUSH2 0x686E JUMPI PUSH0 SWAP3 POP POP POP PUSH2 0x6872 JUMP JUMPDEST POP JUMPDEST POP JUMPDEST SWAP3 SWAP2 POP POP JUMP JUMPDEST PUSH0 PUSH0 PUSH0 DUP4 SUB PUSH2 0x688C JUMPI PUSH0 PUSH0 SWAP2 POP SWAP2 POP PUSH2 0x6921 JUMP JUMPDEST DUP3 PUSH1 0x26 SLOAD LT PUSH2 0x68C2 JUMPI DUP3 PUSH1 0x26 PUSH0 DUP3 DUP3 SLOAD PUSH2 0x68A6 SWAP2 SWAP1 PUSH2 0xA6F3 JUMP JUMPDEST SWAP3 POP POP DUP2 SWAP1 SSTORE POP PUSH2 0x68B7 DUP5 DUP5 PUSH2 0x7EFA JUMP JUMPDEST DUP3 PUSH0 SWAP2 POP SWAP2 POP PUSH2 0x6921 JUMP JUMPDEST PUSH0 PUSH2 0x68D9 PUSH1 0x26 SLOAD DUP6 PUSH2 0x68D4 SWAP2 SWAP1 PUSH2 0xA6F3 JUMP JUMPDEST PUSH2 0x82A2 JUMP JUMPDEST SWAP1 POP PUSH0 DUP2 PUSH1 0x26 SLOAD PUSH2 0x68EA SWAP2 SWAP1 PUSH2 0xA663 JUMP JUMPDEST SWAP1 POP PUSH0 PUSH1 0x26 DUP2 SWAP1 SSTORE POP DUP5 DUP2 GT PUSH2 0x6900 JUMPI DUP1 PUSH2 0x6902 JUMP JUMPDEST DUP5 JUMPDEST SWAP4 POP PUSH0 DUP5 GT ISZERO PUSH2 0x6917 JUMPI PUSH2 0x6916 DUP7 DUP6 PUSH2 0x7EFA JUMP JUMPDEST JUMPDEST DUP4 PUSH1 0x1 SWAP4 POP SWAP4 POP POP POP JUMPDEST SWAP3 POP SWAP3 SWAP1 POP JUMP JUMPDEST PUSH0 DUP3 SWAP1 POP PUSH0 PUSH0 SWAP1 POP PUSH0 PUSH0 SWAP1 POP PUSH0 TIMESTAMP SWAP1 POP PUSH0 PUSH0 SWAP1 POP JUMPDEST PUSH1 0x2D DUP2 LT ISZERO PUSH2 0x6D23 JUMPI PUSH0 PUSH1 0x8 PUSH0 DUP8 PUSH20 0xFFFFFFFFFFFFFFFFFFFFFFFFFFFFFFFFFFFFFFFF AND PUSH20 0xFFFFFFFFFFFFFFFFFFFFFFFFFFFFFFFFFFFFFFFF AND DUP2 MSTORE PUSH1 0x20 ADD SWAP1 DUP2 MSTORE PUSH1 0x20 ADD PUSH0 KECCAK256 PUSH0 SWAP1 SLOAD SWAP1 PUSH2 0x100 EXP SWAP1 DIV PUSH20 0xFFFFFFFFFFFFFFFFFFFFFFFFFFFFFFFFFFFFFFFF AND SWAP1 POP PUSH0 PUSH20 0xFFFFFFFFFFFFFFFFFFFFFFFFFFFFFFFFFFFFFFFF AND DUP2 PUSH20 0xFFFFFFFFFFFFFFFFFFFFFFFFFFFFFFFFFFFFFFFF AND SUB PUSH2 0x69DF JUMPI POP PUSH2 0x6D23 JUMP JUMPDEST PUSH1 0x17 PUSH0 DUP3 PUSH20 0xFFFFFFFFFFFFFFFFFFFFFFFFFFFFFFFFFFFFFFFF AND PUSH20 0xFFFFFFFFFFFFFFFFFFFFFFFFFFFFFFFFFFFFFFFF AND DUP2 MSTORE PUSH1 0x20 ADD SWAP1 DUP2 MSTORE PUSH1 0x20 ADD PUSH0 KECCAK256 PUSH1 0x2 ADD SLOAD DUP4 GT ISZERO PUSH2 0x6A36 JUMPI DUP1 SWAP6 POP DUP2 PUSH1 0x1 ADD SWAP2 POP POP PUSH2 0x6D1E JUMP JUMPDEST PUSH0 PUSH1 0x18 PUSH0 DUP4 PUSH20 0xFFFFFFFFFFFFFFFFFFFFFFFFFFFFFFFFFFFFFFFF AND PUSH20 0xFFFFFFFFFFFFFFFFFFFFFFFFFFFFFFFFFFFFFFFF AND DUP2 MSTORE PUSH1 0x20 ADD SWAP1 DUP2 MSTORE PUSH1 0x20 ADD PUSH0 KECCAK256 PUSH1 0x1 ADD PUSH0 SWAP1 SLOAD SWAP1 PUSH2 0x100 EXP SWAP1 DIV PUSH1 0xFF AND SWAP1 POP PUSH0 PUSH0 DUP5 EQ DUP1 ISZERO PUSH2 0x6A98 JUMPI POP PUSH0 DUP3 PUSH1 0xFF AND EQ JUMPDEST ISZERO PUSH2 0x6AC4 JUMPI PUSH3 0xF4240 PUSH2 0xC350 DUP11 PUSH2 0x6AAF SWAP2 SWAP1 PUSH2 0xA726 JUMP JUMPDEST PUSH2 0x6AB9 SWAP2 SWAP1 PUSH2 0xA6C3 JUMP JUMPDEST SWAP1 POP PUSH1 0x1 SWAP6 POP PUSH2 0x6B61 JUMP JUMPDEST DUP7 PUSH1 0xFF AND DUP3 PUSH1 0xFF AND GT ISZERO PUSH2 0x6B60 JUMPI PUSH0 PUSH1 0x19 PUSH0 DUP5 PUSH1 0xFF AND PUSH1 0xFF AND DUP2 MSTORE PUSH1 0x20 ADD SWAP1 DUP2 MSTORE PUSH1 0x20 ADD PUSH0 KECCAK256 PUSH1 0x1 ADD SLOAD SWAP1 POP PUSH0 PUSH0 DUP10 PUSH1 0xFF AND EQ PUSH2 0x6B1B JUMPI PUSH1 0x19 PUSH0 DUP11 PUSH1 0xFF AND PUSH1 0xFF AND DUP2 MSTORE PUSH1 0x20 ADD SWAP1 DUP2 MSTORE PUSH1 0x20 ADD PUSH0 KECCAK256 PUSH1 0x1 ADD SLOAD PUSH2 0x6B2B JUMP JUMPDEST DUP8 PUSH2 0x6B26 JUMPI PUSH0 PUSH2 0x6B2A JUMP JUMPDEST PUSH2 0xC350 JUMPDEST JUMPDEST SWAP1 POP DUP1 DUP3 GT ISZERO PUSH2 0x6B5D JUMPI PUSH3 0xF4240 DUP2 DUP4 PUSH2 0x6B45 SWAP2 SWAP1 PUSH2 0xA6F3 JUMP JUMPDEST DUP13 PUSH2 0x6B50 SWAP2 SWAP1 PUSH2 0xA726 JUMP JUMPDEST PUSH2 0x6B5A SWAP2 SWAP1 PUSH2 0xA6C3 JUMP JUMPDEST SWAP3 POP JUMPDEST POP POP JUMPDEST JUMPDEST PUSH0 DUP2 GT ISZERO PUSH2 0x6D11 JUMPI PUSH0 PUSH0 PUSH1 0x8 PUSH0 DUP7 PUSH20 0xFFFFFFFFFFFFFFFFFFFFFFFFFFFFFFFFFFFFFFFF AND PUSH20 0xFFFFFFFFFFFFFFFFFFFFFFFFFFFFFFFFFFFFFFFF AND DUP2 MSTORE PUSH1 0x20 ADD SWAP1 DUP2 MSTORE PUSH1 0x20 ADD PUSH0 KECCAK256 PUSH0 SWAP1 SLOAD SWAP1 PUSH2 0x100 EXP SWAP1 DIV PUSH20 0xFFFFFFFFFFFFFFFFFFFFFFFFFFFFFFFFFFFFFFFF AND SWAP1 POP PUSH0 PUSH20 0xFFFFFFFFFFFFFFFFFFFFFFFFFFFFFFFFFFFFFFFF AND DUP2 PUSH20 0xFFFFFFFFFFFFFFFFFFFFFFFFFFFFFFFFFFFFFFFF AND EQ ISZERO DUP1 ISZERO PUSH2 0x6C46 JUMPI POP PUSH1 0x17 PUSH0 DUP3 PUSH20 0xFFFFFFFFFFFFFFFFFFFFFFFFFFFFFFFFFFFFFFFF AND PUSH20 0xFFFFFFFFFFFFFFFFFFFFFFFFFFFFFFFFFFFFFFFF AND DUP2 MSTORE PUSH1 0x20 ADD SWAP1 DUP2 MSTORE PUSH1 0x20 ADD PUSH0 KECCAK256 PUSH1 0x2 ADD SLOAD DUP8 GT ISZERO JUMPDEST DUP1 ISZERO PUSH2 0x6C54 JUMPI POP PUSH0 DUP5 PUSH1 0xFF AND GT JUMPDEST ISZERO PUSH2 0x6CE1 JUMPI DUP4 PUSH1 0xFF AND PUSH1 0x18 PUSH0 DUP4 PUSH20 0xFFFFFFFFFFFFFFFFFFFFFFFFFFFFFFFFFFFFFFFF AND PUSH20 0xFFFFFFFFFFFFFFFFFFFFFFFFFFFFFFFFFFFFFFFF AND DUP2 MSTORE PUSH1 0x20 ADD SWAP1 DUP2 MSTORE PUSH1 0x20 ADD PUSH0 KECCAK256 PUSH1 0x1 ADD PUSH0 SWAP1 SLOAD SWAP1 PUSH2 0x100 EXP SWAP1 DIV PUSH1 0xFF AND PUSH1 0xFF AND SUB PUSH2 0x6CE0 JUMPI PUSH3 0xF4240 PUSH3 0x30D40 DUP5 PUSH2 0x6CC5 SWAP2 SWAP1 PUSH2 0xA726 JUMP JUMPDEST PUSH2 0x6CCF SWAP2 SWAP1 PUSH2 0xA6C3 JUMP JUMPDEST SWAP2 POP DUP2 DUP4 PUSH2 0x6CDD SWAP2 SWAP1 PUSH2 0xA6F3 JUMP JUMPDEST SWAP3 POP JUMPDEST JUMPDEST DUP4 SWAP9 POP PUSH0 DUP3 GT ISZERO PUSH2 0x6CF9 JUMPI PUSH2 0x6CF6 DUP2 DUP4 PUSH2 0x6878 JUMP JUMPDEST POP POP JUMPDEST PUSH0 DUP4 GT ISZERO PUSH2 0x6D0E JUMPI PUSH2 0x6D0B DUP6 DUP5 PUSH2 0x6878 JUMP JUMPDEST POP POP JUMPDEST POP POP JUMPDEST DUP3 SWAP8 POP DUP4 PUSH1 0x1 ADD SWAP4 POP POP POP POP JUMPDEST PUSH2 0x693D JUMP JUMPDEST POP POP POP POP POP POP POP JUMP JUMPDEST PUSH0 PUSH0 PUSH20 0xFFFFFFFFFFFFFFFFFFFFFFFFFFFFFFFFFFFFFFFF AND PUSH1 0x23 PUSH0 SWAP1 SLOAD SWAP1 PUSH2 0x100 EXP SWAP1 DIV PUSH20 0xFFFFFFFFFFFFFFFFFFFFFFFFFFFFFFFFFFFFFFFF AND PUSH20 0xFFFFFFFFFFFFFFFFFFFFFFFFFFFFFFFFFFFFFFFF AND EQ ISZERO SWAP1 POP SWAP1 JUMP JUMPDEST PUSH0 PUSH1 0x23 PUSH0 SWAP1 SLOAD SWAP1 PUSH2 0x100 EXP SWAP1 DIV PUSH20 0xFFFFFFFFFFFFFFFFFFFFFFFFFFFFFFFFFFFFFFFF AND SWAP1 POP SWAP1 JUMP JUMPDEST PUSH0 PUSH1 0x17 PUSH0 DUP4 PUSH20 0xFFFFFFFFFFFFFFFFFFFFFFFFFFFFFFFFFFFFFFFF AND PUSH20 0xFFFFFFFFFFFFFFFFFFFFFFFFFFFFFFFFFFFFFFFF AND DUP2 MSTORE PUSH1 0x20 ADD SWAP1 DUP2 MSTORE PUSH1 0x20 ADD PUSH0 KECCAK256 SWAP1 POP PUSH0 DUP2 PUSH0 ADD SLOAD SWAP1 POP PUSH2 0x6DFA PUSH2 0x6D2C JUMP JUMPDEST ISZERO PUSH2 0x6EDE JUMPI PUSH2 0x6E07 PUSH2 0x6D83 JUMP JUMPDEST PUSH20 0xFFFFFFFFFFFFFFFFFFFFFFFFFFFFFFFFFFFFFFFF AND PUSH4 0x28678102 DUP5 PUSH1 0x40 MLOAD DUP3 PUSH4 0xFFFFFFFF AND PUSH1 0xE0 SHL DUP2 MSTORE PUSH1 0x4 ADD PUSH2 0x6E3F SWAP2 SWAP1 PUSH2 0x9E7C JUMP JUMPDEST PUSH0 PUSH1 0x40 MLOAD DUP1 DUP4 SUB DUP2 PUSH0 DUP8 DUP1 EXTCODESIZE ISZERO DUP1 ISZERO PUSH2 0x6E56 JUMPI PUSH0 PUSH0 REVERT JUMPDEST POP GAS CALL ISZERO DUP1 ISZERO PUSH2 0x6E68 JUMPI RETURNDATASIZE PUSH0 PUSH0 RETURNDATACOPY RETURNDATASIZE PUSH0 REVERT JUMPDEST POP POP POP POP PUSH2 0x6E74 PUSH2 0x6D83 JUMP JUMPDEST PUSH20 0xFFFFFFFFFFFFFFFFFFFFFFFFFFFFFFFFFFFFFFFF AND PUSH4 0xFF117898 DUP5 PUSH0 PUSH0 PUSH1 0x40 MLOAD DUP5 PUSH4 0xFFFFFFFF AND PUSH1 0xE0 SHL DUP2 MSTORE PUSH1 0x4 ADD PUSH2 0x6EB0 SWAP4 SWAP3 SWAP2 SWAP1 PUSH2 0xA983 JUMP JUMPDEST PUSH0 PUSH1 0x40 MLOAD DUP1 DUP4 SUB DUP2 PUSH0 DUP8 DUP1 EXTCODESIZE ISZERO DUP1 ISZERO PUSH2 0x6EC7 JUMPI PUSH0 PUSH0 REVERT JUMPDEST POP GAS CALL ISZERO DUP1 ISZERO PUSH2 0x6ED9 JUMPI RETURNDATASIZE PUSH0 PUSH0 RETURNDATACOPY RETURNDATASIZE PUSH0 REVERT JUMPDEST POP POP POP POP JUMPDEST PUSH0 DUP3 PUSH0 ADD DUP2 SWAP1 SSTORE POP PUSH0 DUP3 PUSH1 0x2 ADD DUP2 SWAP1 SSTORE POP PUSH0 PUSH1 0x18 PUSH0 DUP6 PUSH20 0xFFFFFFFFFFFFFFFFFFFFFFFFFFFFFFFFFFFFFFFF AND PUSH20 0xFFFFFFFFFFFFFFFFFFFFFFFFFFFFFFFFFFFFFFFF AND DUP2 MSTORE PUSH1 0x20 ADD SWAP1 DUP2 MSTORE PUSH1 0x20 ADD PUSH0 KECCAK256 SWAP1 POP PUSH0 DUP2 PUSH0 ADD DUP2 SWAP1 SSTORE POP PUSH0 DUP2 PUSH1 0x1 ADD PUSH0 PUSH2 0x100 EXP DUP2 SLOAD DUP2 PUSH1 0xFF MUL NOT AND SWAP1 DUP4 PUSH1 0xFF AND MUL OR SWAP1 SSTORE POP PUSH0 DUP3 GT ISZERO PUSH2 0x6F66 JUMPI PUSH2 0x6F65 DUP5 DUP4 PUSH2 0x85B7 JUMP JUMPDEST JUMPDEST POP POP POP POP JUMP JUMPDEST PUSH1 0x27 SLOAD PUSH1 0x26 SLOAD LT ISZERO PUSH2 0x704E JUMPI PUSH0 PUSH32 0x0 PUSH20 0xFFFFFFFFFFFFFFFFFFFFFFFFFFFFFFFFFFFFFFFF AND PUSH4 0x70A08231 ADDRESS PUSH1 0x40 MLOAD DUP3 PUSH4 0xFFFFFFFF AND PUSH1 0xE0 SHL DUP2 MSTORE PUSH1 0x4 ADD PUSH2 0x6FD2 SWAP2 SWAP1 PUSH2 0x9E7C JUMP JUMPDEST PUSH1 0x20 PUSH1 0x40 MLOAD DUP1 DUP4 SUB DUP2 DUP7 GAS STATICCALL ISZERO DUP1 ISZERO PUSH2 0x6FED JUMPI RETURNDATASIZE PUSH0 PUSH0 RETURNDATACOPY RETURNDATASIZE PUSH0 REVERT JUMPDEST POP POP POP POP PUSH1 0x40 MLOAD RETURNDATASIZE PUSH1 0x1F NOT PUSH1 0x1F DUP3 ADD AND DUP3 ADD DUP1 PUSH1 0x40 MSTORE POP DUP2 ADD SWAP1 PUSH2 0x7011 SWAP2 SWAP1 PUSH2 0xA77B JUMP JUMPDEST SWAP1 POP PUSH0 DUP2 GT ISZERO PUSH2 0x704C JUMPI PUSH0 PUSH2 0x7027 PUSH1 0x28 SLOAD PUSH2 0x82A2 JUMP JUMPDEST SWAP1 POP PUSH0 DUP2 GT ISZERO PUSH2 0x704A JUMPI DUP1 PUSH1 0x26 PUSH0 DUP3 DUP3 SLOAD PUSH2 0x7042 SWAP2 SWAP1 PUSH2 0xA663 JUMP JUMPDEST SWAP3 POP POP DUP2 SWAP1 SSTORE POP JUMPDEST POP JUMPDEST POP JUMPDEST JUMP JUMPDEST PUSH0 PUSH3 0xF4240 PUSH1 0x10 SLOAD DUP4 PUSH2 0x7063 SWAP2 SWAP1 PUSH2 0xA726 JUMP JUMPDEST PUSH2 0x706D SWAP2 SWAP1 PUSH2 0xA6C3 JUMP JUMPDEST SWAP1 POP PUSH0 DUP2 GT ISZERO PUSH2 0x70A3 JUMPI PUSH2 0x70A2 PUSH1 0x21 PUSH0 SWAP1 SLOAD SWAP1 PUSH2 0x100 EXP SWAP1 DIV PUSH20 0xFFFFFFFFFFFFFFFFFFFFFFFFFFFFFFFFFFFFFFFF AND DUP3 PUSH2 0x7EFA JUMP JUMPDEST JUMPDEST PUSH0 PUSH3 0xF4240 PUSH1 0x11 SLOAD DUP5 PUSH2 0x70B6 SWAP2 SWAP1 PUSH2 0xA726 JUMP JUMPDEST PUSH2 0x70C0 SWAP2 SWAP1 PUSH2 0xA6C3 JUMP JUMPDEST SWAP1 POP PUSH0 DUP2 GT DUP1 ISZERO PUSH2 0x70D5 JUMPI POP PUSH2 0x70D4 PUSH2 0x6D2C JUMP JUMPDEST JUMPDEST ISZERO PUSH2 0x714E JUMPI PUSH2 0x70E2 PUSH2 0x6D83 JUMP JUMPDEST PUSH20 0xFFFFFFFFFFFFFFFFFFFFFFFFFFFFFFFFFFFFFFFF AND PUSH4 0x5C153ADC DUP3 DUP4 PUSH1 0x40 MLOAD DUP4 PUSH4 0xFFFFFFFF AND PUSH1 0xE0 SHL DUP2 MSTORE PUSH1 0x4 ADD PUSH2 0x711B SWAP2 SWAP1 PUSH2 0xA08A JUMP JUMPDEST PUSH0 PUSH1 0x40 MLOAD DUP1 DUP4 SUB DUP2 DUP6 DUP9 DUP1 EXTCODESIZE ISZERO DUP1 ISZERO PUSH2 0x7132 JUMPI PUSH0 PUSH0 REVERT JUMPDEST POP GAS CALL ISZERO DUP1 ISZERO PUSH2 0x7144 JUMPI RETURNDATASIZE PUSH0 PUSH0 RETURNDATACOPY RETURNDATASIZE PUSH0 REVERT JUMPDEST POP POP POP POP POP PUSH2 0x7183 JUMP JUMPDEST PUSH0 DUP2 GT ISZERO PUSH2 0x7182 JUMPI PUSH2 0x7181 PUSH1 0x21 PUSH0 SWAP1 SLOAD SWAP1 PUSH2 0x100 EXP SWAP1 DIV PUSH20 0xFFFFFFFFFFFFFFFFFFFFFFFFFFFFFFFFFFFFFFFF AND DUP3 PUSH2 0x7EFA JUMP JUMPDEST JUMPDEST JUMPDEST PUSH0 PUSH3 0xF4240 PUSH1 0x12 SLOAD DUP6 PUSH2 0x7196 SWAP2 SWAP1 PUSH2 0xA726 JUMP JUMPDEST PUSH2 0x71A0 SWAP2 SWAP1 PUSH2 0xA6C3 JUMP JUMPDEST SWAP1 POP PUSH0 DUP2 GT ISZERO PUSH2 0x71B4 JUMPI PUSH2 0x71B3 DUP2 PUSH2 0x86F2 JUMP JUMPDEST JUMPDEST POP POP POP POP JUMP JUMPDEST PUSH0 DUP2 SUB ISZERO PUSH2 0x767F JUMPI PUSH0 PUSH1 0x2 DUP3 PUSH2 0x71D0 SWAP2 SWAP1 PUSH2 0xA6C3 JUMP JUMPDEST SWAP1 POP PUSH0 DUP2 DUP4 PUSH2 0x71DF SWAP2 SWAP1 PUSH2 0xA6F3 JUMP JUMPDEST SWAP1 POP PUSH0 PUSH1 0x2 PUSH8 0xFFFFFFFFFFFFFFFF DUP2 GT ISZERO PUSH2 0x71FD JUMPI PUSH2 0x71FC PUSH2 0xA9B8 JUMP JUMPDEST JUMPDEST PUSH1 0x40 MLOAD SWAP1 DUP1 DUP3 MSTORE DUP1 PUSH1 0x20 MUL PUSH1 0x20 ADD DUP3 ADD PUSH1 0x40 MSTORE DUP1 ISZERO PUSH2 0x722B JUMPI DUP2 PUSH1 0x20 ADD PUSH1 0x20 DUP3 MUL DUP1 CALLDATASIZE DUP4 CALLDATACOPY DUP1 DUP3 ADD SWAP2 POP POP SWAP1 POP JUMPDEST POP SWAP1 POP PUSH32 0x0 DUP2 PUSH0 DUP2 MLOAD DUP2 LT PUSH2 0x7262 JUMPI PUSH2 0x7261 PUSH2 0xA86D JUMP JUMPDEST JUMPDEST PUSH1 0x20 MUL PUSH1 0x20 ADD ADD SWAP1 PUSH20 0xFFFFFFFFFFFFFFFFFFFFFFFFFFFFFFFFFFFFFFFF AND SWAP1 DUP2 PUSH20 0xFFFFFFFFFFFFFFFFFFFFFFFFFFFFFFFFFFFFFFFF AND DUP2 MSTORE POP POP ADDRESS DUP2 PUSH1 0x1 DUP2 MLOAD DUP2 LT PUSH2 0x72B1 JUMPI PUSH2 0x72B0 PUSH2 0xA86D JUMP JUMPDEST JUMPDEST PUSH1 0x20 MUL PUSH1 0x20 ADD ADD SWAP1 PUSH20 0xFFFFFFFFFFFFFFFFFFFFFFFFFFFFFFFFFFFFFFFF AND SWAP1 DUP2 PUSH20 0xFFFFFFFFFFFFFFFFFFFFFFFFFFFFFFFFFFFFFFFF AND DUP2 MSTORE POP POP PUSH0 PUSH2 0x7315 PUSH32 0x0 PUSH2 0x3ED3 JUMP JUMPDEST SWAP1 POP PUSH0 PUSH2 0x7322 DUP6 PUSH0 PUSH2 0x8A23 JUMP JUMPDEST SWAP1 POP PUSH32 0x0 PUSH20 0xFFFFFFFFFFFFFFFFFFFFFFFFFFFFFFFFFFFFFFFF AND PUSH4 0xB6F9DE95 DUP7 DUP4 DUP7 PUSH32 0x0 PUSH2 0x12C TIMESTAMP PUSH2 0x7392 SWAP2 SWAP1 PUSH2 0xA663 JUMP JUMPDEST PUSH1 0x40 MLOAD DUP7 PUSH4 0xFFFFFFFF AND PUSH1 0xE0 SHL DUP2 MSTORE PUSH1 0x4 ADD PUSH2 0x73B1 SWAP5 SWAP4 SWAP3 SWAP2 SWAP1 PUSH2 0xAA9C JUMP JUMPDEST PUSH0 PUSH1 0x40 MLOAD DUP1 DUP4 SUB DUP2 DUP6 DUP9 DUP1 EXTCODESIZE ISZERO DUP1 ISZERO PUSH2 0x73C8 JUMPI PUSH0 PUSH0 REVERT JUMPDEST POP GAS CALL SWAP4 POP POP POP POP DUP1 ISZERO PUSH2 0x73DA JUMPI POP PUSH1 0x1 JUMPDEST PUSH2 0x740E JUMPI PUSH2 0x7409 PUSH1 0x21 PUSH0 SWAP1 SLOAD SWAP1 PUSH2 0x100 EXP SWAP1 DIV PUSH20 0xFFFFFFFFFFFFFFFFFFFFFFFFFFFFFFFFFFFFFFFF AND DUP8 PUSH2 0x7EFA JUMP JUMPDEST PUSH2 0x7679 JUMP JUMPDEST PUSH0 DUP3 PUSH2 0x7439 PUSH32 0x0 PUSH2 0x3ED3 JUMP JUMPDEST PUSH2 0x7443 SWAP2 SWAP1 PUSH2 0xA6F3 JUMP JUMPDEST SWAP1 POP PUSH0 DUP2 GT DUP1 ISZERO PUSH2 0x7453 JUMPI POP PUSH0 DUP6 GT JUMPDEST ISZERO PUSH2 0x7677 JUMPI PUSH32 0x0 PUSH20 0xFFFFFFFFFFFFFFFFFFFFFFFFFFFFFFFFFFFFFFFF AND PUSH4 0xD0E30DB0 DUP7 PUSH1 0x40 MLOAD DUP3 PUSH4 0xFFFFFFFF AND PUSH1 0xE0 SHL DUP2 MSTORE PUSH1 0x4 ADD PUSH0 PUSH1 0x40 MLOAD DUP1 DUP4 SUB DUP2 DUP6 DUP9 DUP1 EXTCODESIZE ISZERO DUP1 ISZERO PUSH2 0x74BE JUMPI PUSH0 PUSH0 REVERT JUMPDEST POP GAS CALL ISZERO DUP1 ISZERO PUSH2 0x74D0 JUMPI RETURNDATASIZE PUSH0 PUSH0 RETURNDATACOPY RETURNDATASIZE PUSH0 REVERT JUMPDEST POP POP POP POP POP PUSH32 0x0 PUSH20 0xFFFFFFFFFFFFFFFFFFFFFFFFFFFFFFFFFFFFFFFF AND PUSH4 0xA9059CBB PUSH32 0x0 DUP8 PUSH1 0x40 MLOAD DUP4 PUSH4 0xFFFFFFFF AND PUSH1 0xE0 SHL DUP2 MSTORE PUSH1 0x4 ADD PUSH2 0x7550 SWAP3 SWAP2 SWAP1 PUSH2 0xA89A JUMP JUMPDEST PUSH1 0x20 PUSH1 0x40 MLOAD DUP1 DUP4 SUB DUP2 PUSH0 DUP8 GAS CALL ISZERO DUP1 ISZERO PUSH2 0x756C JUMPI RETURNDATASIZE PUSH0 PUSH0 RETURNDATACOPY RETURNDATASIZE PUSH0 REVERT JUMPDEST POP POP POP POP PUSH1 0x40 MLOAD RETURNDATASIZE PUSH1 0x1F NOT PUSH1 0x1F DUP3 ADD AND DUP3 ADD DUP1 PUSH1 0x40 MSTORE POP DUP2 ADD SWAP1 PUSH2 0x7590 SWAP2 SWAP1 PUSH2 0xA8D5 JUMP JUMPDEST POP PUSH2 0x75DC PUSH32 0x0 PUSH32 0x0 DUP4 PUSH2 0x7C1E JUMP JUMPDEST PUSH32 0x0 PUSH20 0xFFFFFFFFFFFFFFFFFFFFFFFFFFFFFFFFFFFFFFFF AND PUSH4 0x6A627842 ADDRESS PUSH1 0x40 MLOAD DUP3 PUSH4 0xFFFFFFFF AND PUSH1 0xE0 SHL DUP2 MSTORE PUSH1 0x4 ADD PUSH2 0x7635 SWAP2 SWAP1 PUSH2 0x9E7C JUMP JUMPDEST PUSH1 0x20 PUSH1 0x40 MLOAD DUP1 DUP4 SUB DUP2 PUSH0 DUP8 GAS CALL ISZERO DUP1 ISZERO PUSH2 0x7651 JUMPI RETURNDATASIZE PUSH0 PUSH0 RETURNDATACOPY RETURNDATASIZE PUSH0 REVERT JUMPDEST POP POP POP POP PUSH1 0x40 MLOAD RETURNDATASIZE PUSH1 0x1F NOT PUSH1 0x1F DUP3 ADD AND DUP3 ADD DUP1 PUSH1 0x40 MSTORE POP DUP2 ADD SWAP1 PUSH2 0x7675 SWAP2 SWAP1 PUSH2 0xA77B JUMP JUMPDEST POP JUMPDEST POP JUMPDEST POP POP POP POP POP JUMPDEST POP JUMP JUMPDEST PUSH0 DUP3 SWAP1 POP PUSH0 PUSH0 SWAP1 POP JUMPDEST PUSH1 0x2D DUP2 LT ISZERO PUSH2 0x779F JUMPI PUSH0 PUSH1 0x8 PUSH0 DUP5 PUSH20 0xFFFFFFFFFFFFFFFFFFFFFFFFFFFFFFFFFFFFFFFF AND PUSH20 0xFFFFFFFFFFFFFFFFFFFFFFFFFFFFFFFFFFFFFFFF AND DUP2 MSTORE PUSH1 0x20 ADD SWAP1 DUP2 MSTORE PUSH1 0x20 ADD PUSH0 KECCAK256 PUSH0 SWAP1 SLOAD SWAP1 PUSH2 0x100 EXP SWAP1 DIV PUSH20 0xFFFFFFFFFFFFFFFFFFFFFFFFFFFFFFFFFFFFFFFF AND SWAP1 POP PUSH0 PUSH20 0xFFFFFFFFFFFFFFFFFFFFFFFFFFFFFFFFFFFFFFFF AND DUP2 PUSH20 0xFFFFFFFFFFFFFFFFFFFFFFFFFFFFFFFFFFFFFFFF AND SUB PUSH2 0x772D JUMPI POP PUSH2 0x779F JUMP JUMPDEST PUSH0 PUSH1 0x18 PUSH0 DUP4 PUSH20 0xFFFFFFFFFFFFFFFFFFFFFFFFFFFFFFFFFFFFFFFF AND PUSH20 0xFFFFFFFFFFFFFFFFFFFFFFFFFFFFFFFFFFFFFFFF AND DUP2 MSTORE PUSH1 0x20 ADD SWAP1 DUP2 MSTORE PUSH1 0x20 ADD PUSH0 KECCAK256 SWAP1 POP DUP5 DUP2 PUSH0 ADD PUSH0 DUP3 DUP3 SLOAD PUSH2 0x777F SWAP2 SWAP1 PUSH2 0xA663 JUMP JUMPDEST SWAP3 POP POP DUP2 SWAP1 SSTORE POP PUSH2 0x778F DUP3 PUSH2 0x8A9E JUMP JUMPDEST DUP2 SWAP4 POP DUP3 PUSH1 0x1 ADD SWAP3 POP POP POP PUSH2 0x768B JUMP JUMPDEST POP POP POP POP JUMP JUMPDEST PUSH2 0x77AD PUSH2 0x6D2C JUMP JUMPDEST ISZERO PUSH2 0x791E JUMPI PUSH2 0x77BA PUSH2 0x6D83 JUMP JUMPDEST PUSH20 0xFFFFFFFFFFFFFFFFFFFFFFFFFFFFFFFFFFFFFFFF AND PUSH4 0x3D5D6096 DUP4 PUSH1 0x40 MLOAD DUP3 PUSH4 0xFFFFFFFF AND PUSH1 0xE0 SHL DUP2 MSTORE PUSH1 0x4 ADD PUSH2 0x77F2 SWAP2 SWAP1 PUSH2 0x9E7C JUMP JUMPDEST PUSH1 0x20 PUSH1 0x40 MLOAD DUP1 DUP4 SUB DUP2 DUP7 GAS STATICCALL ISZERO DUP1 ISZERO PUSH2 0x780D JUMPI RETURNDATASIZE PUSH0 PUSH0 RETURNDATACOPY RETURNDATASIZE PUSH0 REVERT JUMPDEST POP POP POP POP PUSH1 0x40 MLOAD RETURNDATASIZE PUSH1 0x1F NOT PUSH1 0x1F DUP3 ADD AND DUP3 ADD DUP1 PUSH1 0x40 MSTORE POP DUP2 ADD SWAP1 PUSH2 0x7831 SWAP2 SWAP1 PUSH2 0xA8D5 JUMP JUMPDEST ISZERO PUSH2 0x78AA JUMPI PUSH2 0x783E PUSH2 0x6D83 JUMP JUMPDEST PUSH20 0xFFFFFFFFFFFFFFFFFFFFFFFFFFFFFFFFFFFFFFFF AND PUSH4 0xF6FE47F1 DUP4 DUP4 PUSH1 0x40 MLOAD DUP4 PUSH4 0xFFFFFFFF AND PUSH1 0xE0 SHL DUP2 MSTORE PUSH1 0x4 ADD PUSH2 0x7878 SWAP3 SWAP2 SWAP1 PUSH2 0xA89A JUMP JUMPDEST PUSH0 PUSH1 0x40 MLOAD DUP1 DUP4 SUB DUP2 PUSH0 DUP8 DUP1 EXTCODESIZE ISZERO DUP1 ISZERO PUSH2 0x788F JUMPI PUSH0 PUSH0 REVERT JUMPDEST POP GAS CALL ISZERO DUP1 ISZERO PUSH2 0x78A1 JUMPI RETURNDATASIZE PUSH0 PUSH0 RETURNDATACOPY RETURNDATASIZE PUSH0 REVERT JUMPDEST POP POP POP POP PUSH2 0x791D JUMP JUMPDEST PUSH2 0x78B2 PUSH2 0x6D83 JUMP JUMPDEST PUSH20 0xFFFFFFFFFFFFFFFFFFFFFFFFFFFFFFFFFFFFFFFF AND PUSH4 0xB631C4CA DUP4 PUSH1 0x1 DUP5 PUSH1 0x40 MLOAD DUP5 PUSH4 0xFFFFFFFF AND PUSH1 0xE0 SHL DUP2 MSTORE PUSH1 0x4 ADD PUSH2 0x78EF SWAP4 SWAP3 SWAP2 SWAP1 PUSH2 0xA7DB JUMP JUMPDEST PUSH0 PUSH1 0x40 MLOAD DUP1 DUP4 SUB DUP2 PUSH0 DUP8 DUP1 EXTCODESIZE ISZERO DUP1 ISZERO PUSH2 0x7906 JUMPI PUSH0 PUSH0 REVERT JUMPDEST POP GAS CALL ISZERO DUP1 ISZERO PUSH2 0x7918 JUMPI RETURNDATASIZE PUSH0 PUSH0 RETURNDATACOPY RETURNDATASIZE PUSH0 REVERT JUMPDEST POP POP POP POP JUMPDEST JUMPDEST POP POP JUMP JUMPDEST PUSH0 CALLER SWAP1 POP SWAP1 JUMP JUMPDEST PUSH2 0x7936 DUP4 DUP4 DUP4 PUSH1 0x1 PUSH2 0x8B63 JUMP JUMPDEST POP POP POP JUMP JUMPDEST PUSH0 DUP3 DUP5 DUP7 PUSH3 0xF4240 PUSH2 0x794D SWAP2 SWAP1 PUSH2 0xA6F3 JUMP JUMPDEST PUSH2 0x7957 SWAP2 SWAP1 PUSH2 0xA6F3 JUMP JUMPDEST PUSH2 0x7961 SWAP2 SWAP1 PUSH2 0xA6F3 JUMP JUMPDEST SWAP1 POP PUSH0 DUP2 EQ DUP1 PUSH2 0x7970 JUMPI POP DUP1 DUP3 GT JUMPDEST ISZERO PUSH2 0x79A7 JUMPI PUSH1 0x40 MLOAD PUSH32 0x6A43F8D100000000000000000000000000000000000000000000000000000000 DUP2 MSTORE PUSH1 0x4 ADD PUSH1 0x40 MLOAD DUP1 SWAP2 SUB SWAP1 REVERT JUMPDEST POP POP POP POP POP JUMP JUMPDEST PUSH2 0x79B6 PUSH2 0x7922 JUMP JUMPDEST PUSH20 0xFFFFFFFFFFFFFFFFFFFFFFFFFFFFFFFFFFFFFFFF AND PUSH2 0x79D4 PUSH2 0x492F JUMP JUMPDEST PUSH20 0xFFFFFFFFFFFFFFFFFFFFFFFFFFFFFFFFFFFFFFFF AND EQ PUSH2 0x7A33 JUMPI PUSH2 0x79F7 PUSH2 0x7922 JUMP JUMPDEST PUSH1 0x40 MLOAD PUSH32 0x118CDAA700000000000000000000000000000000000000000000000000000000 DUP2 MSTORE PUSH1 0x4 ADD PUSH2 0x7A2A SWAP2 SWAP1 PUSH2 0x9E7C JUMP JUMPDEST PUSH1 0x40 MLOAD DUP1 SWAP2 SUB SWAP1 REVERT JUMPDEST JUMP JUMPDEST PUSH0 PUSH2 0x7A40 DUP5 DUP5 PUSH2 0x5C8C JUMP JUMPDEST SWAP1 POP PUSH32 0xFFFFFFFFFFFFFFFFFFFFFFFFFFFFFFFFFFFFFFFFFFFFFFFFFFFFFFFFFFFFFFFF DUP2 LT ISZERO PUSH2 0x7AC2 JUMPI DUP2 DUP2 LT ISZERO PUSH2 0x7AB3 JUMPI DUP3 DUP2 DUP4 PUSH1 0x40 MLOAD PUSH32 0xFB8F41B200000000000000000000000000000000000000000000000000000000 DUP2 MSTORE PUSH1 0x4 ADD PUSH2 0x7AAA SWAP4 SWAP3 SWAP2 SWAP1 PUSH2 0xAAE6 JUMP JUMPDEST PUSH1 0x40 MLOAD DUP1 SWAP2 SUB SWAP1 REVERT JUMPDEST PUSH2 0x7AC1 DUP5 DUP5 DUP5 DUP5 SUB PUSH0 PUSH2 0x8B63 JUMP JUMPDEST JUMPDEST POP POP POP POP JUMP JUMPDEST PUSH0 PUSH20 0xFFFFFFFFFFFFFFFFFFFFFFFFFFFFFFFFFFFFFFFF AND DUP4 PUSH20 0xFFFFFFFFFFFFFFFFFFFFFFFFFFFFFFFFFFFFFFFF AND SUB PUSH2 0x7B38 JUMPI PUSH0 PUSH1 0x40 MLOAD PUSH32 0x96C6FD1E00000000000000000000000000000000000000000000000000000000 DUP2 MSTORE PUSH1 0x4 ADD PUSH2 0x7B2F SWAP2 SWAP1 PUSH2 0x9E7C JUMP JUMPDEST PUSH1 0x40 MLOAD DUP1 SWAP2 SUB SWAP1 REVERT JUMPDEST PUSH0 PUSH20 0xFFFFFFFFFFFFFFFFFFFFFFFFFFFFFFFFFFFFFFFF AND DUP3 PUSH20 0xFFFFFFFFFFFFFFFFFFFFFFFFFFFFFFFFFFFFFFFF AND SUB PUSH2 0x7BA8 JUMPI PUSH0 PUSH1 0x40 MLOAD PUSH32 0xEC442F0500000000000000000000000000000000000000000000000000000000 DUP2 MSTORE PUSH1 0x4 ADD PUSH2 0x7B9F SWAP2 SWAP1 PUSH2 0x9E7C JUMP JUMPDEST PUSH1 0x40 MLOAD DUP1 SWAP2 SUB SWAP1 REVERT JUMPDEST PUSH2 0x7BB3 DUP4 DUP4 DUP4 PUSH2 0x8D32 JUMP JUMPDEST POP POP POP JUMP JUMPDEST PUSH0 PUSH2 0x7BC1 PUSH2 0x492F JUMP JUMPDEST SWAP1 POP PUSH0 PUSH20 0xFFFFFFFFFFFFFFFFFFFFFFFFFFFFFFFFFFFFFFFF AND DUP2 PUSH20 0xFFFFFFFFFFFFFFFFFFFFFFFFFFFFFFFFFFFFFFFF AND SUB PUSH2 0x7C1B JUMPI PUSH1 0x22 PUSH0 SWAP1 SLOAD SWAP1 PUSH2 0x100 EXP SWAP1 DIV PUSH20 0xFFFFFFFFFFFFFFFFFFFFFFFFFFFFFFFFFFFFFFFF AND SWAP1 POP JUMPDEST SWAP1 JUMP JUMPDEST PUSH0 PUSH20 0xFFFFFFFFFFFFFFFFFFFFFFFFFFFFFFFFFFFFFFFF AND DUP4 PUSH20 0xFFFFFFFFFFFFFFFFFFFFFFFFFFFFFFFFFFFFFFFF AND SUB PUSH2 0x7C6E JUMPI DUP1 PUSH1 0x2 PUSH0 DUP3 DUP3 SLOAD PUSH2 0x7C62 SWAP2 SWAP1 PUSH2 0xA663 JUMP JUMPDEST SWAP3 POP POP DUP2 SWAP1 SSTORE POP PUSH2 0x7D3C JUMP JUMPDEST PUSH0 PUSH0 PUSH0 DUP6 PUSH20 0xFFFFFFFFFFFFFFFFFFFFFFFFFFFFFFFFFFFFFFFF AND PUSH20 0xFFFFFFFFFFFFFFFFFFFFFFFFFFFFFFFFFFFFFFFF AND DUP2 MSTORE PUSH1 0x20 ADD SWAP1 DUP2 MSTORE PUSH1 0x20 ADD PUSH0 KECCAK256 SLOAD SWAP1 POP DUP2 DUP2 LT ISZERO PUSH2 0x7CF7 JUMPI DUP4 DUP2 DUP4 PUSH1 0x40 MLOAD PUSH32 0xE450D38C00000000000000000000000000000000000000000000000000000000 DUP2 MSTORE PUSH1 0x4 ADD PUSH2 0x7CEE SWAP4 SWAP3 SWAP2 SWAP1 PUSH2 0xAAE6 JUMP JUMPDEST PUSH1 0x40 MLOAD DUP1 SWAP2 SUB SWAP1 REVERT JUMPDEST DUP2 DUP2 SUB PUSH0 PUSH0 DUP7 PUSH20 0xFFFFFFFFFFFFFFFFFFFFFFFFFFFFFFFFFFFFFFFF AND PUSH20 0xFFFFFFFFFFFFFFFFFFFFFFFFFFFFFFFFFFFFFFFF AND DUP2 MSTORE PUSH1 0x20 ADD SWAP1 DUP2 MSTORE PUSH1 0x20 ADD PUSH0 KECCAK256 DUP2 SWAP1 SSTORE POP POP JUMPDEST PUSH0 PUSH20 0xFFFFFFFFFFFFFFFFFFFFFFFFFFFFFFFFFFFFFFFF AND DUP3 PUSH20 0xFFFFFFFFFFFFFFFFFFFFFFFFFFFFFFFFFFFFFFFF AND SUB PUSH2 0x7D83 JUMPI DUP1 PUSH1 0x2 PUSH0 DUP3 DUP3 SLOAD SUB SWAP3 POP POP DUP2 SWAP1 SSTORE POP PUSH2 0x7DCD JUMP JUMPDEST DUP1 PUSH0 PUSH0 DUP5 PUSH20 0xFFFFFFFFFFFFFFFFFFFFFFFFFFFFFFFFFFFFFFFF AND PUSH20 0xFFFFFFFFFFFFFFFFFFFFFFFFFFFFFFFFFFFFFFFF AND DUP2 MSTORE PUSH1 0x20 ADD SWAP1 DUP2 MSTORE PUSH1 0x20 ADD PUSH0 KECCAK256 PUSH0 DUP3 DUP3 SLOAD ADD SWAP3 POP POP DUP2 SWAP1 SSTORE POP JUMPDEST DUP2 PUSH20 0xFFFFFFFFFFFFFFFFFFFFFFFFFFFFFFFFFFFFFFFF AND DUP4 PUSH20 0xFFFFFFFFFFFFFFFFFFFFFFFFFFFFFFFFFFFFFFFF AND PUSH32 0xDDF252AD1BE2C89B69C2B068FC378DAA952BA7F163C4A11628F55A4DF523B3EF DUP4 PUSH1 0x40 MLOAD PUSH2 0x7E2A SWAP2 SWAP1 PUSH2 0xA08A JUMP JUMPDEST PUSH1 0x40 MLOAD DUP1 SWAP2 SUB SWAP1 LOG3 POP POP POP JUMP JUMPDEST PUSH0 PUSH1 0x5 PUSH0 SWAP1 SLOAD SWAP1 PUSH2 0x100 EXP SWAP1 DIV PUSH20 0xFFFFFFFFFFFFFFFFFFFFFFFFFFFFFFFFFFFFFFFF AND SWAP1 POP DUP2 PUSH1 0x5 PUSH0 PUSH2 0x100 EXP DUP2 SLOAD DUP2 PUSH20 0xFFFFFFFFFFFFFFFFFFFFFFFFFFFFFFFFFFFFFFFF MUL NOT AND SWAP1 DUP4 PUSH20 0xFFFFFFFFFFFFFFFFFFFFFFFFFFFFFFFFFFFFFFFF AND MUL OR SWAP1 SSTORE POP DUP2 PUSH20 0xFFFFFFFFFFFFFFFFFFFFFFFFFFFFFFFFFFFFFFFF AND DUP2 PUSH20 0xFFFFFFFFFFFFFFFFFFFFFFFFFFFFFFFFFFFFFFFF AND PUSH32 0x8BE0079C531659141344CD1FD0A4F28419497F9722A3DAAFE3B4186F6B6457E0 PUSH1 0x40 MLOAD PUSH1 0x40 MLOAD DUP1 SWAP2 SUB SWAP1 LOG3 POP POP JUMP JUMPDEST PUSH0 DUP2 EQ DUP1 PUSH2 0x7F33 JUMPI POP PUSH0 PUSH20 0xFFFFFFFFFFFFFFFFFFFFFFFFFFFFFFFFFFFFFFFF AND DUP3 PUSH20 0xFFFFFFFFFFFFFFFFFFFFFFFFFFFFFFFFFFFFFFFF AND EQ JUMPDEST PUSH2 0x7FD8 JUMPI PUSH0 DUP3 PUSH20 0xFFFFFFFFFFFFFFFFFFFFFFFFFFFFFFFFFFFFFFFF AND DUP3 PUSH1 0x40 MLOAD PUSH2 0x7F5C SWAP1 PUSH2 0xA92D JUMP JUMPDEST PUSH0 PUSH1 0x40 MLOAD DUP1 DUP4 SUB DUP2 DUP6 DUP8 GAS CALL SWAP3 POP POP POP RETURNDATASIZE DUP1 PUSH0 DUP2 EQ PUSH2 0x7F96 JUMPI PUSH1 0x40 MLOAD SWAP2 POP PUSH1 0x1F NOT PUSH1 0x3F RETURNDATASIZE ADD AND DUP3 ADD PUSH1 0x40 MSTORE RETURNDATASIZE DUP3 MSTORE RETURNDATASIZE PUSH0 PUSH1 0x20 DUP5 ADD RETURNDATACOPY PUSH2 0x7F9B JUMP JUMPDEST PUSH1 0x60 SWAP2 POP JUMPDEST POP POP SWAP1 POP DUP1 PUSH2 0x7FD6 JUMPI PUSH1 0x40 MLOAD PUSH32 0x90B8EC1800000000000000000000000000000000000000000000000000000000 DUP2 MSTORE PUSH1 0x4 ADD PUSH1 0x40 MLOAD DUP1 SWAP2 SUB SWAP1 REVERT JUMPDEST POP JUMPDEST POP POP JUMP JUMPDEST PUSH0 PUSH20 0xFFFFFFFFFFFFFFFFFFFFFFFFFFFFFFFFFFFFFFFF AND DUP3 PUSH20 0xFFFFFFFFFFFFFFFFFFFFFFFFFFFFFFFFFFFFFFFF AND SUB PUSH2 0x804C JUMPI PUSH0 PUSH1 0x40 MLOAD PUSH32 0xEC442F0500000000000000000000000000000000000000000000000000000000 DUP2 MSTORE PUSH1 0x4 ADD PUSH2 0x8043 SWAP2 SWAP1 PUSH2 0x9E7C JUMP JUMPDEST PUSH1 0x40 MLOAD DUP1 SWAP2 SUB SWAP1 REVERT JUMPDEST PUSH2 0x8057 PUSH0 DUP4 DUP4 PUSH2 0x8D32 JUMP JUMPDEST POP POP JUMP JUMPDEST PUSH0 PUSH0 PUSH0 DUP4 SUB PUSH2 0x806F JUMPI PUSH0 PUSH0 SWAP2 POP SWAP2 POP PUSH2 0x8274 JUMP JUMPDEST PUSH0 PUSH1 0x2 PUSH8 0xFFFFFFFFFFFFFFFF DUP2 GT ISZERO PUSH2 0x808B JUMPI PUSH2 0x808A PUSH2 0xA9B8 JUMP JUMPDEST JUMPDEST PUSH1 0x40 MLOAD SWAP1 DUP1 DUP3 MSTORE DUP1 PUSH1 0x20 MUL PUSH1 0x20 ADD DUP3 ADD PUSH1 0x40 MSTORE DUP1 ISZERO PUSH2 0x80B9 JUMPI DUP2 PUSH1 0x20 ADD PUSH1 0x20 DUP3 MUL DUP1 CALLDATASIZE DUP4 CALLDATACOPY DUP1 DUP3 ADD SWAP2 POP POP SWAP1 POP JUMPDEST POP SWAP1 POP ADDRESS DUP2 PUSH0 DUP2 MLOAD DUP2 LT PUSH2 0x80D0 JUMPI PUSH2 0x80CF PUSH2 0xA86D JUMP JUMPDEST JUMPDEST PUSH1 0x20 MUL PUSH1 0x20 ADD ADD SWAP1 PUSH20 0xFFFFFFFFFFFFFFFFFFFFFFFFFFFFFFFFFFFFFFFF AND SWAP1 DUP2 PUSH20 0xFFFFFFFFFFFFFFFFFFFFFFFFFFFFFFFFFFFFFFFF AND DUP2 MSTORE POP POP PUSH32 0x0 DUP2 PUSH1 0x1 DUP2 MLOAD DUP2 LT PUSH2 0x813F JUMPI PUSH2 0x813E PUSH2 0xA86D JUMP JUMPDEST JUMPDEST PUSH1 0x20 MUL PUSH1 0x20 ADD ADD SWAP1 PUSH20 0xFFFFFFFFFFFFFFFFFFFFFFFFFFFFFFFFFFFFFFFF AND SWAP1 DUP2 PUSH20 0xFFFFFFFFFFFFFFFFFFFFFFFFFFFFFFFFFFFFFFFF AND DUP2 MSTORE POP POP PUSH0 SELFBALANCE SWAP1 POP PUSH0 PUSH2 0x8189 DUP7 PUSH1 0x1 PUSH2 0x8A23 JUMP JUMPDEST SWAP1 POP PUSH2 0x81B6 ADDRESS PUSH32 0x0 DUP9 PUSH2 0x7929 JUMP JUMPDEST PUSH32 0x0 PUSH20 0xFFFFFFFFFFFFFFFFFFFFFFFFFFFFFFFFFFFFFFFF AND PUSH4 0x791AC947 DUP8 DUP4 DUP7 ADDRESS PUSH2 0x12C TIMESTAMP PUSH2 0x8204 SWAP2 SWAP1 PUSH2 0xA663 JUMP JUMPDEST PUSH1 0x40 MLOAD DUP7 PUSH4 0xFFFFFFFF AND PUSH1 0xE0 SHL DUP2 MSTORE PUSH1 0x4 ADD PUSH2 0x8224 SWAP6 SWAP5 SWAP4 SWAP3 SWAP2 SWAP1 PUSH2 0xAB1B JUMP JUMPDEST PUSH0 PUSH1 0x40 MLOAD DUP1 DUP4 SUB DUP2 PUSH0 DUP8 DUP1 EXTCODESIZE ISZERO DUP1 ISZERO PUSH2 0x823B JUMPI PUSH0 PUSH0 REVERT JUMPDEST POP GAS CALL SWAP3 POP POP POP DUP1 ISZERO PUSH2 0x824C JUMPI POP PUSH1 0x1 JUMPDEST PUSH2 0x825E JUMPI PUSH0 PUSH0 SWAP5 POP SWAP5 POP POP POP POP PUSH2 0x8274 JUMP JUMPDEST DUP2 SELFBALANCE PUSH2 0x826A SWAP2 SWAP1 PUSH2 0xA6F3 JUMP JUMPDEST PUSH1 0x1 SWAP5 POP SWAP5 POP POP POP POP JUMPDEST SWAP2 POP SWAP2 JUMP JUMPDEST PUSH0 PUSH0 SELFBALANCE SWAP1 POP PUSH1 0x26 SLOAD DUP2 GT PUSH2 0x828D JUMPI PUSH0 PUSH2 0x829C JUMP JUMPDEST PUSH1 0x26 SLOAD DUP2 PUSH2 0x829B SWAP2 SWAP1 PUSH2 0xA6F3 JUMP JUMPDEST JUMPDEST SWAP2 POP POP SWAP1 JUMP JUMPDEST PUSH0 PUSH0 PUSH32 0x0 PUSH20 0xFFFFFFFFFFFFFFFFFFFFFFFFFFFFFFFFFFFFFFFF AND PUSH4 0x70A08231 ADDRESS PUSH1 0x40 MLOAD DUP3 PUSH4 0xFFFFFFFF AND PUSH1 0xE0 SHL DUP2 MSTORE PUSH1 0x4 ADD PUSH2 0x82FD SWAP2 SWAP1 PUSH2 0x9E7C JUMP JUMPDEST PUSH1 0x20 PUSH1 0x40 MLOAD DUP1 DUP4 SUB DUP2 DUP7 GAS STATICCALL ISZERO DUP1 ISZERO PUSH2 0x8318 JUMPI RETURNDATASIZE PUSH0 PUSH0 RETURNDATACOPY RETURNDATASIZE PUSH0 REVERT JUMPDEST POP POP POP POP PUSH1 0x40 MLOAD RETURNDATASIZE PUSH1 0x1F NOT PUSH1 0x1F DUP3 ADD AND DUP3 ADD DUP1 PUSH1 0x40 MSTORE POP DUP2 ADD SWAP1 PUSH2 0x833C SWAP2 SWAP1 PUSH2 0xA77B JUMP JUMPDEST SWAP1 POP PUSH0 DUP2 SUB PUSH2 0x834E JUMPI PUSH0 SWAP2 POP POP PUSH2 0x85B2 JUMP JUMPDEST PUSH0 PUSH2 0x8358 DUP5 PUSH2 0x968A JUMP JUMPDEST SWAP1 POP DUP2 DUP2 GT ISZERO PUSH2 0x8366 JUMPI DUP2 SWAP1 POP JUMPDEST PUSH0 DUP2 SUB PUSH2 0x8377 JUMPI PUSH0 SWAP3 POP POP POP PUSH2 0x85B2 JUMP JUMPDEST PUSH0 PUSH2 0x8381 ADDRESS PUSH2 0x3ED3 JUMP JUMPDEST SWAP1 POP PUSH32 0x0 PUSH20 0xFFFFFFFFFFFFFFFFFFFFFFFFFFFFFFFFFFFFFFFF AND PUSH4 0x95EA7B3 PUSH32 0x0 DUP5 PUSH1 0x40 MLOAD DUP4 PUSH4 0xFFFFFFFF AND PUSH1 0xE0 SHL DUP2 MSTORE PUSH1 0x4 ADD PUSH2 0x83FE SWAP3 SWAP2 SWAP1 PUSH2 0xA89A JUMP JUMPDEST PUSH1 0x20 PUSH1 0x40 MLOAD DUP1 DUP4 SUB DUP2 PUSH0 DUP8 GAS CALL ISZERO DUP1 ISZERO PUSH2 0x841A JUMPI RETURNDATASIZE PUSH0 PUSH0 RETURNDATACOPY RETURNDATASIZE PUSH0 REVERT JUMPDEST POP POP POP POP PUSH1 0x40 MLOAD RETURNDATASIZE PUSH1 0x1F NOT PUSH1 0x1F DUP3 ADD AND DUP3 ADD DUP1 PUSH1 0x40 MSTORE POP DUP2 ADD SWAP1 PUSH2 0x843E SWAP2 SWAP1 PUSH2 0xA8D5 JUMP JUMPDEST POP PUSH32 0x0 PUSH20 0xFFFFFFFFFFFFFFFFFFFFFFFFFFFFFFFFFFFFFFFF AND PUSH4 0xAF2979EB ADDRESS DUP5 PUSH0 PUSH3 0xF4240 PUSH1 0x29 SLOAD PUSH3 0xF4240 PUSH2 0x8493 SWAP2 SWAP1 PUSH2 0xA6F3 JUMP JUMPDEST DUP12 PUSH2 0x849E SWAP2 SWAP1 PUSH2 0xA726 JUMP JUMPDEST PUSH2 0x84A8 SWAP2 SWAP1 PUSH2 0xA6C3 JUMP JUMPDEST ADDRESS PUSH2 0x12C TIMESTAMP PUSH2 0x84B7 SWAP2 SWAP1 PUSH2 0xA663 JUMP JUMPDEST PUSH1 0x40 MLOAD DUP8 PUSH4 0xFFFFFFFF AND PUSH1 0xE0 SHL DUP2 MSTORE PUSH1 0x4 ADD PUSH2 0x84D8 SWAP7 SWAP6 SWAP5 SWAP4 SWAP3 SWAP2 SWAP1 PUSH2 0xAB73 JUMP JUMPDEST PUSH1 0x20 PUSH1 0x40 MLOAD DUP1 DUP4 SUB DUP2 PUSH0 DUP8 GAS CALL SWAP3 POP POP POP DUP1 ISZERO PUSH2 0x8513 JUMPI POP PUSH1 0x40 MLOAD RETURNDATASIZE PUSH1 0x1F NOT PUSH1 0x1F DUP3 ADD AND DUP3 ADD DUP1 PUSH1 0x40 MSTORE POP DUP2 ADD SWAP1 PUSH2 0x8510 SWAP2 SWAP1 PUSH2 0xA77B JUMP JUMPDEST PUSH1 0x1 JUMPDEST PUSH2 0x851F JUMPI PUSH0 SWAP4 POP PUSH2 0x85AE JUMP JUMPDEST DUP1 SWAP5 POP PUSH0 PUSH2 0x852C ADDRESS PUSH2 0x3ED3 JUMP JUMPDEST SWAP1 POP PUSH0 DUP4 DUP3 GT PUSH2 0x853C JUMPI PUSH0 PUSH2 0x8549 JUMP JUMPDEST DUP4 DUP3 PUSH2 0x8548 SWAP2 SWAP1 PUSH2 0xA6F3 JUMP JUMPDEST JUMPDEST SWAP1 POP PUSH0 DUP2 GT ISZERO PUSH2 0x85AA JUMPI PUSH0 PUSH0 PUSH2 0x855E DUP4 PUSH2 0x805B JUMP JUMPDEST SWAP2 POP SWAP2 POP DUP1 PUSH2 0x8598 JUMPI PUSH2 0x8593 ADDRESS PUSH1 0x21 PUSH0 SWAP1 SLOAD SWAP1 PUSH2 0x100 EXP SWAP1 DIV PUSH20 0xFFFFFFFFFFFFFFFFFFFFFFFFFFFFFFFFFFFFFFFF AND DUP6 PUSH2 0x7C1E JUMP JUMPDEST PUSH2 0x85A7 JUMP JUMPDEST DUP2 DUP10 PUSH2 0x85A4 SWAP2 SWAP1 PUSH2 0xA663 JUMP JUMPDEST SWAP9 POP JUMPDEST POP POP JUMPDEST POP POP POP JUMPDEST POP POP POP JUMPDEST SWAP2 SWAP1 POP JUMP JUMPDEST PUSH0 DUP3 SWAP1 POP PUSH0 PUSH0 SWAP1 POP JUMPDEST PUSH1 0x2D DUP2 LT ISZERO PUSH2 0x86EC JUMPI PUSH0 PUSH1 0x8 PUSH0 DUP5 PUSH20 0xFFFFFFFFFFFFFFFFFFFFFFFFFFFFFFFFFFFFFFFF AND PUSH20 0xFFFFFFFFFFFFFFFFFFFFFFFFFFFFFFFFFFFFFFFF AND DUP2 MSTORE PUSH1 0x20 ADD SWAP1 DUP2 MSTORE PUSH1 0x20 ADD PUSH0 KECCAK256 PUSH0 SWAP1 SLOAD SWAP1 PUSH2 0x100 EXP SWAP1 DIV PUSH20 0xFFFFFFFFFFFFFFFFFFFFFFFFFFFFFFFFFFFFFFFF AND SWAP1 POP PUSH0 PUSH20 0xFFFFFFFFFFFFFFFFFFFFFFFFFFFFFFFFFFFFFFFF AND DUP2 PUSH20 0xFFFFFFFFFFFFFFFFFFFFFFFFFFFFFFFFFFFFFFFF AND SUB PUSH2 0x8662 JUMPI POP PUSH2 0x86EC JUMP JUMPDEST PUSH0 PUSH1 0x18 PUSH0 DUP4 PUSH20 0xFFFFFFFFFFFFFFFFFFFFFFFFFFFFFFFFFFFFFFFF AND PUSH20 0xFFFFFFFFFFFFFFFFFFFFFFFFFFFFFFFFFFFFFFFF AND DUP2 MSTORE PUSH1 0x20 ADD SWAP1 DUP2 MSTORE PUSH1 0x20 ADD PUSH0 KECCAK256 SWAP1 POP DUP5 DUP2 PUSH0 ADD SLOAD LT PUSH2 0x86CA JUMPI DUP5 DUP2 PUSH0 ADD PUSH0 DUP3 DUP3 SLOAD PUSH2 0x86BE SWAP2 SWAP1 PUSH2 0xA6F3 JUMP JUMPDEST SWAP3 POP POP DUP2 SWAP1 SSTORE POP PUSH2 0x86D3 JUMP JUMPDEST PUSH0 DUP2 PUSH0 ADD DUP2 SWAP1 SSTORE POP JUMPDEST PUSH2 0x86DC DUP3 PUSH2 0x8A9E JUMP JUMPDEST DUP2 SWAP4 POP DUP3 PUSH1 0x1 ADD SWAP3 POP POP POP PUSH2 0x85C0 JUMP JUMPDEST POP POP POP POP JUMP JUMPDEST PUSH0 DUP2 SUB ISZERO PUSH2 0x8A20 JUMPI PUSH0 PUSH1 0x2 PUSH8 0xFFFFFFFFFFFFFFFF DUP2 GT ISZERO PUSH2 0x8716 JUMPI PUSH2 0x8715 PUSH2 0xA9B8 JUMP JUMPDEST JUMPDEST PUSH1 0x40 MLOAD SWAP1 DUP1 DUP3 MSTORE DUP1 PUSH1 0x20 MUL PUSH1 0x20 ADD DUP3 ADD PUSH1 0x40 MSTORE DUP1 ISZERO PUSH2 0x8744 JUMPI DUP2 PUSH1 0x20 ADD PUSH1 0x20 DUP3 MUL DUP1 CALLDATASIZE DUP4 CALLDATACOPY DUP1 DUP3 ADD SWAP2 POP POP SWAP1 POP JUMPDEST POP SWAP1 POP PUSH32 0x0 DUP2 PUSH0 DUP2 MLOAD DUP2 LT PUSH2 0x877B JUMPI PUSH2 0x877A PUSH2 0xA86D JUMP JUMPDEST JUMPDEST PUSH1 0x20 MUL PUSH1 0x20 ADD ADD SWAP1 PUSH20 0xFFFFFFFFFFFFFFFFFFFFFFFFFFFFFFFFFFFFFFFF AND SWAP1 DUP2 PUSH20 0xFFFFFFFFFFFFFFFFFFFFFFFFFFFFFFFFFFFFFFFF AND DUP2 MSTORE POP POP ADDRESS DUP2 PUSH1 0x1 DUP2 MLOAD DUP2 LT PUSH2 0x87CA JUMPI PUSH2 0x87C9 PUSH2 0xA86D JUMP JUMPDEST JUMPDEST PUSH1 0x20 MUL PUSH1 0x20 ADD ADD SWAP1 PUSH20 0xFFFFFFFFFFFFFFFFFFFFFFFFFFFFFFFFFFFFFFFF AND SWAP1 DUP2 PUSH20 0xFFFFFFFFFFFFFFFFFFFFFFFFFFFFFFFFFFFFFFFF AND DUP2 MSTORE POP POP PUSH0 PUSH2 0x882E PUSH32 0x0 PUSH2 0x3ED3 JUMP JUMPDEST SWAP1 POP PUSH0 PUSH2 0x883B DUP5 PUSH0 PUSH2 0x8A23 JUMP JUMPDEST SWAP1 POP PUSH32 0x0 PUSH20 0xFFFFFFFFFFFFFFFFFFFFFFFFFFFFFFFFFFFFFFFF AND PUSH4 0xB6F9DE95 DUP6 DUP4 DUP7 PUSH32 0x0 PUSH2 0x12C TIMESTAMP PUSH2 0x88AB SWAP2 SWAP1 PUSH2 0xA663 JUMP JUMPDEST PUSH1 0x40 MLOAD DUP7 PUSH4 0xFFFFFFFF AND PUSH1 0xE0 SHL DUP2 MSTORE PUSH1 0x4 ADD PUSH2 0x88CA SWAP5 SWAP4 SWAP3 SWAP2 SWAP1 PUSH2 0xAA9C JUMP JUMPDEST PUSH0 PUSH1 0x40 MLOAD DUP1 DUP4 SUB DUP2 DUP6 DUP9 DUP1 EXTCODESIZE ISZERO DUP1 ISZERO PUSH2 0x88E1 JUMPI PUSH0 PUSH0 REVERT JUMPDEST POP GAS CALL SWAP4 POP POP POP POP DUP1 ISZERO PUSH2 0x88F3 JUMPI POP PUSH1 0x1 JUMPDEST PUSH2 0x8927 JUMPI PUSH2 0x8922 PUSH1 0x21 PUSH0 SWAP1 SLOAD SWAP1 PUSH2 0x100 EXP SWAP1 DIV PUSH20 0xFFFFFFFFFFFFFFFFFFFFFFFFFFFFFFFFFFFFFFFF AND DUP6 PUSH2 0x7EFA JUMP JUMPDEST PUSH2 0x8A1C JUMP JUMPDEST PUSH0 DUP3 PUSH2 0x8952 PUSH32 0x0 PUSH2 0x3ED3 JUMP JUMPDEST PUSH2 0x895C SWAP2 SWAP1 PUSH2 0xA6F3 JUMP JUMPDEST SWAP1 POP PUSH0 DUP2 GT ISZERO PUSH2 0x8A1A JUMPI PUSH0 PUSH1 0x1 PUSH1 0x5 PUSH1 0x8 PUSH2 0x8977 SWAP2 SWAP1 PUSH2 0xA6F3 JUMP JUMPDEST PUSH2 0x8981 SWAP2 SWAP1 PUSH2 0xA663 JUMP JUMPDEST PUSH1 0x25 SLOAD PUSH2 0x898E SWAP2 SWAP1 PUSH2 0xABD2 JUMP JUMPDEST PUSH1 0x5 PUSH2 0x899A SWAP2 SWAP1 PUSH2 0xA663 JUMP JUMPDEST SWAP1 POP PUSH1 0x25 PUSH0 DUP2 SLOAD DUP1 SWAP3 SWAP2 SWAP1 PUSH2 0x89AE SWAP1 PUSH2 0xAC02 JUMP JUMPDEST SWAP2 SWAP1 POP SSTORE POP PUSH0 DUP2 DUP4 PUSH2 0x89C0 SWAP2 SWAP1 PUSH2 0xA6C3 JUMP JUMPDEST SWAP1 POP PUSH0 PUSH0 SWAP1 POP JUMPDEST DUP3 DUP2 LT ISZERO PUSH2 0x8A16 JUMPI PUSH0 DUP3 GT ISZERO PUSH2 0x8A0B JUMPI PUSH2 0x8A0A PUSH32 0x0 PUSH2 0x8A04 DUP4 PUSH2 0x9781 JUMP JUMPDEST DUP5 PUSH2 0x7C1E JUMP JUMPDEST JUMPDEST DUP1 PUSH1 0x1 ADD SWAP1 POP PUSH2 0x89C7 JUMP JUMPDEST POP POP POP JUMPDEST POP JUMPDEST POP POP POP JUMPDEST POP JUMP JUMPDEST PUSH0 PUSH0 PUSH0 PUSH2 0x8A2E PUSH2 0x97D5 JUMP JUMPDEST SWAP2 POP SWAP2 POP PUSH0 DUP5 PUSH2 0x8A48 JUMPI PUSH2 0x8A43 DUP7 DUP4 DUP6 PUSH2 0x9917 JUMP JUMPDEST PUSH2 0x8A54 JUMP JUMPDEST PUSH2 0x8A53 DUP7 DUP5 DUP5 PUSH2 0x9917 JUMP JUMPDEST JUMPDEST SWAP1 POP PUSH0 DUP2 SUB PUSH2 0x8A68 JUMPI PUSH0 SWAP4 POP POP POP POP PUSH2 0x8A98 JUMP JUMPDEST PUSH3 0xF4240 PUSH1 0x29 SLOAD PUSH3 0xF4240 PUSH2 0x8A7D SWAP2 SWAP1 PUSH2 0xA6F3 JUMP JUMPDEST DUP3 PUSH2 0x8A88 SWAP2 SWAP1 PUSH2 0xA726 JUMP JUMPDEST PUSH2 0x8A92 SWAP2 SWAP1 PUSH2 0xA6C3 JUMP JUMPDEST SWAP4 POP POP POP POP JUMPDEST SWAP3 SWAP2 POP POP JUMP JUMPDEST PUSH0 PUSH1 0x18 PUSH0 DUP4 PUSH20 0xFFFFFFFFFFFFFFFFFFFFFFFFFFFFFFFFFFFFFFFF AND PUSH20 0xFFFFFFFFFFFFFFFFFFFFFFFFFFFFFFFFFFFFFFFF AND DUP2 MSTORE PUSH1 0x20 ADD SWAP1 DUP2 MSTORE PUSH1 0x20 ADD PUSH0 KECCAK256 SWAP1 POP PUSH0 PUSH1 0x1 DUP3 PUSH1 0x1 ADD PUSH0 SWAP1 SLOAD SWAP1 PUSH2 0x100 EXP SWAP1 DIV PUSH1 0xFF AND PUSH2 0x8AFC SWAP2 SWAP1 PUSH2 0xAC49 JUMP JUMPDEST SWAP1 POP JUMPDEST PUSH1 0x5 DUP2 PUSH1 0xFF AND GT PUSH2 0x8B5E JUMPI PUSH1 0x19 PUSH0 DUP3 PUSH1 0xFF AND PUSH1 0xFF AND DUP2 MSTORE PUSH1 0x20 ADD SWAP1 DUP2 MSTORE PUSH1 0x20 ADD PUSH0 KECCAK256 PUSH0 ADD SLOAD DUP3 PUSH0 ADD SLOAD LT PUSH2 0x8B4E JUMPI DUP1 DUP3 PUSH1 0x1 ADD PUSH0 PUSH2 0x100 EXP DUP2 SLOAD DUP2 PUSH1 0xFF MUL NOT AND SWAP1 DUP4 PUSH1 0xFF AND MUL OR SWAP1 SSTORE POP PUSH2 0x8B53 JUMP JUMPDEST PUSH2 0x8B5E JUMP JUMPDEST DUP1 PUSH1 0x1 ADD SWAP1 POP PUSH2 0x8AFF JUMP JUMPDEST POP POP POP JUMP JUMPDEST PUSH0 PUSH20 0xFFFFFFFFFFFFFFFFFFFFFFFFFFFFFFFFFFFFFFFF AND DUP5 PUSH20 0xFFFFFFFFFFFFFFFFFFFFFFFFFFFFFFFFFFFFFFFF AND SUB PUSH2 0x8BD3 JUMPI PUSH0 PUSH1 0x40 MLOAD PUSH32 0xE602DF0500000000000000000000000000000000000000000000000000000000 DUP2 MSTORE PUSH1 0x4 ADD PUSH2 0x8BCA SWAP2 SWAP1 PUSH2 0x9E7C JUMP JUMPDEST PUSH1 0x40 MLOAD DUP1 SWAP2 SUB SWAP1 REVERT JUMPDEST PUSH0 PUSH20 0xFFFFFFFFFFFFFFFFFFFFFFFFFFFFFFFFFFFFFFFF AND DUP4 PUSH20 0xFFFFFFFFFFFFFFFFFFFFFFFFFFFFFFFFFFFFFFFF AND SUB PUSH2 0x8C43 JUMPI PUSH0 PUSH1 0x40 MLOAD PUSH32 0x94280D6200000000000000000000000000000000000000000000000000000000 DUP2 MSTORE PUSH1 0x4 ADD PUSH2 0x8C3A SWAP2 SWAP1 PUSH2 0x9E7C JUMP JUMPDEST PUSH1 0x40 MLOAD DUP1 SWAP2 SUB SWAP1 REVERT JUMPDEST DUP2 PUSH1 0x1 PUSH0 DUP7 PUSH20 0xFFFFFFFFFFFFFFFFFFFFFFFFFFFFFFFFFFFFFFFF AND PUSH20 0xFFFFFFFFFFFFFFFFFFFFFFFFFFFFFFFFFFFFFFFF AND DUP2 MSTORE PUSH1 0x20 ADD SWAP1 DUP2 MSTORE PUSH1 0x20 ADD PUSH0 KECCAK256 PUSH0 DUP6 PUSH20 0xFFFFFFFFFFFFFFFFFFFFFFFFFFFFFFFFFFFFFFFF AND PUSH20 0xFFFFFFFFFFFFFFFFFFFFFFFFFFFFFFFFFFFFFFFF AND DUP2 MSTORE PUSH1 0x20 ADD SWAP1 DUP2 MSTORE PUSH1 0x20 ADD PUSH0 KECCAK256 DUP2 SWAP1 SSTORE POP DUP1 ISZERO PUSH2 0x8D2C JUMPI DUP3 PUSH20 0xFFFFFFFFFFFFFFFFFFFFFFFFFFFFFFFFFFFFFFFF AND DUP5 PUSH20 0xFFFFFFFFFFFFFFFFFFFFFFFFFFFFFFFFFFFFFFFF AND PUSH32 0x8C5BE1E5EBEC7D5BD14F71427D1E84F3DD0314C0F7B2291E5B200AC8C7C3B925 DUP5 PUSH1 0x40 MLOAD PUSH2 0x8D23 SWAP2 SWAP1 PUSH2 0xA08A JUMP JUMPDEST PUSH1 0x40 MLOAD DUP1 SWAP2 SUB SWAP1 LOG3 JUMPDEST POP POP POP POP JUMP JUMPDEST PUSH0 PUSH20 0xFFFFFFFFFFFFFFFFFFFFFFFFFFFFFFFFFFFFFFFF AND DUP4 PUSH20 0xFFFFFFFFFFFFFFFFFFFFFFFFFFFFFFFFFFFFFFFF AND EQ ISZERO DUP1 ISZERO PUSH2 0x8DB4 JUMPI POP PUSH1 0x1D PUSH0 DUP5 PUSH20 0xFFFFFFFFFFFFFFFFFFFFFFFFFFFFFFFFFFFFFFFF AND PUSH20 0xFFFFFFFFFFFFFFFFFFFFFFFFFFFFFFFFFFFFFFFF AND DUP2 MSTORE PUSH1 0x20 ADD SWAP1 DUP2 MSTORE PUSH1 0x20 ADD PUSH0 KECCAK256 PUSH0 SWAP1 SLOAD SWAP1 PUSH2 0x100 EXP SWAP1 DIV PUSH1 0xFF AND JUMPDEST ISZERO PUSH2 0x8DEB JUMPI PUSH1 0x40 MLOAD PUSH32 0x9550C7700000000000000000000000000000000000000000000000000000000 DUP2 MSTORE PUSH1 0x4 ADD PUSH1 0x40 MLOAD DUP1 SWAP2 SUB SWAP1 REVERT JUMPDEST PUSH0 PUSH20 0xFFFFFFFFFFFFFFFFFFFFFFFFFFFFFFFFFFFFFFFF AND DUP3 PUSH20 0xFFFFFFFFFFFFFFFFFFFFFFFFFFFFFFFFFFFFFFFF AND EQ ISZERO DUP1 ISZERO PUSH2 0x8E6D JUMPI POP PUSH1 0x1D PUSH0 DUP4 PUSH20 0xFFFFFFFFFFFFFFFFFFFFFFFFFFFFFFFFFFFFFFFF AND PUSH20 0xFFFFFFFFFFFFFFFFFFFFFFFFFFFFFFFFFFFFFFFF AND DUP2 MSTORE PUSH1 0x20 ADD SWAP1 DUP2 MSTORE PUSH1 0x20 ADD PUSH0 KECCAK256 PUSH0 SWAP1 SLOAD SWAP1 PUSH2 0x100 EXP SWAP1 DIV PUSH1 0xFF AND JUMPDEST ISZERO PUSH2 0x8EA4 JUMPI PUSH1 0x40 MLOAD PUSH32 0x9550C7700000000000000000000000000000000000000000000000000000000 DUP2 MSTORE PUSH1 0x4 ADD PUSH1 0x40 MLOAD DUP1 SWAP2 SUB SWAP1 REVERT JUMPDEST PUSH1 0xB PUSH0 SWAP1 SLOAD SWAP1 PUSH2 0x100 EXP SWAP1 DIV PUSH1 0xFF AND DUP1 ISZERO PUSH2 0x8EEB JUMPI POP PUSH0 PUSH20 0xFFFFFFFFFFFFFFFFFFFFFFFFFFFFFFFFFFFFFFFF AND DUP4 PUSH20 0xFFFFFFFFFFFFFFFFFFFFFFFFFFFFFFFFFFFFFFFF AND EQ ISZERO JUMPDEST DUP1 ISZERO PUSH2 0x8F23 JUMPI POP PUSH0 PUSH20 0xFFFFFFFFFFFFFFFFFFFFFFFFFFFFFFFFFFFFFFFF AND DUP3 PUSH20 0xFFFFFFFFFFFFFFFFFFFFFFFFFFFFFFFFFFFFFFFF AND EQ ISZERO JUMPDEST DUP1 ISZERO PUSH2 0x8F5A JUMPI POP ORIGIN PUSH20 0xFFFFFFFFFFFFFFFFFFFFFFFFFFFFFFFFFFFFFFFF AND DUP4 PUSH20 0xFFFFFFFFFFFFFFFFFFFFFFFFFFFFFFFFFFFFFFFF AND EQ JUMPDEST DUP1 ISZERO PUSH2 0x8FED JUMPI POP PUSH0 PUSH20 0xFFFFFFFFFFFFFFFFFFFFFFFFFFFFFFFFFFFFFFFF AND PUSH1 0x8 PUSH0 DUP5 PUSH20 0xFFFFFFFFFFFFFFFFFFFFFFFFFFFFFFFFFFFFFFFF AND PUSH20 0xFFFFFFFFFFFFFFFFFFFFFFFFFFFFFFFFFFFFFFFF AND DUP2 MSTORE PUSH1 0x20 ADD SWAP1 DUP2 MSTORE PUSH1 0x20 ADD PUSH0 KECCAK256 PUSH0 SWAP1 SLOAD SWAP1 PUSH2 0x100 EXP SWAP1 DIV PUSH20 0xFFFFFFFFFFFFFFFFFFFFFFFFFFFFFFFFFFFFFFFF AND PUSH20 0xFFFFFFFFFFFFFFFFFFFFFFFFFFFFFFFFFFFFFFFF AND EQ JUMPDEST DUP1 ISZERO PUSH2 0x8FFB JUMPI POP PUSH1 0xA SLOAD DUP2 LT ISZERO JUMPDEST DUP1 ISZERO PUSH2 0x900D JUMPI POP PUSH2 0x900B DUP4 PUSH2 0x9987 JUMP JUMPDEST ISZERO JUMPDEST DUP1 ISZERO PUSH2 0x901F JUMPI POP PUSH2 0x901D DUP3 PUSH2 0x9987 JUMP JUMPDEST ISZERO JUMPDEST ISZERO PUSH2 0x902F JUMPI PUSH2 0x902E DUP3 DUP5 PUSH2 0x9A34 JUMP JUMPDEST JUMPDEST PUSH0 PUSH0 PUSH32 0x0 PUSH20 0xFFFFFFFFFFFFFFFFFFFFFFFFFFFFFFFFFFFFFFFF AND DUP6 PUSH20 0xFFFFFFFFFFFFFFFFFFFFFFFFFFFFFFFFFFFFFFFF AND EQ DUP1 PUSH2 0x90D6 JUMPI POP PUSH32 0x0 PUSH20 0xFFFFFFFFFFFFFFFFFFFFFFFFFFFFFFFFFFFFFFFF AND DUP6 PUSH20 0xFFFFFFFFFFFFFFFFFFFFFFFFFFFFFFFFFFFFFFFF AND EQ JUMPDEST SWAP1 POP PUSH0 PUSH32 0x0 PUSH20 0xFFFFFFFFFFFFFFFFFFFFFFFFFFFFFFFFFFFFFFFF AND DUP6 PUSH20 0xFFFFFFFFFFFFFFFFFFFFFFFFFFFFFFFFFFFFFFFF AND EQ DUP1 PUSH2 0x917E JUMPI POP PUSH32 0x0 PUSH20 0xFFFFFFFFFFFFFFFFFFFFFFFFFFFFFFFFFFFFFFFF AND DUP6 PUSH20 0xFFFFFFFFFFFFFFFFFFFFFFFFFFFFFFFFFFFFFFFF AND EQ JUMPDEST SWAP1 POP DUP2 DUP1 PUSH2 0x9189 JUMPI POP DUP1 JUMPDEST DUP1 ISZERO PUSH2 0x91A2 JUMPI POP PUSH1 0x5 PUSH1 0x14 SWAP1 SLOAD SWAP1 PUSH2 0x100 EXP SWAP1 DIV PUSH1 0xFF AND ISZERO JUMPDEST ISZERO PUSH2 0x93DC JUMPI PUSH0 PUSH1 0x1C PUSH0 DUP9 PUSH20 0xFFFFFFFFFFFFFFFFFFFFFFFFFFFFFFFFFFFFFFFF AND PUSH20 0xFFFFFFFFFFFFFFFFFFFFFFFFFFFFFFFFFFFFFFFF AND DUP2 MSTORE PUSH1 0x20 ADD SWAP1 DUP2 MSTORE PUSH1 0x20 ADD PUSH0 KECCAK256 PUSH0 SWAP1 SLOAD SWAP1 PUSH2 0x100 EXP SWAP1 DIV PUSH1 0xFF AND DUP1 PUSH2 0x9248 JUMPI POP PUSH32 0x0 PUSH20 0xFFFFFFFFFFFFFFFFFFFFFFFFFFFFFFFFFFFFFFFF AND DUP8 PUSH20 0xFFFFFFFFFFFFFFFFFFFFFFFFFFFFFFFFFFFFFFFF AND EQ JUMPDEST DUP1 PUSH2 0x929E JUMPI POP PUSH32 0x0 PUSH20 0xFFFFFFFFFFFFFFFFFFFFFFFFFFFFFFFFFFFFFFFF AND DUP8 PUSH20 0xFFFFFFFFFFFFFFFFFFFFFFFFFFFFFFFFFFFFFFFF AND EQ JUMPDEST SWAP1 POP PUSH0 PUSH1 0x1C PUSH0 DUP9 PUSH20 0xFFFFFFFFFFFFFFFFFFFFFFFFFFFFFFFFFFFFFFFF AND PUSH20 0xFFFFFFFFFFFFFFFFFFFFFFFFFFFFFFFFFFFFFFFF AND DUP2 MSTORE PUSH1 0x20 ADD SWAP1 DUP2 MSTORE PUSH1 0x20 ADD PUSH0 KECCAK256 PUSH0 SWAP1 SLOAD SWAP1 PUSH2 0x100 EXP SWAP1 DIV PUSH1 0xFF AND DUP1 PUSH2 0x9341 JUMPI POP PUSH32 0x0 PUSH20 0xFFFFFFFFFFFFFFFFFFFFFFFFFFFFFFFFFFFFFFFF AND DUP8 PUSH20 0xFFFFFFFFFFFFFFFFFFFFFFFFFFFFFFFFFFFFFFFF AND EQ JUMPDEST DUP1 PUSH2 0x9397 JUMPI POP PUSH32 0x0 PUSH20 0xFFFFFFFFFFFFFFFFFFFFFFFFFFFFFFFFFFFFFFFF AND DUP8 PUSH20 0xFFFFFFFFFFFFFFFFFFFFFFFFFFFFFFFFFFFFFFFF AND EQ JUMPDEST SWAP1 POP DUP2 DUP1 ISZERO PUSH2 0x93A3 JUMPI POP DUP1 JUMPDEST PUSH2 0x93D9 JUMPI PUSH1 0x40 MLOAD PUSH32 0xBCB8B8FB00000000000000000000000000000000000000000000000000000000 DUP2 MSTORE PUSH1 0x4 ADD PUSH1 0x40 MLOAD DUP1 SWAP2 SUB SWAP1 REVERT JUMPDEST POP POP JUMPDEST PUSH1 0x1C PUSH0 DUP8 PUSH20 0xFFFFFFFFFFFFFFFFFFFFFFFFFFFFFFFFFFFFFFFF AND PUSH20 0xFFFFFFFFFFFFFFFFFFFFFFFFFFFFFFFFFFFFFFFF AND DUP2 MSTORE PUSH1 0x20 ADD SWAP1 DUP2 MSTORE PUSH1 0x20 ADD PUSH0 KECCAK256 PUSH0 SWAP1 SLOAD SWAP1 PUSH2 0x100 EXP SWAP1 DIV PUSH1 0xFF AND DUP1 PUSH2 0x9477 JUMPI POP PUSH1 0x1C PUSH0 DUP7 PUSH20 0xFFFFFFFFFFFFFFFFFFFFFFFFFFFFFFFFFFFFFFFF AND PUSH20 0xFFFFFFFFFFFFFFFFFFFFFFFFFFFFFFFFFFFFFFFF AND DUP2 MSTORE PUSH1 0x20 ADD SWAP1 DUP2 MSTORE PUSH1 0x20 ADD PUSH0 KECCAK256 PUSH0 SWAP1 SLOAD SWAP1 PUSH2 0x100 EXP SWAP1 DIV PUSH1 0xFF AND JUMPDEST PUSH2 0x94E5 JUMPI DUP2 DUP1 ISZERO PUSH2 0x9489 JUMPI POP PUSH0 PUSH1 0x6 SLOAD GT JUMPDEST ISZERO PUSH2 0x94B1 JUMPI PUSH3 0xF4240 PUSH1 0x6 SLOAD DUP6 PUSH2 0x94A0 SWAP2 SWAP1 PUSH2 0xA726 JUMP JUMPDEST PUSH2 0x94AA SWAP2 SWAP1 PUSH2 0xA6C3 JUMP JUMPDEST SWAP3 POP PUSH2 0x94E4 JUMP JUMPDEST DUP1 DUP1 ISZERO PUSH2 0x94BF JUMPI POP PUSH0 PUSH1 0x7 SLOAD GT JUMPDEST ISZERO PUSH2 0x94E3 JUMPI PUSH3 0xF4240 PUSH1 0x7 SLOAD DUP6 PUSH2 0x94D6 SWAP2 SWAP1 PUSH2 0xA726 JUMP JUMPDEST PUSH2 0x94E0 SWAP2 SWAP1 PUSH2 0xA6C3 JUMP JUMPDEST SWAP3 POP JUMPDEST JUMPDEST JUMPDEST PUSH0 DUP4 GT ISZERO PUSH2 0x9552 JUMPI PUSH2 0x94F8 DUP7 ADDRESS DUP6 PUSH2 0x7C1E JUMP JUMPDEST DUP1 ISZERO PUSH2 0x951B JUMPI DUP3 PUSH1 0x20 PUSH0 DUP3 DUP3 SLOAD PUSH2 0x950F SWAP2 SWAP1 PUSH2 0xA663 JUMP JUMPDEST SWAP3 POP POP DUP2 SWAP1 SSTORE POP PUSH2 0x9551 JUMP JUMPDEST DUP3 PUSH1 0x1F PUSH0 PUSH3 0x15180 TIMESTAMP PUSH2 0x952E SWAP2 SWAP1 PUSH2 0xA6C3 JUMP JUMPDEST DUP2 MSTORE PUSH1 0x20 ADD SWAP1 DUP2 MSTORE PUSH1 0x20 ADD PUSH0 KECCAK256 PUSH0 DUP3 DUP3 SLOAD PUSH2 0x9549 SWAP2 SWAP1 PUSH2 0xA663 JUMP JUMPDEST SWAP3 POP POP DUP2 SWAP1 SSTORE POP JUMPDEST JUMPDEST PUSH0 DUP4 DUP6 PUSH2 0x955F SWAP2 SWAP1 PUSH2 0xA6F3 JUMP JUMPDEST SWAP1 POP DUP2 DUP1 ISZERO PUSH2 0x9579 JUMPI POP PUSH1 0x1A PUSH0 SWAP1 SLOAD SWAP1 PUSH2 0x100 EXP SWAP1 DIV PUSH1 0xFF AND JUMPDEST DUP1 ISZERO PUSH2 0x95B1 JUMPI POP PUSH0 PUSH20 0xFFFFFFFFFFFFFFFFFFFFFFFFFFFFFFFFFFFFFFFF AND DUP8 PUSH20 0xFFFFFFFFFFFFFFFFFFFFFFFFFFFFFFFFFFFFFFFF AND EQ ISZERO JUMPDEST DUP1 ISZERO PUSH2 0x9604 JUMPI POP PUSH1 0x1C PUSH0 DUP9 PUSH20 0xFFFFFFFFFFFFFFFFFFFFFFFFFFFFFFFFFFFFFFFF AND PUSH20 0xFFFFFFFFFFFFFFFFFFFFFFFFFFFFFFFFFFFFFFFF AND DUP2 MSTORE PUSH1 0x20 ADD SWAP1 DUP2 MSTORE PUSH1 0x20 ADD PUSH0 KECCAK256 PUSH0 SWAP1 SLOAD SWAP1 PUSH2 0x100 EXP SWAP1 DIV PUSH1 0xFF AND ISZERO JUMPDEST ISZERO PUSH2 0x966D JUMPI PUSH0 PUSH3 0xF4240 PUSH1 0x1B SLOAD DUP4 PUSH2 0x961C SWAP2 SWAP1 PUSH2 0xA726 JUMP JUMPDEST PUSH2 0x9626 SWAP2 SWAP1 PUSH2 0xA6C3 JUMP JUMPDEST SWAP1 POP PUSH0 DUP2 GT ISZERO PUSH2 0x966B JUMPI DUP1 DUP3 PUSH2 0x963C SWAP2 SWAP1 PUSH2 0xA6F3 JUMP JUMPDEST SWAP2 POP PUSH2 0x966A DUP9 PUSH1 0x21 PUSH0 SWAP1 SLOAD SWAP1 PUSH2 0x100 EXP SWAP1 DIV PUSH20 0xFFFFFFFFFFFFFFFFFFFFFFFFFFFFFFFFFFFFFFFF AND DUP4 PUSH2 0x7C1E JUMP JUMPDEST JUMPDEST POP JUMPDEST PUSH0 DUP2 GT ISZERO PUSH2 0x9681 JUMPI PUSH2 0x9680 DUP8 DUP8 DUP4 PUSH2 0x7C1E JUMP JUMPDEST JUMPDEST POP POP POP POP POP POP POP JUMP JUMPDEST PUSH0 PUSH0 PUSH32 0x0 PUSH20 0xFFFFFFFFFFFFFFFFFFFFFFFFFFFFFFFFFFFFFFFF AND PUSH4 0x18160DDD PUSH1 0x40 MLOAD DUP2 PUSH4 0xFFFFFFFF AND PUSH1 0xE0 SHL DUP2 MSTORE PUSH1 0x4 ADD PUSH1 0x20 PUSH1 0x40 MLOAD DUP1 DUP4 SUB DUP2 DUP7 GAS STATICCALL ISZERO DUP1 ISZERO PUSH2 0x96F5 JUMPI RETURNDATASIZE PUSH0 PUSH0 RETURNDATACOPY RETURNDATASIZE PUSH0 REVERT JUMPDEST POP POP POP POP PUSH1 0x40 MLOAD RETURNDATASIZE PUSH1 0x1F NOT PUSH1 0x1F DUP3 ADD AND DUP3 ADD DUP1 PUSH1 0x40 MSTORE POP DUP2 ADD SWAP1 PUSH2 0x9719 SWAP2 SWAP1 PUSH2 0xA77B JUMP JUMPDEST SWAP1 POP PUSH0 DUP2 SUB PUSH2 0x972B JUMPI PUSH0 SWAP2 POP POP PUSH2 0x977C JUMP JUMPDEST PUSH0 PUSH2 0x9734 PUSH2 0x97D5 JUMP JUMPDEST SWAP2 POP POP PUSH0 DUP2 SUB PUSH2 0x9748 JUMPI PUSH0 SWAP3 POP POP POP PUSH2 0x977C JUMP JUMPDEST PUSH1 0x64 DUP2 PUSH2 0x9755 SWAP2 SWAP1 PUSH2 0xA726 JUMP JUMPDEST PUSH1 0x6E DUP4 DUP7 PUSH2 0x9763 SWAP2 SWAP1 PUSH2 0xA726 JUMP JUMPDEST PUSH2 0x976D SWAP2 SWAP1 PUSH2 0xA726 JUMP JUMPDEST PUSH2 0x9777 SWAP2 SWAP1 PUSH2 0xA6C3 JUMP JUMPDEST SWAP3 POP POP POP JUMPDEST SWAP2 SWAP1 POP JUMP JUMPDEST PUSH0 PUSH1 0x25 PUSH0 DUP2 SLOAD DUP1 SWAP3 SWAP2 SWAP1 PUSH2 0x9794 SWAP1 PUSH2 0xAC02 JUMP JUMPDEST SWAP2 SWAP1 POP SSTORE POP PUSH1 0x25 SLOAD DUP3 TIMESTAMP PREVRANDAO CALLER GAS PUSH1 0x40 MLOAD PUSH1 0x20 ADD PUSH2 0x97B6 SWAP7 SWAP6 SWAP5 SWAP4 SWAP3 SWAP2 SWAP1 PUSH2 0xACE2 JUMP JUMPDEST PUSH1 0x40 MLOAD PUSH1 0x20 DUP2 DUP4 SUB SUB DUP2 MSTORE SWAP1 PUSH1 0x40 MSTORE DUP1 MLOAD SWAP1 PUSH1 0x20 ADD KECCAK256 PUSH0 SHR SWAP1 POP SWAP2 SWAP1 POP JUMP JUMPDEST PUSH0 PUSH0 PUSH0 PUSH0 PUSH32 0x0 PUSH20 0xFFFFFFFFFFFFFFFFFFFFFFFFFFFFFFFFFFFFFFFF AND PUSH4 0x902F1AC PUSH1 0x40 MLOAD DUP2 PUSH4 0xFFFFFFFF AND PUSH1 0xE0 SHL DUP2 MSTORE PUSH1 0x4 ADD PUSH1 0x60 PUSH1 0x40 MLOAD DUP1 DUP4 SUB DUP2 DUP7 GAS STATICCALL ISZERO DUP1 ISZERO PUSH2 0x9842 JUMPI RETURNDATASIZE PUSH0 PUSH0 RETURNDATACOPY RETURNDATASIZE PUSH0 REVERT JUMPDEST POP POP POP POP PUSH1 0x40 MLOAD RETURNDATASIZE PUSH1 0x1F NOT PUSH1 0x1F DUP3 ADD AND DUP3 ADD DUP1 PUSH1 0x40 MSTORE POP DUP2 ADD SWAP1 PUSH2 0x9866 SWAP2 SWAP1 PUSH2 0xADCD JUMP JUMPDEST POP SWAP2 POP SWAP2 POP ADDRESS PUSH20 0xFFFFFFFFFFFFFFFFFFFFFFFFFFFFFFFFFFFFFFFF AND PUSH32 0x0 PUSH20 0xFFFFFFFFFFFFFFFFFFFFFFFFFFFFFFFFFFFFFFFF AND LT ISZERO PUSH2 0x98EA JUMPI DUP2 PUSH14 0xFFFFFFFFFFFFFFFFFFFFFFFFFFFF AND SWAP3 POP DUP1 PUSH14 0xFFFFFFFFFFFFFFFFFFFFFFFFFFFF AND SWAP4 POP PUSH2 0x9911 JUMP JUMPDEST DUP2 PUSH14 0xFFFFFFFFFFFFFFFFFFFFFFFFFFFF AND SWAP4 POP DUP1 PUSH14 0xFFFFFFFFFFFFFFFFFFFFFFFFFFFF AND SWAP3 POP JUMPDEST POP POP SWAP1 SWAP2 JUMP JUMPDEST PUSH0 PUSH0 DUP5 EQ DUP1 PUSH2 0x9925 JUMPI POP PUSH0 DUP4 EQ JUMPDEST DUP1 PUSH2 0x992F JUMPI POP PUSH0 DUP3 EQ JUMPDEST ISZERO PUSH2 0x993C JUMPI PUSH0 SWAP1 POP PUSH2 0x9980 JUMP JUMPDEST PUSH0 PUSH2 0x3E5 DUP6 PUSH2 0x994B SWAP2 SWAP1 PUSH2 0xA726 JUMP JUMPDEST SWAP1 POP DUP1 PUSH2 0x3E8 DUP6 PUSH2 0x995C SWAP2 SWAP1 PUSH2 0xA726 JUMP JUMPDEST PUSH2 0x9966 SWAP2 SWAP1 PUSH2 0xA663 JUMP JUMPDEST DUP4 DUP3 PUSH2 0x9972 SWAP2 SWAP1 PUSH2 0xA726 JUMP JUMPDEST PUSH2 0x997C SWAP2 SWAP1 PUSH2 0xA6C3 JUMP JUMPDEST SWAP2 POP POP JUMPDEST SWAP4 SWAP3 POP POP POP JUMP JUMPDEST PUSH0 PUSH32 0x0 PUSH20 0xFFFFFFFFFFFFFFFFFFFFFFFFFFFFFFFFFFFFFFFF AND DUP3 PUSH20 0xFFFFFFFFFFFFFFFFFFFFFFFFFFFFFFFFFFFFFFFF AND EQ DUP1 PUSH2 0x9A2D JUMPI POP PUSH32 0x0 PUSH20 0xFFFFFFFFFFFFFFFFFFFFFFFFFFFFFFFFFFFFFFFF AND DUP3 PUSH20 0xFFFFFFFFFFFFFFFFFFFFFFFFFFFFFFFFFFFFFFFF AND EQ JUMPDEST SWAP1 POP SWAP2 SWAP1 POP JUMP JUMPDEST PUSH0 PUSH20 0xFFFFFFFFFFFFFFFFFFFFFFFFFFFFFFFFFFFFFFFF AND PUSH1 0x8 PUSH0 DUP5 PUSH20 0xFFFFFFFFFFFFFFFFFFFFFFFFFFFFFFFFFFFFFFFF AND PUSH20 0xFFFFFFFFFFFFFFFFFFFFFFFFFFFFFFFFFFFFFFFF AND DUP2 MSTORE PUSH1 0x20 ADD SWAP1 DUP2 MSTORE PUSH1 0x20 ADD PUSH0 KECCAK256 PUSH0 SWAP1 SLOAD SWAP1 PUSH2 0x100 EXP SWAP1 DIV PUSH20 0xFFFFFFFFFFFFFFFFFFFFFFFFFFFFFFFFFFFFFFFF AND PUSH20 0xFFFFFFFFFFFFFFFFFFFFFFFFFFFFFFFFFFFFFFFF AND EQ DUP1 ISZERO PUSH2 0x9AF7 JUMPI POP PUSH0 PUSH20 0xFFFFFFFFFFFFFFFFFFFFFFFFFFFFFFFFFFFFFFFF AND DUP2 PUSH20 0xFFFFFFFFFFFFFFFFFFFFFFFFFFFFFFFFFFFFFFFF AND EQ ISZERO JUMPDEST DUP1 ISZERO PUSH2 0x9B2F JUMPI POP PUSH0 PUSH20 0xFFFFFFFFFFFFFFFFFFFFFFFFFFFFFFFFFFFFFFFF AND DUP3 PUSH20 0xFFFFFFFFFFFFFFFFFFFFFFFFFFFFFFFFFFFFFFFF AND EQ ISZERO JUMPDEST DUP1 ISZERO PUSH2 0x9B67 JUMPI POP DUP2 PUSH20 0xFFFFFFFFFFFFFFFFFFFFFFFFFFFFFFFFFFFFFFFF AND DUP2 PUSH20 0xFFFFFFFFFFFFFFFFFFFFFFFFFFFFFFFFFFFFFFFF AND EQ ISZERO JUMPDEST ISZERO PUSH2 0x9C83 JUMPI DUP1 PUSH1 0x8 PUSH0 DUP5 PUSH20 0xFFFFFFFFFFFFFFFFFFFFFFFFFFFFFFFFFFFFFFFF AND PUSH20 0xFFFFFFFFFFFFFFFFFFFFFFFFFFFFFFFFFFFFFFFF AND DUP2 MSTORE PUSH1 0x20 ADD SWAP1 DUP2 MSTORE PUSH1 0x20 ADD PUSH0 KECCAK256 PUSH0 PUSH2 0x100 EXP DUP2 SLOAD DUP2 PUSH20 0xFFFFFFFFFFFFFFFFFFFFFFFFFFFFFFFFFFFFFFFF MUL NOT AND SWAP1 DUP4 PUSH20 0xFFFFFFFFFFFFFFFFFFFFFFFFFFFFFFFFFFFFFFFF AND MUL OR SWAP1 SSTORE POP PUSH1 0x9 PUSH0 DUP3 PUSH20 0xFFFFFFFFFFFFFFFFFFFFFFFFFFFFFFFFFFFFFFFF AND PUSH20 0xFFFFFFFFFFFFFFFFFFFFFFFFFFFFFFFFFFFFFFFF AND DUP2 MSTORE PUSH1 0x20 ADD SWAP1 DUP2 MSTORE PUSH1 0x20 ADD PUSH0 KECCAK256 DUP3 SWAP1 DUP1 PUSH1 0x1 DUP2 SLOAD ADD DUP1 DUP3 SSTORE DUP1 SWAP2 POP POP PUSH1 0x1 SWAP1 SUB SWAP1 PUSH0 MSTORE PUSH1 0x20 PUSH0 KECCAK256 ADD PUSH0 SWAP1 SWAP2 SWAP1 SWAP2 SWAP1 SWAP2 PUSH2 0x100 EXP DUP2 SLOAD DUP2 PUSH20 0xFFFFFFFFFFFFFFFFFFFFFFFFFFFFFFFFFFFFFFFF MUL NOT AND SWAP1 DUP4 PUSH20 0xFFFFFFFFFFFFFFFFFFFFFFFFFFFFFFFFFFFFFFFF AND MUL OR SWAP1 SSTORE POP JUMPDEST POP POP JUMP JUMPDEST PUSH0 DUP2 MLOAD SWAP1 POP SWAP2 SWAP1 POP JUMP JUMPDEST PUSH0 DUP3 DUP3 MSTORE PUSH1 0x20 DUP3 ADD SWAP1 POP SWAP3 SWAP2 POP POP JUMP JUMPDEST DUP3 DUP2 DUP4 MCOPY PUSH0 DUP4 DUP4 ADD MSTORE POP POP POP JUMP JUMPDEST PUSH0 PUSH1 0x1F NOT PUSH1 0x1F DUP4 ADD AND SWAP1 POP SWAP2 SWAP1 POP JUMP JUMPDEST PUSH0 PUSH2 0x9CC9 DUP3 PUSH2 0x9C87 JUMP JUMPDEST PUSH2 0x9CD3 DUP2 DUP6 PUSH2 0x9C91 JUMP JUMPDEST SWAP4 POP PUSH2 0x9CE3 DUP2 DUP6 PUSH1 0x20 DUP7 ADD PUSH2 0x9CA1 JUMP JUMPDEST PUSH2 0x9CEC DUP2 PUSH2 0x9CAF JUMP JUMPDEST DUP5 ADD SWAP2 POP POP SWAP3 SWAP2 POP POP JUMP JUMPDEST PUSH0 PUSH1 0x20 DUP3 ADD SWAP1 POP DUP2 DUP2 SUB PUSH0 DUP4 ADD MSTORE PUSH2 0x9D0F DUP2 DUP5 PUSH2 0x9CBF JUMP JUMPDEST SWAP1 POP SWAP3 SWAP2 POP POP JUMP JUMPDEST PUSH0 PUSH0 REVERT JUMPDEST PUSH0 PUSH0 REVERT JUMPDEST PUSH0 PUSH20 0xFFFFFFFFFFFFFFFFFFFFFFFFFFFFFFFFFFFFFFFF DUP3 AND SWAP1 POP SWAP2 SWAP1 POP JUMP JUMPDEST PUSH0 PUSH2 0x9D48 DUP3 PUSH2 0x9D1F JUMP JUMPDEST SWAP1 POP SWAP2 SWAP1 POP JUMP JUMPDEST PUSH2 0x9D58 DUP2 PUSH2 0x9D3E JUMP JUMPDEST DUP2 EQ PUSH2 0x9D62 JUMPI PUSH0 PUSH0 REVERT JUMPDEST POP JUMP JUMPDEST PUSH0 DUP2 CALLDATALOAD SWAP1 POP PUSH2 0x9D73 DUP2 PUSH2 0x9D4F JUMP JUMPDEST SWAP3 SWAP2 POP POP JUMP JUMPDEST PUSH0 DUP2 SWAP1 POP SWAP2 SWAP1 POP JUMP JUMPDEST PUSH2 0x9D8B DUP2 PUSH2 0x9D79 JUMP JUMPDEST DUP2 EQ PUSH2 0x9D95 JUMPI PUSH0 PUSH0 REVERT JUMPDEST POP JUMP JUMPDEST PUSH0 DUP2 CALLDATALOAD SWAP1 POP PUSH2 0x9DA6 DUP2 PUSH2 0x9D82 JUMP JUMPDEST SWAP3 SWAP2 POP POP JUMP JUMPDEST PUSH0 PUSH0 PUSH1 0x40 DUP4 DUP6 SUB SLT ISZERO PUSH2 0x9DC2 JUMPI PUSH2 0x9DC1 PUSH2 0x9D17 JUMP JUMPDEST JUMPDEST PUSH0 PUSH2 0x9DCF DUP6 DUP3 DUP7 ADD PUSH2 0x9D65 JUMP JUMPDEST SWAP3 POP POP PUSH1 0x20 PUSH2 0x9DE0 DUP6 DUP3 DUP7 ADD PUSH2 0x9D98 JUMP JUMPDEST SWAP2 POP POP SWAP3 POP SWAP3 SWAP1 POP JUMP JUMPDEST PUSH0 DUP2 ISZERO ISZERO SWAP1 POP SWAP2 SWAP1 POP JUMP JUMPDEST PUSH2 0x9DFE DUP2 PUSH2 0x9DEA JUMP JUMPDEST DUP3 MSTORE POP POP JUMP JUMPDEST PUSH0 PUSH1 0x20 DUP3 ADD SWAP1 POP PUSH2 0x9E17 PUSH0 DUP4 ADD DUP5 PUSH2 0x9DF5 JUMP JUMPDEST SWAP3 SWAP2 POP POP JUMP JUMPDEST PUSH0 PUSH0 PUSH0 PUSH1 0x60 DUP5 DUP7 SUB SLT ISZERO PUSH2 0x9E34 JUMPI PUSH2 0x9E33 PUSH2 0x9D17 JUMP JUMPDEST JUMPDEST PUSH0 PUSH2 0x9E41 DUP7 DUP3 DUP8 ADD PUSH2 0x9D98 JUMP JUMPDEST SWAP4 POP POP PUSH1 0x20 PUSH2 0x9E52 DUP7 DUP3 DUP8 ADD PUSH2 0x9D98 JUMP JUMPDEST SWAP3 POP POP PUSH1 0x40 PUSH2 0x9E63 DUP7 DUP3 DUP8 ADD PUSH2 0x9D98 JUMP JUMPDEST SWAP2 POP POP SWAP3 POP SWAP3 POP SWAP3 JUMP JUMPDEST PUSH2 0x9E76 DUP2 PUSH2 0x9D3E JUMP JUMPDEST DUP3 MSTORE POP POP JUMP JUMPDEST PUSH0 PUSH1 0x20 DUP3 ADD SWAP1 POP PUSH2 0x9E8F PUSH0 DUP4 ADD DUP5 PUSH2 0x9E6D JUMP JUMPDEST SWAP3 SWAP2 POP POP JUMP JUMPDEST PUSH0 PUSH1 0x20 DUP3 DUP5 SUB SLT ISZERO PUSH2 0x9EAA JUMPI PUSH2 0x9EA9 PUSH2 0x9D17 JUMP JUMPDEST JUMPDEST PUSH0 PUSH2 0x9EB7 DUP5 DUP3 DUP6 ADD PUSH2 0x9D98 JUMP JUMPDEST SWAP2 POP POP SWAP3 SWAP2 POP POP JUMP JUMPDEST PUSH0 PUSH0 REVERT JUMPDEST PUSH0 PUSH0 REVERT JUMPDEST PUSH0 PUSH0 REVERT JUMPDEST PUSH0 PUSH0 DUP4 PUSH1 0x1F DUP5 ADD SLT PUSH2 0x9EE1 JUMPI PUSH2 0x9EE0 PUSH2 0x9EC0 JUMP JUMPDEST JUMPDEST DUP3 CALLDATALOAD SWAP1 POP PUSH8 0xFFFFFFFFFFFFFFFF DUP2 GT ISZERO PUSH2 0x9EFE JUMPI PUSH2 0x9EFD PUSH2 0x9EC4 JUMP JUMPDEST JUMPDEST PUSH1 0x20 DUP4 ADD SWAP2 POP DUP4 PUSH1 0x20 DUP3 MUL DUP4 ADD GT ISZERO PUSH2 0x9F1A JUMPI PUSH2 0x9F19 PUSH2 0x9EC8 JUMP JUMPDEST JUMPDEST SWAP3 POP SWAP3 SWAP1 POP JUMP JUMPDEST PUSH0 PUSH0 DUP4 PUSH1 0x1F DUP5 ADD SLT PUSH2 0x9F36 JUMPI PUSH2 0x9F35 PUSH2 0x9EC0 JUMP JUMPDEST JUMPDEST DUP3 CALLDATALOAD SWAP1 POP PUSH8 0xFFFFFFFFFFFFFFFF DUP2 GT ISZERO PUSH2 0x9F53 JUMPI PUSH2 0x9F52 PUSH2 0x9EC4 JUMP JUMPDEST JUMPDEST PUSH1 0x20 DUP4 ADD SWAP2 POP DUP4 PUSH1 0x20 DUP3 MUL DUP4 ADD GT ISZERO PUSH2 0x9F6F JUMPI PUSH2 0x9F6E PUSH2 0x9EC8 JUMP JUMPDEST JUMPDEST SWAP3 POP SWAP3 SWAP1 POP JUMP JUMPDEST PUSH0 PUSH0 DUP4 PUSH1 0x1F DUP5 ADD SLT PUSH2 0x9F8B JUMPI PUSH2 0x9F8A PUSH2 0x9EC0 JUMP JUMPDEST JUMPDEST DUP3 CALLDATALOAD SWAP1 POP PUSH8 0xFFFFFFFFFFFFFFFF DUP2 GT ISZERO PUSH2 0x9FA8 JUMPI PUSH2 0x9FA7 PUSH2 0x9EC4 JUMP JUMPDEST JUMPDEST PUSH1 0x20 DUP4 ADD SWAP2 POP DUP4 PUSH1 0x20 DUP3 MUL DUP4 ADD GT ISZERO PUSH2 0x9FC4 JUMPI PUSH2 0x9FC3 PUSH2 0x9EC8 JUMP JUMPDEST JUMPDEST SWAP3 POP SWAP3 SWAP1 POP JUMP JUMPDEST PUSH0 PUSH0 PUSH0 PUSH0 PUSH0 PUSH0 PUSH1 0x60 DUP8 DUP10 SUB SLT ISZERO PUSH2 0x9FE5 JUMPI PUSH2 0x9FE4 PUSH2 0x9D17 JUMP JUMPDEST JUMPDEST PUSH0 DUP8 ADD CALLDATALOAD PUSH8 0xFFFFFFFFFFFFFFFF DUP2 GT ISZERO PUSH2 0xA002 JUMPI PUSH2 0xA001 PUSH2 0x9D1B JUMP JUMPDEST JUMPDEST PUSH2 0xA00E DUP10 DUP3 DUP11 ADD PUSH2 0x9ECC JUMP JUMPDEST SWAP7 POP SWAP7 POP POP PUSH1 0x20 DUP8 ADD CALLDATALOAD PUSH8 0xFFFFFFFFFFFFFFFF DUP2 GT ISZERO PUSH2 0xA031 JUMPI PUSH2 0xA030 PUSH2 0x9D1B JUMP JUMPDEST JUMPDEST PUSH2 0xA03D DUP10 DUP3 DUP11 ADD PUSH2 0x9F21 JUMP JUMPDEST SWAP5 POP SWAP5 POP POP PUSH1 0x40 DUP8 ADD CALLDATALOAD PUSH8 0xFFFFFFFFFFFFFFFF DUP2 GT ISZERO PUSH2 0xA060 JUMPI PUSH2 0xA05F PUSH2 0x9D1B JUMP JUMPDEST JUMPDEST PUSH2 0xA06C DUP10 DUP3 DUP11 ADD PUSH2 0x9F76 JUMP JUMPDEST SWAP3 POP SWAP3 POP POP SWAP3 SWAP6 POP SWAP3 SWAP6 POP SWAP3 SWAP6 JUMP JUMPDEST PUSH2 0xA084 DUP2 PUSH2 0x9D79 JUMP JUMPDEST DUP3 MSTORE POP POP JUMP JUMPDEST PUSH0 PUSH1 0x20 DUP3 ADD SWAP1 POP PUSH2 0xA09D PUSH0 DUP4 ADD DUP5 PUSH2 0xA07B JUMP JUMPDEST SWAP3 SWAP2 POP POP JUMP JUMPDEST PUSH2 0xA0AC DUP2 PUSH2 0x9DEA JUMP JUMPDEST DUP2 EQ PUSH2 0xA0B6 JUMPI PUSH0 PUSH0 REVERT JUMPDEST POP JUMP JUMPDEST PUSH0 DUP2 CALLDATALOAD SWAP1 POP PUSH2 0xA0C7 DUP2 PUSH2 0xA0A3 JUMP JUMPDEST SWAP3 SWAP2 POP POP JUMP JUMPDEST PUSH0 PUSH1 0x20 DUP3 DUP5 SUB SLT ISZERO PUSH2 0xA0E2 JUMPI PUSH2 0xA0E1 PUSH2 0x9D17 JUMP JUMPDEST JUMPDEST PUSH0 PUSH2 0xA0EF DUP5 DUP3 DUP6 ADD PUSH2 0xA0B9 JUMP JUMPDEST SWAP2 POP POP SWAP3 SWAP2 POP POP JUMP JUMPDEST PUSH0 PUSH0 PUSH1 0x40 DUP4 DUP6 SUB SLT ISZERO PUSH2 0xA10E JUMPI PUSH2 0xA10D PUSH2 0x9D17 JUMP JUMPDEST JUMPDEST PUSH0 PUSH2 0xA11B DUP6 DUP3 DUP7 ADD PUSH2 0x9D98 JUMP JUMPDEST SWAP3 POP POP PUSH1 0x20 PUSH2 0xA12C DUP6 DUP3 DUP7 ADD PUSH2 0x9D98 JUMP JUMPDEST SWAP2 POP POP SWAP3 POP SWAP3 SWAP1 POP JUMP JUMPDEST PUSH0 PUSH1 0x20 DUP3 DUP5 SUB SLT ISZERO PUSH2 0xA14B JUMPI PUSH2 0xA14A PUSH2 0x9D17 JUMP JUMPDEST JUMPDEST PUSH0 PUSH2 0xA158 DUP5 DUP3 DUP6 ADD PUSH2 0x9D65 JUMP JUMPDEST SWAP2 POP POP SWAP3 SWAP2 POP POP JUMP JUMPDEST PUSH0 PUSH0 PUSH0 PUSH1 0x60 DUP5 DUP7 SUB SLT ISZERO PUSH2 0xA178 JUMPI PUSH2 0xA177 PUSH2 0x9D17 JUMP JUMPDEST JUMPDEST PUSH0 PUSH2 0xA185 DUP7 DUP3 DUP8 ADD PUSH2 0x9D65 JUMP JUMPDEST SWAP4 POP POP PUSH1 0x20 PUSH2 0xA196 DUP7 DUP3 DUP8 ADD PUSH2 0x9D65 JUMP JUMPDEST SWAP3 POP POP PUSH1 0x40 PUSH2 0xA1A7 DUP7 DUP3 DUP8 ADD PUSH2 0x9D98 JUMP JUMPDEST SWAP2 POP POP SWAP3 POP SWAP3 POP SWAP3 JUMP JUMPDEST PUSH0 PUSH1 0xFF DUP3 AND SWAP1 POP SWAP2 SWAP1 POP JUMP JUMPDEST PUSH2 0xA1C6 DUP2 PUSH2 0xA1B1 JUMP JUMPDEST DUP2 EQ PUSH2 0xA1D0 JUMPI PUSH0 PUSH0 REVERT JUMPDEST POP JUMP JUMPDEST PUSH0 DUP2 CALLDATALOAD SWAP1 POP PUSH2 0xA1E1 DUP2 PUSH2 0xA1BD JUMP JUMPDEST SWAP3 SWAP2 POP POP JUMP JUMPDEST PUSH0 PUSH1 0x20 DUP3 DUP5 SUB SLT ISZERO PUSH2 0xA1FC JUMPI PUSH2 0xA1FB PUSH2 0x9D17 JUMP JUMPDEST JUMPDEST PUSH0 PUSH2 0xA209 DUP5 DUP3 DUP6 ADD PUSH2 0xA1D3 JUMP JUMPDEST SWAP2 POP POP SWAP3 SWAP2 POP POP JUMP JUMPDEST PUSH0 PUSH1 0x40 DUP3 ADD SWAP1 POP PUSH2 0xA225 PUSH0 DUP4 ADD DUP6 PUSH2 0xA07B JUMP JUMPDEST PUSH2 0xA232 PUSH1 0x20 DUP4 ADD DUP5 PUSH2 0xA07B JUMP JUMPDEST SWAP4 SWAP3 POP POP POP JUMP JUMPDEST PUSH2 0xA242 DUP2 PUSH2 0xA1B1 JUMP JUMPDEST DUP3 MSTORE POP POP JUMP JUMPDEST PUSH0 PUSH1 0x20 DUP3 ADD SWAP1 POP PUSH2 0xA25B PUSH0 DUP4 ADD DUP5 PUSH2 0xA239 JUMP JUMPDEST SWAP3 SWAP2 POP POP JUMP JUMPDEST PUSH0 PUSH0 PUSH0 PUSH1 0x60 DUP5 DUP7 SUB SLT ISZERO PUSH2 0xA278 JUMPI PUSH2 0xA277 PUSH2 0x9D17 JUMP JUMPDEST JUMPDEST PUSH0 PUSH2 0xA285 DUP7 DUP3 DUP8 ADD PUSH2 0xA1D3 JUMP JUMPDEST SWAP4 POP POP PUSH1 0x20 PUSH2 0xA296 DUP7 DUP3 DUP8 ADD PUSH2 0x9D98 JUMP JUMPDEST SWAP3 POP POP PUSH1 0x40 PUSH2 0xA2A7 DUP7 DUP3 DUP8 ADD PUSH2 0x9D98 JUMP JUMPDEST SWAP2 POP POP SWAP3 POP SWAP3 POP SWAP3 JUMP JUMPDEST PUSH0 PUSH0 PUSH1 0x40 DUP4 DUP6 SUB SLT ISZERO PUSH2 0xA2C7 JUMPI PUSH2 0xA2C6 PUSH2 0x9D17 JUMP JUMPDEST JUMPDEST PUSH0 PUSH2 0xA2D4 DUP6 DUP3 DUP7 ADD PUSH2 0x9D65 JUMP JUMPDEST SWAP3 POP POP PUSH1 0x20 PUSH2 0xA2E5 DUP6 DUP3 DUP7 ADD PUSH2 0xA1D3 JUMP JUMPDEST SWAP2 POP POP SWAP3 POP SWAP3 SWAP1 POP JUMP JUMPDEST PUSH0 PUSH0 PUSH0 PUSH0 PUSH0 PUSH1 0xA0 DUP7 DUP9 SUB SLT ISZERO PUSH2 0xA308 JUMPI PUSH2 0xA307 PUSH2 0x9D17 JUMP JUMPDEST JUMPDEST PUSH0 PUSH2 0xA315 DUP9 DUP3 DUP10 ADD PUSH2 0x9D98 JUMP JUMPDEST SWAP6 POP POP PUSH1 0x20 PUSH2 0xA326 DUP9 DUP3 DUP10 ADD PUSH2 0xA0B9 JUMP JUMPDEST SWAP5 POP POP PUSH1 0x40 PUSH2 0xA337 DUP9 DUP3 DUP10 ADD PUSH2 0x9D98 JUMP JUMPDEST SWAP4 POP POP PUSH1 0x60 PUSH2 0xA348 DUP9 DUP3 DUP10 ADD PUSH2 0x9D98 JUMP JUMPDEST SWAP3 POP POP PUSH1 0x80 PUSH2 0xA359 DUP9 DUP3 DUP10 ADD PUSH2 0x9D98 JUMP JUMPDEST SWAP2 POP POP SWAP3 SWAP6 POP SWAP3 SWAP6 SWAP1 SWAP4 POP JUMP JUMPDEST PUSH0 PUSH1 0x60 DUP3 ADD SWAP1 POP PUSH2 0xA379 PUSH0 DUP4 ADD DUP7 PUSH2 0xA07B JUMP JUMPDEST PUSH2 0xA386 PUSH1 0x20 DUP4 ADD DUP6 PUSH2 0xA239 JUMP JUMPDEST PUSH2 0xA393 PUSH1 0x40 DUP4 ADD DUP5 PUSH2 0xA07B JUMP JUMPDEST SWAP5 SWAP4 POP POP POP POP JUMP JUMPDEST PUSH0 PUSH0 PUSH0 PUSH0 PUSH1 0x40 DUP6 DUP8 SUB SLT ISZERO PUSH2 0xA3B3 JUMPI PUSH2 0xA3B2 PUSH2 0x9D17 JUMP JUMPDEST JUMPDEST PUSH0 DUP6 ADD CALLDATALOAD PUSH8 0xFFFFFFFFFFFFFFFF DUP2 GT ISZERO PUSH2 0xA3D0 JUMPI PUSH2 0xA3CF PUSH2 0x9D1B JUMP JUMPDEST JUMPDEST PUSH2 0xA3DC DUP8 DUP3 DUP9 ADD PUSH2 0x9ECC JUMP JUMPDEST SWAP5 POP SWAP5 POP POP PUSH1 0x20 DUP6 ADD CALLDATALOAD PUSH8 0xFFFFFFFFFFFFFFFF DUP2 GT ISZERO PUSH2 0xA3FF JUMPI PUSH2 0xA3FE PUSH2 0x9D1B JUMP JUMPDEST JUMPDEST PUSH2 0xA40B DUP8 DUP3 DUP9 ADD PUSH2 0x9ECC JUMP JUMPDEST SWAP3 POP SWAP3 POP POP SWAP3 SWAP6 SWAP2 SWAP5 POP SWAP3 POP JUMP JUMPDEST PUSH0 PUSH0 PUSH0 PUSH0 PUSH0 PUSH0 PUSH1 0x60 DUP8 DUP10 SUB SLT ISZERO PUSH2 0xA433 JUMPI PUSH2 0xA432 PUSH2 0x9D17 JUMP JUMPDEST JUMPDEST PUSH0 DUP8 ADD CALLDATALOAD PUSH8 0xFFFFFFFFFFFFFFFF DUP2 GT ISZERO PUSH2 0xA450 JUMPI PUSH2 0xA44F PUSH2 0x9D1B JUMP JUMPDEST JUMPDEST PUSH2 0xA45C DUP10 DUP3 DUP11 ADD PUSH2 0x9ECC JUMP JUMPDEST SWAP7 POP SWAP7 POP POP PUSH1 0x20 DUP8 ADD CALLDATALOAD PUSH8 0xFFFFFFFFFFFFFFFF DUP2 GT ISZERO PUSH2 0xA47F JUMPI PUSH2 0xA47E PUSH2 0x9D1B JUMP JUMPDEST JUMPDEST PUSH2 0xA48B DUP10 DUP3 DUP11 ADD PUSH2 0x9F21 JUMP JUMPDEST SWAP5 POP SWAP5 POP POP PUSH1 0x40 DUP8 ADD CALLDATALOAD PUSH8 0xFFFFFFFFFFFFFFFF DUP2 GT ISZERO PUSH2 0xA4AE JUMPI PUSH2 0xA4AD PUSH2 0x9D1B JUMP JUMPDEST JUMPDEST PUSH2 0xA4BA DUP10 DUP3 DUP11 ADD PUSH2 0x9F21 JUMP JUMPDEST SWAP3 POP SWAP3 POP POP SWAP3 SWAP6 POP SWAP3 SWAP6 POP SWAP3 SWAP6 JUMP JUMPDEST PUSH0 PUSH0 PUSH1 0x40 DUP4 DUP6 SUB SLT ISZERO PUSH2 0xA4DF JUMPI PUSH2 0xA4DE PUSH2 0x9D17 JUMP JUMPDEST JUMPDEST PUSH0 PUSH2 0xA4EC DUP6 DUP3 DUP7 ADD PUSH2 0x9D65 JUMP JUMPDEST SWAP3 POP POP PUSH1 0x20 PUSH2 0xA4FD DUP6 DUP3 DUP7 ADD PUSH2 0xA0B9 JUMP JUMPDEST SWAP2 POP POP SWAP3 POP SWAP3 SWAP1 POP JUMP JUMPDEST PUSH0 PUSH0 PUSH1 0x40 DUP4 DUP6 SUB SLT ISZERO PUSH2 0xA51D JUMPI PUSH2 0xA51C PUSH2 0x9D17 JUMP JUMPDEST JUMPDEST PUSH0 PUSH2 0xA52A DUP6 DUP3 DUP7 ADD PUSH2 0xA0B9 JUMP JUMPDEST SWAP3 POP POP PUSH1 0x20 PUSH2 0xA53B DUP6 DUP3 DUP7 ADD PUSH2 0x9D98 JUMP JUMPDEST SWAP2 POP POP SWAP3 POP SWAP3 SWAP1 POP JUMP JUMPDEST PUSH0 PUSH0 PUSH1 0x40 DUP4 DUP6 SUB SLT ISZERO PUSH2 0xA55B JUMPI PUSH2 0xA55A PUSH2 0x9D17 JUMP JUMPDEST JUMPDEST PUSH0 PUSH2 0xA568 DUP6 DUP3 DUP7 ADD PUSH2 0x9D65 JUMP JUMPDEST SWAP3 POP POP PUSH1 0x20 PUSH2 0xA579 DUP6 DUP3 DUP7 ADD PUSH2 0x9D65 JUMP JUMPDEST SWAP2 POP POP SWAP3 POP SWAP3 SWAP1 POP JUMP JUMPDEST PUSH0 PUSH1 0x60 DUP3 ADD SWAP1 POP PUSH2 0xA596 PUSH0 DUP4 ADD DUP7 PUSH2 0xA07B JUMP JUMPDEST PUSH2 0xA5A3 PUSH1 0x20 DUP4 ADD DUP6 PUSH2 0xA07B JUMP JUMPDEST PUSH2 0xA5B0 PUSH1 0x40 DUP4 ADD DUP5 PUSH2 0xA07B JUMP JUMPDEST SWAP5 SWAP4 POP POP POP POP JUMP JUMPDEST PUSH0 PUSH0 PUSH0 PUSH0 PUSH1 0x40 DUP6 DUP8 SUB SLT ISZERO PUSH2 0xA5D0 JUMPI PUSH2 0xA5CF PUSH2 0x9D17 JUMP JUMPDEST JUMPDEST PUSH0 DUP6 ADD CALLDATALOAD PUSH8 0xFFFFFFFFFFFFFFFF DUP2 GT ISZERO PUSH2 0xA5ED JUMPI PUSH2 0xA5EC PUSH2 0x9D1B JUMP JUMPDEST JUMPDEST PUSH2 0xA5F9 DUP8 DUP3 DUP9 ADD PUSH2 0x9ECC JUMP JUMPDEST SWAP5 POP SWAP5 POP POP PUSH1 0x20 DUP6 ADD CALLDATALOAD PUSH8 0xFFFFFFFFFFFFFFFF DUP2 GT ISZERO PUSH2 0xA61C JUMPI PUSH2 0xA61B PUSH2 0x9D1B JUMP JUMPDEST JUMPDEST PUSH2 0xA628 DUP8 DUP3 DUP9 ADD PUSH2 0x9F21 JUMP JUMPDEST SWAP3 POP SWAP3 POP POP SWAP3 SWAP6 SWAP2 SWAP5 POP SWAP3 POP JUMP JUMPDEST PUSH32 0x4E487B7100000000000000000000000000000000000000000000000000000000 PUSH0 MSTORE PUSH1 0x11 PUSH1 0x4 MSTORE PUSH1 0x24 PUSH0 REVERT JUMPDEST PUSH0 PUSH2 0xA66D DUP3 PUSH2 0x9D79 JUMP JUMPDEST SWAP2 POP PUSH2 0xA678 DUP4 PUSH2 0x9D79 JUMP JUMPDEST SWAP3 POP DUP3 DUP3 ADD SWAP1 POP DUP1 DUP3 GT ISZERO PUSH2 0xA690 JUMPI PUSH2 0xA68F PUSH2 0xA636 JUMP JUMPDEST JUMPDEST SWAP3 SWAP2 POP POP JUMP JUMPDEST PUSH32 0x4E487B7100000000000000000000000000000000000000000000000000000000 PUSH0 MSTORE PUSH1 0x12 PUSH1 0x4 MSTORE PUSH1 0x24 PUSH0 REVERT JUMPDEST PUSH0 PUSH2 0xA6CD DUP3 PUSH2 0x9D79 JUMP JUMPDEST SWAP2 POP PUSH2 0xA6D8 DUP4 PUSH2 0x9D79 JUMP JUMPDEST SWAP3 POP DUP3 PUSH2 0xA6E8 JUMPI PUSH2 0xA6E7 PUSH2 0xA696 JUMP JUMPDEST JUMPDEST DUP3 DUP3 DIV SWAP1 POP SWAP3 SWAP2 POP POP JUMP JUMPDEST PUSH0 PUSH2 0xA6FD DUP3 PUSH2 0x9D79 JUMP JUMPDEST SWAP2 POP PUSH2 0xA708 DUP4 PUSH2 0x9D79 JUMP JUMPDEST SWAP3 POP DUP3 DUP3 SUB SWAP1 POP DUP2 DUP2 GT ISZERO PUSH2 0xA720 JUMPI PUSH2 0xA71F PUSH2 0xA636 JUMP JUMPDEST JUMPDEST SWAP3 SWAP2 POP POP JUMP JUMPDEST PUSH0 PUSH2 0xA730 DUP3 PUSH2 0x9D79 JUMP JUMPDEST SWAP2 POP PUSH2 0xA73B DUP4 PUSH2 0x9D79 JUMP JUMPDEST SWAP3 POP DUP3 DUP3 MUL PUSH2 0xA749 DUP2 PUSH2 0x9D79 JUMP JUMPDEST SWAP2 POP DUP3 DUP3 DIV DUP5 EQ DUP4 ISZERO OR PUSH2 0xA760 JUMPI PUSH2 0xA75F PUSH2 0xA636 JUMP JUMPDEST JUMPDEST POP SWAP3 SWAP2 POP POP JUMP JUMPDEST PUSH0 DUP2 MLOAD SWAP1 POP PUSH2 0xA775 DUP2 PUSH2 0x9D82 JUMP JUMPDEST SWAP3 SWAP2 POP POP JUMP JUMPDEST PUSH0 PUSH1 0x20 DUP3 DUP5 SUB SLT ISZERO PUSH2 0xA790 JUMPI PUSH2 0xA78F PUSH2 0x9D17 JUMP JUMPDEST JUMPDEST PUSH0 PUSH2 0xA79D DUP5 DUP3 DUP6 ADD PUSH2 0xA767 JUMP JUMPDEST SWAP2 POP POP SWAP3 SWAP2 POP POP JUMP JUMPDEST PUSH0 PUSH1 0x60 DUP3 ADD SWAP1 POP PUSH2 0xA7B9 PUSH0 DUP4 ADD DUP7 PUSH2 0x9E6D JUMP JUMPDEST PUSH2 0xA7C6 PUSH1 0x20 DUP4 ADD DUP6 PUSH2 0xA07B JUMP JUMPDEST PUSH2 0xA7D3 PUSH1 0x40 DUP4 ADD DUP5 PUSH2 0x9DF5 JUMP JUMPDEST SWAP5 SWAP4 POP POP POP POP JUMP JUMPDEST PUSH0 PUSH1 0x60 DUP3 ADD SWAP1 POP PUSH2 0xA7EE PUSH0 DUP4 ADD DUP7 PUSH2 0x9E6D JUMP JUMPDEST PUSH2 0xA7FB PUSH1 0x20 DUP4 ADD DUP6 PUSH2 0x9DF5 JUMP JUMPDEST PUSH2 0xA808 PUSH1 0x40 DUP4 ADD DUP5 PUSH2 0xA07B JUMP JUMPDEST SWAP5 SWAP4 POP POP POP POP JUMP JUMPDEST PUSH32 0x4E487B7100000000000000000000000000000000000000000000000000000000 PUSH0 MSTORE PUSH1 0x22 PUSH1 0x4 MSTORE PUSH1 0x24 PUSH0 REVERT JUMPDEST PUSH0 PUSH1 0x2 DUP3 DIV SWAP1 POP PUSH1 0x1 DUP3 AND DUP1 PUSH2 0xA854 JUMPI PUSH1 0x7F DUP3 AND SWAP2 POP JUMPDEST PUSH1 0x20 DUP3 LT DUP2 SUB PUSH2 0xA867 JUMPI PUSH2 0xA866 PUSH2 0xA810 JUMP JUMPDEST JUMPDEST POP SWAP2 SWAP1 POP JUMP JUMPDEST PUSH32 0x4E487B7100000000000000000000000000000000000000000000000000000000 PUSH0 MSTORE PUSH1 0x32 PUSH1 0x4 MSTORE PUSH1 0x24 PUSH0 REVERT JUMPDEST PUSH0 PUSH1 0x40 DUP3 ADD SWAP1 POP PUSH2 0xA8AD PUSH0 DUP4 ADD DUP6 PUSH2 0x9E6D JUMP JUMPDEST PUSH2 0xA8BA PUSH1 0x20 DUP4 ADD DUP5 PUSH2 0xA07B JUMP JUMPDEST SWAP4 SWAP3 POP POP POP JUMP JUMPDEST PUSH0 DUP2 MLOAD SWAP1 POP PUSH2 0xA8CF DUP2 PUSH2 0xA0A3 JUMP JUMPDEST SWAP3 SWAP2 POP POP JUMP JUMPDEST PUSH0 PUSH1 0x20 DUP3 DUP5 SUB SLT ISZERO PUSH2 0xA8EA JUMPI PUSH2 0xA8E9 PUSH2 0x9D17 JUMP JUMPDEST JUMPDEST PUSH0 PUSH2 0xA8F7 DUP5 DUP3 DUP6 ADD PUSH2 0xA8C1 JUMP JUMPDEST SWAP2 POP POP SWAP3 SWAP2 POP POP JUMP JUMPDEST PUSH0 DUP2 SWAP1 POP SWAP3 SWAP2 POP POP JUMP JUMPDEST POP JUMP JUMPDEST PUSH0 PUSH2 0xA918 PUSH0 DUP4 PUSH2 0xA900 JUMP JUMPDEST SWAP2 POP PUSH2 0xA923 DUP3 PUSH2 0xA90A JUMP JUMPDEST PUSH0 DUP3 ADD SWAP1 POP SWAP2 SWAP1 POP JUMP JUMPDEST PUSH0 PUSH2 0xA937 DUP3 PUSH2 0xA90D JUMP JUMPDEST SWAP2 POP DUP2 SWAP1 POP SWAP2 SWAP1 POP JUMP JUMPDEST PUSH0 DUP2 SWAP1 POP SWAP2 SWAP1 POP JUMP JUMPDEST PUSH0 DUP2 SWAP1 POP SWAP2 SWAP1 POP JUMP JUMPDEST PUSH0 PUSH2 0xA96D PUSH2 0xA968 PUSH2 0xA963 DUP5 PUSH2 0xA941 JUMP JUMPDEST PUSH2 0xA94A JUMP JUMPDEST PUSH2 0x9D79 JUMP JUMPDEST SWAP1 POP SWAP2 SWAP1 POP JUMP JUMPDEST PUSH2 0xA97D DUP2 PUSH2 0xA953 JUMP JUMPDEST DUP3 MSTORE POP POP JUMP JUMPDEST PUSH0 PUSH1 0x60 DUP3 ADD SWAP1 POP PUSH2 0xA996 PUSH0 DUP4 ADD DUP7 PUSH2 0x9E6D JUMP JUMPDEST PUSH2 0xA9A3 PUSH1 0x20 DUP4 ADD DUP6 PUSH2 0xA974 JUMP JUMPDEST PUSH2 0xA9B0 PUSH1 0x40 DUP4 ADD DUP5 PUSH2 0x9DF5 JUMP JUMPDEST SWAP5 SWAP4 POP POP POP POP JUMP JUMPDEST PUSH32 0x4E487B7100000000000000000000000000000000000000000000000000000000 PUSH0 MSTORE PUSH1 0x41 PUSH1 0x4 MSTORE PUSH1 0x24 PUSH0 REVERT JUMPDEST PUSH0 DUP2 MLOAD SWAP1 POP SWAP2 SWAP1 POP JUMP JUMPDEST PUSH0 DUP3 DUP3 MSTORE PUSH1 0x20 DUP3 ADD SWAP1 POP SWAP3 SWAP2 POP POP JUMP JUMPDEST PUSH0 DUP2 SWAP1 POP PUSH1 0x20 DUP3 ADD SWAP1 POP SWAP2 SWAP1 POP JUMP JUMPDEST PUSH2 0xAA17 DUP2 PUSH2 0x9D3E JUMP JUMPDEST DUP3 MSTORE POP POP JUMP JUMPDEST PUSH0 PUSH2 0xAA28 DUP4 DUP4 PUSH2 0xAA0E JUMP JUMPDEST PUSH1 0x20 DUP4 ADD SWAP1 POP SWAP3 SWAP2 POP POP JUMP JUMPDEST PUSH0 PUSH1 0x20 DUP3 ADD SWAP1 POP SWAP2 SWAP1 POP JUMP JUMPDEST PUSH0 PUSH2 0xAA4A DUP3 PUSH2 0xA9E5 JUMP JUMPDEST PUSH2 0xAA54 DUP2 DUP6 PUSH2 0xA9EF JUMP JUMPDEST SWAP4 POP PUSH2 0xAA5F DUP4 PUSH2 0xA9FF JUMP JUMPDEST DUP1 PUSH0 JUMPDEST DUP4 DUP2 LT ISZERO PUSH2 0xAA8F JUMPI DUP2 MLOAD PUSH2 0xAA76 DUP9 DUP3 PUSH2 0xAA1D JUMP JUMPDEST SWAP8 POP PUSH2 0xAA81 DUP4 PUSH2 0xAA34 JUMP JUMPDEST SWAP3 POP POP PUSH1 0x1 DUP2 ADD SWAP1 POP PUSH2 0xAA62 JUMP JUMPDEST POP DUP6 SWAP4 POP POP POP POP SWAP3 SWAP2 POP POP JUMP JUMPDEST PUSH0 PUSH1 0x80 DUP3 ADD SWAP1 POP PUSH2 0xAAAF PUSH0 DUP4 ADD DUP8 PUSH2 0xA07B JUMP JUMPDEST DUP2 DUP2 SUB PUSH1 0x20 DUP4 ADD MSTORE PUSH2 0xAAC1 DUP2 DUP7 PUSH2 0xAA40 JUMP JUMPDEST SWAP1 POP PUSH2 0xAAD0 PUSH1 0x40 DUP4 ADD DUP6 PUSH2 0x9E6D JUMP JUMPDEST PUSH2 0xAADD PUSH1 0x60 DUP4 ADD DUP5 PUSH2 0xA07B JUMP JUMPDEST SWAP6 SWAP5 POP POP POP POP POP JUMP JUMPDEST PUSH0 PUSH1 0x60 DUP3 ADD SWAP1 POP PUSH2 0xAAF9 PUSH0 DUP4 ADD DUP7 PUSH2 0x9E6D JUMP JUMPDEST PUSH2 0xAB06 PUSH1 0x20 DUP4 ADD DUP6 PUSH2 0xA07B JUMP JUMPDEST PUSH2 0xAB13 PUSH1 0x40 DUP4 ADD DUP5 PUSH2 0xA07B JUMP JUMPDEST SWAP5 SWAP4 POP POP POP POP JUMP JUMPDEST PUSH0 PUSH1 0xA0 DUP3 ADD SWAP1 POP PUSH2 0xAB2E PUSH0 DUP4 ADD DUP9 PUSH2 0xA07B JUMP JUMPDEST PUSH2 0xAB3B PUSH1 0x20 DUP4 ADD DUP8 PUSH2 0xA07B JUMP JUMPDEST DUP2 DUP2 SUB PUSH1 0x40 DUP4 ADD MSTORE PUSH2 0xAB4D DUP2 DUP7 PUSH2 0xAA40 JUMP JUMPDEST SWAP1 POP PUSH2 0xAB5C PUSH1 0x60 DUP4 ADD DUP6 PUSH2 0x9E6D JUMP JUMPDEST PUSH2 0xAB69 PUSH1 0x80 DUP4 ADD DUP5 PUSH2 0xA07B JUMP JUMPDEST SWAP7 SWAP6 POP POP POP POP POP POP JUMP JUMPDEST PUSH0 PUSH1 0xC0 DUP3 ADD SWAP1 POP PUSH2 0xAB86 PUSH0 DUP4 ADD DUP10 PUSH2 0x9E6D JUMP JUMPDEST PUSH2 0xAB93 PUSH1 0x20 DUP4 ADD DUP9 PUSH2 0xA07B JUMP JUMPDEST PUSH2 0xABA0 PUSH1 0x40 DUP4 ADD DUP8 PUSH2 0xA974 JUMP JUMPDEST PUSH2 0xABAD PUSH1 0x60 DUP4 ADD DUP7 PUSH2 0xA07B JUMP JUMPDEST PUSH2 0xABBA PUSH1 0x80 DUP4 ADD DUP6 PUSH2 0x9E6D JUMP JUMPDEST PUSH2 0xABC7 PUSH1 0xA0 DUP4 ADD DUP5 PUSH2 0xA07B JUMP JUMPDEST SWAP8 SWAP7 POP POP POP POP POP POP POP JUMP JUMPDEST PUSH0 PUSH2 0xABDC DUP3 PUSH2 0x9D79 JUMP JUMPDEST SWAP2 POP PUSH2 0xABE7 DUP4 PUSH2 0x9D79 JUMP JUMPDEST SWAP3 POP DUP3 PUSH2 0xABF7 JUMPI PUSH2 0xABF6 PUSH2 0xA696 JUMP JUMPDEST JUMPDEST DUP3 DUP3 MOD SWAP1 POP SWAP3 SWAP2 POP POP JUMP JUMPDEST PUSH0 PUSH2 0xAC0C DUP3 PUSH2 0x9D79 JUMP JUMPDEST SWAP2 POP PUSH32 0xFFFFFFFFFFFFFFFFFFFFFFFFFFFFFFFFFFFFFFFFFFFFFFFFFFFFFFFFFFFFFFFF DUP3 SUB PUSH2 0xAC3E JUMPI PUSH2 0xAC3D PUSH2 0xA636 JUMP JUMPDEST JUMPDEST PUSH1 0x1 DUP3 ADD SWAP1 POP SWAP2 SWAP1 POP JUMP JUMPDEST PUSH0 PUSH2 0xAC53 DUP3 PUSH2 0xA1B1 JUMP JUMPDEST SWAP2 POP PUSH2 0xAC5E DUP4 PUSH2 0xA1B1 JUMP JUMPDEST SWAP3 POP DUP3 DUP3 ADD SWAP1 POP PUSH1 0xFF DUP2 GT ISZERO PUSH2 0xAC77 JUMPI PUSH2 0xAC76 PUSH2 0xA636 JUMP JUMPDEST JUMPDEST SWAP3 SWAP2 POP POP JUMP JUMPDEST PUSH0 DUP2 SWAP1 POP SWAP2 SWAP1 POP JUMP JUMPDEST PUSH2 0xAC97 PUSH2 0xAC92 DUP3 PUSH2 0x9D79 JUMP JUMPDEST PUSH2 0xAC7D JUMP JUMPDEST DUP3 MSTORE POP POP JUMP JUMPDEST PUSH0 DUP2 PUSH1 0x60 SHL SWAP1 POP SWAP2 SWAP1 POP JUMP JUMPDEST PUSH0 PUSH2 0xACB3 DUP3 PUSH2 0xAC9D JUMP JUMPDEST SWAP1 POP SWAP2 SWAP1 POP JUMP JUMPDEST PUSH0 PUSH2 0xACC4 DUP3 PUSH2 0xACA9 JUMP JUMPDEST SWAP1 POP SWAP2 SWAP1 POP JUMP JUMPDEST PUSH2 0xACDC PUSH2 0xACD7 DUP3 PUSH2 0x9D3E JUMP JUMPDEST PUSH2 0xACBA JUMP JUMPDEST DUP3 MSTORE POP POP JUMP JUMPDEST PUSH0 PUSH2 0xACED DUP3 DUP10 PUSH2 0xAC86 JUMP JUMPDEST PUSH1 0x20 DUP3 ADD SWAP2 POP PUSH2 0xACFD DUP3 DUP9 PUSH2 0xAC86 JUMP JUMPDEST PUSH1 0x20 DUP3 ADD SWAP2 POP PUSH2 0xAD0D DUP3 DUP8 PUSH2 0xAC86 JUMP JUMPDEST PUSH1 0x20 DUP3 ADD SWAP2 POP PUSH2 0xAD1D DUP3 DUP7 PUSH2 0xAC86 JUMP JUMPDEST PUSH1 0x20 DUP3 ADD SWAP2 POP PUSH2 0xAD2D DUP3 DUP6 PUSH2 0xACCB JUMP JUMPDEST PUSH1 0x14 DUP3 ADD SWAP2 POP PUSH2 0xAD3D DUP3 DUP5 PUSH2 0xAC86 JUMP JUMPDEST PUSH1 0x20 DUP3 ADD SWAP2 POP DUP2 SWAP1 POP SWAP8 SWAP7 POP POP POP POP POP POP POP JUMP JUMPDEST PUSH0 PUSH14 0xFFFFFFFFFFFFFFFFFFFFFFFFFFFF DUP3 AND SWAP1 POP SWAP2 SWAP1 POP JUMP JUMPDEST PUSH2 0xAD73 DUP2 PUSH2 0xAD51 JUMP JUMPDEST DUP2 EQ PUSH2 0xAD7D JUMPI PUSH0 PUSH0 REVERT JUMPDEST POP JUMP JUMPDEST PUSH0 DUP2 MLOAD SWAP1 POP PUSH2 0xAD8E DUP2 PUSH2 0xAD6A JUMP JUMPDEST SWAP3 SWAP2 POP POP JUMP JUMPDEST PUSH0 PUSH4 0xFFFFFFFF DUP3 AND SWAP1 POP SWAP2 SWAP1 POP JUMP JUMPDEST PUSH2 0xADAC DUP2 PUSH2 0xAD94 JUMP JUMPDEST DUP2 EQ PUSH2 0xADB6 JUMPI PUSH0 PUSH0 REVERT JUMPDEST POP JUMP JUMPDEST PUSH0 DUP2 MLOAD SWAP1 POP PUSH2 0xADC7 DUP2 PUSH2 0xADA3 JUMP JUMPDEST SWAP3 SWAP2 POP POP JUMP JUMPDEST PUSH0 PUSH0 PUSH0 PUSH1 0x60 DUP5 DUP7 SUB SLT ISZERO PUSH2 0xADE4 JUMPI PUSH2 0xADE3 PUSH2 0x9D17 JUMP JUMPDEST JUMPDEST PUSH0 PUSH2 0xADF1 DUP7 DUP3 DUP8 ADD PUSH2 0xAD80 JUMP JUMPDEST SWAP4 POP POP PUSH1 0x20 PUSH2 0xAE02 DUP7 DUP3 DUP8 ADD PUSH2 0xAD80 JUMP JUMPDEST SWAP3 POP POP PUSH1 0x40 PUSH2 0xAE13 DUP7 DUP3 DUP8 ADD PUSH2 0xADB9 JUMP JUMPDEST SWAP2 POP POP SWAP3 POP SWAP3 POP SWAP3 JUMP INVALID LOG2 PUSH5 0x6970667358 0x22 SLT KECCAK256 DELEGATECALL 0xD3 XOR SWAP10 PUSH29 0x70B7519E24E32F190D6E6458D9085E55E89509FBC768848940FEAC6473 PUSH16 0x6C6343000822003360A0604052348015 PUSH1 0xE JUMPI PUSH0 PUSH0 REVERT JUMPDEST POP CALLER PUSH20 0xFFFFFFFFFFFFFFFFFFFFFFFFFFFFFFFFFFFFFFFF AND PUSH1 0x80 DUP2 PUSH20 0xFFFFFFFFFFFFFFFFFFFFFFFFFFFFFFFFFFFFFFFF AND DUP2 MSTORE POP POP PUSH1 0x80 MLOAD PUSH1 0xF9 PUSH2 0x58 PUSH0 CODECOPY PUSH0 PUSH1 0x4F ADD MSTORE PUSH1 0xF9 PUSH0 RETURN INVALID PUSH1 0x80 PUSH1 0x40 MSTORE PUSH1 0x4 CALLDATASIZE LT PUSH1 0x1E JUMPI PUSH0 CALLDATALOAD PUSH1 0xE0 SHR DUP1 PUSH4 0xFC0C546A EQ PUSH1 0x28 JUMPI PUSH1 0x24 JUMP JUMPDEST CALLDATASIZE PUSH1 0x24 JUMPI STOP JUMPDEST PUSH0 PUSH0 REVERT JUMPDEST CALLVALUE DUP1 ISZERO PUSH1 0x32 JUMPI PUSH0 PUSH0 REVERT JUMPDEST POP PUSH1 0x39 PUSH1 0x4D JUMP JUMPDEST PUSH1 0x40 MLOAD PUSH1 0x44 SWAP2 SWAP1 PUSH1 0xAC JUMP JUMPDEST PUSH1 0x40 MLOAD DUP1 SWAP2 SUB SWAP1 RETURN JUMPDEST PUSH32 0x0 DUP2 JUMP JUMPDEST PUSH0 PUSH20 0xFFFFFFFFFFFFFFFFFFFFFFFFFFFFFFFFFFFFFFFF DUP3 AND SWAP1 POP SWAP2 SWAP1 POP JUMP JUMPDEST PUSH0 PUSH1 0x98 DUP3 PUSH1 0x71 JUMP JUMPDEST SWAP1 POP SWAP2 SWAP1 POP JUMP JUMPDEST PUSH1 0xA6 DUP2 PUSH1 0x90 JUMP JUMPDEST DUP3 MSTORE POP POP JUMP JUMPDEST PUSH0 PUSH1 0x20 DUP3 ADD SWAP1 POP PUSH1 0xBD PUSH0 DUP4 ADD DUP5 PUSH1 0x9F JUMP JUMPDEST SWAP3 SWAP2 POP POP JUMP INVALID LOG2 PUSH5 0x6970667358 0x22 SLT KECCAK256 0x4D 0xD9 MSIZE 0xA8 0xDA DUP4 PUSH7 0xA4B979E408AE0A PUSH15 0x11B818A60384C47F5EDF5BFEC8C4F1 0x4F SWAP2 PUSH5 0x736F6C6343 STOP ADDMOD 0x22 STOP CALLER "
		},
		"gasEstimates": {
			"creation": {
				"codeDepositCost": "8925400",
				"executionCost": "infinite",
				"totalCost": "infinite"
			},
			"external": {
				"DIRECT_REWARD_BP()": "480",
				"MAX_TEAM_DEPTH()": "415",
				"MPU_DENOMINATOR()": "415",
				"SAME_LEVEL_DEDUCT_BP()": "480",
				"TEAM_REWARD_BP()": "416",
				"USER_REWARD_BP()": "393",
				"ZOMBIE_MAX()": "458",
				"ZOMBIE_MIN()": "460",
				"adminAddPower(address,uint256)": "infinite",
				"adminFundOperationalBNB()": "4655",
				"adminFundRewardPool()": "infinite",
				"allowance(address,address)": "infinite",
				"approve(address,uint256)": "infinite",
				"autoBindOnTransferEnabled()": "2580",
				"autoClaimForUser(address,uint256)": "infinite",
				"balanceOf(address)": "2918",
				"batchMintTokens(address[],uint256[])": "infinite",
				"batchSetInviter(address[],address[])": "infinite",
				"batchSetStakeInfo(address[],uint256[],uint256[])": "infinite",
				"batchSetTeamInfo(address[],uint256[],uint8[])": "infinite",
				"binderCondition()": "2603",
				"binders(address,uint256)": "infinite",
				"burnDailyRate()": "2559",
				"burnDeadBp()": "2559",
				"burnDividendBp()": "2513",
				"burnInterval()": "2580",
				"burningEnabled()": "2556",
				"buyFee()": "2538",
				"compound()": "infinite",
				"cycleDays()": "2581",
				"dailyBuyFees(uint256)": "infinite",
				"dailyReturnBp()": "2560",
				"decimals()": "450",
				"dividendManager()": "2644",
				"fundAddress()": "2575",
				"fundFeeBp()": "2603",
				"getBinderLength(address)": "2950",
				"getReservedRewardPool()": "2522",
				"inviter(address)": "infinite",
				"isBlacklisted(address)": "2965",
				"isWhitelisted(address)": "2924",
				"lastBurnTime()": "2558",
				"levelConfigs(uint8)": "infinite",
				"lockMigration()": "infinite",
				"mainPair()": "infinite",
				"maxStake()": "2514",
				"migrationLocked()": "2645",
				"minStakeAmount()": "2602",
				"name()": "infinite",
				"nftFeeBp()": "2493",
				"nftThreshold()": "2537",
				"nftbToken()": "2576",
				"operator()": "2642",
				"owner()": "2694",
				"paused()": "2673",
				"pendingSellFees()": "2516",
				"principalReturnBp()": "2537",
				"processSellFees()": "infinite",
				"profitTaxEnabled()": "2578",
				"profitTaxRate()": "2558",
				"renounceOwnership()": "infinite",
				"rescueBNB(uint256)": "infinite",
				"rescueToken(address,uint256)": "infinite",
				"rewardReserveBp()": "2560",
				"sellFee()": "2538",
				"setBlacklisted(address,bool)": "29546",
				"setBurnConfig(uint256,bool,uint256,uint256,uint256)": "infinite",
				"setCompoundConfig(uint256,uint256)": "infinite",
				"setDailyReturnBp(uint256)": "27021",
				"setDividendManager(address)": "29295",
				"setFundAddress(address)": "29273",
				"setLevelConfig(uint8,uint256,uint256)": "infinite",
				"setNftbConfig(uint256)": "27062",
				"setNftbToken(address)": "29294",
				"setOperator(address)": "29228",
				"setPaused(bool)": "29248",
				"setPrincipalReturnBp(uint256)": "27019",
				"setProfitTaxConfig(bool,uint256)": "51462",
				"setRewardPoolConfig(uint256,uint256,uint256)": "infinite",
				"setRewardReserveBp(uint256)": "infinite",
				"setStakeAmountLimits(uint256,uint256)": "infinite",
				"setStakingFees(uint256,uint256,uint256)": "infinite",
				"setTradingEnabled(bool)": "29246",
				"setTradingFees(uint256,uint256)": "infinite",
				"setUserLevel(address,uint8)": "29475",
				"setWhitelisted(address,bool)": "29481",
				"setZeroExitEnabled(bool)": "29218",
				"stake(address)": "infinite",
				"stakeInfos(address)": "infinite",
				"swapHelper()": "infinite",
				"swapRouter()": "infinite",
				"symbol()": "infinite",
				"teamInfos(address)": "infinite",
				"totalSupply()": "2589",
				"tradingEnabled()": "2652",
				"transfer(address,uint256)": "infinite",
				"transferFrom(address,address,uint256)": "infinite",
				"transferOwnership(address)": "infinite",
				"triggerDailyProcess()": "infinite",
				"validPeriod()": "2514",
				"weth()": "infinite",
				"withdrawRewardPool(uint256)": "infinite",
				"zeroExitEnabled()": "2578",
				"zombieFeeBp()": "2536"
			},
			"internal": {
				"_addLiquidityWithBNB(uint256)": "infinite",
				"_availableOperationalBNB()": "infinite",
				"_bindInviter(address,address)": "75433",
				"_calculateLPForBNB(uint256)": "infinite",
				"_checkAndReplenishPool()": "infinite",
				"_compoundShared(address,uint256,bool)": "infinite",
				"_createPair(address)": "infinite",
				"_dailyBatchProcess()": "infinite",
				"_dailyBurnInternal()": "infinite",
				"_distributeEntryFee(uint256)": "infinite",
				"_distributeTeamRewards(address,uint256)": "infinite",
				"_distributeToZombies(uint256)": "infinite",
				"_dm()": "2157",
				"_dmSetNFT(address,uint256)": "infinite",
				"_enterFlowGuard()": "infinite",
				"_exitFlowGuard()": "5022",
				"_exitInternal(address)": "infinite",
				"_genAddr(uint256)": "infinite",
				"_getAmountOut(uint256,uint256,uint256)": "infinite",
				"_getPairReserves()": "infinite",
				"_getSwapMinOut(uint256,bool)": "infinite",
				"_hasDM()": "2177",
				"_initLevelConfigs()": "infinite",
				"_isSwapPair(address)": "infinite",
				"_payPrincipalWithFallback(address,uint256)": "infinite",
				"_payRewardWithFallback(address,uint256)": "infinite",
				"_processDailyTradeFees(uint256)": "infinite",
				"_reduceTeamAmount(address,uint256)": "infinite",
				"_requireNotPaused()": "infinite",
				"_rescueRecipient()": "4368",
				"_resetUserState(address)": "infinite",
				"_safeTransferETH(address,uint256)": "infinite",
				"_stakeInternal(address,uint256)": "infinite",
				"_swapTokensForBNB(uint256)": "infinite",
				"_syncExpiredDividendState()": "infinite",
				"_syncTeamLevel(address)": "infinite",
				"_update(address,address,uint256)": "infinite",
				"_updateTeamAmount(address,uint256)": "infinite",
				"_validateRewardReserveConfig(uint256,uint256,uint256,uint256)": "infinite",
				"_withdrawBNBFromLP(uint256)": "infinite"
			}
		},
		"methodIdentifiers": {
			"DIRECT_REWARD_BP()": "ef98f953",
			"MAX_TEAM_DEPTH()": "d32ec351",
			"MPU_DENOMINATOR()": "6359e6ae",
			"SAME_LEVEL_DEDUCT_BP()": "81d5bbe5",
			"TEAM_REWARD_BP()": "8e885396",
			"USER_REWARD_BP()": "603e43d5",
			"ZOMBIE_MAX()": "80aefd56",
			"ZOMBIE_MIN()": "4017b7a1",
			"adminAddPower(address,uint256)": "b29c181f",
			"adminFundOperationalBNB()": "4699771b",
			"adminFundRewardPool()": "1a8573c2",
			"allowance(address,address)": "dd62ed3e",
			"approve(address,uint256)": "095ea7b3",
			"autoBindOnTransferEnabled()": "0fc8fa41",
			"autoClaimForUser(address,uint256)": "94f7693a",
			"balanceOf(address)": "70a08231",
			"batchMintTokens(address[],uint256[])": "f7871706",
			"batchSetInviter(address[],address[])": "827d6f74",
			"batchSetStakeInfo(address[],uint256[],uint256[])": "82eefca5",
			"batchSetTeamInfo(address[],uint256[],uint8[])": "1213c7fe",
			"binderCondition()": "6d65d574",
			"binders(address,uint256)": "168ab584",
			"burnDailyRate()": "b78ac009",
			"burnDeadBp()": "c770ddd7",
			"burnDividendBp()": "f8c6fc3b",
			"burnInterval()": "e55a68b3",
			"burningEnabled()": "4d754715",
			"buyFee()": "47062402",
			"compound()": "f69e2046",
			"cycleDays()": "cd6a3d5e",
			"dailyBuyFees(uint256)": "65b3a294",
			"dailyReturnBp()": "2b310671",
			"decimals()": "313ce567",
			"dividendManager()": "0e010c9e",
			"fundAddress()": "e82bef29",
			"fundFeeBp()": "b307dc95",
			"getBinderLength(address)": "1b967ad4",
			"getReservedRewardPool()": "9343278f",
			"inviter(address)": "ee8f0b7a",
			"isBlacklisted(address)": "fe575a87",
			"isWhitelisted(address)": "3af32abf",
			"lastBurnTime()": "e3067449",
			"levelConfigs(uint8)": "2935a0cc",
			"lockMigration()": "0fc0482a",
			"mainPair()": "85af30c5",
			"maxStake()": "ea1b28e0",
			"migrationLocked()": "441f0027",
			"minStakeAmount()": "f1887684",
			"name()": "06fdde03",
			"nftFeeBp()": "9d5bd1ae",
			"nftThreshold()": "b0e6bc00",
			"nftbToken()": "c466a3b6",
			"operator()": "570ca735",
			"owner()": "8da5cb5b",
			"paused()": "5c975abb",
			"pendingSellFees()": "13b28d25",
			"principalReturnBp()": "d88e1e23",
			"processSellFees()": "ff41b308",
			"profitTaxEnabled()": "5666fb67",
			"profitTaxRate()": "eeba07fb",
			"renounceOwnership()": "715018a6",
			"rescueBNB(uint256)": "441b1d30",
			"rescueToken(address,uint256)": "33f3d628",
			"rewardReserveBp()": "92fd039e",
			"sellFee()": "2b14ca56",
			"setBlacklisted(address,bool)": "d01dd6d2",
			"setBurnConfig(uint256,bool,uint256,uint256,uint256)": "75e27e8d",
			"setCompoundConfig(uint256,uint256)": "1955164a",
			"setDailyReturnBp(uint256)": "2ad2adac",
			"setDividendManager(address)": "8bf60537",
			"setFundAddress(address)": "85dc3004",
			"setLevelConfig(uint8,uint256,uint256)": "358f2f4c",
			"setNftbConfig(uint256)": "0faf8baf",
			"setNftbToken(address)": "b2fde795",
			"setOperator(address)": "b3ab15fb",
			"setPaused(bool)": "16c38b3c",
			"setPrincipalReturnBp(uint256)": "ba76720d",
			"setProfitTaxConfig(bool,uint256)": "c51ecc9f",
			"setRewardPoolConfig(uint256,uint256,uint256)": "682674a7",
			"setRewardReserveBp(uint256)": "c2a7dea3",
			"setStakeAmountLimits(uint256,uint256)": "9a654cb3",
			"setStakingFees(uint256,uint256,uint256)": "0d04c3bc",
			"setTradingEnabled(bool)": "c2e5ec04",
			"setTradingFees(uint256,uint256)": "fda5ecb1",
			"setUserLevel(address,uint8)": "392075b2",
			"setWhitelisted(address,bool)": "9281aa0b",
			"setZeroExitEnabled(bool)": "6a5ba778",
			"stake(address)": "26476204",
			"stakeInfos(address)": "dfbf9def",
			"swapHelper()": "0fc6a11c",
			"swapRouter()": "c31c9c07",
			"symbol()": "95d89b41",
			"teamInfos(address)": "7f1795a0",
			"totalSupply()": "18160ddd",
			"tradingEnabled()": "4ada218b",
			"transfer(address,uint256)": "a9059cbb",
			"transferFrom(address,address,uint256)": "23b872dd",
			"transferOwnership(address)": "f2fde38b",
			"triggerDailyProcess()": "2bd7c8ed",
			"validPeriod()": "7efcc3a2",
			"weth()": "3fc8cef3",
			"withdrawRewardPool(uint256)": "c74cab49",
			"zeroExitEnabled()": "b5d475a8",
			"zombieFeeBp()": "e1ccd36a"
		}
	},
	"abi": [
		{
			"inputs": [
				{
					"internalType": "address",
					"name": "_router",
					"type": "address"
				},
				{
					"internalType": "address",
					"name": "_fund",
					"type": "address"
				},
				{
					"internalType": "address",
					"name": "_tokenReceiver",
					"type": "address"
				},
				{
					"internalType": "string",
					"name": "_name",
					"type": "string"
				},
				{
					"internalType": "string",
					"name": "_symbol",
					"type": "string"
				},
				{
					"internalType": "uint256",
					"name": "_totalSupply",
					"type": "uint256"
				},
				{
					"internalType": "address",
					"name": "_initialOwner",
					"type": "address"
				},
				{
					"internalType": "address",
					"name": "_operator",
					"type": "address"
				}
			],
			"stateMutability": "nonpayable",
			"type": "constructor"
		},
		{
			"inputs": [],
			"name": "Blacklisted",
			"type": "error"
		},
		{
			"inputs": [],
			"name": "DeadlinePassed",
			"type": "error"
		},
		{
			"inputs": [
				{
					"internalType": "address",
					"name": "spender",
					"type": "address"
				},
				{
					"internalType": "uint256",
					"name": "allowance",
					"type": "uint256"
				},
				{
					"internalType": "uint256",
					"name": "needed",
					"type": "uint256"
				}
			],
			"name": "ERC20InsufficientAllowance",
			"type": "error"
		},
		{
			"inputs": [
				{
					"internalType": "address",
					"name": "sender",
					"type": "address"
				},
				{
					"internalType": "uint256",
					"name": "balance",
					"type": "uint256"
				},
				{
					"internalType": "uint256",
					"name": "needed",
					"type": "uint256"
				}
			],
			"name": "ERC20InsufficientBalance",
			"type": "error"
		},
		{
			"inputs": [
				{
					"internalType": "address",
					"name": "approver",
					"type": "address"
				}
			],
			"name": "ERC20InvalidApprover",
			"type": "error"
		},
		{
			"inputs": [
				{
					"internalType": "address",
					"name": "receiver",
					"type": "address"
				}
			],
			"name": "ERC20InvalidReceiver",
			"type": "error"
		},
		{
			"inputs": [
				{
					"internalType": "address",
					"name": "sender",
					"type": "address"
				}
			],
			"name": "ERC20InvalidSender",
			"type": "error"
		},
		{
			"inputs": [
				{
					"internalType": "address",
					"name": "spender",
					"type": "address"
				}
			],
			"name": "ERC20InvalidSpender",
			"type": "error"
		},
		{
			"inputs": [],
			"name": "EnforcedPause",
			"type": "error"
		},
		{
			"inputs": [],
			"name": "InsufficientBalance",
			"type": "error"
		},
		{
			"inputs": [],
			"name": "InvalidAmount",
			"type": "error"
		},
		{
			"inputs": [],
			"name": "InvalidFee",
			"type": "error"
		},
		{
			"inputs": [],
			"name": "InvalidRate",
			"type": "error"
		},
		{
			"inputs": [],
			"name": "MigrationLocked",
			"type": "error"
		},
		{
			"inputs": [],
			"name": "NotExpired",
			"type": "error"
		},
		{
			"inputs": [
				{
					"internalType": "address",
					"name": "owner",
					"type": "address"
				}
			],
			"name": "OwnableInvalidOwner",
			"type": "error"
		},
		{
			"inputs": [
				{
					"internalType": "address",
					"name": "account",
					"type": "address"
				}
			],
			"name": "OwnableUnauthorizedAccount",
			"type": "error"
		},
		{
			"inputs": [],
			"name": "ReceiveReentrant",
			"type": "error"
		},
		{
			"inputs": [],
			"name": "TradingDisabled",
			"type": "error"
		},
		{
			"inputs": [],
			"name": "TransferFailed",
			"type": "error"
		},
		{
			"inputs": [],
			"name": "Unauthorized",
			"type": "error"
		},
		{
			"inputs": [],
			"name": "ZeroAddress",
			"type": "error"
		},
		{
			"anonymous": false,
			"inputs": [
				{
					"indexed": true,
					"internalType": "address",
					"name": "user",
					"type": "address"
				},
				{
					"indexed": false,
					"internalType": "uint256",
					"name": "newRecorded",
					"type": "uint256"
				}
			],
			"name": "AdminPowerAdded",
			"type": "event"
		},
		{
			"anonymous": false,
			"inputs": [
				{
					"indexed": true,
					"internalType": "address",
					"name": "owner",
					"type": "address"
				},
				{
					"indexed": true,
					"internalType": "address",
					"name": "spender",
					"type": "address"
				},
				{
					"indexed": false,
					"internalType": "uint256",
					"name": "value",
					"type": "uint256"
				}
			],
			"name": "Approval",
			"type": "event"
		},
		{
			"anonymous": false,
			"inputs": [
				{
					"indexed": false,
					"internalType": "uint256",
					"name": "burnAmount",
					"type": "uint256"
				},
				{
					"indexed": false,
					"internalType": "uint256",
					"name": "toDead",
					"type": "uint256"
				},
				{
					"indexed": false,
					"internalType": "uint256",
					"name": "toDividend",
					"type": "uint256"
				}
			],
			"name": "BurnExecuted",
			"type": "event"
		},
		{
			"anonymous": false,
			"inputs": [
				{
					"indexed": true,
					"internalType": "address",
					"name": "user",
					"type": "address"
				},
				{
					"indexed": false,
					"internalType": "uint256",
					"name": "newRecorded",
					"type": "uint256"
				},
				{
					"indexed": false,
					"internalType": "uint256",
					"name": "nextDeadline",
					"type": "uint256"
				}
			],
			"name": "Compounded",
			"type": "event"
		},
		{
			"anonymous": false,
			"inputs": [
				{
					"indexed": true,
					"internalType": "address",
					"name": "trigger",
					"type": "address"
				}
			],
			"name": "DailyProcessTriggered",
			"type": "event"
		},
		{
			"anonymous": false,
			"inputs": [
				{
					"indexed": true,
					"internalType": "uint256",
					"name": "day",
					"type": "uint256"
				},
				{
					"indexed": false,
					"internalType": "uint256",
					"name": "tokenAmount",
					"type": "uint256"
				},
				{
					"indexed": false,
					"internalType": "uint256",
					"name": "bnbAmount",
					"type": "uint256"
				}
			],
			"name": "DailyTradeFeesProcessed",
			"type": "event"
		},
		{
			"anonymous": false,
			"inputs": [
				{
					"indexed": true,
					"internalType": "address",
					"name": "user",
					"type": "address"
				},
				{
					"indexed": false,
					"internalType": "uint256",
					"name": "principal",
					"type": "uint256"
				},
				{
					"indexed": false,
					"internalType": "uint256",
					"name": "reward",
					"type": "uint256"
				}
			],
			"name": "Exited",
			"type": "event"
		},
		{
			"anonymous": false,
			"inputs": [
				{
					"indexed": true,
					"internalType": "address",
					"name": "account",
					"type": "address"
				},
				{
					"indexed": true,
					"internalType": "address",
					"name": "inviter",
					"type": "address"
				}
			],
			"name": "InviterBound",
			"type": "event"
		},
		{
			"anonymous": false,
			"inputs": [
				{
					"indexed": false,
					"internalType": "uint256",
					"name": "lpAmount",
					"type": "uint256"
				},
				{
					"indexed": false,
					"internalType": "uint256",
					"name": "bnbReceived",
					"type": "uint256"
				},
				{
					"indexed": false,
					"internalType": "uint256",
					"name": "xyyBurned",
					"type": "uint256"
				}
			],
			"name": "LPWithdrawn",
			"type": "event"
		},
		{
			"anonymous": false,
			"inputs": [
				{
					"indexed": true,
					"internalType": "address",
					"name": "user",
					"type": "address"
				},
				{
					"indexed": false,
					"internalType": "uint8",
					"name": "newLevel",
					"type": "uint8"
				}
			],
			"name": "LevelUp",
			"type": "event"
		},
		{
			"anonymous": false,
			"inputs": [
				{
					"indexed": false,
					"internalType": "uint256",
					"name": "ethAmount",
					"type": "uint256"
				},
				{
					"indexed": false,
					"internalType": "uint256",
					"name": "tokenAmount",
					"type": "uint256"
				},
				{
					"indexed": false,
					"internalType": "uint256",
					"name": "liquidity",
					"type": "uint256"
				}
			],
			"name": "LiquidityAdded",
			"type": "event"
		},
		{
			"anonymous": false,
			"inputs": [],
			"name": "MigrationLockedEvent",
			"type": "event"
		},
		{
			"anonymous": false,
			"inputs": [
				{
					"indexed": true,
					"internalType": "address",
					"name": "previousOwner",
					"type": "address"
				},
				{
					"indexed": true,
					"internalType": "address",
					"name": "newOwner",
					"type": "address"
				}
			],
			"name": "OwnershipTransferred",
			"type": "event"
		},
		{
			"anonymous": false,
			"inputs": [
				{
					"indexed": false,
					"internalType": "uint256",
					"name": "balance",
					"type": "uint256"
				},
				{
					"indexed": false,
					"internalType": "uint256",
					"name": "threshold",
					"type": "uint256"
				}
			],
			"name": "RewardPoolLow",
			"type": "event"
		},
		{
			"anonymous": false,
			"inputs": [
				{
					"indexed": false,
					"internalType": "uint256",
					"name": "amount",
					"type": "uint256"
				},
				{
					"indexed": false,
					"internalType": "uint256",
					"name": "newBalance",
					"type": "uint256"
				}
			],
			"name": "RewardPoolReplenished",
			"type": "event"
		},
		{
			"anonymous": false,
			"inputs": [
				{
					"indexed": true,
					"internalType": "address",
					"name": "recipient",
					"type": "address"
				},
				{
					"indexed": false,
					"internalType": "uint256",
					"name": "amount",
					"type": "uint256"
				}
			],
			"name": "SameLevelReward",
			"type": "event"
		},
		{
			"anonymous": false,
			"inputs": [
				{
					"indexed": false,
					"internalType": "uint256",
					"name": "tokenAmount",
					"type": "uint256"
				},
				{
					"indexed": false,
					"internalType": "uint256",
					"name": "bnbReceived",
					"type": "uint256"
				}
			],
			"name": "SellFeesProcessed",
			"type": "event"
		},
		{
			"anonymous": false,
			"inputs": [
				{
					"indexed": true,
					"internalType": "address",
					"name": "user",
					"type": "address"
				},
				{
					"indexed": false,
					"internalType": "uint256",
					"name": "recordedAmount",
					"type": "uint256"
				},
				{
					"indexed": false,
					"internalType": "uint256",
					"name": "nextDeadline",
					"type": "uint256"
				}
			],
			"name": "Staked",
			"type": "event"
		},
		{
			"anonymous": false,
			"inputs": [
				{
					"indexed": false,
					"internalType": "uint256",
					"name": "fundFee",
					"type": "uint256"
				},
				{
					"indexed": false,
					"internalType": "uint256",
					"name": "nftFee",
					"type": "uint256"
				},
				{
					"indexed": false,
					"internalType": "uint256",
					"name": "zombieFee",
					"type": "uint256"
				}
			],
			"name": "StakingFeesUpdated",
			"type": "event"
		},
		{
			"anonymous": false,
			"inputs": [
				{
					"indexed": true,
					"internalType": "address",
					"name": "to",
					"type": "address"
				},
				{
					"indexed": false,
					"internalType": "uint256",
					"name": "amount",
					"type": "uint256"
				},
				{
					"indexed": false,
					"internalType": "uint8",
					"name": "rewardType",
					"type": "uint8"
				}
			],
			"name": "TeamRewardDistributed",
			"type": "event"
		},
		{
			"anonymous": false,
			"inputs": [
				{
					"indexed": true,
					"internalType": "address",
					"name": "from",
					"type": "address"
				},
				{
					"indexed": true,
					"internalType": "address",
					"name": "to",
					"type": "address"
				},
				{
					"indexed": false,
					"internalType": "uint256",
					"name": "value",
					"type": "uint256"
				}
			],
			"name": "Transfer",
			"type": "event"
		},
		{
			"anonymous": false,
			"inputs": [
				{
					"indexed": true,
					"internalType": "address",
					"name": "user",
					"type": "address"
				},
				{
					"indexed": false,
					"internalType": "uint256",
					"name": "retainedAmount",
					"type": "uint256"
				}
			],
			"name": "UserReset",
			"type": "event"
		},
		{
			"anonymous": false,
			"inputs": [
				{
					"indexed": false,
					"internalType": "bool",
					"name": "enabled",
					"type": "bool"
				}
			],
			"name": "ZeroExitEnabledChanged",
			"type": "event"
		},
		{
			"anonymous": false,
			"inputs": [
				{
					"indexed": false,
					"internalType": "uint256",
					"name": "ethAmount",
					"type": "uint256"
				},
				{
					"indexed": false,
					"internalType": "uint256",
					"name": "tokenAmount",
					"type": "uint256"
				},
				{
					"indexed": false,
					"internalType": "uint256",
					"name": "zombieCount",
					"type": "uint256"
				}
			],
			"name": "ZombieDistributed",
			"type": "event"
		},
		{
			"inputs": [],
			"name": "DIRECT_REWARD_BP",
			"outputs": [
				{
					"internalType": "uint256",
					"name": "",
					"type": "uint256"
				}
			],
			"stateMutability": "view",
			"type": "function"
		},
		{
			"inputs": [],
			"name": "MAX_TEAM_DEPTH",
			"outputs": [
				{
					"internalType": "uint256",
					"name": "",
					"type": "uint256"
				}
			],
			"stateMutability": "view",
			"type": "function"
		},
		{
			"inputs": [],
			"name": "MPU_DENOMINATOR",
			"outputs": [
				{
					"internalType": "uint256",
					"name": "",
					"type": "uint256"
				}
			],
			"stateMutability": "view",
			"type": "function"
		},
		{
			"inputs": [],
			"name": "SAME_LEVEL_DEDUCT_BP",
			"outputs": [
				{
					"internalType": "uint256",
					"name": "",
					"type": "uint256"
				}
			],
			"stateMutability": "view",
			"type": "function"
		},
		{
			"inputs": [],
			"name": "TEAM_REWARD_BP",
			"outputs": [
				{
					"internalType": "uint256",
					"name": "",
					"type": "uint256"
				}
			],
			"stateMutability": "view",
			"type": "function"
		},
		{
			"inputs": [],
			"name": "USER_REWARD_BP",
			"outputs": [
				{
					"internalType": "uint256",
					"name": "",
					"type": "uint256"
				}
			],
			"stateMutability": "view",
			"type": "function"
		},
		{
			"inputs": [],
			"name": "ZOMBIE_MAX",
			"outputs": [
				{
					"internalType": "uint256",
					"name": "",
					"type": "uint256"
				}
			],
			"stateMutability": "view",
			"type": "function"
		},
		{
			"inputs": [],
			"name": "ZOMBIE_MIN",
			"outputs": [
				{
					"internalType": "uint256",
					"name": "",
					"type": "uint256"
				}
			],
			"stateMutability": "view",
			"type": "function"
		},
		{
			"inputs": [
				{
					"internalType": "address",
					"name": "user",
					"type": "address"
				},
				{
					"internalType": "uint256",
					"name": "amount",
					"type": "uint256"
				}
			],
			"name": "adminAddPower",
			"outputs": [],
			"stateMutability": "nonpayable",
			"type": "function"
		},
		{
			"inputs": [],
			"name": "adminFundOperationalBNB",
			"outputs": [],
			"stateMutability": "payable",
			"type": "function"
		},
		{
			"inputs": [],
			"name": "adminFundRewardPool",
			"outputs": [],
			"stateMutability": "payable",
			"type": "function"
		},
		{
			"inputs": [
				{
					"internalType": "address",
					"name": "owner",
					"type": "address"
				},
				{
					"internalType": "address",
					"name": "spender",
					"type": "address"
				}
			],
			"name": "allowance",
			"outputs": [
				{
					"internalType": "uint256",
					"name": "",
					"type": "uint256"
				}
			],
			"stateMutability": "view",
			"type": "function"
		},
		{
			"inputs": [
				{
					"internalType": "address",
					"name": "spender",
					"type": "address"
				},
				{
					"internalType": "uint256",
					"name": "value",
					"type": "uint256"
				}
			],
			"name": "approve",
			"outputs": [
				{
					"internalType": "bool",
					"name": "",
					"type": "bool"
				}
			],
			"stateMutability": "nonpayable",
			"type": "function"
		},
		{
			"inputs": [],
			"name": "autoBindOnTransferEnabled",
			"outputs": [
				{
					"internalType": "bool",
					"name": "",
					"type": "bool"
				}
			],
			"stateMutability": "view",
			"type": "function"
		},
		{
			"inputs": [
				{
					"internalType": "address",
					"name": "user",
					"type": "address"
				},
				{
					"internalType": "uint256",
					"name": "amount",
					"type": "uint256"
				}
			],
			"name": "autoClaimForUser",
			"outputs": [],
			"stateMutability": "nonpayable",
			"type": "function"
		},
		{
			"inputs": [
				{
					"internalType": "address",
					"name": "account",
					"type": "address"
				}
			],
			"name": "balanceOf",
			"outputs": [
				{
					"internalType": "uint256",
					"name": "",
					"type": "uint256"
				}
			],
			"stateMutability": "view",
			"type": "function"
		},
		{
			"inputs": [
				{
					"internalType": "address[]",
					"name": "users",
					"type": "address[]"
				},
				{
					"internalType": "uint256[]",
					"name": "amounts",
					"type": "uint256[]"
				}
			],
			"name": "batchMintTokens",
			"outputs": [],
			"stateMutability": "nonpayable",
			"type": "function"
		},
		{
			"inputs": [
				{
					"internalType": "address[]",
					"name": "users",
					"type": "address[]"
				},
				{
					"internalType": "address[]",
					"name": "inviters",
					"type": "address[]"
				}
			],
			"name": "batchSetInviter",
			"outputs": [],
			"stateMutability": "nonpayable",
			"type": "function"
		},
		{
			"inputs": [
				{
					"internalType": "address[]",
					"name": "users",
					"type": "address[]"
				},
				{
					"internalType": "uint256[]",
					"name": "amounts",
					"type": "uint256[]"
				},
				{
					"internalType": "uint256[]",
					"name": "deadlines",
					"type": "uint256[]"
				}
			],
			"name": "batchSetStakeInfo",
			"outputs": [],
			"stateMutability": "nonpayable",
			"type": "function"
		},
		{
			"inputs": [
				{
					"internalType": "address[]",
					"name": "users",
					"type": "address[]"
				},
				{
					"internalType": "uint256[]",
					"name": "totals",
					"type": "uint256[]"
				},
				{
					"internalType": "uint8[]",
					"name": "levels",
					"type": "uint8[]"
				}
			],
			"name": "batchSetTeamInfo",
			"outputs": [],
			"stateMutability": "nonpayable",
			"type": "function"
		},
		{
			"inputs": [],
			"name": "binderCondition",
			"outputs": [
				{
					"internalType": "uint256",
					"name": "",
					"type": "uint256"
				}
			],
			"stateMutability": "view",
			"type": "function"
		},
		{
			"inputs": [
				{
					"internalType": "address",
					"name": "",
					"type": "address"
				},
				{
					"internalType": "uint256",
					"name": "",
					"type": "uint256"
				}
			],
			"name": "binders",
			"outputs": [
				{
					"internalType": "address",
					"name": "",
					"type": "address"
				}
			],
			"stateMutability": "view",
			"type": "function"
		},
		{
			"inputs": [],
			"name": "burnDailyRate",
			"outputs": [
				{
					"internalType": "uint256",
					"name": "",
					"type": "uint256"
				}
			],
			"stateMutability": "view",
			"type": "function"
		},
		{
			"inputs": [],
			"name": "burnDeadBp",
			"outputs": [
				{
					"internalType": "uint256",
					"name": "",
					"type": "uint256"
				}
			],
			"stateMutability": "view",
			"type": "function"
		},
		{
			"inputs": [],
			"name": "burnDividendBp",
			"outputs": [
				{
					"internalType": "uint256",
					"name": "",
					"type": "uint256"
				}
			],
			"stateMutability": "view",
			"type": "function"
		},
		{
			"inputs": [],
			"name": "burnInterval",
			"outputs": [
				{
					"internalType": "uint256",
					"name": "",
					"type": "uint256"
				}
			],
			"stateMutability": "view",
			"type": "function"
		},
		{
			"inputs": [],
			"name": "burningEnabled",
			"outputs": [
				{
					"internalType": "bool",
					"name": "",
					"type": "bool"
				}
			],
			"stateMutability": "view",
			"type": "function"
		},
		{
			"inputs": [],
			"name": "buyFee",
			"outputs": [
				{
					"internalType": "uint256",
					"name": "",
					"type": "uint256"
				}
			],
			"stateMutability": "view",
			"type": "function"
		},
		{
			"inputs": [],
			"name": "compound",
			"outputs": [],
			"stateMutability": "payable",
			"type": "function"
		},
		{
			"inputs": [],
			"name": "cycleDays",
			"outputs": [
				{
					"internalType": "uint256",
					"name": "",
					"type": "uint256"
				}
			],
			"stateMutability": "view",
			"type": "function"
		},
		{
			"inputs": [
				{
					"internalType": "uint256",
					"name": "",
					"type": "uint256"
				}
			],
			"name": "dailyBuyFees",
			"outputs": [
				{
					"internalType": "uint256",
					"name": "",
					"type": "uint256"
				}
			],
			"stateMutability": "view",
			"type": "function"
		},
		{
			"inputs": [],
			"name": "dailyReturnBp",
			"outputs": [
				{
					"internalType": "uint256",
					"name": "",
					"type": "uint256"
				}
			],
			"stateMutability": "view",
			"type": "function"
		},
		{
			"inputs": [],
			"name": "decimals",
			"outputs": [
				{
					"internalType": "uint8",
					"name": "",
					"type": "uint8"
				}
			],
			"stateMutability": "view",
			"type": "function"
		},
		{
			"inputs": [],
			"name": "dividendManager",
			"outputs": [
				{
					"internalType": "address",
					"name": "",
					"type": "address"
				}
			],
			"stateMutability": "view",
			"type": "function"
		},
		{
			"inputs": [],
			"name": "fundAddress",
			"outputs": [
				{
					"internalType": "address",
					"name": "",
					"type": "address"
				}
			],
			"stateMutability": "view",
			"type": "function"
		},
		{
			"inputs": [],
			"name": "fundFeeBp",
			"outputs": [
				{
					"internalType": "uint256",
					"name": "",
					"type": "uint256"
				}
			],
			"stateMutability": "view",
			"type": "function"
		},
		{
			"inputs": [
				{
					"internalType": "address",
					"name": "account",
					"type": "address"
				}
			],
			"name": "getBinderLength",
			"outputs": [
				{
					"internalType": "uint256",
					"name": "",
					"type": "uint256"
				}
			],
			"stateMutability": "view",
			"type": "function"
		},
		{
			"inputs": [],
			"name": "getReservedRewardPool",
			"outputs": [
				{
					"internalType": "uint256",
					"name": "",
					"type": "uint256"
				}
			],
			"stateMutability": "view",
			"type": "function"
		},
		{
			"inputs": [
				{
					"internalType": "address",
					"name": "",
					"type": "address"
				}
			],
			"name": "inviter",
			"outputs": [
				{
					"internalType": "address",
					"name": "",
					"type": "address"
				}
			],
			"stateMutability": "view",
			"type": "function"
		},
		{
			"inputs": [
				{
					"internalType": "address",
					"name": "",
					"type": "address"
				}
			],
			"name": "isBlacklisted",
			"outputs": [
				{
					"internalType": "bool",
					"name": "",
					"type": "bool"
				}
			],
			"stateMutability": "view",
			"type": "function"
		},
		{
			"inputs": [
				{
					"internalType": "address",
					"name": "",
					"type": "address"
				}
			],
			"name": "isWhitelisted",
			"outputs": [
				{
					"internalType": "bool",
					"name": "",
					"type": "bool"
				}
			],
			"stateMutability": "view",
			"type": "function"
		},
		{
			"inputs": [],
			"name": "lastBurnTime",
			"outputs": [
				{
					"internalType": "uint256",
					"name": "",
					"type": "uint256"
				}
			],
			"stateMutability": "view",
			"type": "function"
		},
		{
			"inputs": [
				{
					"internalType": "uint8",
					"name": "",
					"type": "uint8"
				}
			],
			"name": "levelConfigs",
			"outputs": [
				{
					"internalType": "uint256",
					"name": "threshold",
					"type": "uint256"
				},
				{
					"internalType": "uint256",
					"name": "rewardRate",
					"type": "uint256"
				}
			],
			"stateMutability": "view",
			"type": "function"
		},
		{
			"inputs": [],
			"name": "lockMigration",
			"outputs": [],
			"stateMutability": "nonpayable",
			"type": "function"
		},
		{
			"inputs": [],
			"name": "mainPair",
			"outputs": [
				{
					"internalType": "address",
					"name": "",
					"type": "address"
				}
			],
			"stateMutability": "view",
			"type": "function"
		},
		{
			"inputs": [],
			"name": "maxStake",
			"outputs": [
				{
					"internalType": "uint256",
					"name": "",
					"type": "uint256"
				}
			],
			"stateMutability": "view",
			"type": "function"
		},
		{
			"inputs": [],
			"name": "migrationLocked",
			"outputs": [
				{
					"internalType": "bool",
					"name": "",
					"type": "bool"
				}
			],
			"stateMutability": "view",
			"type": "function"
		},
		{
			"inputs": [],
			"name": "minStakeAmount",
			"outputs": [
				{
					"internalType": "uint256",
					"name": "",
					"type": "uint256"
				}
			],
			"stateMutability": "view",
			"type": "function"
		},
		{
			"inputs": [],
			"name": "name",
			"outputs": [
				{
					"internalType": "string",
					"name": "",
					"type": "string"
				}
			],
			"stateMutability": "view",
			"type": "function"
		},
		{
			"inputs": [],
			"name": "nftFeeBp",
			"outputs": [
				{
					"internalType": "uint256",
					"name": "",
					"type": "uint256"
				}
			],
			"stateMutability": "view",
			"type": "function"
		},
		{
			"inputs": [],
			"name": "nftThreshold",
			"outputs": [
				{
					"internalType": "uint256",
					"name": "",
					"type": "uint256"
				}
			],
			"stateMutability": "view",
			"type": "function"
		},
		{
			"inputs": [],
			"name": "nftbToken",
			"outputs": [
				{
					"internalType": "address",
					"name": "",
					"type": "address"
				}
			],
			"stateMutability": "view",
			"type": "function"
		},
		{
			"inputs": [],
			"name": "operator",
			"outputs": [
				{
					"internalType": "address",
					"name": "",
					"type": "address"
				}
			],
			"stateMutability": "view",
			"type": "function"
		},
		{
			"inputs": [],
			"name": "owner",
			"outputs": [
				{
					"internalType": "address",
					"name": "",
					"type": "address"
				}
			],
			"stateMutability": "view",
			"type": "function"
		},
		{
			"inputs": [],
			"name": "paused",
			"outputs": [
				{
					"internalType": "bool",
					"name": "",
					"type": "bool"
				}
			],
			"stateMutability": "view",
			"type": "function"
		},
		{
			"inputs": [],
			"name": "pendingSellFees",
			"outputs": [
				{
					"internalType": "uint256",
					"name": "",
					"type": "uint256"
				}
			],
			"stateMutability": "view",
			"type": "function"
		},
		{
			"inputs": [],
			"name": "principalReturnBp",
			"outputs": [
				{
					"internalType": "uint256",
					"name": "",
					"type": "uint256"
				}
			],
			"stateMutability": "view",
			"type": "function"
		},
		{
			"inputs": [],
			"name": "processSellFees",
			"outputs": [],
			"stateMutability": "nonpayable",
			"type": "function"
		},
		{
			"inputs": [],
			"name": "profitTaxEnabled",
			"outputs": [
				{
					"internalType": "bool",
					"name": "",
					"type": "bool"
				}
			],
			"stateMutability": "view",
			"type": "function"
		},
		{
			"inputs": [],
			"name": "profitTaxRate",
			"outputs": [
				{
					"internalType": "uint256",
					"name": "",
					"type": "uint256"
				}
			],
			"stateMutability": "view",
			"type": "function"
		},
		{
			"inputs": [],
			"name": "renounceOwnership",
			"outputs": [],
			"stateMutability": "nonpayable",
			"type": "function"
		},
		{
			"inputs": [
				{
					"internalType": "uint256",
					"name": "amt",
					"type": "uint256"
				}
			],
			"name": "rescueBNB",
			"outputs": [],
			"stateMutability": "nonpayable",
			"type": "function"
		},
		{
			"inputs": [
				{
					"internalType": "address",
					"name": "tok",
					"type": "address"
				},
				{
					"internalType": "uint256",
					"name": "amt",
					"type": "uint256"
				}
			],
			"name": "rescueToken",
			"outputs": [],
			"stateMutability": "nonpayable",
			"type": "function"
		},
		{
			"inputs": [],
			"name": "rewardReserveBp",
			"outputs": [
				{
					"internalType": "uint256",
					"name": "",
					"type": "uint256"
				}
			],
			"stateMutability": "view",
			"type": "function"
		},
		{
			"inputs": [],
			"name": "sellFee",
			"outputs": [
				{
					"internalType": "uint256",
					"name": "",
					"type": "uint256"
				}
			],
			"stateMutability": "view",
			"type": "function"
		},
		{
			"inputs": [
				{
					"internalType": "address",
					"name": "a",
					"type": "address"
				},
				{
					"internalType": "bool",
					"name": "s",
					"type": "bool"
				}
			],
			"name": "setBlacklisted",
			"outputs": [],
			"stateMutability": "nonpayable",
			"type": "function"
		},
		{
			"inputs": [
				{
					"internalType": "uint256",
					"name": "_r",
					"type": "uint256"
				},
				{
					"internalType": "bool",
					"name": "_e",
					"type": "bool"
				},
				{
					"internalType": "uint256",
					"name": "_db",
					"type": "uint256"
				},
				{
					"internalType": "uint256",
					"name": "_dvb",
					"type": "uint256"
				},
				{
					"internalType": "uint256",
					"name": "_i",
					"type": "uint256"
				}
			],
			"name": "setBurnConfig",
			"outputs": [],
			"stateMutability": "nonpayable",
			"type": "function"
		},
		{
			"inputs": [
				{
					"internalType": "uint256",
					"name": "_cd",
					"type": "uint256"
				},
				{
					"internalType": "uint256",
					"name": "_vp",
					"type": "uint256"
				}
			],
			"name": "setCompoundConfig",
			"outputs": [],
			"stateMutability": "nonpayable",
			"type": "function"
		},
		{
			"inputs": [
				{
					"internalType": "uint256",
					"name": "_d",
					"type": "uint256"
				}
			],
			"name": "setDailyReturnBp",
			"outputs": [],
			"stateMutability": "nonpayable",
			"type": "function"
		},
		{
			"inputs": [
				{
					"internalType": "address",
					"name": "dm_",
					"type": "address"
				}
			],
			"name": "setDividendManager",
			"outputs": [],
			"stateMutability": "nonpayable",
			"type": "function"
		},
		{
			"inputs": [
				{
					"internalType": "address",
					"name": "_f",
					"type": "address"
				}
			],
			"name": "setFundAddress",
			"outputs": [],
			"stateMutability": "nonpayable",
			"type": "function"
		},
		{
			"inputs": [
				{
					"internalType": "uint8",
					"name": "_l",
					"type": "uint8"
				},
				{
					"internalType": "uint256",
					"name": "_th",
					"type": "uint256"
				},
				{
					"internalType": "uint256",
					"name": "_r",
					"type": "uint256"
				}
			],
			"name": "setLevelConfig",
			"outputs": [],
			"stateMutability": "nonpayable",
			"type": "function"
		},
		{
			"inputs": [
				{
					"internalType": "uint256",
					"name": "_t",
					"type": "uint256"
				}
			],
			"name": "setNftbConfig",
			"outputs": [],
			"stateMutability": "nonpayable",
			"type": "function"
		},
		{
			"inputs": [
				{
					"internalType": "address",
					"name": "nftb_",
					"type": "address"
				}
			],
			"name": "setNftbToken",
			"outputs": [],
			"stateMutability": "nonpayable",
			"type": "function"
		},
		{
			"inputs": [
				{
					"internalType": "address",
					"name": "_op",
					"type": "address"
				}
			],
			"name": "setOperator",
			"outputs": [],
			"stateMutability": "nonpayable",
			"type": "function"
		},
		{
			"inputs": [
				{
					"internalType": "bool",
					"name": "_p",
					"type": "bool"
				}
			],
			"name": "setPaused",
			"outputs": [],
			"stateMutability": "nonpayable",
			"type": "function"
		},
		{
			"inputs": [
				{
					"internalType": "uint256",
					"name": "_p",
					"type": "uint256"
				}
			],
			"name": "setPrincipalReturnBp",
			"outputs": [],
			"stateMutability": "nonpayable",
			"type": "function"
		},
		{
			"inputs": [
				{
					"internalType": "bool",
					"name": "_e",
					"type": "bool"
				},
				{
					"internalType": "uint256",
					"name": "_r",
					"type": "uint256"
				}
			],
			"name": "setProfitTaxConfig",
			"outputs": [],
			"stateMutability": "nonpayable",
			"type": "function"
		},
		{
			"inputs": [
				{
					"internalType": "uint256",
					"name": "_t",
					"type": "uint256"
				},
				{
					"internalType": "uint256",
					"name": "_b",
					"type": "uint256"
				},
				{
					"internalType": "uint256",
					"name": "_s",
					"type": "uint256"
				}
			],
			"name": "setRewardPoolConfig",
			"outputs": [],
			"stateMutability": "nonpayable",
			"type": "function"
		},
		{
			"inputs": [
				{
					"internalType": "uint256",
					"name": "_r",
					"type": "uint256"
				}
			],
			"name": "setRewardReserveBp",
			"outputs": [],
			"stateMutability": "nonpayable",
			"type": "function"
		},
		{
			"inputs": [
				{
					"internalType": "uint256",
					"name": "_min",
					"type": "uint256"
				},
				{
					"internalType": "uint256",
					"name": "_max",
					"type": "uint256"
				}
			],
			"name": "setStakeAmountLimits",
			"outputs": [],
			"stateMutability": "nonpayable",
			"type": "function"
		},
		{
			"inputs": [
				{
					"internalType": "uint256",
					"name": "_f",
					"type": "uint256"
				},
				{
					"internalType": "uint256",
					"name": "_n",
					"type": "uint256"
				},
				{
					"internalType": "uint256",
					"name": "_z",
					"type": "uint256"
				}
			],
			"name": "setStakingFees",
			"outputs": [],
			"stateMutability": "nonpayable",
			"type": "function"
		},
		{
			"inputs": [
				{
					"internalType": "bool",
					"name": "e",
					"type": "bool"
				}
			],
			"name": "setTradingEnabled",
			"outputs": [],
			"stateMutability": "nonpayable",
			"type": "function"
		},
		{
			"inputs": [
				{
					"internalType": "uint256",
					"name": "_b",
					"type": "uint256"
				},
				{
					"internalType": "uint256",
					"name": "_s",
					"type": "uint256"
				}
			],
			"name": "setTradingFees",
			"outputs": [],
			"stateMutability": "nonpayable",
			"type": "function"
		},
		{
			"inputs": [
				{
					"internalType": "address",
					"name": "u",
					"type": "address"
				},
				{
					"internalType": "uint8",
					"name": "l",
					"type": "uint8"
				}
			],
			"name": "setUserLevel",
			"outputs": [],
			"stateMutability": "nonpayable",
			"type": "function"
		},
		{
			"inputs": [
				{
					"internalType": "address",
					"name": "a",
					"type": "address"
				},
				{
					"internalType": "bool",
					"name": "s",
					"type": "bool"
				}
			],
			"name": "setWhitelisted",
			"outputs": [],
			"stateMutability": "nonpayable",
			"type": "function"
		},
		{
			"inputs": [
				{
					"internalType": "bool",
					"name": "e",
					"type": "bool"
				}
			],
			"name": "setZeroExitEnabled",
			"outputs": [],
			"stateMutability": "nonpayable",
			"type": "function"
		},
		{
			"inputs": [
				{
					"internalType": "address",
					"name": "referrer",
					"type": "address"
				}
			],
			"name": "stake",
			"outputs": [],
			"stateMutability": "payable",
			"type": "function"
		},
		{
			"inputs": [
				{
					"internalType": "address",
					"name": "",
					"type": "address"
				}
			],
			"name": "stakeInfos",
			"outputs": [
				{
					"internalType": "uint256",
					"name": "recordedAmount",
					"type": "uint256"
				},
				{
					"internalType": "uint256",
					"name": "retainedAmount",
					"type": "uint256"
				},
				{
					"internalType": "uint256",
					"name": "nextDeadline",
					"type": "uint256"
				}
			],
			"stateMutability": "view",
			"type": "function"
		},
		{
			"inputs": [],
			"name": "swapHelper",
			"outputs": [
				{
					"internalType": "address",
					"name": "",
					"type": "address"
				}
			],
			"stateMutability": "view",
			"type": "function"
		},
		{
			"inputs": [],
			"name": "swapRouter",
			"outputs": [
				{
					"internalType": "address",
					"name": "",
					"type": "address"
				}
			],
			"stateMutability": "view",
			"type": "function"
		},
		{
			"inputs": [],
			"name": "symbol",
			"outputs": [
				{
					"internalType": "string",
					"name": "",
					"type": "string"
				}
			],
			"stateMutability": "view",
			"type": "function"
		},
		{
			"inputs": [
				{
					"internalType": "address",
					"name": "",
					"type": "address"
				}
			],
			"name": "teamInfos",
			"outputs": [
				{
					"internalType": "uint256",
					"name": "totalAmount",
					"type": "uint256"
				},
				{
					"internalType": "uint8",
					"name": "level",
					"type": "uint8"
				},
				{
					"internalType": "uint256",
					"name": "lastUpdateTime",
					"type": "uint256"
				}
			],
			"stateMutability": "view",
			"type": "function"
		},
		{
			"inputs": [],
			"name": "totalSupply",
			"outputs": [
				{
					"internalType": "uint256",
					"name": "",
					"type": "uint256"
				}
			],
			"stateMutability": "view",
			"type": "function"
		},
		{
			"inputs": [],
			"name": "tradingEnabled",
			"outputs": [
				{
					"internalType": "bool",
					"name": "",
					"type": "bool"
				}
			],
			"stateMutability": "view",
			"type": "function"
		},
		{
			"inputs": [
				{
					"internalType": "address",
					"name": "to",
					"type": "address"
				},
				{
					"internalType": "uint256",
					"name": "value",
					"type": "uint256"
				}
			],
			"name": "transfer",
			"outputs": [
				{
					"internalType": "bool",
					"name": "",
					"type": "bool"
				}
			],
			"stateMutability": "nonpayable",
			"type": "function"
		},
		{
			"inputs": [
				{
					"internalType": "address",
					"name": "from",
					"type": "address"
				},
				{
					"internalType": "address",
					"name": "to",
					"type": "address"
				},
				{
					"internalType": "uint256",
					"name": "value",
					"type": "uint256"
				}
			],
			"name": "transferFrom",
			"outputs": [
				{
					"internalType": "bool",
					"name": "",
					"type": "bool"
				}
			],
			"stateMutability": "nonpayable",
			"type": "function"
		},
		{
			"inputs": [
				{
					"internalType": "address",
					"name": "newOwner",
					"type": "address"
				}
			],
			"name": "transferOwnership",
			"outputs": [],
			"stateMutability": "nonpayable",
			"type": "function"
		},
		{
			"inputs": [],
			"name": "triggerDailyProcess",
			"outputs": [],
			"stateMutability": "nonpayable",
			"type": "function"
		},
		{
			"inputs": [],
			"name": "validPeriod",
			"outputs": [
				{
					"internalType": "uint256",
					"name": "",
					"type": "uint256"
				}
			],
			"stateMutability": "view",
			"type": "function"
		},
		{
			"inputs": [],
			"name": "weth",
			"outputs": [
				{
					"internalType": "address",
					"name": "",
					"type": "address"
				}
			],
			"stateMutability": "view",
			"type": "function"
		},
		{
			"inputs": [
				{
					"internalType": "uint256",
					"name": "amt",
					"type": "uint256"
				}
			],
			"name": "withdrawRewardPool",
			"outputs": [],
			"stateMutability": "nonpayable",
			"type": "function"
		},
		{
			"inputs": [],
			"name": "zeroExitEnabled",
			"outputs": [
				{
					"internalType": "bool",
					"name": "",
					"type": "bool"
				}
			],
			"stateMutability": "view",
			"type": "function"
		},
		{
			"inputs": [],
			"name": "zombieFeeBp",
			"outputs": [
				{
					"internalType": "uint256",
					"name": "",
					"type": "uint256"
				}
			],
			"stateMutability": "view",
			"type": "function"
		},
		{
			"stateMutability": "payable",
			"type": "receive"
		}
	]
}